{"abi":[{"type":"constructor","inputs":[],"stateMutability":"nonpayable"},{"type":"function","name":"check","inputs":[{"name":"profit","type":"uint256","internalType":"uint256"},{"name":"loss","type":"uint256","internalType":"uint256"},{"name":"debtPayment","type":"uint256","internalType":"uint256"},{"name":"debtOutstanding","type":"uint256","internalType":"uint256"},{"name":"totalDebt","type":"uint256","internalType":"uint256"}],"outputs":[{"name":"","type":"bool","internalType":"bool"}],"stateMutability":"view"},{"type":"function","name":"checks","inputs":[{"name":"","type":"address","internalType":"address"}],"outputs":[{"name":"","type":"address","internalType":"address"}],"stateMutability":"view"},{"type":"function","name":"governance","inputs":[],"outputs":[{"name":"","type":"address","internalType":"address"}],"stateMutability":"view"},{"type":"function","name":"lossLimitRatio","inputs":[],"outputs":[{"name":"","type":"uint256","internalType":"uint256"}],"stateMutability":"view"},{"type":"function","name":"management","inputs":[],"outputs":[{"name":"","type":"address","internalType":"address"}],"stateMutability":"view"},{"type":"function","name":"profitLimitRatio","inputs":[],"outputs":[{"name":"","type":"uint256","internalType":"uint256"}],"stateMutability":"view"},{"type":"function","name":"setCheck","inputs":[{"name":"_strategy","type":"address","internalType":"address"},{"name":"_check","type":"address","internalType":"address"}],"outputs":[],"stateMutability":"nonpayable"},{"type":"function","name":"setGovernance","inputs":[{"name":"_governance","type":"address","internalType":"address"}],"outputs":[],"stateMutability":"nonpayable"},{"type":"function","name":"setManagement","inputs":[{"name":"_management","type":"address","internalType":"address"}],"outputs":[],"stateMutability":"nonpayable"},{"type":"function","name":"setProfitLimitRatio","inputs":[{"name":"_profitLimitRatio","type":"uint256","internalType":"uint256"}],"outputs":[],"stateMutability":"nonpayable"},{"type":"function","name":"setStrategyLimits","inputs":[{"name":"_strategy","type":"address","internalType":"address"},{"name":"_profitLimitRatio","type":"uint256","internalType":"uint256"},{"name":"_lossLimitRatio","type":"uint256","internalType":"uint256"}],"outputs":[],"stateMutability":"nonpayable"},{"type":"function","name":"setlossLimitRatio","inputs":[{"name":"_lossLimitRatio","type":"uint256","internalType":"uint256"}],"outputs":[],"stateMutability":"nonpayable"},{"type":"function","name":"strategiesLimits","inputs":[{"name":"","type":"address","internalType":"address"}],"outputs":[{"name":"profitLimitRatio","type":"uint256","internalType":"uint256"},{"name":"lossLimitRatio","type":"uint256","internalType":"uint256"},{"name":"exists","type":"bool","internalType":"bool"}],"stateMutability":"view"}],"bytecode":{"object":"0x608060405234801561000f575f80fd5b50600380546001600160a01b03199081163390811790925560048054909116909117905561012c5f5560646001556107f38061004a5f395ff3fe608060405234801561000f575f80fd5b50600436106100ca575f3560e01c80637d96993211610088578063ab033ea911610063578063ab033ea9146101a6578063c70fa00b146101b9578063c9354337146101dc578063d4a22bde14610229575f80fd5b80637d9699321461017757806388a8d60214610180578063950b3d7314610193575f80fd5b8062fd31f0146100ce5780630ef5ee02146100e35780631afdc5a2146100f657806327fff0db146101095780634a5d09431461014e5780635aa6e67514610164575b5f80fd5b6100e16100dc366004610669565b61023c565b005b6100e16100f1366004610699565b6102f4565b6100e16101043660046106b0565b610345565b6101316101173660046106e1565b60056020525f90815260409020546001600160a01b031681565b6040516001600160a01b0390911681526020015b60405180910390f35b6101565f5481565b604051908152602001610145565b600354610131906001600160a01b031681565b61015660015481565b600454610131906001600160a01b031681565b6100e16101a1366004610699565b6103b1565b6100e16101b43660046106e1565b610401565b6101cc6101c73660046106fa565b61045f565b6040519015158152602001610145565b61020c6101ea3660046106e1565b600260208190525f918252604090912080546001820154919092015460ff1683565b604080519384526020840192909252151590820152606001610145565b6100e16102373660046106e1565b610479565b6003546001600160a01b031633148061025f57506004546001600160a01b031633145b6102845760405162461bcd60e51b815260040161027b90610731565b60405180910390fd5b6127108110610291575f80fd5b612710821061029e575f80fd5b60408051606081018252928352602080840192835260018483018181526001600160a01b03969096165f908152600292839052929092209351845591519083015591519101805460ff1916911515919091179055565b6003546001600160a01b031633148061031757506004546001600160a01b031633145b6103335760405162461bcd60e51b815260040161027b90610731565b6127108110610340575f80fd5b600155565b6003546001600160a01b031633148061036857506004546001600160a01b031633145b6103845760405162461bcd60e51b815260040161027b90610731565b6001600160a01b039182165f90815260056020526040902080546001600160a01b03191691909216179055565b6003546001600160a01b03163314806103d457506004546001600160a01b031633145b6103f05760405162461bcd60e51b815260040161027b90610731565b61271081106103fd575f80fd5b5f55565b6003546001600160a01b0316331461042b5760405162461bcd60e51b815260040161027b90610731565b6001600160a01b03811661043d575f80fd5b600380546001600160a01b0319166001600160a01b0392909216919091179055565b5f61046d86868686866104d7565b90505b95945050505050565b6003546001600160a01b031633146104a35760405162461bcd60e51b815260040161027b90610731565b6001600160a01b0381166104b5575f80fd5b600480546001600160a01b0319166001600160a01b0392909216919091179055565b335f908152600560205260408120546001600160a01b031680610507576104ff878785610594565b915050610470565b60405163e53ec13f60e01b8152600481018890526024810187905260448101869052606481018590523360848201526001600160a01b0382169063e53ec13f9060a401602060405180830381865afa158015610565573d5f803e3d5ffd5b505050506040513d601f19601f820116820180604052508101906105899190610756565b979650505050505050565b335f9081526002602081815260408084208151606081018352815481526001820154938101939093529092015460ff161580159282019290925290829081906105e5575050805160208201516105ed565b50505f546001545b6127106105fa8387610775565b610604919061079e565b871115610616575f9350505050610647565b6127106106238287610775565b61062d919061079e565b86111561063f575f9350505050610647565b600193505050505b9392505050565b80356001600160a01b0381168114610664575f80fd5b919050565b5f805f6060848603121561067b575f80fd5b6106848461064e565b95602085013595506040909401359392505050565b5f602082840312156106a9575f80fd5b5035919050565b5f80604083850312156106c1575f80fd5b6106ca8361064e565b91506106d86020840161064e565b90509250929050565b5f602082840312156106f1575f80fd5b6106478261064e565b5f805f805f60a0868803121561070e575f80fd5b505083359560208501359550604085013594606081013594506080013592509050565b6020808252600b908201526a08585d5d1a1bdc9a5e995960aa1b604082015260600190565b5f60208284031215610766575f80fd5b81518015158114610647575f80fd5b808202811582820484141761079857634e487b7160e01b5f52601160045260245ffd5b92915050565b5f826107b857634e487b7160e01b5f52601260045260245ffd5b50049056fea26469706673582212208e41afcfac5c42610643c1ea1bd31e0fb2d9d3ec2e57a47edff998e57f4f9f5c64736f6c63430008140033","linkReferences":{}},"methodIdentifiers":{"check(uint256,uint256,uint256,uint256,uint256)":"c70fa00b","checks(address)":"27fff0db","governance()":"5aa6e675","lossLimitRatio()":"7d969932","management()":"88a8d602","profitLimitRatio()":"4a5d0943","setCheck(address,address)":"1afdc5a2","setGovernance(address)":"ab033ea9","setManagement(address)":"d4a22bde","setProfitLimitRatio(uint256)":"950b3d73","setStrategyLimits(address,uint256,uint256)":"00fd31f0","setlossLimitRatio(uint256)":"0ef5ee02","strategiesLimits(address)":"c9354337"},"id":2}