{"abi":[{"type":"constructor","inputs":[{"name":"_underlying","type":"address","internalType":"address"},{"name":"_name","type":"string","internalType":"string"},{"name":"_symbol","type":"string","internalType":"string"},{"name":"_decimals","type":"uint8","internalType":"uint8"}],"stateMutability":"nonpayable"},{"type":"function","name":"balanceOf","inputs":[{"name":"account","type":"address","internalType":"address"}],"outputs":[{"name":"","type":"uint256","internalType":"uint256"}],"stateMutability":"view"},{"type":"function","name":"balanceOfUnderlying","inputs":[{"name":"account","type":"address","internalType":"address"}],"outputs":[{"name":"","type":"uint256","internalType":"uint256"}],"stateMutability":"view"},{"type":"function","name":"decimals","inputs":[],"outputs":[{"name":"","type":"uint8","internalType":"uint8"}],"stateMutability":"view"},{"type":"function","name":"exchangeRateCurrent","inputs":[],"outputs":[{"name":"","type":"uint256","internalType":"uint256"}],"stateMutability":"nonpayable"},{"type":"function","name":"exchangeRateStored","inputs":[],"outputs":[{"name":"","type":"uint256","internalType":"uint256"}],"stateMutability":"view"},{"type":"function","name":"getAccruedInterest","inputs":[],"outputs":[{"name":"","type":"uint256","internalType":"uint256"}],"stateMutability":"view"},{"type":"function","name":"mint","inputs":[{"name":"amount","type":"uint256","internalType":"uint256"}],"outputs":[{"name":"","type":"uint256","internalType":"uint256"}],"stateMutability":"nonpayable"},{"type":"function","name":"name","inputs":[],"outputs":[{"name":"","type":"string","internalType":"string"}],"stateMutability":"view"},{"type":"function","name":"redeem","inputs":[{"name":"cTokenAmount","type":"uint256","internalType":"uint256"}],"outputs":[{"name":"","type":"uint256","internalType":"uint256"}],"stateMutability":"nonpayable"},{"type":"function","name":"redeemUnderlying","inputs":[{"name":"underlyingAmount","type":"uint256","internalType":"uint256"}],"outputs":[{"name":"","type":"uint256","internalType":"uint256"}],"stateMutability":"nonpayable"},{"type":"function","name":"setAccruedInterest","inputs":[{"name":"amount","type":"uint256","internalType":"uint256"}],"outputs":[],"stateMutability":"nonpayable"},{"type":"function","name":"setExchangeRate","inputs":[{"name":"exchangeRate","type":"uint256","internalType":"uint256"}],"outputs":[],"stateMutability":"nonpayable"},{"type":"function","name":"setMintFail","inputs":[{"name":"fail","type":"bool","internalType":"bool"}],"outputs":[],"stateMutability":"nonpayable"},{"type":"function","name":"setRedeemFail","inputs":[{"name":"fail","type":"bool","internalType":"bool"}],"outputs":[],"stateMutability":"nonpayable"},{"type":"function","name":"setRedeemUnderlyingFail","inputs":[{"name":"fail","type":"bool","internalType":"bool"}],"outputs":[],"stateMutability":"nonpayable"},{"type":"function","name":"setSupplyRate","inputs":[{"name":"supplyRate","type":"uint256","internalType":"uint256"}],"outputs":[],"stateMutability":"nonpayable"},{"type":"function","name":"supplyRatePerBlock","inputs":[],"outputs":[{"name":"","type":"uint256","internalType":"uint256"}],"stateMutability":"view"},{"type":"function","name":"symbol","inputs":[],"outputs":[{"name":"","type":"string","internalType":"string"}],"stateMutability":"view"},{"type":"function","name":"underlying","inputs":[],"outputs":[{"name":"","type":"address","internalType":"address"}],"stateMutability":"view"}],"bytecode":{"object":"0x608060405234801562000010575f80fd5b5060405162000bdd38038062000bdd833981016040819052620000339162000168565b5f80546001600160a01b0319166001600160a01b03861617905560016200005b848262000291565b5060026200006a838262000291565b506003805460ff191660ff9290921691909117905550506aa56fa5b99019a5c800000060045550666a94d74f430000600555436006554260095562000359565b634e487b7160e01b5f52604160045260245ffd5b5f82601f830112620000ce575f80fd5b81516001600160401b0380821115620000eb57620000eb620000aa565b604051601f8301601f19908116603f01168101908282118183101715620001165762000116620000aa565b8160405283815260209250868385880101111562000132575f80fd5b5f91505b8382101562000155578582018301518183018401529082019062000136565b5f93810190920192909252949350505050565b5f805f80608085870312156200017c575f80fd5b84516001600160a01b038116811462000193575f80fd5b60208601519094506001600160401b0380821115620001b0575f80fd5b620001be88838901620000be565b94506040870151915080821115620001d4575f80fd5b50620001e387828801620000be565b925050606085015160ff81168114620001fa575f80fd5b939692955090935050565b600181811c908216806200021a57607f821691505b6020821081036200023957634e487b7160e01b5f52602260045260245ffd5b50919050565b601f8211156200028c575f81815260208120601f850160051c81016020861015620002675750805b601f850160051c820191505b81811015620002885782815560010162000273565b5050505b505050565b81516001600160401b03811115620002ad57620002ad620000aa565b620002c581620002be845462000205565b846200023f565b602080601f831160018114620002fb575f8415620002e35750858301515b5f19600386901b1c1916600185901b17855562000288565b5f85815260208120601f198616915b828110156200032b578886015182559484019460019091019084016200030a565b50858210156200034957878501515f19600388901b60f8161c191681555b5050505050600190811b01905550565b61087680620003675f395ff3fe608060405234801561000f575f80fd5b506004361061011c575f3560e01c806370a08231116100a9578063bd6d894d1161006e578063bd6d894d1461013e578063bf2d23b514610270578063db006a7514610283578063db068e0e14610296578063e6bdb2d8146102a9575f80fd5b806370a0823114610212578063852a12e31461023a57806395d89b411461024d578063a0712d6814610255578063ae9d70b014610268575f80fd5b80633ed078e9116100ef5780633ed078e9146101825780633f95e273146101ac578063564afa3a146101bf578063608a33d5146101c75780636f307dc3146101e8575f80fd5b806306fdde0314610120578063182df0f51461013e578063313ce567146101505780633af9e6691461016f575b5f80fd5b6101286102d3565b60405161013591906106c3565b60405180910390f35b6004545b604051908152602001610135565b60035461015d9060ff1681565b60405160ff9091168152602001610135565b61014261017d36600461070e565b61035f565b6101aa61019036600461074b565b600b80549115156101000261ff0019909216919091179055565b005b6101aa6101ba366004610766565b600555565b600a54610142565b6101aa6101d536600461074b565b600b805460ff1916911515919091179055565b5f546101fa906001600160a01b031681565b6040516001600160a01b039091168152602001610135565b61014261022036600461070e565b6001600160a01b03165f908152600c602052604090205490565b610142610248366004610766565b6103a0565b6101286104e0565b610142610263366004610766565b6104ed565b600554610142565b6101aa61027e366004610766565b600a55565b610142610291366004610766565b6105cb565b6101aa6102a4366004610766565b600455565b6101aa6102b736600461074b565b600b8054911515620100000262ff000019909216919091179055565b600180546102e09061077d565b80601f016020809104026020016040519081016040528092919081815260200182805461030c9061077d565b80156103575780601f1061032e57610100808354040283529160200191610357565b820191905f5260205f20905b81548152906001019060200180831161033a57829003601f168201915b505050505081565b6004546001600160a01b0382165f908152600c60205260408120549091670de0b6b3a76400009161039091906107c9565b61039a91906107e0565b92915050565b600b545f9062010000900460ff16156103bb57506001919050565b6004545f906103d284670de0b6b3a76400006107c9565b6103dc91906107e0565b335f908152600c60205260409020549091508111156104425760405162461bcd60e51b815260206004820152601b60248201527f496e73756666696369656e742063546f6b656e2062616c616e6365000000000060448201526064015b60405180910390fd5b335f908152600c6020526040812080548392906104609084906107ff565b90915550505f5460405163a9059cbb60e01b8152336004820152602481018590526001600160a01b039091169063a9059cbb906044015b6020604051808303815f875af11580156104b3573d5f803e3d5ffd5b505050506040513d601f19601f820116820180604052508101906104d79190610812565b505f9392505050565b600280546102e09061077d565b600b545f9060ff161561050257506001919050565b5f546040516323b872dd60e01b8152336004820152306024820152604481018490526001600160a01b03909116906323b872dd906064016020604051808303815f875af1158015610555573d5f803e3d5ffd5b505050506040513d601f19601f820116820180604052508101906105799190610812565b506004545f9061059184670de0b6b3a76400006107c9565b61059b91906107e0565b335f908152600c60205260408120805492935083929091906105be90849061082d565b909155505f949350505050565b600b545f90610100900460ff16156105e557506001919050565b335f908152600c60205260409020548211156106435760405162461bcd60e51b815260206004820152601b60248201527f496e73756666696369656e742063546f6b656e2062616c616e636500000000006044820152606401610439565b5f670de0b6b3a76400006004548461065b91906107c9565b61066591906107e0565b335f908152600c60205260408120805492935085929091906106889084906107ff565b90915550505f5460405163a9059cbb60e01b8152336004820152602481018390526001600160a01b039091169063a9059cbb90604401610497565b5f6020808352835180828501525f5b818110156106ee578581018301518582016040015282016106d2565b505f604082860101526040601f19601f8301168501019250505092915050565b5f6020828403121561071e575f80fd5b81356001600160a01b0381168114610734575f80fd5b9392505050565b8015158114610748575f80fd5b50565b5f6020828403121561075b575f80fd5b81356107348161073b565b5f60208284031215610776575f80fd5b5035919050565b600181811c9082168061079157607f821691505b6020821081036107af57634e487b7160e01b5f52602260045260245ffd5b50919050565b634e487b7160e01b5f52601160045260245ffd5b808202811582820484141761039a5761039a6107b5565b5f826107fa57634e487b7160e01b5f52601260045260245ffd5b500490565b8181038181111561039a5761039a6107b5565b5f60208284031215610822575f80fd5b81516107348161073b565b8082018082111561039a5761039a6107b556fea26469706673582212203bb9f319c7731cf4fa7333d3a51b8587adfc3f65d28cbbcf491a0f9724b2550064736f6c63430008140033","linkReferences":{}},"methodIdentifiers":{"balanceOf(address)":"70a08231","balanceOfUnderlying(address)":"3af9e669","decimals()":"313ce567","exchangeRateCurrent()":"bd6d894d","exchangeRateStored()":"182df0f5","getAccruedInterest()":"564afa3a","mint(uint256)":"a0712d68","name()":"06fdde03","redeem(uint256)":"db006a75","redeemUnderlying(uint256)":"852a12e3","setAccruedInterest(uint256)":"bf2d23b5","setExchangeRate(uint256)":"db068e0e","setMintFail(bool)":"608a33d5","setRedeemFail(bool)":"3ed078e9","setRedeemUnderlyingFail(bool)":"e6bdb2d8","setSupplyRate(uint256)":"3f95e273","supplyRatePerBlock()":"ae9d70b0","symbol()":"95d89b41","underlying()":"6f307dc3"},"id":26}