{"abi":[{"type":"constructor","inputs":[],"stateMutability":"nonpayable"},{"type":"function","name":"API_VERSION","inputs":[],"outputs":[{"name":"","type":"string","internalType":"string"}],"stateMutability":"view"},{"type":"function","name":"DEGRADATION_COEFFICIENT","inputs":[],"outputs":[{"name":"","type":"uint256","internalType":"uint256"}],"stateMutability":"view"},{"type":"function","name":"DOMAIN_SEPARATOR","inputs":[],"outputs":[{"name":"","type":"bytes32","internalType":"bytes32"}],"stateMutability":"view"},{"type":"function","name":"DOMAIN_TYPE_HASH","inputs":[],"outputs":[{"name":"","type":"bytes32","internalType":"bytes32"}],"stateMutability":"view"},{"type":"function","name":"MAXIMUM_STRATEGIES","inputs":[],"outputs":[{"name":"","type":"uint256","internalType":"uint256"}],"stateMutability":"view"},{"type":"function","name":"MAX_BPS","inputs":[],"outputs":[{"name":"","type":"uint256","internalType":"uint256"}],"stateMutability":"view"},{"type":"function","name":"PERMIT_TYPE_HASH","inputs":[],"outputs":[{"name":"","type":"bytes32","internalType":"bytes32"}],"stateMutability":"view"},{"type":"function","name":"SECS_PER_YEAR","inputs":[],"outputs":[{"name":"","type":"uint256","internalType":"uint256"}],"stateMutability":"view"},{"type":"function","name":"_shareValuePublic_","inputs":[{"name":"shares","type":"uint256","internalType":"uint256"}],"outputs":[{"name":"","type":"uint256","internalType":"uint256"}],"stateMutability":"view"},{"type":"function","name":"_sharesForAmountPublic_","inputs":[{"name":"amount","type":"uint256","internalType":"uint256"}],"outputs":[{"name":"","type":"uint256","internalType":"uint256"}],"stateMutability":"view"},{"type":"function","name":"acceptGovernance","inputs":[],"outputs":[],"stateMutability":"nonpayable"},{"type":"function","name":"acceptRoleManager","inputs":[],"outputs":[],"stateMutability":"nonpayable"},{"type":"function","name":"accountant","inputs":[],"outputs":[{"name":"","type":"address","internalType":"address"}],"stateMutability":"view"},{"type":"function","name":"activation","inputs":[],"outputs":[{"name":"","type":"uint256","internalType":"uint256"}],"stateMutability":"view"},{"type":"function","name":"addRole","inputs":[{"name":"_account","type":"address","internalType":"address"},{"name":"_role","type":"uint256","internalType":"uint256"}],"outputs":[],"stateMutability":"nonpayable"},{"type":"function","name":"addStrategy","inputs":[{"name":"strategy","type":"address","internalType":"address"},{"name":"_debtRatio","type":"uint256","internalType":"uint256"},{"name":"minDebtPerHarvest","type":"uint256","internalType":"uint256"},{"name":"maxDebtPerHarvest","type":"uint256","internalType":"uint256"},{"name":"_performanceFee","type":"uint256","internalType":"uint256"}],"outputs":[],"stateMutability":"nonpayable"},{"type":"function","name":"addStrategyToQueue","inputs":[{"name":"strategy","type":"address","internalType":"address"}],"outputs":[],"stateMutability":"nonpayable"},{"type":"function","name":"allowance","inputs":[{"name":"","type":"address","internalType":"address"},{"name":"","type":"address","internalType":"address"}],"outputs":[{"name":"","type":"uint256","internalType":"uint256"}],"stateMutability":"view"},{"type":"function","name":"apiVersion","inputs":[],"outputs":[{"name":"","type":"string","internalType":"string"}],"stateMutability":"pure"},{"type":"function","name":"approve","inputs":[{"name":"spender","type":"address","internalType":"address"},{"name":"amount","type":"uint256","internalType":"uint256"}],"outputs":[{"name":"","type":"bool","internalType":"bool"}],"stateMutability":"nonpayable"},{"type":"function","name":"autoAllocate","inputs":[],"outputs":[{"name":"","type":"bool","internalType":"bool"}],"stateMutability":"view"},{"type":"function","name":"auto_allocate","inputs":[{"name":"_auto","type":"bool","internalType":"bool"}],"outputs":[],"stateMutability":"nonpayable"},{"type":"function","name":"availableDepositLimit","inputs":[],"outputs":[{"name":"","type":"uint256","internalType":"uint256"}],"stateMutability":"view"},{"type":"function","name":"balanceOf","inputs":[{"name":"","type":"address","internalType":"address"}],"outputs":[{"name":"","type":"uint256","internalType":"uint256"}],"stateMutability":"view"},{"type":"function","name":"creditAvailable","inputs":[{"name":"strategy","type":"address","internalType":"address"}],"outputs":[{"name":"","type":"uint256","internalType":"uint256"}],"stateMutability":"view"},{"type":"function","name":"debtOutstanding","inputs":[{"name":"strategy","type":"address","internalType":"address"}],"outputs":[{"name":"","type":"uint256","internalType":"uint256"}],"stateMutability":"view"},{"type":"function","name":"debtRatio","inputs":[],"outputs":[{"name":"","type":"uint256","internalType":"uint256"}],"stateMutability":"view"},{"type":"function","name":"decimals","inputs":[],"outputs":[{"name":"","type":"uint8","internalType":"uint8"}],"stateMutability":"view"},{"type":"function","name":"decreaseAllowance","inputs":[{"name":"spender","type":"address","internalType":"address"},{"name":"amount","type":"uint256","internalType":"uint256"}],"outputs":[{"name":"","type":"bool","internalType":"bool"}],"stateMutability":"nonpayable"},{"type":"function","name":"default_queue","inputs":[{"name":"_useDefault","type":"bool","internalType":"bool"}],"outputs":[],"stateMutability":"nonpayable"},{"type":"function","name":"deposit","inputs":[{"name":"_amount","type":"uint256","internalType":"uint256"},{"name":"recipient","type":"address","internalType":"address"}],"outputs":[{"name":"","type":"uint256","internalType":"uint256"}],"stateMutability":"nonpayable"},{"type":"function","name":"depositLimit","inputs":[],"outputs":[{"name":"","type":"uint256","internalType":"uint256"}],"stateMutability":"view"},{"type":"function","name":"depositLimitModule","inputs":[],"outputs":[{"name":"","type":"address","internalType":"address"}],"stateMutability":"view"},{"type":"function","name":"emergencyShutdown","inputs":[],"outputs":[{"name":"","type":"bool","internalType":"bool"}],"stateMutability":"view"},{"type":"function","name":"expectedReturn","inputs":[{"name":"strategy","type":"address","internalType":"address"}],"outputs":[{"name":"","type":"uint256","internalType":"uint256"}],"stateMutability":"view"},{"type":"function","name":"governance","inputs":[],"outputs":[{"name":"","type":"address","internalType":"address"}],"stateMutability":"view"},{"type":"function","name":"guardian","inputs":[],"outputs":[{"name":"","type":"address","internalType":"address"}],"stateMutability":"view"},{"type":"function","name":"increaseAllowance","inputs":[{"name":"spender","type":"address","internalType":"address"},{"name":"amount","type":"uint256","internalType":"uint256"}],"outputs":[{"name":"","type":"bool","internalType":"bool"}],"stateMutability":"nonpayable"},{"type":"function","name":"initialize","inputs":[{"name":"_token","type":"address","internalType":"address"},{"name":"_governance","type":"address","internalType":"address"},{"name":"_rewards","type":"address","internalType":"address"},{"name":"nameOverride","type":"string","internalType":"string"},{"name":"symbolOverride","type":"string","internalType":"string"},{"name":"_guardian","type":"address","internalType":"address"},{"name":"_management","type":"address","internalType":"address"}],"outputs":[],"stateMutability":"nonpayable"},{"type":"function","name":"lastReport","inputs":[],"outputs":[{"name":"","type":"uint256","internalType":"uint256"}],"stateMutability":"view"},{"type":"function","name":"lockedProfit","inputs":[],"outputs":[{"name":"","type":"uint256","internalType":"uint256"}],"stateMutability":"view"},{"type":"function","name":"lockedProfitDegradation","inputs":[],"outputs":[{"name":"","type":"uint256","internalType":"uint256"}],"stateMutability":"view"},{"type":"function","name":"management","inputs":[],"outputs":[{"name":"","type":"address","internalType":"address"}],"stateMutability":"view"},{"type":"function","name":"managementFee","inputs":[],"outputs":[{"name":"","type":"uint256","internalType":"uint256"}],"stateMutability":"view"},{"type":"function","name":"maxAvailableShares","inputs":[],"outputs":[{"name":"","type":"uint256","internalType":"uint256"}],"stateMutability":"view"},{"type":"function","name":"migrateStrategy","inputs":[{"name":"oldVersion","type":"address","internalType":"address"},{"name":"newVersion","type":"address","internalType":"address"}],"outputs":[],"stateMutability":"nonpayable"},{"type":"function","name":"minTotalIdle","inputs":[],"outputs":[{"name":"","type":"uint256","internalType":"uint256"}],"stateMutability":"view"},{"type":"function","name":"mint","inputs":[{"name":"shares","type":"uint256","internalType":"uint256"},{"name":"recipient","type":"address","internalType":"address"}],"outputs":[{"name":"","type":"uint256","internalType":"uint256"}],"stateMutability":"nonpayable"},{"type":"function","name":"name","inputs":[],"outputs":[{"name":"","type":"string","internalType":"string"}],"stateMutability":"view"},{"type":"function","name":"nonces","inputs":[{"name":"","type":"address","internalType":"address"}],"outputs":[{"name":"","type":"uint256","internalType":"uint256"}],"stateMutability":"view"},{"type":"function","name":"pendingGovernance","inputs":[],"outputs":[{"name":"","type":"address","internalType":"address"}],"stateMutability":"view"},{"type":"function","name":"pendingRoleManager","inputs":[],"outputs":[{"name":"","type":"address","internalType":"address"}],"stateMutability":"view"},{"type":"function","name":"performanceFee","inputs":[],"outputs":[{"name":"","type":"uint256","internalType":"uint256"}],"stateMutability":"view"},{"type":"function","name":"permit","inputs":[{"name":"owner","type":"address","internalType":"address"},{"name":"spender","type":"address","internalType":"address"},{"name":"value","type":"uint256","internalType":"uint256"},{"name":"deadline","type":"uint256","internalType":"uint256"},{"name":"signature","type":"bytes","internalType":"bytes"}],"outputs":[{"name":"","type":"bool","internalType":"bool"}],"stateMutability":"nonpayable"},{"type":"function","name":"previewDeposit","inputs":[{"name":"assets","type":"uint256","internalType":"uint256"}],"outputs":[{"name":"","type":"uint256","internalType":"uint256"}],"stateMutability":"view"},{"type":"function","name":"previewMint","inputs":[{"name":"shares_","type":"uint256","internalType":"uint256"}],"outputs":[{"name":"","type":"uint256","internalType":"uint256"}],"stateMutability":"view"},{"type":"function","name":"pricePerShare","inputs":[],"outputs":[{"name":"","type":"uint256","internalType":"uint256"}],"stateMutability":"view"},{"type":"function","name":"proxiableUUID","inputs":[],"outputs":[{"name":"","type":"bytes32","internalType":"bytes32"}],"stateMutability":"view"},{"type":"function","name":"redeemShares","inputs":[{"name":"shares","type":"uint256","internalType":"uint256"},{"name":"recipient","type":"address","internalType":"address"},{"name":"owner","type":"address","internalType":"address"}],"outputs":[{"name":"","type":"uint256","internalType":"uint256"}],"stateMutability":"nonpayable"},{"type":"function","name":"removeRole","inputs":[{"name":"_account","type":"address","internalType":"address"},{"name":"_role","type":"uint256","internalType":"uint256"}],"outputs":[],"stateMutability":"nonpayable"},{"type":"function","name":"removeStrategyFromQueue","inputs":[{"name":"strategy","type":"address","internalType":"address"}],"outputs":[],"stateMutability":"nonpayable"},{"type":"function","name":"report","inputs":[{"name":"gain","type":"uint256","internalType":"uint256"},{"name":"loss","type":"uint256","internalType":"uint256"},{"name":"_debtPayment","type":"uint256","internalType":"uint256"}],"outputs":[{"name":"","type":"uint256","internalType":"uint256"}],"stateMutability":"nonpayable"},{"type":"function","name":"revokeStrategy","inputs":[{"name":"strategy","type":"address","internalType":"address"}],"outputs":[],"stateMutability":"nonpayable"},{"type":"function","name":"rewards","inputs":[],"outputs":[{"name":"","type":"address","internalType":"address"}],"stateMutability":"view"},{"type":"function","name":"roleManager","inputs":[],"outputs":[{"name":"","type":"address","internalType":"address"}],"stateMutability":"view"},{"type":"function","name":"roles","inputs":[{"name":"","type":"address","internalType":"address"}],"outputs":[{"name":"","type":"uint256","internalType":"uint256"}],"stateMutability":"view"},{"type":"function","name":"setAccountant","inputs":[{"name":"_acc","type":"address","internalType":"address"}],"outputs":[],"stateMutability":"nonpayable"},{"type":"function","name":"setDepositLimit","inputs":[{"name":"limit","type":"uint256","internalType":"uint256"}],"outputs":[],"stateMutability":"nonpayable"},{"type":"function","name":"setDepositLimitModule","inputs":[{"name":"_module","type":"address","internalType":"address"},{"name":"_override","type":"bool","internalType":"bool"}],"outputs":[],"stateMutability":"nonpayable"},{"type":"function","name":"setEmergencyShutdown","inputs":[{"name":"active","type":"bool","internalType":"bool"}],"outputs":[],"stateMutability":"nonpayable"},{"type":"function","name":"setGovernance","inputs":[{"name":"_gov","type":"address","internalType":"address"}],"outputs":[],"stateMutability":"nonpayable"},{"type":"function","name":"setGuardian","inputs":[{"name":"_guardian","type":"address","internalType":"address"}],"outputs":[],"stateMutability":"nonpayable"},{"type":"function","name":"setLockedProfitDegradation","inputs":[{"name":"degradation","type":"uint256","internalType":"uint256"}],"outputs":[],"stateMutability":"nonpayable"},{"type":"function","name":"setManagement","inputs":[{"name":"_mgmt","type":"address","internalType":"address"}],"outputs":[],"stateMutability":"nonpayable"},{"type":"function","name":"setManagementFee","inputs":[{"name":"fee","type":"uint256","internalType":"uint256"}],"outputs":[],"stateMutability":"nonpayable"},{"type":"function","name":"setMinTotalIdle","inputs":[{"name":"_min","type":"uint256","internalType":"uint256"}],"outputs":[],"stateMutability":"nonpayable"},{"type":"function","name":"setName","inputs":[{"name":"_name","type":"string","internalType":"string"}],"outputs":[],"stateMutability":"nonpayable"},{"type":"function","name":"setPerformanceFee","inputs":[{"name":"fee","type":"uint256","internalType":"uint256"}],"outputs":[],"stateMutability":"nonpayable"},{"type":"function","name":"setProfitMaxUnlockTime","inputs":[{"name":"_time","type":"uint256","internalType":"uint256"}],"outputs":[],"stateMutability":"nonpayable"},{"type":"function","name":"setRewards","inputs":[{"name":"_rewards","type":"address","internalType":"address"}],"outputs":[],"stateMutability":"nonpayable"},{"type":"function","name":"setRole","inputs":[{"name":"_account","type":"address","internalType":"address"},{"name":"_role","type":"uint256","internalType":"uint256"}],"outputs":[],"stateMutability":"nonpayable"},{"type":"function","name":"setSymbol","inputs":[{"name":"_symbol","type":"string","internalType":"string"}],"outputs":[],"stateMutability":"nonpayable"},{"type":"function","name":"setWithdrawalLimitModule","inputs":[{"name":"_module","type":"address","internalType":"address"}],"outputs":[],"stateMutability":"nonpayable"},{"type":"function","name":"setWithdrawalQueue","inputs":[{"name":"queue","type":"address[20]","internalType":"address[20]"}],"outputs":[],"stateMutability":"nonpayable"},{"type":"function","name":"strategies","inputs":[{"name":"","type":"address","internalType":"address"}],"outputs":[{"name":"performanceFee","type":"uint256","internalType":"uint256"},{"name":"activation","type":"uint256","internalType":"uint256"},{"name":"debtRatio","type":"uint256","internalType":"uint256"},{"name":"minDebtPerHarvest","type":"uint256","internalType":"uint256"},{"name":"maxDebtPerHarvest","type":"uint256","internalType":"uint256"},{"name":"lastReport","type":"uint256","internalType":"uint256"},{"name":"totalDebt","type":"uint256","internalType":"uint256"},{"name":"totalGain","type":"uint256","internalType":"uint256"},{"name":"totalLoss","type":"uint256","internalType":"uint256"}],"stateMutability":"view"},{"type":"function","name":"sweep","inputs":[{"name":"_token","type":"address","internalType":"address"},{"name":"amount","type":"uint256","internalType":"uint256"}],"outputs":[],"stateMutability":"nonpayable"},{"type":"function","name":"symbol","inputs":[],"outputs":[{"name":"","type":"string","internalType":"string"}],"stateMutability":"view"},{"type":"function","name":"token","inputs":[],"outputs":[{"name":"","type":"address","internalType":"contract IERC20"}],"stateMutability":"view"},{"type":"function","name":"totalAssets","inputs":[],"outputs":[{"name":"","type":"uint256","internalType":"uint256"}],"stateMutability":"view"},{"type":"function","name":"totalDebt","inputs":[],"outputs":[{"name":"","type":"uint256","internalType":"uint256"}],"stateMutability":"view"},{"type":"function","name":"totalIdle","inputs":[],"outputs":[{"name":"","type":"uint256","internalType":"uint256"}],"stateMutability":"view"},{"type":"function","name":"totalSupply","inputs":[],"outputs":[{"name":"","type":"uint256","internalType":"uint256"}],"stateMutability":"view"},{"type":"function","name":"transfer","inputs":[{"name":"to","type":"address","internalType":"address"},{"name":"amount","type":"uint256","internalType":"uint256"}],"outputs":[{"name":"","type":"bool","internalType":"bool"}],"stateMutability":"nonpayable"},{"type":"function","name":"transferFrom","inputs":[{"name":"from","type":"address","internalType":"address"},{"name":"to","type":"address","internalType":"address"},{"name":"amount","type":"uint256","internalType":"uint256"}],"outputs":[{"name":"","type":"bool","internalType":"bool"}],"stateMutability":"nonpayable"},{"type":"function","name":"transferRoleManager","inputs":[{"name":"_pendingRoleManager","type":"address","internalType":"address"}],"outputs":[],"stateMutability":"nonpayable"},{"type":"function","name":"transferShares","inputs":[{"name":"to","type":"address","internalType":"address"},{"name":"amount","type":"uint256","internalType":"uint256"}],"outputs":[],"stateMutability":"nonpayable"},{"type":"function","name":"updateStrategyDebtRatio","inputs":[{"name":"strategy","type":"address","internalType":"address"},{"name":"_debtRatio","type":"uint256","internalType":"uint256"}],"outputs":[],"stateMutability":"nonpayable"},{"type":"function","name":"updateStrategyMaxDebtPerHarvest","inputs":[{"name":"strategy","type":"address","internalType":"address"},{"name":"m","type":"uint256","internalType":"uint256"}],"outputs":[],"stateMutability":"nonpayable"},{"type":"function","name":"updateStrategyMinDebtPerHarvest","inputs":[{"name":"strategy","type":"address","internalType":"address"},{"name":"m","type":"uint256","internalType":"uint256"}],"outputs":[],"stateMutability":"nonpayable"},{"type":"function","name":"updateStrategyPerformanceFee","inputs":[{"name":"strategy","type":"address","internalType":"address"},{"name":"pf","type":"uint256","internalType":"uint256"}],"outputs":[],"stateMutability":"nonpayable"},{"type":"function","name":"upgradeTo","inputs":[{"name":"newImplementation","type":"address","internalType":"address"}],"outputs":[],"stateMutability":"nonpayable"},{"type":"function","name":"upgradeToAndCall","inputs":[{"name":"newImplementation","type":"address","internalType":"address"},{"name":"data","type":"bytes","internalType":"bytes"}],"outputs":[],"stateMutability":"payable"},{"type":"function","name":"useDefaultQueue","inputs":[],"outputs":[{"name":"","type":"bool","internalType":"bool"}],"stateMutability":"view"},{"type":"function","name":"withdraw","inputs":[{"name":"assets","type":"uint256","internalType":"uint256"},{"name":"recipient","type":"address","internalType":"address"},{"name":"maxLoss","type":"uint256","internalType":"uint256"}],"outputs":[{"name":"","type":"uint256","internalType":"uint256"}],"stateMutability":"nonpayable"},{"type":"function","name":"withdrawLimitModule","inputs":[],"outputs":[{"name":"","type":"address","internalType":"address"}],"stateMutability":"view"},{"type":"function","name":"withdrawalQueue","inputs":[{"name":"","type":"uint256","internalType":"uint256"}],"outputs":[{"name":"","type":"address","internalType":"address"}],"stateMutability":"view"},{"type":"event","name":"AdminChanged","inputs":[{"name":"previousAdmin","type":"address","indexed":false,"internalType":"address"},{"name":"newAdmin","type":"address","indexed":false,"internalType":"address"}],"anonymous":false},{"type":"event","name":"Approval","inputs":[{"name":"owner","type":"address","indexed":true,"internalType":"address"},{"name":"spender","type":"address","indexed":true,"internalType":"address"},{"name":"value","type":"uint256","indexed":false,"internalType":"uint256"}],"anonymous":false},{"type":"event","name":"BeaconUpgraded","inputs":[{"name":"beacon","type":"address","indexed":true,"internalType":"address"}],"anonymous":false},{"type":"event","name":"Deposit","inputs":[{"name":"recipient","type":"address","indexed":true,"internalType":"address"},{"name":"shares","type":"uint256","indexed":false,"internalType":"uint256"},{"name":"amount","type":"uint256","indexed":false,"internalType":"uint256"}],"anonymous":false},{"type":"event","name":"EmergencyShutdown","inputs":[{"name":"active","type":"bool","indexed":false,"internalType":"bool"}],"anonymous":false},{"type":"event","name":"FeeReport","inputs":[{"name":"management_fee","type":"uint256","indexed":false,"internalType":"uint256"},{"name":"performance_fee","type":"uint256","indexed":false,"internalType":"uint256"},{"name":"strategist_fee","type":"uint256","indexed":false,"internalType":"uint256"},{"name":"duration","type":"uint256","indexed":false,"internalType":"uint256"}],"anonymous":false},{"type":"event","name":"Initialized","inputs":[{"name":"version","type":"uint8","indexed":false,"internalType":"uint8"}],"anonymous":false},{"type":"event","name":"LockedProfitDegradationUpdated","inputs":[{"name":"value","type":"uint256","indexed":false,"internalType":"uint256"}],"anonymous":false},{"type":"event","name":"NewPendingGovernance","inputs":[{"name":"pendingGovernance","type":"address","indexed":true,"internalType":"address"}],"anonymous":false},{"type":"event","name":"RoleSet","inputs":[{"name":"account","type":"address","indexed":true,"internalType":"address"},{"name":"role","type":"uint256","indexed":false,"internalType":"uint256"}],"anonymous":false},{"type":"event","name":"StrategyAdded","inputs":[{"name":"strategy","type":"address","indexed":true,"internalType":"address"},{"name":"debtRatio","type":"uint256","indexed":false,"internalType":"uint256"},{"name":"minDebtPerHarvest","type":"uint256","indexed":false,"internalType":"uint256"},{"name":"maxDebtPerHarvest","type":"uint256","indexed":false,"internalType":"uint256"},{"name":"performanceFee","type":"uint256","indexed":false,"internalType":"uint256"}],"anonymous":false},{"type":"event","name":"StrategyAddedToQueue","inputs":[{"name":"strategy","type":"address","indexed":true,"internalType":"address"}],"anonymous":false},{"type":"event","name":"StrategyMigrated","inputs":[{"name":"oldVersion","type":"address","indexed":true,"internalType":"address"},{"name":"newVersion","type":"address","indexed":true,"internalType":"address"}],"anonymous":false},{"type":"event","name":"StrategyRemovedFromQueue","inputs":[{"name":"strategy","type":"address","indexed":true,"internalType":"address"}],"anonymous":false},{"type":"event","name":"StrategyReported","inputs":[{"name":"strategy","type":"address","indexed":true,"internalType":"address"},{"name":"gain","type":"uint256","indexed":false,"internalType":"uint256"},{"name":"loss","type":"uint256","indexed":false,"internalType":"uint256"},{"name":"debtPaid","type":"uint256","indexed":false,"internalType":"uint256"},{"name":"totalGain","type":"uint256","indexed":false,"internalType":"uint256"},{"name":"totalLoss","type":"uint256","indexed":false,"internalType":"uint256"},{"name":"totalDebt","type":"uint256","indexed":false,"internalType":"uint256"},{"name":"debtAdded","type":"uint256","indexed":false,"internalType":"uint256"},{"name":"debtRatio","type":"uint256","indexed":false,"internalType":"uint256"}],"anonymous":false},{"type":"event","name":"StrategyRevoked","inputs":[{"name":"strategy","type":"address","indexed":true,"internalType":"address"}],"anonymous":false},{"type":"event","name":"StrategyUpdateDebtRatio","inputs":[{"name":"strategy","type":"address","indexed":true,"internalType":"address"},{"name":"debtRatio","type":"uint256","indexed":false,"internalType":"uint256"}],"anonymous":false},{"type":"event","name":"StrategyUpdateMaxDebtPerHarvest","inputs":[{"name":"strategy","type":"address","indexed":true,"internalType":"address"},{"name":"maxDebtPerHarvest","type":"uint256","indexed":false,"internalType":"uint256"}],"anonymous":false},{"type":"event","name":"StrategyUpdateMinDebtPerHarvest","inputs":[{"name":"strategy","type":"address","indexed":true,"internalType":"address"},{"name":"minDebtPerHarvest","type":"uint256","indexed":false,"internalType":"uint256"}],"anonymous":false},{"type":"event","name":"StrategyUpdatePerformanceFee","inputs":[{"name":"strategy","type":"address","indexed":true,"internalType":"address"},{"name":"performanceFee","type":"uint256","indexed":false,"internalType":"uint256"}],"anonymous":false},{"type":"event","name":"Sweep","inputs":[{"name":"token","type":"address","indexed":true,"internalType":"address"},{"name":"amount","type":"uint256","indexed":false,"internalType":"uint256"}],"anonymous":false},{"type":"event","name":"Transfer","inputs":[{"name":"sender","type":"address","indexed":true,"internalType":"address"},{"name":"receiver","type":"address","indexed":true,"internalType":"address"},{"name":"value","type":"uint256","indexed":false,"internalType":"uint256"}],"anonymous":false},{"type":"event","name":"UpdateAccountant","inputs":[{"name":"accountant","type":"address","indexed":true,"internalType":"address"}],"anonymous":false},{"type":"event","name":"UpdateAutoAllocate","inputs":[{"name":"autoAllocate","type":"bool","indexed":false,"internalType":"bool"}],"anonymous":false},{"type":"event","name":"UpdateDepositLimit","inputs":[{"name":"depositLimit","type":"uint256","indexed":false,"internalType":"uint256"}],"anonymous":false},{"type":"event","name":"UpdateDepositLimitModule","inputs":[{"name":"module","type":"address","indexed":true,"internalType":"address"}],"anonymous":false},{"type":"event","name":"UpdateFutureRoleManager","inputs":[{"name":"pendingRoleManager","type":"address","indexed":false,"internalType":"address"}],"anonymous":false},{"type":"event","name":"UpdateGovernance","inputs":[{"name":"governance","type":"address","indexed":false,"internalType":"address"}],"anonymous":false},{"type":"event","name":"UpdateGuardian","inputs":[{"name":"guardian","type":"address","indexed":false,"internalType":"address"}],"anonymous":false},{"type":"event","name":"UpdateManagement","inputs":[{"name":"management","type":"address","indexed":false,"internalType":"address"}],"anonymous":false},{"type":"event","name":"UpdateManagementFee","inputs":[{"name":"managementFee","type":"uint256","indexed":false,"internalType":"uint256"}],"anonymous":false},{"type":"event","name":"UpdateMinimumTotalIdle","inputs":[{"name":"minTotalIdle","type":"uint256","indexed":false,"internalType":"uint256"}],"anonymous":false},{"type":"event","name":"UpdatePerformanceFee","inputs":[{"name":"performanceFee","type":"uint256","indexed":false,"internalType":"uint256"}],"anonymous":false},{"type":"event","name":"UpdateProfitMaxUnlockTime","inputs":[{"name":"time","type":"uint256","indexed":false,"internalType":"uint256"}],"anonymous":false},{"type":"event","name":"UpdateRewards","inputs":[{"name":"rewards","type":"address","indexed":false,"internalType":"address"}],"anonymous":false},{"type":"event","name":"UpdateRoleManager","inputs":[{"name":"roleManager","type":"address","indexed":false,"internalType":"address"}],"anonymous":false},{"type":"event","name":"UpdateUseDefaultQueue","inputs":[{"name":"useDefaultQueue","type":"bool","indexed":false,"internalType":"bool"}],"anonymous":false},{"type":"event","name":"UpdateWithdrawLimitModule","inputs":[{"name":"module","type":"address","indexed":true,"internalType":"address"}],"anonymous":false},{"type":"event","name":"UpdateWithdrawalQueue","inputs":[{"name":"queue","type":"address[20]","indexed":false,"internalType":"address[20]"}],"anonymous":false},{"type":"event","name":"Upgraded","inputs":[{"name":"implementation","type":"address","indexed":true,"internalType":"address"}],"anonymous":false},{"type":"event","name":"Withdraw","inputs":[{"name":"recipient","type":"address","indexed":true,"internalType":"address"},{"name":"shares","type":"uint256","indexed":false,"internalType":"uint256"},{"name":"amount","type":"uint256","indexed":false,"internalType":"uint256"}],"anonymous":false},{"type":"event","name":"WithdrawFromStrategy","inputs":[{"name":"strategy","type":"address","indexed":true,"internalType":"address"},{"name":"totalDebt","type":"uint256","indexed":false,"internalType":"uint256"},{"name":"loss","type":"uint256","indexed":false,"internalType":"uint256"}],"anonymous":false}],"bytecode":{"object":"0x60a08060405234620000e35730608052600180555f549060ff8260081c1662000091575060ff8082160362000056575b604051616a889081620000e88239608051818181613b7401528181613c9b01526141d90152f35b60ff90811916175f557f7f26b83ff96e1f2b6a682f133852f6798a09c465da95921460cefb3847402498602060405160ff8152a15f6200002f565b62461bcd60e51b815260206004820152602760248201527f496e697469616c697a61626c653a20636f6e747261637420697320696e697469604482015266616c697a696e6760c81b6064820152608490fd5b5f80fdfe6080806040526004361015610012575f80fd5b5f3560e01c908162435da514614c925750806301e1d11414614c7157806306a52a071461156257806306fdde0314614be1578063076d894214610719578063095ea7b314614b7f57806314b4e26e1461480d57806314c6440214614712578063153c27c4146146cc57806318160ddd146146af578063238efcbc1461460857806323b872dd1461450b5780632582941014612bdc57806328998af0146144ed578063313ce567146144cd57806333586b67146144925780633403c2fc146144705780633629c8de146144535780633644e515146144395780633659cfe6146141b5578063395093511461416e57806339ebf823146140de57806342232716146140c157806344b81396146140a4578063452a93201461407c5780634757a15614613f8b57806348ea712714613f1d5780634d4bb19714613ee35780634f1ef28614613c4c5780634fb3ccc514613c2457806352d1902d14613b62578063538baeab1461327b5780635aa6e67514613253578063629b9142146131df5780636cb56d19146131a05780636d020808146130f95780636e553f6514612f045780636ea056a914612d9d57806370897b2314612d3657806370a0823114612cfe57806374277a6314612c8f57806375de290214612c12578063772d231214612bf757806377e3b26714612bdc57806379db5f6714612b6657806379f32e8914612ac05780637a55036514612a1e5780637bf48da5146124e95780637c6a4f24146123385780637ecebe00146123005780637fde1c8a1461228b578063877887821461226e57806388a8d602146122465780638a0dac4a146121865780638fcb4e5b1461216a57806391986003146121425780639414841514611e0b57806394bf804d14611cf157806395d89b4114611c295780639937464214611bf157806399530b0614611bc55780639aa7df9414611ba85780639e34e34814611b805780639ec5a89414611b585780639fd5a6cf146118bd578063a1d9bafc14611899578063a457c2d71461181a578063a6f7f5d6146117fd578063a9059cbb146117cc578063a964e98b14611704578063aad87162146116ab578063ab033ea91461163d578063b0890e98146115b8578063b22439f514611567578063b3d7f6b914611562578063b84c82461461145d578063bb994d481461136c578063bbe4eb491461134a578063bdc8144b146112f1578063bdcf36bb146112b6578063c0993eea1461127c578063c3535b521461125f578063c47f002714611146578063c822adda14611110578063cea55f57146110f3578063d0194ed61461105d578063d250f0881461103b578063d4a22bde14610fc7578063d764801314610f84578063da7f243714610f16578063dd62ed3e14610ec9578063df69b22a14610de0578063e2d4a86014610dc3578063e415a57414610d9b578063e63697c8146108e4578063e722befe14610827578063ec38a86214610760578063ecf7085814610743578063ef27c0ad1461071e578063ef8b30f714610719578063f39c38a0146106f1578063f76e4caa146105ad578063fc0c546a14610585578063fc7b9c1814610568578063fd967f471461054c5763fe56e232146104a9575f80fd5b34610548576020366003190112610548576004356104d260018060a01b03600954163314615178565b612710811161050c576020817f7a7883b0074f96e2c7fab65eb25abf624c488761a5db889e3bb84855dcc6daaf92602c55604051908152a1005b60405162461bcd60e51b81526020600482015260146024820152735661756c743a206d6766203e204d41585f42505360601b6044820152606490fd5b5f80fd5b34610548575f3660031901126105485760206040516127108152f35b34610548575f366003190112610548576020602654604051908152f35b34610548575f366003190112610548576008546040516001600160a01b039091168152602090f35b3461054857602080600319360112610548576105c7614e04565b6009546001600160a01b0392908316331480156106e4575b6105eb90939193615240565b80821692835f52600d8152610608600160405f20015415156152d7565b5f915f915b60148310610672575b856106448661062760148810615792565b60018060a01b03166001600160601b0360a01b6021541617602155565b61064c615830565b7fa8727d412c6fa1e2497d6d6f275e2d9fe4d9318d5b793632e60ad9d38ee8f1fa5f80a2005b909192858385600e01541680156106dc57146106a15761069461069a9161527e565b9361527e565b919061060d565b60405162461bcd60e51b81526004810183905260136024820152725661756c743a2064757020696e20717565756560681b6044820152606490fd5b505092610616565b50600a54831633146105df565b34610548575f36600319011261054857600c546040516001600160a01b039091168152602090f35b614de6565b34610548575f36600319011261054857602060ff60335460081c166040519015158152f35b34610548575f366003190112610548576020602354604051908152f35b3461054857602036600319011261054857610779614e04565b6009546001600160a01b0391906107939083163314615178565b168015158061081d575b156107e3576020817fdf3c41a916aecbf42361a147f8348c242662c3ce20ecef30e826b80642477a3d926001600160601b0360a01b602b541617602b55604051908152a1005b60405162461bcd60e51b81526020600482015260126024820152715661756c743a20626164207265776172647360701b6044820152606490fd5b503081141561079d565b3461054857604036600319011261054857610840614e04565b600954602435917f0b728ad785976532c4aaadde09b1cba5f262a7090e83c62d2377bc405678b29c916020916001600160a01b03918216331480156108d7575b61088990615240565b1692835f52600d82526108a4600160405f20015415156152d7565b835f52600d82526108be81600460405f20015410156157f1565b835f52600d825280600360405f200155604051908152a2005b50600a5482163314610880565b3461054857606036600319011261054857600435610900614e1a565b90610910600260015414156154d6565b60026001556001600160a01b03821615610d93575b61271060443511610d4e578015610d145761093f816154a5565b90335f52600560205260405f20548211610ccf5780602554805f92116109fe575b50505f80516020616a33833981519152604060209461098185600754615323565b600755335f5260058652815f20610999868254615323565b90555f82518681525f805160206169f3833981519152883392a36109bf84602554615323565b6025556008546109db90859083906001600160a01b0316615563565b8151858152868101949094526001600160a01b031692a260018055604051908152f35b909392505f5b60148110610a65575b509283602094602555808311610a5b575b50610a3a90612710610a328460443561502a565b041015615522565b5f80516020616a338339815191526040610a53836154a5565b939450610960565b9150610a3a610a1e565b600e8101546001600160a01b03168015610cc95782841115610cc957610a8b8385615323565b815f52600d602052600660405f2001548082105f14610cc257505b8015610cb7576008546040516370a0823160e01b815230600482015290602090829060249082906001600160a01b03165afa908115610c46575f91610c85575b5060405191632e1a7d4d60e01b835260048301526020826024815f875af1918215610c46575f92610c51575b506008546040516370a0823160e01b815230600482015290602090829060249082906001600160a01b03165afa908115610c46575f91610c12575b50610b6291610b5b91615323565b8095615330565b9381610bcf575b604083925f805160206169b383398151915292610bca96955f52600d6020526006835f2001610b99828254615323565b9055610ba86026918254615323565b9055835f52600d6020526006825f2001549082519182526020820152a261527e565b610a04565b9694604082610bfb81610bf5610bca9897965f805160206169b383398151915296615323565b99615330565b99610c068286616553565b92509293945050610b69565b90506020813d602011610c3e575b81610c2d60209383614d78565b810103126105485751610b62610b4d565b3d9150610c20565b6040513d5f823e3d90fd5b9091506020813d602011610c7d575b81610c6d60209383614d78565b8101031261054857519088610b12565b3d9150610c60565b90506020813d602011610caf575b81610ca060209383614d78565b81010312610548575188610ae6565b3d9150610c93565b5050610bca9061527e565b9050610aa6565b50610a0d565b60405162461bcd60e51b815260206004820152601a60248201527f5661756c743a20696e73756666696369656e74207368617265730000000000006044820152606490fd5b60405162461bcd60e51b81526020600482015260126024820152715661756c743a207a65726f2061737365747360701b6044820152606490fd5b60405162461bcd60e51b815260206004820152601860248201527f5661756c743a206d61784c6f7373203e204d41585f42505300000000000000006044820152606490fd5b339150610925565b34610548575f366003190112610548576036546040516001600160a01b039091168152602090f35b34610548575f366003190112610548576020603254604051908152f35b3461054857602036600319011261054857600435610e0960018060a01b03600954163314615178565b6301e185588111610e92576020817ff361aed463da6fa20358e45c6209f1d3e16d4eca706e6eab0b0aeb338729c77a92155f14610e7f575f602a555f6029555b604051908152a17f056863905a721211fc4dda1d688efc8f120b4b689d2e41da8249cf6eff2006916020602a54604051908152a1005b80670de0b6b3a764000004602a55610e49565b60405162461bcd60e51b815260206004820152600f60248201526e5661756c743a20746f6f206c6f6e6760881b6044820152606490fd5b3461054857604036600319011261054857610ee2614e04565b610eea614e1a565b9060018060a01b038091165f52600660205260405f2091165f52602052602060405f2054604051908152f35b3461054857602036600319011261054857610f2f614e04565b6009546001600160a01b039190610f499083163314615178565b16806001600160601b0360a01b60315416176031557fce6e3f8beda82a13c441d76efd4a6335760f219f38c60502e6680060874e109d5f80a2005b3461054857602036600319011261054857610f9d614e04565b6001600160a01b03811615610fc0575b610fb8602091615d6c565b604051908152f35b5033610fad565b34610548576020366003190112610548577fff54978127edd34aec0f9061fb3b155fbe0ededdfa881ee3e0d541d3a1eef4386020611003614e04565b6009546001600160a01b03919061101d9083163314615178565b16806001600160601b0360a01b600a541617600a55604051908152a1005b34610548575f366003190112610548576020604051670de0b6b3a76400008152f35b3461054857604036600319011261054857611076614e04565b7fe57488a65fa53066d4c25bac90db47dda4e5de3025ac12bf76ff07211cf7f39e60206024359260018060a01b03906110b482600954163314615178565b6110c2611388861115615202565b1692835f52600d82526110dd600160405f20015415156152d7565b835f52600d82528060405f2055604051908152a2005b34610548575f366003190112610548576020602454604051908152f35b3461054857602036600319011261054857600435601481101561054857600e01546040516001600160a01b039091168152602090f35b3461054857602080600319360112610548576001600160401b0360043581811161054857611178903690600401614ee5565b9161118e60018060a01b03600954163314615178565b821161124b576111a8826111a3600254614cd3565b614f12565b5f92601f83116001146111e357509181925f926111d8575b50505f19600383901b1c191660019190911b17600255005b0135905082806111c0565b601f198316935f8051602061697383398151915292915f905b868210611233575050836001951061121a575b505050811b01600255005b01355f19600384901b60f8161c1916905582808061120f565b806001849682949587013581550195019201906111fc565b634e487b7160e01b5f52604160045260245ffd5b34610548575f366003190112610548576020602754604051908152f35b34610548575f3660031901126105485760206040517f8b73c3c69bb8fe3d512ecc4cf759cc79239f7b179b0ffacaa9a75d522b39400f8152f35b34610548576020366003190112610548576112cf614e04565b6001600160a01b038116156112ea575b610fb8602091615cdc565b50336112df565b34610548576020366003190112610548577fae565aab888bca5e19e25a13db7b0c9144305bf55cb0f3f4d724f730e5acdd62602060043561133d60018060a01b03600954163314615178565b80602355604051908152a1005b34610548575f36600319011261054857602060ff603354166040519015158152f35b3461054857602036600319011261054857611385614e04565b6001600160a01b038181169033821490811561144e575b8115611440575b5015611406575f52600d602052600260405f200154156113c8576113c690615bc9565b005b60405162461bcd60e51b815260206004820152601660248201527515985d5b1d0e88185b1c9958591e481c995d9bdad95960521b6044820152606490fd5b60405162461bcd60e51b81526020600482015260126024820152710acc2ead8e87440e4caecded6ca40c2eae8d60731b6044820152606490fd5b9050600b54163314836113a3565b8091506009541633149061139c565b3461054857602080600319360112610548576001600160401b036004358181116105485761148f903690600401614ee5565b916114a560018060a01b03600954163314615178565b821161124b576114bf826114ba600354614cd3565b614f6f565b5f92601f83116001146114fa57509181925f926114ef575b50508160011b915f199060031b1c1916176003555f80f35b0135905082806114d7565b601f198316935f8051602061699383398151915292915f905b86821061154a5750508360019510611531575b505050811b01600355005b01355f19600384901b60f8161c19169055828080611526565b80600184968294958701358155019501920190611513565b614cb5565b34610548576020366003190112610548576113c6611583614e04565b6009546115a590336001600160a01b03918216149081156115aa575b50615240565b615c2a565b9050600a541633148461159f565b34610548576020366003190112610548577f1f88e73ebc721f227812938fe07a069ec1f7136aafacb397ed460bd15dee13f160206115f4614e46565b60095461161590336001600160a01b039182161490811561162f5750615240565b151560ff196033541660ff821617603355604051908152a1005b9050600a541633148561159f565b3461054857602036600319011261054857611656614e04565b6009546001600160a01b0391906116709083163314615178565b16806001600160601b0360a01b600c541617600c557f90ad4c550d25bd23af61db38d1ff8671b89edaaa0bca0fc36bac5084ecc120bd5f80a2005b34610548576020366003190112610548577f01a4494beed88920b88742cc58f2744e198f55ff192635a1fbabc6be8ffade8160206004356116f760018060a01b03600954163314615178565b80603255604051908152a1005b346105485760403660031901126105485761171d614e04565b60243590811591821503610548576009546001600160a01b0392906117459084163314615178565b611785575b16806001600160601b0360a01b60305416176030557f777d215db24fb9fee4ded85c66b422abd7162a1caa6ed3ec4c031f6cd29ada525f80a2005b6023546001011561174a5760405162461bcd60e51b81526020600482015260146024820152730acc2ead8e87440d8d2dad2e840dcdee840dac2f60631b6044820152606490fd5b34610548576040366003190112610548576117f26117e8614e04565b602435903361533d565b602060405160018152f35b34610548575f366003190112610548576020602c54604051908152f35b3461054857604036600319011261054857611833614e04565b335f526020906006825260405f209060018060a01b031690815f52825260405f206118616024358254615323565b9055335f526006825260405f20815f52825260405f20546040519081525f80516020616a13833981519152833392a360405160018152f35b34610548576060366003190112610548576020610fb8604435602435600435615f2f565b346105485760a0366003190112610548576118d6614e04565b6118de614e1a565b6044359060643591608435936001600160401b039485811161054857611908903690600401614ee5565b6001600160a01b03928316949091908515611b2257428710611ae55761192c61505b565b865f52602098602e8a5260405f20549860405190878c8301957f6e71edae12b1b97f4d1f60370fef10105fa2faae0126114a169c64845d6126c987528b6040850152169a8b606084015289608084015260a083015260c082015260c0815260e08101918183109083111761124b5761012260419483604052825190209161010081019461190160f01b86526101028201520152604281526119cc81614d42565b5190209203611ab05760808792835f936040519283526040810135851a82840152803560408401520135606082015282805260015afa15610c465782905f511603611a7657815f526006845260405f20835f5284528060405f2055815f52602e845260405f2080549160018301809311611a62575f80516020616a1383398151915292869255604051908152a360405160018152f35b634e487b7160e01b5f52601160045260245ffd5b60405162461bcd60e51b81526004810185905260126024820152715661756c743a20696e76616c69642073696760701b6044820152606490fd5b60405162461bcd60e51b815260048101889052600d60248201526c2b30bab63a1d1039b4b3b632b760991b6044820152606490fd5b60405162461bcd60e51b815260206004820152601560248201527415985d5b1d0e881c195c9b5a5d08195e1c1a5c9959605a1b6044820152606490fd5b60405162461bcd60e51b815260206004820152600e60248201526d05661756c743a206f776e657220360941b6044820152606490fd5b34610548575f36600319011261054857602b546040516001600160a01b039091168152602090f35b34610548575f366003190112610548576030546040516001600160a01b039091168152602090f35b34610548575f366003190112610548576020602554604051908152f35b34610548575f3660031901126105485760ff60045416604d8111611a6257610fb8602091600a0a6153e5565b34610548576020366003190112610548576001600160a01b03611c12614e04565b165f526034602052602060405f2054604051908152f35b34610548575f366003190112610548576040515f600354611c4981614cd3565b80845290600190818116908115611cca5750600114611c83575b611c7f84611c7381860382614d78565b60405191829182614dba565b0390f35b60035f90815292505f805160206169938339815191525b828410611cb2575050508101602001611c7382611c63565b80546020858701810191909152909301928101611c9a565b60ff191660208087019190915292151560051b85019092019250611c739150839050611c63565b34610548576040366003190112610548576020600435611d0f614e1a565b90611d1f600260015414156154d6565b60026001556001600160a01b03919082821615611e03575b60407f90890809c654f11d6e72a28fa60149770a0d11ec6c92319d6ceb2bb0a4ea1a1591611d6a60ff60225416156155a6565b611dc28186861695611d7e308814156155e4565b611d898215156156c2565b611dae611d95836153e5565b809960235480611dda575b50600854163090339061566a565b611dba88602554615330565b602555615703565b5081519081528486820152a260018055604051908152f35b611dfd90611df684611df160255460265490615330565b615330565b1115615627565b8c611da0565b339150611d37565b346105485761028080600319360112610548573661028411610548576009546001600160a01b0390811633148015612135575b611e4790615240565b60405190600e90815f845b6014821061211d575050508383018381106001600160401b0382111761124b576040525f5b6014808210156121125782611e93611e8e8461528c565b6152c3565b161561205f5782611ea483876152b2565b5116156120265782611eb8611e8e8461528c565b165f52602090600d8252600190611ed68260405f20015415156152d7565b5f915f5b828110611f60575b50505015611f1c575080611efb611e8e611f179361528c565b8382860191166001600160601b0360a01b82541617905561527e565b611e77565b6064906040519062461bcd60e51b82526004820152601e60248201527f5661756c743a206e6f742065786973747320696e206f6c6420717565756500006044820152fd5b86611f6d611e8e8361528c565b161561201a57611f7f611e8e8761528c565b8780611f8b848d6152b2565b5116911614612011575b8581111561200857611fa9611e8e8761528c565b8780611fb7611e8e8561528c565b16911614611fcd57611fc89061527e565b611eda565b60405162461bcd60e51b81526004810186905260136024820152725661756c743a2064757020737472617465677960681b6044820152606490fd5b611fc89061527e565b92508092611f95565b50915050878080611ee2565b60405162461bcd60e51b815260206004820152601160248201527015985d5b1d0e8818d85b9b9bdd08185919607a1b6044820152606490fd5b5081949361206e9293506152b2565b51166120cd575b6040515f6004825b601483106120ab577f695ac3ac73f08f2002284ffe563cefe798ee2878a5e04219522e2e99eb89d1688585a1005b813590868216809203610548576001918152602080910192019201919061207d565b60405162461bcd60e51b815260206004820152601a60248201527f5661756c743a2063616e6e6f7420657874656e642071756575650000000000006044820152606490fd5b505092915050612075565b60016020819286865416815201930191019091611e52565b50600a5481163314611e3e565b34610548575f366003190112610548576031546040516001600160a01b039091168152602090f35b34610548576040366003190112610548576113c66117e8614e04565b346105485760203660031901126105485761219f614e04565b600b546001600160a01b03919033838216148015612239575b156121fd576001600160a01b0319169116908117600b556040519081527f837b9ad138a0a1839a9637afce5306a5c13e23eb63365686843a5319a243609c90602090a1005b60405162461bcd60e51b81526020600482015260146024820152730acc2ead8e87440ceeac2e4c8d2c2dc40c2eae8d60631b6044820152606490fd5b50826009541633146121b8565b34610548575f36600319011261054857600a546040516001600160a01b039091168152602090f35b34610548575f366003190112610548576020602d54604051908152f35b34610548576040366003190112610548576122a4614e04565b6035546001600160a01b0391906122be90831633146151b6565b16805f5260346020527f78557646b1d8efa2cd49740d66df5aca39eb610ca8ca0e1ccac08979b6b2c46e602060405f20602435815417809155604051908152a2005b34610548576020366003190112610548576001600160a01b03612321614e04565b165f52602e602052602060405f2054604051908152f35b3461054857604036600319011261054857612351614e04565b602480359160018060a01b03908160095416331480156124dc575b61237590615240565b1691825f52602091600d8352612393600160405f20015415156152d7565b604051635641ec0360e01b81528381600481885afa908115610c46575f916124af575b5061246c57835f52600d83526123d4600260405f2001548254615323565b8155835f52600d835281600260405f2001556127106123f4838354615330565b808355116124295750907fbda9398315c83ccef012bcaa318a2ff7b680f36429d36597bd4bc25ac11ead5991604051908152a2005b82601a6064926040519262461bcd60e51b845260048401528201527f5661756c743a2064656274526174696f203e204d41585f4250530000000000006044820152fd5b82601e6064926040519262461bcd60e51b845260048401528201527f5661756c743a20737472617465677920656d657267656e6379206578697400006044820152fd5b6124cf9150843d86116124d5575b6124c78183614d78565b8101906158ca565b856123b6565b503d6124bd565b50600a548216331461236c565b3461054857606036600319011261054857600435612505614e1a565b61250d614e30565b9161251d600260015414156154d6565b600260015590919080826001600160a01b03851615612a16575b6001600160a01b031615612a0e575b801515806129ed575b156129b857336001600160a01b038416036128d0575b61256e906153e5565b916025545f90808511612631575b505060406020945f5f80516020616a338339815191529361259f86600754615323565b6007556001600160a01b03811682526005885283822080546125c2908890615323565b905583518681526001600160a01b03909116905f805160206169f3833981519152908990a36125f385602554615323565b60255560085461260f90869083906001600160a01b0316615563565b81519384528584018590526001600160a01b031692a260018055604051908152f35b5f5b601481106126a9575b508060255580851161268c575b506126548185615330565b9461271086810204809603611a62575f5f80516020616a33833981519152936126836020986040951115615522565b9350509461257c565b935091506126a261269d8385615330565b6154a5565b9185612649565b600e8101546001600160a01b031680156128ca57828711156128ca576126cf8388615323565b815f52600d602052600660405f2001548082105f146128c357505b80156128b8576008546040516370a0823160e01b815230600482015290602090829060249082906001600160a01b03165afa908115610c46575f91612886575b5060405191632e1a7d4d60e01b835260048301526020826024815f875af1918215610c46575f92612852575b506008546040516370a0823160e01b815230600482015290602090829060249082906001600160a01b03165afa908115610c46575f9161281e575b5061279f91610b5b91615323565b93816127db575b604083925f805160206169b3833981519152926127d696955f52600d6020526006835f2001610b99828254615323565b612633565b9497604082612807816128016127d69897965f805160206169b383398151915296615323565b9c615330565b976128128286616553565b925092939450506127a6565b90506020813d60201161284a575b8161283960209383614d78565b81010312610548575161279f612791565b3d915061282c565b9091506020813d60201161287e575b8161286e60209383614d78565b810103126105485751908a612756565b3d9150612861565b90506020813d6020116128b0575b816128a160209383614d78565b8101031261054857518a61272a565b3d9150612894565b50506127d69061527e565b90506126ea565b5061263c565b6001600160a01b0383165f90815260066020908152604080832033845282529091205460018101612903575b5050612565565b82811061297357906129198361256e9493615323565b6001600160a01b0386165f818152600680855260408083203380855290875281842095909555838352908552808220848352855290819020549051908152919290915f80516020616a138339815191529190a390856128fc565b60405162461bcd60e51b815260048101839052601960248201527f5661756c743a20616c6c6f77616e6365203c20736861726573000000000000006044820152606490fd5b60405162461bcd60e51b815260206004820152600d60248201526c5661756c743a2073686172657360981b6044820152606490fd5b506001600160a01b0383165f9081526005602052604090205481111561254f565b339250612546565b339450612537565b3461054857602036600319011261054857600435612a4760018060a01b03600954163314615178565b670de0b6b3a76400008111612a87576020817f056863905a721211fc4dda1d688efc8f120b4b689d2e41da8249cf6eff20069192602a55604051908152a1005b60405162461bcd60e51b81526020600482015260116024820152702b30bab63a1d103232b3901f1031b7b2b360791b6044820152606490fd5b3461054857602036600319011261054857612ad9614e46565b602f546001600160a01b03163303612b2f5760207f68d2a9e78bb2679fce38ced936827f483b51ff64f0776fc33fc39b2881f237f891151560335461ff008260081b169061ff00191617603355604051908152a1005b60405162461bcd60e51b815260206004820152600f60248201526e5661756c743a20616363206f6e6c7960881b6044820152606490fd5b3461054857604036600319011261054857612b7f614e04565b6035546001600160a01b039190612b9990831633146151b6565b16805f5260346020527f78557646b1d8efa2cd49740d66df5aca39eb610ca8ca0e1ccac08979b6b2c46e602060405f2060243519815416809155604051908152a2005b34610548575f36600319011261054857611c7f611c73614ec4565b34610548575f36600319011261054857602060405160148152f35b34610548575f36600319011261054857612c2d6025546154a5565b5f905b60148210612c44575b602090604051908152f35b600e8201546001600160a01b03168015612c8957612c8391612c7d915f52600d602052612c77600660405f2001546154a5565b90615330565b9161527e565b90612c30565b50612c39565b3461054857604036600319011261054857612ca8614e04565b7f78557646b1d8efa2cd49740d66df5aca39eb610ca8ca0e1ccac08979b6b2c46e60206024359260018060a01b0390612ce6826035541633146151b6565b1692835f52603482528060405f2055604051908152a2005b34610548576020366003190112610548576001600160a01b03612d1f614e04565b165f526005602052602060405f2054604051908152f35b34610548576020366003190112610548577f0810a1c261ca2c0cd86a0152c51c43ba9dc329639d2349f98140891b2ea798eb6020600435612d8260018060a01b03600954163314615178565b612d90611388821115615202565b80602d55604051908152a1005b3461054857604036600319011261054857612db6614e04565b600954602435906001600160a01b0390811690612dd4338314615178565b5f198314612e9d575b60085484821691168114612e20575b926113c6937fab2246061d7b0dd3631d037e3f6da75782ae489eeb9f6af878a4b25df9b07c776020604051868152a2615563565b6040516370a0823160e01b815230600482015293909250602084602481865afa938415610c46575f94612e68575b50612e5f6113c69460255490615323565b92909350612dec565b93506020843d8211612e95575b81612e8260209383614d78565b8101031261054857925192612e5f612e4e565b3d9150612e75565b6040516370a0823160e01b81523060048201529092506020816024818787165afa908115610c46575f91612ed3575b5091612ddd565b90506020813d8211612efc575b81612eed60209383614d78565b81010312610548575184612ecc565b3d9150612ee0565b3461054857604036600319011261054857600435612f20614e1a565b612f2f600260015414156154d6565b6002600155906001600160a01b0390818316156130f1575b612f5660ff60225416156155a6565b81831690612f66308314156155e4565b805f1981036130c45750506023546025549060265491612f868382615330565b8211156130bb57612fa092612f9a91615330565b90615323565b602460208460085416604051928380926370a0823160e01b82523360048301525afa908115610c46575f9161308a575b508082101561308357505b801561304957604081613023816130157f90890809c654f11d6e72a28fa60149770a0d11ec6c92319d6ceb2bb0a4ea1a1595602099615703565b96600854163090339061566a565b61302f81602554615330565b60255581519085825286820152a260018055604051908152f35b60405162461bcd60e51b815260206004820152601260248201527115985d5b1d0e881e995c9bc8185b5bdd5b9d60721b6044820152606490fd5b9050612fdb565b90506020813d82116130b3575b816130a460209383614d78565b81010312610548575185612fd0565b3d9150613097565b5050505f612fa0565b602354806130d4575b5050612fdb565b611df66130ea92611df160255460265490615330565b84806130cd565b339250612f47565b34610548575f366003190112610548576036546001600160a01b0316330361315b57336001600160601b0360a01b60355416176035557fce93baa0b608a7d420822b6b90cfcccb70574363ba4fd26ef5ac17dd465016c46020604051338152a1005b60405162461bcd60e51b815260206004820152601f60248201527f5661756c743a206e6f742070656e64696e6720726f6c65206d616e61676572006044820152606490fd5b34610548576040366003190112610548576113c66131bc614e04565b6131c4614e1a565b906131da60018060a01b03600954163314615178565b6158e2565b34610548576020366003190112610548577f364d2f5fdafcc5778c92c031ccf715352535731482158c029793bd034198f571602061321b614e04565b6035546001600160a01b03919061323590831633146151b6565b16806001600160601b0360a01b6036541617603655604051908152a1005b34610548575f366003190112610548576009546040516001600160a01b039091168152602090f35b346105485760e036600319011261054857613294614e04565b61329c614e1a565b6132a4614e30565b6064356001600160401b038111610548576132c3903690600401614ea6565b916084356001600160401b038111610548576132e3903690600401614ea6565b9160a435916001600160a01b03831683036105485760c435936001600160a01b0385168503610548575f549560ff8760081c161596878098613b55575b8015613b3e575b15613ae25760ff1981166001175f5587613ad1575b50602854613a8c576001600160a01b03881615613a5657600880546001600160a01b0319166001600160a01b038a16179055805190816139a35750506040516395d89b4160e01b81525f816004816001600160a01b038c165afa908115610c46575f91613989575b506133e26027604051836133c2829551809260208086019101614d99565b810166081b95985d5b1d60ca1b6020820152036007810184520182614d78565b8051906001600160401b03821161124b578190613404826111a3600254614cd3565b602090601f8311600114613915575f9261390a575b50508160011b915f199060031b1c1916176002555b80518061384a5750506040516395d89b4160e01b8152955f876004816001600160a01b0385165afa968715610c46575f97613826575b5061349d6022604051809961372b60f11b602083015261348d8151809260208686019101614d99565b810103600281018a520188614d78565b86516001600160401b03811161124b576134bc816114ba600354614cd3565b6020601f82116001146137af579080602093926004999a5f926137a4575b50508160011b915f199060031b1c1916176003555b60405163313ce56760e01b815296879182906001600160a01b03165afa948515610c46575f9561375f575b50602093927fdf3c41a916aecbf42361a147f8348c242662c3ce20ecef30e826b80642477a3d857f837b9ad138a0a1839a9637afce5306a5c13e23eb63365686843a5319a243609c947fff54978127edd34aec0f9061fb3b155fbe0ededdfa881ee3e0d541d3a1eef43882809660ff7fce93baa0b608a7d420822b6b90cfcccb70574363ba4fd26ef5ac17dd465016c49c1660ff19600454161760045560018060a01b031698896001600160601b0360a01b60095416176009557f8d55d160c0009eb3d739442df0a3ca089ed64378bfac017e7ddad463f9815b87826040518c8152a1600a80546001600160a01b0319166001600160a01b03929092169182179055604051908152a1602b80546001600160a01b0319166001600160a01b03929092169182179055604051908152a1600b80546001600160a01b0319166001600160a01b03929092169182179055604051908152a17f0810a1c261ca2c0cd86a0152c51c43ba9dc329639d2349f98140891b2ea798eb826103e880602d55604051908152a160c8602c557f7a7883b0074f96e2c7fab65eb25abf624c488761a5db889e3bb84855dcc6daaf8260405160c88152a142602755426028557f056863905a721211fc4dda1d688efc8f120b4b689d2e41da8249cf6eff200691826529d635a8e00080602a55604051908152a1603580546001600160a01b03191682179055604051908152a161372957005b61ff00195f54165f557f7f26b83ff96e1f2b6a682f133852f6798a09c465da95921460cefb3847402498602060405160018152a1005b90939294506020813d60201161379c575b8161377d60209383614d78565b8101031261054857519060ff821682036105485790939192602061351a565b3d9150613770565b015190508a806134da565b60035f525f80516020616993833981519152985f5b601f198416811061380e575091600498996001926020959483601f198116106137f6575b505050811b016003556134ef565b01515f1960f88460031b161c191690558a80806137e8565b828201518b556001909a0199602092830192016137c4565b6138439197503d805f833e61383b8183614d78565b810190614fcc565b9587613464565b6001600160401b03819892981161124b5761386a816114ba600354614cd3565b6020601f82116001146138ac579080602093926004999a5f926138a1575b50508160011b915f199060031b1c1916176003556134ef565b015190508a80613888565b60035f525f80516020616993833981519152985f5b601f19841681106138f2575091600498996001926020959483601f198116106137f657505050811b016003556134ef565b828201518b556001909a0199602092830192016138c1565b015190508980613419565b925060025f525f80516020616973833981519152905f935b601f198416851061396e576001945083601f19811610613956575b505050811b0160025561342e565b01515f1960f88460031b161c19169055898080613948565b8181015183556020948501946001909301929091019061392d565b61399d91503d805f833e61383b8183614d78565b886133a4565b6001600160401b03821161124b5781906139c2826111a3600254614cd3565b602090601f83116001146139fb575f926139f0575b50508160011b915f199060031b1c19161760025561342e565b0151905089806139d7565b925060025f525f80516020616973833981519152905f935b601f1984168510613a3b576001945083601f1981161061395657505050811b0160025561342e565b81810151835560209485019460019093019290910190613a13565b60405162461bcd60e51b815260206004820152600e60248201526d05661756c743a20746f6b656e20360941b6044820152606490fd5b60405162461bcd60e51b815260206004820152601a60248201527f5661756c743a20616c726561647920696e697469616c697a65640000000000006044820152606490fd5b61ffff1916610101175f558861333c565b60405162461bcd60e51b815260206004820152602e60248201527f496e697469616c697a61626c653a20636f6e747261637420697320616c72656160448201526d191e481a5b9a5d1a585b1a5e995960921b6064820152608490fd5b50303b1580156133275750600160ff821614613327565b50600160ff821610613320565b34610548575f366003190112610548577f00000000000000000000000000000000000000000000000000000000000000006001600160a01b03163003613bb95760206040515f805160206169d38339815191528152f35b60405162461bcd60e51b815260206004820152603860248201527f555550535570677261646561626c653a206d757374206e6f742062652063616c60448201527f6c6564207468726f7567682064656c656761746563616c6c00000000000000006064820152608490fd5b34610548575f36600319011261054857602f546040516001600160a01b039091168152602090f35b604036600319011261054857613c60614e04565b6024356001600160401b038111610548573660238201121561054857613c90903690602481600401359101614e70565b906001600160a01b037f0000000000000000000000000000000000000000000000000000000000000000811690613cc93083141561667e565b613ce55f805160206169d38339815191529282845416146166df565b613cf481600954163314615178565b7f4910fdfa16fed3260ed0e7147f7cc6da11a60208b5b9406d12a635614ffd91435460ff1615613d2a5750506113c69150616740565b6040516352d1902d60e01b81526020939291831691908481600481865afa5f9181613eb4575b50613db15760405162461bcd60e51b815260048101869052602e60248201527f45524331393637557067726164653a206e657720696d706c656d656e7461746960448201526d6f6e206973206e6f74205555505360901b6064820152608490fd5b03613e5d57613dbf82616740565b7fbc7cd75a20ee27fd9adebab32041f755214dbc6bffa90cc0225b39da2e5c2d3b5f80a2825115801590613e55575b613df457005b5f806113c69460405194613e0786614d27565b602786527f416464726573733a206c6f772d6c6576656c2064656c65676174652063616c6c81870152660819985a5b195960ca1b604087015281519101845af4613e4f6168ae565b916168dd565b506001613dee565b60405162461bcd60e51b815260048101849052602960248201527f45524331393637557067726164653a20756e737570706f727465642070726f786044820152681a58589b195555525160ba1b6064820152608490fd5b9091508581813d8311613edc575b613ecc8183614d78565b8101031261054857519087613d50565b503d613ec2565b34610548575f3660031901126105485760206040517f6e71edae12b1b97f4d1f60370fef10105fa2faae0126114a169c64845d6126c98152f35b3461054857602036600319011261054857613f36614e04565b6009546001600160a01b039190613f509083163314615178565b16806001600160601b0360a01b602f541617602f557f28709a2dab2a5d5e8688e96159011151c51644ab21839a8a45b449634d7c8b2b5f80a2005b3461054857604036600319011261054857613fa4614e04565b600954602435916001600160a01b039182163314801561406f575b613fc890615240565b1690815f52600d602052613fe4600160405f20015415156152d7565b815f52600d60205280600360405f200154116140375760207f1796a8e0760e2de5b72e7bf64fccb7666c48ceab94cb6cae7cb7eff4b6f641ab91835f52600d825280600460405f200155604051908152a2005b60405162461bcd60e51b815260206004820152601060248201526f2b30bab63a1d1036b0bc101e1036b4b760811b6044820152606490fd5b50600a5482163314613fbf565b34610548575f36600319011261054857600b546040516001600160a01b039091168152602090f35b34610548575f366003190112610548576020602954604051908152f35b34610548575f366003190112610548576020602a54604051908152f35b34610548576020366003190112610548576001600160a01b036140ff614e04565b165f52600d60205261012060405f208054906001810154906002810154600382015460048301546005840154916006850154936008600787015496015496604051988952602089015260408801526060870152608086015260a085015260c084015260e0830152610100820152f35b3461054857604036600319011261054857614187614e04565b335f526020906006825260405f209060018060a01b031690815f52825260405f206118616024358254615330565b3461054857602080600319360112610548576141cf614e04565b6001600160a01b037f0000000000000000000000000000000000000000000000000000000000000000811692906142083085141561667e565b6142245f805160206169d38339815191529482865416146166df565b61423381600954163314615178565b60405193828501918583106001600160401b0384111761124b57826040525f865260ff7f4910fdfa16fed3260ed0e7147f7cc6da11a60208b5b9406d12a635614ffd914354165f1461428d57505050506113c69150616740565b84939416906040516352d1902d60e01b81528581600481865afa5f918161440a575b506143105760405162461bcd60e51b815260048101879052602e60248201527f45524331393637557067726164653a206e657720696d706c656d656e7461746960448201526d6f6e206973206e6f74205555505360901b6064820152608490fd5b036143b35761431e83616740565b7fbc7cd75a20ee27fd9adebab32041f755214dbc6bffa90cc0225b39da2e5c2d3b5f80a28351158015906143ac575b61435357005b5f80916113c6957f416464726573733a206c6f772d6c6576656c2064656c65676174652063616c6c6040519661438888614d27565b60278852870152660819985a5b195960ca1b60408701525190845af4613e4f6168ae565b505f61434d565b60405162461bcd60e51b815260048101859052602960248201527f45524331393637557067726164653a20756e737570706f727465642070726f786044820152681a58589b195555525160ba1b6064820152608490fd5b9091508681813d8311614432575b6144228183614d78565b81010312610548575190886142af565b503d614418565b34610548575f366003190112610548576020610fb861505b565b34610548575f366003190112610548576020602854604051908152f35b34610548575f36600319011261054857602060ff602254166040519015158152f35b34610548576020366003190112610548576144ab614e04565b6001600160a01b038116156144c6575b610fb8602091615e5a565b50336144bb565b34610548575f36600319011261054857602060ff60045416604051908152f35b34610548575f3660031901126105485760206040516301e185588152f35b3461054857606036600319011261054857614524614e04565b61452c614e1a565b9060443560018060a01b03821692835f526020926006845260405f20335f52845260405f2054945f198603614571575b5061456893945061533d565b60405160018152f35b8386106145d057614586846145689697615323565b815f526006875260405f20335f52875260405f2055805f526006865260405f20335f52865260405f2054906040519182525f80516020616a13833981519152873393a3849361455c565b60405162461bcd60e51b815260048101869052601060248201526f5661756c743a20616c6c6f77616e636560801b6044820152606490fd5b34610548575f36600319011261054857600c546001600160a01b0316330361466a57336001600160601b0360a01b60095416176009557f8d55d160c0009eb3d739442df0a3ca089ed64378bfac017e7ddad463f9815b876020604051338152a1005b60405162461bcd60e51b815260206004820152601d60248201527f5661756c743a206e6f742070656e64696e6720676f7665726e616e63650000006044820152606490fd5b34610548575f366003190112610548576020600754604051908152f35b34610548575f3660031901126105485760235460255490602654906146f18284615330565b81111561470757612f9a610fb892602094615330565b50505060205f610fb8565b346105485760203660031901126105485761472b614e46565b80156147cf57600b54336001600160a01b03918216149081156147c1575b501561478e5760207fba40372a3a724dca3c57156128ef1e896724b65b37a17f190b1ad5de68f3a4f3915b151560ff196022541660ff821617602255604051908152a1005b60405162461bcd60e51b815260206004820152600b60248201526a0acc2ead8e87440c2eae8d60ab1b6044820152606490fd5b905060095416331482614749565b60207fba40372a3a724dca3c57156128ef1e896724b65b37a17f190b1ad5de68f3a4f39161480860018060a01b03600954163314615178565b614774565b346105485760a036600319011261054857614826614e04565b602490813591604480356064908135916084359060018060a01b039061485182600954163314615178565b61485f826021541615615792565b61486e60ff60225416156155a6565b818816958615614b4a57865f52602092600d8452600160405f200154614b195760405163fbfa77cf60e01b815284816004818c5afa908115610c46575f91614afc575b508130911603614ac657604051631f1fcd5160e01b81529084826004818c5afa918215610c46575f92614a97575b508060085416911603614a63576127106148fa8b8a54615330565b11614a2b57505092826149fa7f5a6abd2af9fe6c0554fa08649e2d86e4393ff19dc304d072d38d295c9291d4dc93614a239a9661493d85614a049a9811156157f1565b61494b611388831115615202565b6008876040519261495b84614d0b565b848452808401428152604085018c81526060860189815260808701908b825260a088019242845260c08901945f8652600d60e08b01975f89526101008c01995f8b525f525260405f2099518a555160018a01555160028901555160038801555160048701555160058601555160068501555160078401555191015560405193849388859094939260609260808301968352602083015260408201520152565b0390a28254615330565b905560018060a01b03166001600160601b0360a01b6021541617602155565b6113c6615830565b745661756c743a20726174696f206f766572666c6f7760581b839160158a6040519462461bcd60e51b86526004860152840152820152fd5b7015985d5b1d0e881ddc9bdb99c81dd85b9d607a1b839160118a6040519462461bcd60e51b86526004860152840152820152fd5b614ab8919250853d8711614abf575b614ab08183614d78565b8101906157d2565b908c6148df565b503d614aa6565b507115985d5b1d0e881ddc9bdb99c81d985d5b1d60721b839160128a6040519462461bcd60e51b86526004860152840152820152fd5b614b139150853d8711614abf57614ab08183614d78565b8c6148b1565b506c5661756c743a2065786973747360981b8391600d8a6040519462461bcd60e51b86526004860152840152820152fd5b7005661756c743a207374726174656779203607c1b889160116040519362461bcd60e51b855260206004860152840152820152fd5b3461054857604036600319011261054857614b98614e04565b602435335f52600660205260405f209160018060a01b031691825f526020528060405f20556040519081525f80516020616a1383398151915260203392a3602060405160018152f35b34610548575f366003190112610548576040515f600254614c0181614cd3565b80845290600190818116908115611cca5750600114614c2a57611c7f84611c7381860382614d78565b60025f90815292505f805160206169738339815191525b828410614c59575050508101602001611c7382611c63565b80546020858701810191909152909301928101614c41565b34610548575f366003190112610548576020610fb860255460265490615330565b34610548575f366003190112610548576035546001600160a01b03168152602090f35b34610548576020366003190112610548576020610fb86004356153e5565b90600182811c92168015614d01575b6020831014614ced57565b634e487b7160e01b5f52602260045260245ffd5b91607f1691614ce2565b61012081019081106001600160401b0382111761124b57604052565b606081019081106001600160401b0382111761124b57604052565b608081019081106001600160401b0382111761124b57604052565b604081019081106001600160401b0382111761124b57604052565b90601f801991011681019081106001600160401b0382111761124b57604052565b5f5b838110614daa5750505f910152565b8181015183820152602001614d9b565b60409160208252614dda8151809281602086015260208686019101614d99565b601f01601f1916010190565b34610548576020366003190112610548576020610fb86004356154a5565b600435906001600160a01b038216820361054857565b602435906001600160a01b038216820361054857565b604435906001600160a01b038216820361054857565b60043590811515820361054857565b6001600160401b03811161124b57601f01601f191660200190565b929192614e7c82614e55565b91614e8a6040519384614d78565b829481845281830111610548578281602093845f960137010152565b9080601f8301121561054857816020614ec193359101614e70565b90565b60405190614ed182614d5d565b600582526418171a171b60d91b6020830152565b9181601f84011215610548578235916001600160401b038311610548576020838186019501011161054857565b601f8111614f1e575050565b5f90600282525f80516020616973833981519152906020601f850160051c83019410614f65575b601f0160051c01915b828110614f5a57505050565b818155600101614f4e565b9092508290614f45565b601f8111614f7b575050565b5f90600382525f80516020616993833981519152906020601f850160051c83019410614fc2575b601f0160051c01915b828110614fb757505050565b818155600101614fab565b9092508290614fa2565b602081830312610548578051906001600160401b038211610548570181601f82011215610548578051614ffe81614e55565b9261500c6040519485614d78565b8184526020828401011161054857614ec19160208085019101614d99565b81810292918115918404141715611a6257565b8115615047570490565b634e487b7160e01b5f52601260045260245ffd5b6040516002545f9161506c82614cd3565b80825281602094858201946001908782821691825f1461515a575050600114615112575b5061509d92500382614d78565b519020906150a9614ec4565b818151910120604051918201927f8b73c3c69bb8fe3d512ecc4cf759cc79239f7b179b0ffacaa9a75d522b39400f8452604083015260608201524660808201523060a082015260a0815260c081018181106001600160401b0382111761124b5760405251902090565b86915060025f525f80516020616973833981519152905f915b85831061514257505061509d93508201015f615090565b8054838801850152869450889390920191810161512b565b60ff1916885261509d95151560051b85010192505f91506150909050565b1561517f57565b60405162461bcd60e51b815260206004820152600f60248201526e5661756c743a20676f76206f6e6c7960881b6044820152606490fd5b156151bd57565b60405162461bcd60e51b815260206004820152601860248201527f5661756c743a20726f6c65206d616e61676572206f6e6c7900000000000000006044820152606490fd5b1561520957565b60405162461bcd60e51b815260206004820152600f60248201526e5661756c743a207066203e2035302560881b6044820152606490fd5b1561524757565b60405162461bcd60e51b815260206004820152600f60248201526e15985d5b1d0e8819dbdd8bdb59db5d608a1b6044820152606490fd5b5f198114611a625760010190565b601481101561529e5760051b60040190565b634e487b7160e01b5f52603260045260245ffd5b90601481101561529e5760051b0190565b356001600160a01b03811681036105485790565b156152de57565b60405162461bcd60e51b815260206004820152601760248201527f5661756c743a20756e6b6e6f776e2073747261746567790000000000000000006044820152606490fd5b91908203918211611a6257565b91908201809211611a6257565b6001600160a01b03918216929190831515806153db575b156153a6575f805160206169f3833981519152916020911692835f526005825260405f20615383828254615323565b9055845f526005825260405f2061539b828254615330565b9055604051908152a3565b60405162461bcd60e51b815260206004820152600d60248201526c5661756c743a2062616420746f60981b6044820152606490fd5b5030841415615354565b6007548015615416576153f661541a565b91821561540f57614ec19261540a9161502a565b61503d565b5050505f90565b5090565b61542960255460265490615330565b615431615448565b8082111561544257614ec191615323565b50505f90565b6029548015801561549b575b6154965761547061546760275442615323565b602a549061502a565b90670de0b6b3a76400008083101561540f5761548f82614ec19461502a565b0490615323565b505f90565b50602a5415615454565b6154ad61541a565b801515806154cb575b156154425761540a614ec1926007549061502a565b5060075415156154b6565b156154dd57565b60405162461bcd60e51b815260206004820152601f60248201527f5265656e7472616e637947756172643a207265656e7472616e742063616c6c006044820152606490fd5b1561552957565b60405162461bcd60e51b81526020600482015260126024820152715661756c743a20657863657373206c6f737360701b6044820152606490fd5b60405163a9059cbb60e01b60208201526001600160a01b0392831660248201526044808201949094529283526155a492919061559e83614d42565b166167cf565b565b156155ad57565b60405162461bcd60e51b815260206004820152600f60248201526e2b30bab63a1d1039b43aba3237bbb760891b6044820152606490fd5b156155eb57565b60405162461bcd60e51b815260206004820152601460248201527315985d5b1d0e88189859081c9958da5c1a595b9d60621b6044820152606490fd5b1561562e57565b60405162461bcd60e51b815260206004820152601460248201527315985d5b1d0e8819195c1bdcda5d081b1a5b5a5d60621b6044820152606490fd5b6040516323b872dd60e01b60208201526001600160a01b039283166024820152928216604484015260648084019490945292825260a08201926001600160401b0384118385101761124b576155a493604052166167cf565b156156c957565b60405162461bcd60e51b81526020600482015260126024820152715661756c743a207a65726f2073686172657360701b6044820152606490fd5b600754929161573e9061571461541a565b8580151580615789575b156157805761540a906157309361502a565b80945b611df18215156156c2565b6007556001600160a01b03165f8181526005602052604090208054615764908590615330565b90555f5f805160206169f38339815191526020604051868152a3565b50508094615733565b5081151561571e565b1561579957565b60405162461bcd60e51b815260206004820152601160248201527015985d5b1d0e881c5d595d5948199d5b1b607a1b6044820152606490fd5b9081602091031261054857516001600160a01b03811681036105485790565b156157f857565b60405162461bcd60e51b815260206004820152601060248201526f0acc2ead8e87440dad2dc407c40dac2f60831b6044820152606490fd5b5f90815b601490818110156158c457600e8181018054919390916001600160a01b03169081156158a95786615872575b50505061586d915061527e565b615834565b61587c8785615323565b9081101561529e5761586d94016001600160601b0360a01b918282541617905581541690555f8080615860565b50505092905060018101809111611a625761586d909261527e565b50509050565b90816020910312610548575180151581036105485790565b6001600160a01b039182165f8115615b955783831692838252602090600d82526040916001838520015415615b5d57848452600d815260018385200154615b2657858452600d81528284209183519261593a84614d0b565b8054845260018101548385015260028101548585019081526003820154916060860192835260048101546080870190815260058201549660a0810197885260068301549260c08201938452600781015460e0830152600801549561010096878301526159a590615bc9565b8351602454906159b491615330565b6024558b8a52600d875289898120600601555196519251935190519151938851976159de89614d0b565b8852868801848152898901918252606089019283526080890193845260a0890194855260c0890195865260e08901968b88528901978b89528c8c52600d9052898b2098518955516001890155516002880155516003870155516004860155516005850155516006840155516007830155519060080155833b15615b2257805163ce5494bb60e01b81526004810184905290828260248183895af18015615b1857615aee575b505081837f100b69bb6b504e1252e36b375233158edee64d071b399e2f81473a695fd1b0218380a35b60148110615aba5750505050565b80600e0180548486821614615ad9575050615ad49061527e565b615aac565b6001600160a01b031916909217909155505050565b6001600160401b038211615b0457525f80615a83565b634e487b7160e01b83526041600452602483fd5b81513d85823e3d90fd5b5080fd5b60649083519062461bcd60e51b8252600482015260116024820152705661756c743a206e65772065786973747360781b6044820152fd5b60649083519062461bcd60e51b8252600482015260126024820152712b30bab63a1d1037b632103ab735b737bbb760711b6044820152fd5b60405162461bcd60e51b815260206004820152600c60248201526b05661756c743a206e657720360a41b6044820152606490fd5b6001600160a01b03165f818152600d60205260408120600201546024547f4201c688d84c01154d321afa0c72f1bffe9eef53005c9de9d035074e71e9b32a9291615c1291615323565b602455828152600d60205280600260408220015580a2565b5f90815b60148110615c715760405162461bcd60e51b81526020600482015260136024820152725661756c743a206e6f7420696e20717565756560681b6044820152606490fd5b600e810180546001600160a01b0384811692919081168314615c9e57505050615c999061527e565b615c2e565b6001600160a01b0319169055927f8e1ec3c16d6a67ea8effe2ac7adef9c2de0bc0dc47c49cdf18f6a8b0048085be92509050615cd8615830565b80a2565b60245415615d4f5760018060a01b0316805f52600d602052612710615d17600260405f200154615d1160255460265490615330565b9061502a565b04905f52600d602052600660405f2001549060ff602254165f14615d39575090565b808211615d465750505f90565b614ec191615323565b6001600160a01b03165f908152600d602052604090206006015490565b60ff60225416615496576025549060265490615d888284615330565b926127109182615d9a8660245461502a565b049060018060a01b031692615dbf5f96858852600d602052600260408920015461502a565b04928552600d60205260408520936006850154906004600387015496015494828111801590615e50575b615e4657615e0092615dfa91615323565b92615323565b80821015615e3e5750905b80821015615e365750915b821015615e2257505090565b90915080821015615e31575090565b905090565b905091615e16565b905090615e0b565b5050505050505090565b5081841115615de9565b6001600160a01b03165f818152600d6020908152604082206005015491929190615e9d615e878342615323565b92848652600d8352600160408720015490615323565b9282151580615f26575b80615ed4575b15615ecd57604085600d61540a9594600794614ec199525220015461502a565b5050505090565b506040516308bcf8b560e21b81528281600481855afa908115615f1b578691615efe575b50615ead565b615f159150833d85116124d5576124c78183614d78565b5f615ef8565b6040513d88823e3d90fd5b50831515615ea7565b90915f90338252600d60209381855260409560018786200154156162d85760085487516370a0823160e01b81523360048201526001600160a01b039188908290602490829086165afa9081156162ce57879161629d575b50615f918685615330565b1161624f5781616240575b615fa6833361631c565b90338752848852600789882001615fbe858254615330565b9055615fc933615d6c565b91615fd333615cdc565b968781101561623857915b8a8a8a856161f4575b5050509061604c91846161c7575b615fff8488615330565b858082101561617a5761603a9261602461601c8461603294615323565b602554615323565b602555600854169187615323565b903390615563565b612c77616045615448565b9187615323565b838082111561616f5761605e91615323565b6029555b3387528488528887209042600583015542602755600782015460088301549160026006850154940154958c519788528b8801528b8701526060860152608085015260a084015260c083015260e08201527f67f96d2854a335a4cadb49f84fd3ca6f990744ddb3feceeb4b349d2d53d32ad36101003392a2338352835260028483200154158015616163575b1561615c57508251630efbb5cb60e41b8152918083600481335afa9384156161515750819361611d575b50505090565b9091809350813d831161614a575b6161358183614d78565b810103126161475750515f8080616117565b80fd5b503d61612b565b51913d9150823e3d90fd5b9250505090565b5060ff602254166160ed565b505086602955616062565b9182821161618b575b50505061603a565b826161b5916161a86161a06161bf9686615323565b602554615330565b6025556008541692615323565b903090339061566a565b835f80616183565b338a52878b5260068c8b20016161de868254615330565b90556161ec85602654615330565b602655615ff5565b99600661622c938b889461604c98979e339052528d2001616216838254615323565b905561622482602654615323565b602655615323565b979091508a8a8a615fe7565b508691615fde565b61624a8233616553565b615f9c565b875162461bcd60e51b815260048101889052602160248201527f5661756c743a20696e73756666696369656e7420746f6b656e2062616c616e636044820152606560f81b6064820152608490fd5b90508781813d83116162c7575b6162b48183614d78565b810103126162c357515f615f86565b8680fd5b503d6162aa565b89513d89823e3d90fd5b865162461bcd60e51b815260048101879052601760248201527f5661756c743a20756e6b6e6f776e207265706f727465720000000000000000006044820152606490fd5b9060018060a01b0392838316935f94808652602091600d835260408088206001810154421461651057600561635391015442615323565b91821561651b57861561651057838952600d8552818920600601548251634731a87160e11b81529890868a600481895afa9081156165065785969798999a8c926164ce575b506163c3956163af6301e18558936163b493615323565b61502a565b612710958691602c549061502a565b0404958a52600d8752836163da848c20548b61502a565b04936163e8602d548b61502a565b04966163f888611df1878a615330565b99808b116164c4575b5092899a81939261645e9796958c7f5c971a56b919bc03cfcc69b3500de2c9400b81ff5977e541c5075e04348756f59c9d616463575b50505050505051948594859094939260609260808301968352602083015260408201520152565b0390a1565b6005926164708230615703565b896164a4575b5050503083525220548061648f575b808084928d616437565b61649d91602b54163061533d565b5f80616485565b6164bc9261540a6164b5928c61502a565b903061533d565b8d5f80616476565b995061645e616401565b955090508785813d81116164ff575b6164e78183614d78565b810103126164fb57935185946163c3616398565b8a80fd5b503d6164dd565b84513d8d823e3d90fd5b509395505050505050565b815162461bcd60e51b81526004810186905260116024820152705661756c743a2073616d6520626c6f636b60781b6044820152606490fd5b6001600160a01b03165f818152600d60209081526040808320600601549095949392919084811061663a5791600d6165c59697926165b687600696602454806165ca575b508886528484526008878720016165af838254615330565b9055615323565b95835252200155602654615323565b602655565b6165fd9087906026549081616606575b50508a88528686526002898920016165f3828254615323565b9055602454615323565b6024555f616597565b616615925061540a908661502a565b8a8852868652888820600201548082101561663357505b5f806165da565b905061662c565b865162461bcd60e51b815260048101839052601860248201527f5661756c743a206c6f7373203e20746f74616c206465627400000000000000006044820152606490fd5b1561668557565b60405162461bcd60e51b815260206004820152602c60248201527f46756e6374696f6e206d7573742062652063616c6c6564207468726f7567682060448201526b19195b1959d85d1958d85b1b60a21b6064820152608490fd5b156166e657565b60405162461bcd60e51b815260206004820152602c60248201527f46756e6374696f6e206d7573742062652063616c6c6564207468726f7567682060448201526b6163746976652070726f787960a01b6064820152608490fd5b803b15616774575f805160206169d383398151915280546001600160a01b0319166001600160a01b03909216919091179055565b60405162461bcd60e51b815260206004820152602d60248201527f455243313936373a206e657720696d706c656d656e746174696f6e206973206e60448201526c1bdd08184818dbdb9d1c9858dd609a1b6064820152608490fd5b604051616826916001600160a01b03166167e882614d5d565b5f806020958685527f5361666545524332303a206c6f772d6c6576656c2063616c6c206661696c656487860152868151910182855af1613e4f6168ae565b805190828215928315616896575b5050501561683f5750565b6084906040519062461bcd60e51b82526004820152602a60248201527f5361666545524332303a204552433230206f7065726174696f6e20646964206e6044820152691bdd081cdd58d8d9595960b21b6064820152fd5b6168a693508201810191016158ca565b5f8281616834565b3d156168d8573d906168bf82614e55565b916168cd6040519384614d78565b82523d5f602084013e565b606090565b9192901561693f57508151156168f1575090565b3b156168fa5790565b60405162461bcd60e51b815260206004820152601d60248201527f416464726573733a2063616c6c20746f206e6f6e2d636f6e74726163740000006044820152606490fd5b8251909150156169525750805190602001fd5b60405162461bcd60e51b815290819061696e9060048301614dba565b0390fdfe405787fa12a823e0f2b7631cc41b3ba8828b3321ca811111fa75cd3aa3bb5acec2575a0e9e593c00f959f8c92f12db2869c3395a3b0502d05e2516446f71f85b06c03dc1e1399953729e53ec7181b6e753942e20fafe5b55917f5c34559ae69c360894a13ba1a3210667c828492db98dca3e2076cc3735a920a3ca505d382bbcddf252ad1be2c89b69c2b068fc378daa952ba7f163c4a11628f55a4df523b3ef8c5be1e5ebec7d5bd14f71427d1e84f3dd0314c0f7b2291e5b200ac8c7c3b925f279e6a1f5e320cca91135676d9cb6e44ca8a08c0b88342bcdb1144f6511b568a2646970667358221220aab06860fc6f4e17d6f88ea63ceca62d789e95b442cd8f329b41caf04519235864736f6c63430008140033","linkReferences":{}},"methodIdentifiers":{"API_VERSION()":"77e3b267","DEGRADATION_COEFFICIENT()":"d250f088","DOMAIN_SEPARATOR()":"3644e515","DOMAIN_TYPE_HASH()":"c0993eea","MAXIMUM_STRATEGIES()":"772d2312","MAX_BPS()":"fd967f47","PERMIT_TYPE_HASH()":"4d4bb197","SECS_PER_YEAR()":"28998af0","_shareValuePublic_(uint256)":"06a52a07","_sharesForAmountPublic_(uint256)":"076d8942","acceptGovernance()":"238efcbc","acceptRoleManager()":"6d020808","accountant()":"4fb3ccc5","activation()":"3629c8de","addRole(address,uint256)":"7fde1c8a","addStrategy(address,uint256,uint256,uint256,uint256)":"14b4e26e","addStrategyToQueue(address)":"f76e4caa","allowance(address,address)":"dd62ed3e","apiVersion()":"25829410","approve(address,uint256)":"095ea7b3","autoAllocate()":"ef27c0ad","auto_allocate(bool)":"79f32e89","availableDepositLimit()":"153c27c4","balanceOf(address)":"70a08231","creditAvailable(address)":"d7648013","debtOutstanding(address)":"bdcf36bb","debtRatio()":"cea55f57","decimals()":"313ce567","decreaseAllowance(address,uint256)":"a457c2d7","default_queue(bool)":"b0890e98","deposit(uint256,address)":"6e553f65","depositLimit()":"ecf70858","depositLimitModule()":"9e34e348","emergencyShutdown()":"3403c2fc","expectedReturn(address)":"33586b67","governance()":"5aa6e675","guardian()":"452a9320","increaseAllowance(address,uint256)":"39509351","initialize(address,address,address,string,string,address,address)":"538baeab","lastReport()":"c3535b52","lockedProfit()":"44b81396","lockedProfitDegradation()":"42232716","management()":"88a8d602","managementFee()":"a6f7f5d6","maxAvailableShares()":"75de2902","migrateStrategy(address,address)":"6cb56d19","minTotalIdle()":"e2d4a860","mint(uint256,address)":"94bf804d","name()":"06fdde03","nonces(address)":"7ecebe00","pendingGovernance()":"f39c38a0","pendingRoleManager()":"e415a574","performanceFee()":"87788782","permit(address,address,uint256,uint256,bytes)":"9fd5a6cf","previewDeposit(uint256)":"ef8b30f7","previewMint(uint256)":"b3d7f6b9","pricePerShare()":"99530b06","proxiableUUID()":"52d1902d","redeemShares(uint256,address,address)":"7bf48da5","removeRole(address,uint256)":"79db5f67","removeStrategyFromQueue(address)":"b22439f5","report(uint256,uint256,uint256)":"a1d9bafc","revokeStrategy(address)":"bb994d48","rewards()":"9ec5a894","roleManager()":"00435da5","roles(address)":"99374642","setAccountant(address)":"48ea7127","setDepositLimit(uint256)":"bdc8144b","setDepositLimitModule(address,bool)":"a964e98b","setEmergencyShutdown(bool)":"14c64402","setGovernance(address)":"ab033ea9","setGuardian(address)":"8a0dac4a","setLockedProfitDegradation(uint256)":"7a550365","setManagement(address)":"d4a22bde","setManagementFee(uint256)":"fe56e232","setMinTotalIdle(uint256)":"aad87162","setName(string)":"c47f0027","setPerformanceFee(uint256)":"70897b23","setProfitMaxUnlockTime(uint256)":"df69b22a","setRewards(address)":"ec38a862","setRole(address,uint256)":"74277a63","setSymbol(string)":"b84c8246","setWithdrawalLimitModule(address)":"da7f2437","setWithdrawalQueue(address[20])":"94148415","strategies(address)":"39ebf823","sweep(address,uint256)":"6ea056a9","symbol()":"95d89b41","token()":"fc0c546a","totalAssets()":"01e1d114","totalDebt()":"fc7b9c18","totalIdle()":"9aa7df94","totalSupply()":"18160ddd","transfer(address,uint256)":"a9059cbb","transferFrom(address,address,uint256)":"23b872dd","transferRoleManager(address)":"629b9142","transferShares(address,uint256)":"8fcb4e5b","updateStrategyDebtRatio(address,uint256)":"7c6a4f24","updateStrategyMaxDebtPerHarvest(address,uint256)":"4757a156","updateStrategyMinDebtPerHarvest(address,uint256)":"e722befe","updateStrategyPerformanceFee(address,uint256)":"d0194ed6","upgradeTo(address)":"3659cfe6","upgradeToAndCall(address,bytes)":"4f1ef286","useDefaultQueue()":"bbe4eb49","withdraw(uint256,address,uint256)":"e63697c8","withdrawLimitModule()":"91986003","withdrawalQueue(uint256)":"c822adda"},"id":4}