{"abi":[{"type":"constructor","inputs":[],"stateMutability":"nonpayable"},{"type":"function","name":"API_VERSION","inputs":[],"outputs":[{"name":"","type":"string","internalType":"string"}],"stateMutability":"view"},{"type":"function","name":"DEGRADATION_COEFFICIENT","inputs":[],"outputs":[{"name":"","type":"uint256","internalType":"uint256"}],"stateMutability":"view"},{"type":"function","name":"DOMAIN_SEPARATOR","inputs":[],"outputs":[{"name":"","type":"bytes32","internalType":"bytes32"}],"stateMutability":"view"},{"type":"function","name":"DOMAIN_TYPE_HASH","inputs":[],"outputs":[{"name":"","type":"bytes32","internalType":"bytes32"}],"stateMutability":"view"},{"type":"function","name":"MAXIMUM_STRATEGIES","inputs":[],"outputs":[{"name":"","type":"uint256","internalType":"uint256"}],"stateMutability":"view"},{"type":"function","name":"MAX_BPS","inputs":[],"outputs":[{"name":"","type":"uint256","internalType":"uint256"}],"stateMutability":"view"},{"type":"function","name":"PERMIT_TYPE_HASH","inputs":[],"outputs":[{"name":"","type":"bytes32","internalType":"bytes32"}],"stateMutability":"view"},{"type":"function","name":"SECS_PER_YEAR","inputs":[],"outputs":[{"name":"","type":"uint256","internalType":"uint256"}],"stateMutability":"view"},{"type":"function","name":"_shareValuePublic_","inputs":[{"name":"shares","type":"uint256","internalType":"uint256"}],"outputs":[{"name":"","type":"uint256","internalType":"uint256"}],"stateMutability":"view"},{"type":"function","name":"_sharesForAmountPublic_","inputs":[{"name":"amount","type":"uint256","internalType":"uint256"}],"outputs":[{"name":"","type":"uint256","internalType":"uint256"}],"stateMutability":"view"},{"type":"function","name":"acceptGovernance","inputs":[],"outputs":[],"stateMutability":"nonpayable"},{"type":"function","name":"acceptRoleManager","inputs":[],"outputs":[],"stateMutability":"nonpayable"},{"type":"function","name":"accountant","inputs":[],"outputs":[{"name":"","type":"address","internalType":"address"}],"stateMutability":"view"},{"type":"function","name":"activation","inputs":[],"outputs":[{"name":"","type":"uint256","internalType":"uint256"}],"stateMutability":"view"},{"type":"function","name":"addRole","inputs":[{"name":"_account","type":"address","internalType":"address"},{"name":"_role","type":"uint256","internalType":"uint256"}],"outputs":[],"stateMutability":"nonpayable"},{"type":"function","name":"addStrategy","inputs":[{"name":"strategy","type":"address","internalType":"address"},{"name":"_debtRatio","type":"uint256","internalType":"uint256"},{"name":"minDebtPerHarvest","type":"uint256","internalType":"uint256"},{"name":"maxDebtPerHarvest","type":"uint256","internalType":"uint256"},{"name":"_performanceFee","type":"uint256","internalType":"uint256"}],"outputs":[],"stateMutability":"nonpayable"},{"type":"function","name":"addStrategyToQueue","inputs":[{"name":"strategy","type":"address","internalType":"address"}],"outputs":[],"stateMutability":"nonpayable"},{"type":"function","name":"allowance","inputs":[{"name":"","type":"address","internalType":"address"},{"name":"","type":"address","internalType":"address"}],"outputs":[{"name":"","type":"uint256","internalType":"uint256"}],"stateMutability":"view"},{"type":"function","name":"apiVersion","inputs":[],"outputs":[{"name":"","type":"string","internalType":"string"}],"stateMutability":"pure"},{"type":"function","name":"approve","inputs":[{"name":"spender","type":"address","internalType":"address"},{"name":"amount","type":"uint256","internalType":"uint256"}],"outputs":[{"name":"","type":"bool","internalType":"bool"}],"stateMutability":"nonpayable"},{"type":"function","name":"autoAllocate","inputs":[],"outputs":[{"name":"","type":"bool","internalType":"bool"}],"stateMutability":"view"},{"type":"function","name":"auto_allocate","inputs":[{"name":"_auto","type":"bool","internalType":"bool"}],"outputs":[],"stateMutability":"nonpayable"},{"type":"function","name":"availableDepositLimit","inputs":[],"outputs":[{"name":"","type":"uint256","internalType":"uint256"}],"stateMutability":"view"},{"type":"function","name":"balanceOf","inputs":[{"name":"","type":"address","internalType":"address"}],"outputs":[{"name":"","type":"uint256","internalType":"uint256"}],"stateMutability":"view"},{"type":"function","name":"creditAvailable","inputs":[{"name":"strategy","type":"address","internalType":"address"}],"outputs":[{"name":"","type":"uint256","internalType":"uint256"}],"stateMutability":"view"},{"type":"function","name":"debtOutstanding","inputs":[{"name":"strategy","type":"address","internalType":"address"}],"outputs":[{"name":"","type":"uint256","internalType":"uint256"}],"stateMutability":"view"},{"type":"function","name":"debtRatio","inputs":[],"outputs":[{"name":"","type":"uint256","internalType":"uint256"}],"stateMutability":"view"},{"type":"function","name":"decimals","inputs":[],"outputs":[{"name":"","type":"uint8","internalType":"uint8"}],"stateMutability":"view"},{"type":"function","name":"decreaseAllowance","inputs":[{"name":"spender","type":"address","internalType":"address"},{"name":"amount","type":"uint256","internalType":"uint256"}],"outputs":[{"name":"","type":"bool","internalType":"bool"}],"stateMutability":"nonpayable"},{"type":"function","name":"default_queue","inputs":[{"name":"_useDefault","type":"bool","internalType":"bool"}],"outputs":[],"stateMutability":"nonpayable"},{"type":"function","name":"deposit","inputs":[{"name":"_amount","type":"uint256","internalType":"uint256"},{"name":"recipient","type":"address","internalType":"address"}],"outputs":[{"name":"","type":"uint256","internalType":"uint256"}],"stateMutability":"nonpayable"},{"type":"function","name":"depositLimit","inputs":[],"outputs":[{"name":"","type":"uint256","internalType":"uint256"}],"stateMutability":"view"},{"type":"function","name":"depositLimitModule","inputs":[],"outputs":[{"name":"","type":"address","internalType":"address"}],"stateMutability":"view"},{"type":"function","name":"emergencyShutdown","inputs":[],"outputs":[{"name":"","type":"bool","internalType":"bool"}],"stateMutability":"view"},{"type":"function","name":"expectedReturn","inputs":[{"name":"strategy","type":"address","internalType":"address"}],"outputs":[{"name":"","type":"uint256","internalType":"uint256"}],"stateMutability":"view"},{"type":"function","name":"governance","inputs":[],"outputs":[{"name":"","type":"address","internalType":"address"}],"stateMutability":"view"},{"type":"function","name":"guardian","inputs":[],"outputs":[{"name":"","type":"address","internalType":"address"}],"stateMutability":"view"},{"type":"function","name":"increaseAllowance","inputs":[{"name":"spender","type":"address","internalType":"address"},{"name":"amount","type":"uint256","internalType":"uint256"}],"outputs":[{"name":"","type":"bool","internalType":"bool"}],"stateMutability":"nonpayable"},{"type":"function","name":"initialize","inputs":[{"name":"_token","type":"address","internalType":"address"},{"name":"_governance","type":"address","internalType":"address"},{"name":"_rewards","type":"address","internalType":"address"},{"name":"nameOverride","type":"string","internalType":"string"},{"name":"symbolOverride","type":"string","internalType":"string"},{"name":"_guardian","type":"address","internalType":"address"},{"name":"_management","type":"address","internalType":"address"}],"outputs":[],"stateMutability":"nonpayable"},{"type":"function","name":"lastReport","inputs":[],"outputs":[{"name":"","type":"uint256","internalType":"uint256"}],"stateMutability":"view"},{"type":"function","name":"lockedProfit","inputs":[],"outputs":[{"name":"","type":"uint256","internalType":"uint256"}],"stateMutability":"view"},{"type":"function","name":"lockedProfitDegradation","inputs":[],"outputs":[{"name":"","type":"uint256","internalType":"uint256"}],"stateMutability":"view"},{"type":"function","name":"management","inputs":[],"outputs":[{"name":"","type":"address","internalType":"address"}],"stateMutability":"view"},{"type":"function","name":"managementFee","inputs":[],"outputs":[{"name":"","type":"uint256","internalType":"uint256"}],"stateMutability":"view"},{"type":"function","name":"maxAvailableShares","inputs":[],"outputs":[{"name":"","type":"uint256","internalType":"uint256"}],"stateMutability":"view"},{"type":"function","name":"migrateStrategy","inputs":[{"name":"oldVersion","type":"address","internalType":"address"},{"name":"newVersion","type":"address","internalType":"address"}],"outputs":[],"stateMutability":"nonpayable"},{"type":"function","name":"minTotalIdle","inputs":[],"outputs":[{"name":"","type":"uint256","internalType":"uint256"}],"stateMutability":"view"},{"type":"function","name":"mint","inputs":[{"name":"_shares","type":"uint256","internalType":"uint256"},{"name":"recipient","type":"address","internalType":"address"}],"outputs":[{"name":"","type":"uint256","internalType":"uint256"}],"stateMutability":"nonpayable"},{"type":"function","name":"name","inputs":[],"outputs":[{"name":"","type":"string","internalType":"string"}],"stateMutability":"view"},{"type":"function","name":"nonces","inputs":[{"name":"","type":"address","internalType":"address"}],"outputs":[{"name":"","type":"uint256","internalType":"uint256"}],"stateMutability":"view"},{"type":"function","name":"pendingGovernance","inputs":[],"outputs":[{"name":"","type":"address","internalType":"address"}],"stateMutability":"view"},{"type":"function","name":"pendingRoleManager","inputs":[],"outputs":[{"name":"","type":"address","internalType":"address"}],"stateMutability":"view"},{"type":"function","name":"performanceFee","inputs":[],"outputs":[{"name":"","type":"uint256","internalType":"uint256"}],"stateMutability":"view"},{"type":"function","name":"permit","inputs":[{"name":"owner","type":"address","internalType":"address"},{"name":"spender","type":"address","internalType":"address"},{"name":"value","type":"uint256","internalType":"uint256"},{"name":"deadline","type":"uint256","internalType":"uint256"},{"name":"signature","type":"bytes","internalType":"bytes"}],"outputs":[{"name":"","type":"bool","internalType":"bool"}],"stateMutability":"nonpayable"},{"type":"function","name":"previewDeposit","inputs":[{"name":"assets","type":"uint256","internalType":"uint256"}],"outputs":[{"name":"","type":"uint256","internalType":"uint256"}],"stateMutability":"view"},{"type":"function","name":"previewMint","inputs":[{"name":"shares_","type":"uint256","internalType":"uint256"}],"outputs":[{"name":"","type":"uint256","internalType":"uint256"}],"stateMutability":"view"},{"type":"function","name":"pricePerShare","inputs":[],"outputs":[{"name":"","type":"uint256","internalType":"uint256"}],"stateMutability":"view"},{"type":"function","name":"proxiableUUID","inputs":[],"outputs":[{"name":"","type":"bytes32","internalType":"bytes32"}],"stateMutability":"view"},{"type":"function","name":"redeemShares","inputs":[{"name":"shares","type":"uint256","internalType":"uint256"},{"name":"recipient","type":"address","internalType":"address"},{"name":"owner","type":"address","internalType":"address"}],"outputs":[{"name":"","type":"uint256","internalType":"uint256"}],"stateMutability":"nonpayable"},{"type":"function","name":"removeRole","inputs":[{"name":"_account","type":"address","internalType":"address"},{"name":"_role","type":"uint256","internalType":"uint256"}],"outputs":[],"stateMutability":"nonpayable"},{"type":"function","name":"removeStrategyFromQueue","inputs":[{"name":"strategy","type":"address","internalType":"address"}],"outputs":[],"stateMutability":"nonpayable"},{"type":"function","name":"report","inputs":[{"name":"gain","type":"uint256","internalType":"uint256"},{"name":"loss","type":"uint256","internalType":"uint256"},{"name":"_debtPayment","type":"uint256","internalType":"uint256"}],"outputs":[{"name":"","type":"uint256","internalType":"uint256"}],"stateMutability":"nonpayable"},{"type":"function","name":"revokeStrategy","inputs":[{"name":"strategy","type":"address","internalType":"address"}],"outputs":[],"stateMutability":"nonpayable"},{"type":"function","name":"rewards","inputs":[],"outputs":[{"name":"","type":"address","internalType":"address"}],"stateMutability":"view"},{"type":"function","name":"roleManager","inputs":[],"outputs":[{"name":"","type":"address","internalType":"address"}],"stateMutability":"view"},{"type":"function","name":"roles","inputs":[{"name":"","type":"address","internalType":"address"}],"outputs":[{"name":"","type":"uint256","internalType":"uint256"}],"stateMutability":"view"},{"type":"function","name":"setAccountant","inputs":[{"name":"_acc","type":"address","internalType":"address"}],"outputs":[],"stateMutability":"nonpayable"},{"type":"function","name":"setDepositLimit","inputs":[{"name":"limit","type":"uint256","internalType":"uint256"}],"outputs":[],"stateMutability":"nonpayable"},{"type":"function","name":"setDepositLimitModule","inputs":[{"name":"_module","type":"address","internalType":"address"},{"name":"_override","type":"bool","internalType":"bool"}],"outputs":[],"stateMutability":"nonpayable"},{"type":"function","name":"setEmergencyShutdown","inputs":[{"name":"active","type":"bool","internalType":"bool"}],"outputs":[],"stateMutability":"nonpayable"},{"type":"function","name":"setGovernance","inputs":[{"name":"_gov","type":"address","internalType":"address"}],"outputs":[],"stateMutability":"nonpayable"},{"type":"function","name":"setGuardian","inputs":[{"name":"_guardian","type":"address","internalType":"address"}],"outputs":[],"stateMutability":"nonpayable"},{"type":"function","name":"setLockedProfitDegradation","inputs":[{"name":"degradation","type":"uint256","internalType":"uint256"}],"outputs":[],"stateMutability":"nonpayable"},{"type":"function","name":"setManagement","inputs":[{"name":"_mgmt","type":"address","internalType":"address"}],"outputs":[],"stateMutability":"nonpayable"},{"type":"function","name":"setManagementFee","inputs":[{"name":"fee","type":"uint256","internalType":"uint256"}],"outputs":[],"stateMutability":"nonpayable"},{"type":"function","name":"setMinTotalIdle","inputs":[{"name":"_min","type":"uint256","internalType":"uint256"}],"outputs":[],"stateMutability":"nonpayable"},{"type":"function","name":"setName","inputs":[{"name":"_name","type":"string","internalType":"string"}],"outputs":[],"stateMutability":"nonpayable"},{"type":"function","name":"setPerformanceFee","inputs":[{"name":"fee","type":"uint256","internalType":"uint256"}],"outputs":[],"stateMutability":"nonpayable"},{"type":"function","name":"setProfitMaxUnlockTime","inputs":[{"name":"_time","type":"uint256","internalType":"uint256"}],"outputs":[],"stateMutability":"nonpayable"},{"type":"function","name":"setRewards","inputs":[{"name":"_rewards","type":"address","internalType":"address"}],"outputs":[],"stateMutability":"nonpayable"},{"type":"function","name":"setRole","inputs":[{"name":"_account","type":"address","internalType":"address"},{"name":"_role","type":"uint256","internalType":"uint256"}],"outputs":[],"stateMutability":"nonpayable"},{"type":"function","name":"setSymbol","inputs":[{"name":"_symbol","type":"string","internalType":"string"}],"outputs":[],"stateMutability":"nonpayable"},{"type":"function","name":"setWithdrawalLimitModule","inputs":[{"name":"_module","type":"address","internalType":"address"}],"outputs":[],"stateMutability":"nonpayable"},{"type":"function","name":"setWithdrawalQueue","inputs":[{"name":"queue","type":"address[20]","internalType":"address[20]"}],"outputs":[],"stateMutability":"nonpayable"},{"type":"function","name":"strategies","inputs":[{"name":"","type":"address","internalType":"address"}],"outputs":[{"name":"performanceFee","type":"uint256","internalType":"uint256"},{"name":"activation","type":"uint256","internalType":"uint256"},{"name":"debtRatio","type":"uint256","internalType":"uint256"},{"name":"minDebtPerHarvest","type":"uint256","internalType":"uint256"},{"name":"maxDebtPerHarvest","type":"uint256","internalType":"uint256"},{"name":"lastReport","type":"uint256","internalType":"uint256"},{"name":"totalDebt","type":"uint256","internalType":"uint256"},{"name":"totalGain","type":"uint256","internalType":"uint256"},{"name":"totalLoss","type":"uint256","internalType":"uint256"}],"stateMutability":"view"},{"type":"function","name":"sweep","inputs":[{"name":"_token","type":"address","internalType":"address"},{"name":"amount","type":"uint256","internalType":"uint256"}],"outputs":[],"stateMutability":"nonpayable"},{"type":"function","name":"symbol","inputs":[],"outputs":[{"name":"","type":"string","internalType":"string"}],"stateMutability":"view"},{"type":"function","name":"token","inputs":[],"outputs":[{"name":"","type":"address","internalType":"contract IERC20"}],"stateMutability":"view"},{"type":"function","name":"totalAssets","inputs":[],"outputs":[{"name":"","type":"uint256","internalType":"uint256"}],"stateMutability":"view"},{"type":"function","name":"totalDebt","inputs":[],"outputs":[{"name":"","type":"uint256","internalType":"uint256"}],"stateMutability":"view"},{"type":"function","name":"totalIdle","inputs":[],"outputs":[{"name":"","type":"uint256","internalType":"uint256"}],"stateMutability":"view"},{"type":"function","name":"totalSupply","inputs":[],"outputs":[{"name":"","type":"uint256","internalType":"uint256"}],"stateMutability":"view"},{"type":"function","name":"transfer","inputs":[{"name":"to","type":"address","internalType":"address"},{"name":"amount","type":"uint256","internalType":"uint256"}],"outputs":[{"name":"","type":"bool","internalType":"bool"}],"stateMutability":"nonpayable"},{"type":"function","name":"transferFrom","inputs":[{"name":"from","type":"address","internalType":"address"},{"name":"to","type":"address","internalType":"address"},{"name":"amount","type":"uint256","internalType":"uint256"}],"outputs":[{"name":"","type":"bool","internalType":"bool"}],"stateMutability":"nonpayable"},{"type":"function","name":"transferRoleManager","inputs":[{"name":"_pendingRoleManager","type":"address","internalType":"address"}],"outputs":[],"stateMutability":"nonpayable"},{"type":"function","name":"transferShares","inputs":[{"name":"to","type":"address","internalType":"address"},{"name":"amount","type":"uint256","internalType":"uint256"}],"outputs":[],"stateMutability":"nonpayable"},{"type":"function","name":"updateStrategyDebtRatio","inputs":[{"name":"strategy","type":"address","internalType":"address"},{"name":"_debtRatio","type":"uint256","internalType":"uint256"}],"outputs":[],"stateMutability":"nonpayable"},{"type":"function","name":"updateStrategyMaxDebtPerHarvest","inputs":[{"name":"strategy","type":"address","internalType":"address"},{"name":"m","type":"uint256","internalType":"uint256"}],"outputs":[],"stateMutability":"nonpayable"},{"type":"function","name":"updateStrategyMinDebtPerHarvest","inputs":[{"name":"strategy","type":"address","internalType":"address"},{"name":"m","type":"uint256","internalType":"uint256"}],"outputs":[],"stateMutability":"nonpayable"},{"type":"function","name":"updateStrategyPerformanceFee","inputs":[{"name":"strategy","type":"address","internalType":"address"},{"name":"pf","type":"uint256","internalType":"uint256"}],"outputs":[],"stateMutability":"nonpayable"},{"type":"function","name":"upgradeTo","inputs":[{"name":"newImplementation","type":"address","internalType":"address"}],"outputs":[],"stateMutability":"nonpayable"},{"type":"function","name":"upgradeToAndCall","inputs":[{"name":"newImplementation","type":"address","internalType":"address"},{"name":"data","type":"bytes","internalType":"bytes"}],"outputs":[],"stateMutability":"payable"},{"type":"function","name":"useDefaultQueue","inputs":[],"outputs":[{"name":"","type":"bool","internalType":"bool"}],"stateMutability":"view"},{"type":"function","name":"withdraw","inputs":[{"name":"assets","type":"uint256","internalType":"uint256"},{"name":"recipient","type":"address","internalType":"address"},{"name":"maxLoss","type":"uint256","internalType":"uint256"}],"outputs":[{"name":"","type":"uint256","internalType":"uint256"}],"stateMutability":"nonpayable"},{"type":"function","name":"withdrawLimitModule","inputs":[],"outputs":[{"name":"","type":"address","internalType":"address"}],"stateMutability":"view"},{"type":"function","name":"withdrawalQueue","inputs":[{"name":"","type":"uint256","internalType":"uint256"}],"outputs":[{"name":"","type":"address","internalType":"address"}],"stateMutability":"view"},{"type":"event","name":"AdminChanged","inputs":[{"name":"previousAdmin","type":"address","indexed":false,"internalType":"address"},{"name":"newAdmin","type":"address","indexed":false,"internalType":"address"}],"anonymous":false},{"type":"event","name":"Approval","inputs":[{"name":"owner","type":"address","indexed":true,"internalType":"address"},{"name":"spender","type":"address","indexed":true,"internalType":"address"},{"name":"value","type":"uint256","indexed":false,"internalType":"uint256"}],"anonymous":false},{"type":"event","name":"BeaconUpgraded","inputs":[{"name":"beacon","type":"address","indexed":true,"internalType":"address"}],"anonymous":false},{"type":"event","name":"Deposit","inputs":[{"name":"recipient","type":"address","indexed":true,"internalType":"address"},{"name":"shares","type":"uint256","indexed":false,"internalType":"uint256"},{"name":"amount","type":"uint256","indexed":false,"internalType":"uint256"}],"anonymous":false},{"type":"event","name":"EmergencyShutdown","inputs":[{"name":"active","type":"bool","indexed":false,"internalType":"bool"}],"anonymous":false},{"type":"event","name":"FeeReport","inputs":[{"name":"management_fee","type":"uint256","indexed":false,"internalType":"uint256"},{"name":"performance_fee","type":"uint256","indexed":false,"internalType":"uint256"},{"name":"strategist_fee","type":"uint256","indexed":false,"internalType":"uint256"},{"name":"duration","type":"uint256","indexed":false,"internalType":"uint256"}],"anonymous":false},{"type":"event","name":"Initialized","inputs":[{"name":"version","type":"uint8","indexed":false,"internalType":"uint8"}],"anonymous":false},{"type":"event","name":"LockedProfitDegradationUpdated","inputs":[{"name":"value","type":"uint256","indexed":false,"internalType":"uint256"}],"anonymous":false},{"type":"event","name":"NewPendingGovernance","inputs":[{"name":"pendingGovernance","type":"address","indexed":true,"internalType":"address"}],"anonymous":false},{"type":"event","name":"RoleSet","inputs":[{"name":"account","type":"address","indexed":true,"internalType":"address"},{"name":"role","type":"uint256","indexed":false,"internalType":"uint256"}],"anonymous":false},{"type":"event","name":"StrategyAdded","inputs":[{"name":"strategy","type":"address","indexed":true,"internalType":"address"},{"name":"debtRatio","type":"uint256","indexed":false,"internalType":"uint256"},{"name":"minDebtPerHarvest","type":"uint256","indexed":false,"internalType":"uint256"},{"name":"maxDebtPerHarvest","type":"uint256","indexed":false,"internalType":"uint256"},{"name":"performanceFee","type":"uint256","indexed":false,"internalType":"uint256"}],"anonymous":false},{"type":"event","name":"StrategyAddedToQueue","inputs":[{"name":"strategy","type":"address","indexed":true,"internalType":"address"}],"anonymous":false},{"type":"event","name":"StrategyMigrated","inputs":[{"name":"oldVersion","type":"address","indexed":true,"internalType":"address"},{"name":"newVersion","type":"address","indexed":true,"internalType":"address"}],"anonymous":false},{"type":"event","name":"StrategyRemovedFromQueue","inputs":[{"name":"strategy","type":"address","indexed":true,"internalType":"address"}],"anonymous":false},{"type":"event","name":"StrategyReported","inputs":[{"name":"strategy","type":"address","indexed":true,"internalType":"address"},{"name":"gain","type":"uint256","indexed":false,"internalType":"uint256"},{"name":"loss","type":"uint256","indexed":false,"internalType":"uint256"},{"name":"debtPaid","type":"uint256","indexed":false,"internalType":"uint256"},{"name":"totalGain","type":"uint256","indexed":false,"internalType":"uint256"},{"name":"totalLoss","type":"uint256","indexed":false,"internalType":"uint256"},{"name":"totalDebt","type":"uint256","indexed":false,"internalType":"uint256"},{"name":"debtAdded","type":"uint256","indexed":false,"internalType":"uint256"},{"name":"debtRatio","type":"uint256","indexed":false,"internalType":"uint256"}],"anonymous":false},{"type":"event","name":"StrategyRevoked","inputs":[{"name":"strategy","type":"address","indexed":true,"internalType":"address"}],"anonymous":false},{"type":"event","name":"StrategyUpdateDebtRatio","inputs":[{"name":"strategy","type":"address","indexed":true,"internalType":"address"},{"name":"debtRatio","type":"uint256","indexed":false,"internalType":"uint256"}],"anonymous":false},{"type":"event","name":"StrategyUpdateMaxDebtPerHarvest","inputs":[{"name":"strategy","type":"address","indexed":true,"internalType":"address"},{"name":"maxDebtPerHarvest","type":"uint256","indexed":false,"internalType":"uint256"}],"anonymous":false},{"type":"event","name":"StrategyUpdateMinDebtPerHarvest","inputs":[{"name":"strategy","type":"address","indexed":true,"internalType":"address"},{"name":"minDebtPerHarvest","type":"uint256","indexed":false,"internalType":"uint256"}],"anonymous":false},{"type":"event","name":"StrategyUpdatePerformanceFee","inputs":[{"name":"strategy","type":"address","indexed":true,"internalType":"address"},{"name":"performanceFee","type":"uint256","indexed":false,"internalType":"uint256"}],"anonymous":false},{"type":"event","name":"Sweep","inputs":[{"name":"token","type":"address","indexed":true,"internalType":"address"},{"name":"amount","type":"uint256","indexed":false,"internalType":"uint256"}],"anonymous":false},{"type":"event","name":"Transfer","inputs":[{"name":"sender","type":"address","indexed":true,"internalType":"address"},{"name":"receiver","type":"address","indexed":true,"internalType":"address"},{"name":"value","type":"uint256","indexed":false,"internalType":"uint256"}],"anonymous":false},{"type":"event","name":"UpdateAccountant","inputs":[{"name":"accountant","type":"address","indexed":true,"internalType":"address"}],"anonymous":false},{"type":"event","name":"UpdateAutoAllocate","inputs":[{"name":"autoAllocate","type":"bool","indexed":false,"internalType":"bool"}],"anonymous":false},{"type":"event","name":"UpdateDepositLimit","inputs":[{"name":"depositLimit","type":"uint256","indexed":false,"internalType":"uint256"}],"anonymous":false},{"type":"event","name":"UpdateDepositLimitModule","inputs":[{"name":"module","type":"address","indexed":true,"internalType":"address"}],"anonymous":false},{"type":"event","name":"UpdateFutureRoleManager","inputs":[{"name":"pendingRoleManager","type":"address","indexed":false,"internalType":"address"}],"anonymous":false},{"type":"event","name":"UpdateGovernance","inputs":[{"name":"governance","type":"address","indexed":false,"internalType":"address"}],"anonymous":false},{"type":"event","name":"UpdateGuardian","inputs":[{"name":"guardian","type":"address","indexed":false,"internalType":"address"}],"anonymous":false},{"type":"event","name":"UpdateManagement","inputs":[{"name":"management","type":"address","indexed":false,"internalType":"address"}],"anonymous":false},{"type":"event","name":"UpdateManagementFee","inputs":[{"name":"managementFee","type":"uint256","indexed":false,"internalType":"uint256"}],"anonymous":false},{"type":"event","name":"UpdateMinimumTotalIdle","inputs":[{"name":"minTotalIdle","type":"uint256","indexed":false,"internalType":"uint256"}],"anonymous":false},{"type":"event","name":"UpdatePerformanceFee","inputs":[{"name":"performanceFee","type":"uint256","indexed":false,"internalType":"uint256"}],"anonymous":false},{"type":"event","name":"UpdateProfitMaxUnlockTime","inputs":[{"name":"time","type":"uint256","indexed":false,"internalType":"uint256"}],"anonymous":false},{"type":"event","name":"UpdateRewards","inputs":[{"name":"rewards","type":"address","indexed":false,"internalType":"address"}],"anonymous":false},{"type":"event","name":"UpdateRoleManager","inputs":[{"name":"roleManager","type":"address","indexed":false,"internalType":"address"}],"anonymous":false},{"type":"event","name":"UpdateUseDefaultQueue","inputs":[{"name":"useDefaultQueue","type":"bool","indexed":false,"internalType":"bool"}],"anonymous":false},{"type":"event","name":"UpdateWithdrawLimitModule","inputs":[{"name":"module","type":"address","indexed":true,"internalType":"address"}],"anonymous":false},{"type":"event","name":"UpdateWithdrawalQueue","inputs":[{"name":"queue","type":"address[20]","indexed":false,"internalType":"address[20]"}],"anonymous":false},{"type":"event","name":"Upgraded","inputs":[{"name":"implementation","type":"address","indexed":true,"internalType":"address"}],"anonymous":false},{"type":"event","name":"Withdraw","inputs":[{"name":"recipient","type":"address","indexed":true,"internalType":"address"},{"name":"shares","type":"uint256","indexed":false,"internalType":"uint256"},{"name":"amount","type":"uint256","indexed":false,"internalType":"uint256"}],"anonymous":false},{"type":"event","name":"WithdrawFromStrategy","inputs":[{"name":"strategy","type":"address","indexed":true,"internalType":"address"},{"name":"totalDebt","type":"uint256","indexed":false,"internalType":"uint256"},{"name":"loss","type":"uint256","indexed":false,"internalType":"uint256"}],"anonymous":false},{"type":"error","name":"AllowOver","inputs":[]},{"type":"error","name":"AlreadyRevoked","inputs":[]},{"type":"error","name":"BadAmount","inputs":[]},{"type":"error","name":"BadRewards","inputs":[]},{"type":"error","name":"BadTo","inputs":[]},{"type":"error","name":"BadToken","inputs":[]},{"type":"error","name":"DegOver","inputs":[]},{"type":"error","name":"ExcessiveLoss","inputs":[]},{"type":"error","name":"InitAlready","inputs":[]},{"type":"error","name":"InsufficientBalance","inputs":[]},{"type":"error","name":"InvalidShares","inputs":[]},{"type":"error","name":"InvalidSig","inputs":[]},{"type":"error","name":"LimitNotMax","inputs":[]},{"type":"error","name":"MgmtFeeOver","inputs":[]},{"type":"error","name":"MinMaxMismatch","inputs":[]},{"type":"error","name":"NotAcc","inputs":[]},{"type":"error","name":"NotAuthorized","inputs":[]},{"type":"error","name":"NotGov","inputs":[]},{"type":"error","name":"NotGovMgmt","inputs":[]},{"type":"error","name":"NotInQueue","inputs":[]},{"type":"error","name":"NotPendGov","inputs":[]},{"type":"error","name":"NotPendRole","inputs":[]},{"type":"error","name":"NotRole","inputs":[]},{"type":"error","name":"OwnerZero","inputs":[]},{"type":"error","name":"PerfFeeOver","inputs":[]},{"type":"error","name":"PermitExpired","inputs":[]},{"type":"error","name":"QueueFull","inputs":[]},{"type":"error","name":"RatioOverflow","inputs":[]},{"type":"error","name":"SigLen","inputs":[]},{"type":"error","name":"StrategyExit","inputs":[]},{"type":"error","name":"TooLong","inputs":[]},{"type":"error","name":"UnknownStrategy","inputs":[]},{"type":"error","name":"ZeroAmount","inputs":[]},{"type":"error","name":"ZeroShares","inputs":[]}],"bytecode":{"object":"0x60a080604052346100de5730608052600180555f549060ff8260081c1661008c575060ff80821603610052575b604051615d2a90816100e3823960805181818161348b015281816135a70152613a5e0152f35b60ff90811916175f557f7f26b83ff96e1f2b6a682f133852f6798a09c465da95921460cefb3847402498602060405160ff8152a15f61002c565b62461bcd60e51b815260206004820152602760248201527f496e697469616c697a61626c653a20636f6e747261637420697320696e697469604482015266616c697a696e6760c81b6064820152608490fd5b5f80fdfe6080806040526004361015610012575f80fd5b5f3560e01c908162435da5146142945750806301e1d1141461427357806306a52a07146113d857806306fdde03146141e1578063076d894214610715578063095ea7b31461417b57806314b4e26e14613f3d57806314c6440214613e9c578063153c27c414613e5657806318160ddd14613e39578063238efcbc14613dde57806323b872dd14613d30578063258294101461272c57806328998af014613d12578063313ce56714613cf257806333586b6714613cb75780633403c2fc14613c955780633629c8de14613c785780633644e51514613c5e5780633659cfe614613a4057806339509351146139fc57806339ebf8231461396c578063422327161461394f57806344b8139614613932578063452a93201461390a5780634757a1561461384b57806348ea7127146137db5780634d4bb197146137b45780634f1ef2861461355e5780634fb3ccc51461353657806352d1902d14613479578063538baeab14612d255780635aa6e67514612cfd578063629b914214612c865780636cb56d1914612c4a5780636d02080814612bef5780636e553f6514612a375780636ea056a9146128c557806370897b231461287757806370a082311461283f57806374277a63146127df57806375de290214612762578063772d23121461274757806377e3b2671461272c57806379db5f67146126c557806379f32e89146126475780637a550365146125e45780637bf48da51461212a5780637c6a4f2414611fd45780637ecebe0014611f9c5780637fde1c8a14611f275780638778878214611f0a57806388a8d60214611ee25780638a0dac4a14611e635780638fcb4e5b14611e475780639198600314611e1f5780639414841514611bb557806394bf804d14611a9a57806395d89b41146119c0578063993746421461198857806399530b061461195c5780639aa7df941461193f5780639e34e348146119175780639ec5a894146118ef5780639fd5a6cf14611716578063a1d9bafc146116f2578063a457c2d714611664578063a6f7f5d614611647578063a9059cbb14611616578063a964e98b1461157a578063aad8716214611522578063ab033ea9146114b2578063b0890e981461142d578063b22439f5146113dd578063b3d7f6b9146113d8578063b84c8246146112f1578063bb994d4814611253578063bbe4eb4914611231578063bdc8144b146111d9578063bdcf36bb1461119e578063c0993eea14611177578063c3535b521461115a578063c47f002714611053578063c822adda1461101d578063cea55f5714611000578063d0194ed614610f5d578063d250f08814610f3b578063d4a22bde14610ed7578063d764801314610e94578063da7f243714610e24578063dd62ed3e14610dd4578063df69b22a14610d28578063e2d4a86014610d0b578063e415a57414610ce3578063e63697c8146108b0578063e722befe146107e2578063ec38a8621461075c578063ecf708581461073f578063ef27c0ad1461071a578063ef8b30f714610715578063f39c38a0146106ed578063f76e4caa1461057a578063fc0c546a14610552578063fc7b9c1814610535578063fd967f47146105195763fe56e232146104a9575f80fd5b3461051557602036600319011261051557600954600435906001600160a01b031633036105065761271081116104f7576020815f516020615af55f395f51905f5292602c55604051908152a1005b63e9577e6560e01b5f5260045ffd5b63b577c1f760e01b5f5260045ffd5b5f80fd5b34610515575f3660031901126105155760206040516127108152f35b34610515575f366003190112610515576020602654604051908152f35b34610515575f366003190112610515576008546040516001600160a01b039091168152602090f35b34610515576020366003190112610515576105936143b7565b6009546001600160a01b0316331415806106d8575b6106c9576001600160a01b0381165f818152600d60205260409020600101549091901561068a575f91825b601484101561068057600e8401546001600160a01b0316801561062d57821461061e575f19811461060a57600193840193016105d3565b634e487b7160e01b5f52601160045260245ffd5b633191b6f360e01b5f5260045ffd5b5060149193505b1015610671576106439061453a565b61064b614e6f565b7fa8727d412c6fa1e2497d6d6f275e2d9fe4d9318d5b793632e60ad9d38ee8f1fa5f80a2005b638acb5f2760e01b5f5260045ffd5b6014919350610634565b60405162461bcd60e51b81526020600482015260176024820152765661756c743a20756e6b6e6f776e20737472617465677960481b6044820152606490fd5b6378e13eed60e01b5f5260045ffd5b50600a546001600160a01b03163314156105a8565b34610515575f36600319011261051557600c546040516001600160a01b039091168152602090f35b614399565b34610515575f36600319011261051557602060ff60335460081c166040519015158152f35b34610515575f366003190112610515576020602354604051908152f35b34610515576020366003190112610515576107756143b7565b6009546001600160a01b03163303610506576001600160a01b0316801580156107d9575b6107ca57602b80546001600160a01b031916821790556040519081525f516020615a755f395f51905f5290602090a1005b63116576b560e01b5f5260045ffd5b50308114610799565b34610515576040366003190112610515576107fb6143b7565b6024359060018060a01b03600954163314158061089b575b6106c9576001600160a01b03165f818152600d60205260409020600101549091901561061e57815f52600d60205280600460405f2001541061088c5760207f0b728ad785976532c4aaadde09b1cba5f262a7090e83c62d2377bc405678b29c91835f52600d825280600360405f200155604051908152a2005b636831c0e960e11b5f5260045ffd5b50600a546001600160a01b0316331415610813565b34610515576060366003190112610515576004356108cc6143cd565b604435906108df6002600154141561494f565b60026001556001600160a01b03811615610cdc575b6127108211610ccd578215610cbe5761090c83614e38565b91335f52600560205260405f20548311610caf5783602554805f92116109cb575b602085875f516020615cd55f395f51905f5260408861094e856007546144c7565b600755335f5260058652815f206109668682546144c7565b90555f82518681525f516020615bf55f395f51905f52883392a361098c846025546144c7565b6025556008546109a890859083906001600160a01b031661527f565b8151858152868101949094526001600160a01b031692a260018055604051908152f35b90919293505f5b6014811015610ca657600e8101546001600160a01b03168015610c9c5782871115610c3957610a0183886144c7565b815f52600d602052600660405f2001548082105f14610c3257505b8015610c28576008546040516370a0823160e01b815230600482015290602090829060249082906001600160a01b03165afa908115610bb9575f91610bf7575b5060405191632e1a7d4d60e01b835260048301526020826024815f875af1918215610bb9575f92610bc4575b506008546040516370a0823160e01b815230600482015290602090829060249082906001600160a01b03165afa908115610bb9575f91610b86575b50610ad891610ad1916144c7565b80956144f3565b9381610b40575b60408392610b1b5f516020615a355f395f51905f5293600197965f52600d6020526006845f2001610b118282546144c7565b90556026546144c7565b602655835f52600d6020526006825f2001549082519182526020820152a25b016109d2565b9497604082610b1b610b6e82610b6860019998975f516020615a355f395f51905f52976144c7565b9d6144f3565b98610b7983876152ba565b9350509293945050610adf565b90506020813d8211610bb1575b81610ba060209383614329565b810103126105155751610ad8610ac3565b3d9150610b93565b6040513d5f823e3d90fd5b9091506020813d8211610bef575b81610bdf60209383614329565b8101031261051557519089610a88565b3d9150610bd2565b90506020813d8211610c20575b81610c1160209383614329565b81010312610515575189610a5c565b3d9150610c04565b5050600190610b3a565b9050610a1c565b50509190915b80602555808511610c92575b50610c598461271092614708565b0410610c8357815f516020615cd55f395f51905f526040610c7b602095614e38565b93929461092d565b63fa52593960e01b5f5260045ffd5b9350610c59610c4b565b5050919091610c3f565b50919091610c3f565b631e9acf1760e31b5f5260045ffd5b631f2a200560e01b5f5260045ffd5b63749b593960e01b5f5260045ffd5b50336108f4565b34610515575f366003190112610515576036546040516001600160a01b039091168152602090f35b34610515575f366003190112610515576020603254604051908152f35b3461051557602036600319011261051557600954600435906001600160a01b03163303610506576301e185588111610dc5576020817ff361aed463da6fa20358e45c6209f1d3e16d4eca706e6eab0b0aeb338729c77a92155f14610db2575f602a555f6029555b604051908152a15f516020615b355f395f51905f526020602a54604051908152a1005b80670de0b6b3a764000004602a55610d8f565b6327722dab60e11b5f5260045ffd5b3461051557604036600319011261051557610ded6143b7565b610df56143cd565b6001600160a01b039182165f908152600660209081526040808320949093168252928352819020549051908152f35b3461051557602036600319011261051557610e3d6143b7565b6009546001600160a01b0316330361050657603180546001600160a01b0319166001600160a01b039290921691821790557fce6e3f8beda82a13c441d76efd4a6335760f219f38c60502e6680060874e109d5f80a2005b3461051557602036600319011261051557610ead6143b7565b6001600160a01b03811615610ed0575b610ec8602091615590565b604051908152f35b5033610ebd565b3461051557602036600319011261051557610ef06143b7565b6009546001600160a01b0316330361050657600a80546001600160a01b0319166001600160a01b0390921691821790556040519081525f516020615bb55f395f51905f5290602090a1005b34610515575f366003190112610515576020604051670de0b6b3a76400008152f35b3461051557604036600319011261051557610f766143b7565b60095460243591906001600160a01b03163303610506576113888211610ff2576001600160a01b03165f818152600d60205260409020600101549091901561061e5760207fe57488a65fa53066d4c25bac90db47dda4e5de3025ac12bf76ff07211cf7f39e91835f52600d82528060405f2055604051908152a2005b62a7012360e11b5f5260045ffd5b34610515575f366003190112610515576020602454604051908152f35b3461051557602036600319011261051557600435601481101561051557600e01546040516001600160a01b039091168152602090f35b34610515576020366003190112610515576004356001600160401b0381116105155761108390369060040161449a565b6009546001600160a01b03163303610506576001600160401b038111611146576110b7816110b26002546142d5565b6145f8565b5f601f82116001146110e75781906110d7935f926110dc575b5050614698565b600255005b0135905083806110d0565b601f1982169260025f5260205f20915f5b85811061112e57508360019510611115575b505050811b01600255005b01355f19600384901b60f8161c1916905582808061110a565b909260206001819286860135815501940191016110f8565b634e487b7160e01b5f52604160045260245ffd5b34610515575f366003190112610515576020602754604051908152f35b34610515575f3660031901126105155760206040515f516020615c955f395f51905f528152f35b34610515576020366003190112610515576111b76143b7565b6001600160a01b038116156111d2575b610ec8602091615686565b50336111c7565b3461051557602036600319011261051557600954600435906001600160a01b03163303610506576020817fae565aab888bca5e19e25a13db7b0c9144305bf55cb0f3f4d724f730e5acdd6292602355604051908152a1005b34610515575f36600319011261051557602060ff603354166040519015158152f35b346105155760203660031901126105155761126c6143b7565b6001600160a01b03811633811415806112dc575b806112c7575b6112b8575f52600d602052600260405f200154156112a9576112a79061513c565b005b63905e710760e01b5f5260045ffd5b63ea8e4eb560e01b5f5260045ffd5b50600b546001600160a01b0316331415611286565b506009546001600160a01b0316331415611280565b34610515576020366003190112610515576004356001600160401b0381116105155761132190369060040161449a565b6009546001600160a01b03163303610506576001600160401b03811161114657611355816113506003546142d5565b614648565b5f601f8211600114611379578190611374935f926110dc575050614698565b600355005b601f1982169260035f5260205f20915f5b8581106113c0575083600195106113a7575b505050811b01600355005b01355f19600384901b60f8161c1916905582808061139c565b9092602060018192868601358155019401910161138a565b6142b7565b34610515576020366003190112610515576113f66143b7565b6009546001600160a01b031633141580611418575b6106c9576112a790614d59565b50600a546001600160a01b031633141561140b565b34610515576020366003190112610515576114466143f9565b6009546001600160a01b03163314158061149d575b6106c95760207f1f88e73ebc721f227812938fe07a069ec1f7136aafacb397ed460bd15dee13f191151560ff196033541660ff821617603355604051908152a1005b50600a546001600160a01b031633141561145b565b34610515576020366003190112610515576114cb6143b7565b6009546001600160a01b0316330361050657600c80546001600160a01b0319166001600160a01b039290921691821790557f90ad4c550d25bd23af61db38d1ff8671b89edaaa0bca0fc36bac5084ecc120bd5f80a2005b3461051557602036600319011261051557600954600435906001600160a01b03163303610506576020817f01a4494beed88920b88742cc58f2744e198f55ff192635a1fbabc6be8ffade8192603255604051908152a1005b34610515576040366003190112610515576115936143b7565b602435801590811503610515576009546001600160a01b03163303610506576115fc575b603080546001600160a01b0319166001600160a01b039290921691821790557f777d215db24fb9fee4ded85c66b422abd7162a1caa6ed3ec4c031f6cd29ada525f80a2005b602354600101156115b757631730c38f60e21b5f5260045ffd5b346105155760403660031901126105155761163c6116326143b7565b6024359033614f09565b602060405160018152f35b34610515575f366003190112610515576020602c54604051908152f35b346105155760403660031901126105155761167d6143b7565b335f52600660205260405f2060018060a01b0382165f5260205260405f206116a860243582546144c7565b9055335f8181526006602090815260408083206001600160a01b0395909516808452948252918290205491519182525f516020615c355f395f51905f5291a3602060405160018152f35b34610515576060366003190112610515576020610ec86044356024356004356149fe565b346105155760a03660031901126105155761172f6143b7565b6117376143cd565b60643591604435906084356001600160401b0381116105155761175e90369060040161449a565b6001600160a01b039092169390919084156118e0574286106118d157604190611785615042565b90865f52602e60205260405f2054976040519060208201925f516020615c155f395f51905f52845289604084015260018060a01b0316998a606084015288608084015260a083015260c082015260c081526117e160e082614329565b51902060405190602082019261190160f01b8452602283015260428201526042815261180e606282614329565b51902091036118c25760805f91602080946040519283526040810135851a82840152803560408401520135606082015282805260015afa15610bb9575f516001600160a01b03168290036118b357815f52600660205260405f20835f526020528060405f2055815f52602e60205260405f208054916001830180931161060a575f516020615c355f395f51905f529260209255604051908152a3602060405160018152f35b63c90c66b560e01b5f5260045ffd5b63178623b360e21b5f5260045ffd5b63068568f360e21b5f5260045ffd5b631f05a2bf60e11b5f5260045ffd5b34610515575f36600319011261051557602b546040516001600160a01b039091168152602090f35b34610515575f366003190112610515576030546040516001600160a01b039091168152602090f35b34610515575f366003190112610515576020602554604051908152f35b34610515575f3660031901126105155760ff60045416604d811161060a57610ec8602091600a0a614e03565b34610515576020366003190112610515576001600160a01b036119a96143b7565b165f526034602052602060405f2054604051908152f35b34610515575f366003190112610515576040515f6003546119e0816142d5565b8084529060018116908115611a765750600114611a18575b611a1483611a0881850382614329565b6040519182918261436d565b0390f35b60035f9081527fc2575a0e9e593c00f959f8c92f12db2869c3395a3b0502d05e2516446f71f85b939250905b808210611a5c57509091508101602001611a086119f8565b919260018160209254838588010152019101909291611a44565b60ff191660208086019190915291151560051b84019091019150611a0890506119f8565b3461051557604036600319011261051557600435611ab66143cd565b90611ac66002600154141561494f565b60026001556001600160a01b03821615611bad575b60ff602254166112b8576001600160a01b038216308114611b9e578115611b8f57611b0582614e03565b9160235480611b6c575b50604081611b545f5160206159d55f395f51905f5293602097611b408860018060a01b03600854163090339061522b565b611b4c886025546144f3565b60255561519d565b5081519081528486820152a260018055604051908152f35b611b8484611b7f602554602654906144f3565b6144f3565b11610ccd5784611b0f565b639811e0c760e01b5f5260045ffd5b63c3a98bf960e01b5f5260045ffd5b339150611adb565b3461051557610280366003190112610515573661028411610515576009546001600160a01b031633141580611e0a575b6106c957604051600e5f825b60148210611dea5783611c0661028082614329565b5f5b6014811015611de3576001600160a01b03611c2a611c25836149b3565b6149ea565b1615611d67576001600160a01b03611c4282846149d9565b511615610dc5576001600160a01b03611c5d611c25836149b3565b165f52600d602052600160405f2001541561061e575f5f5b60148110611cb2575b5015610dc55780611c93611c256001936149b3565b81600e0190838060a01b0316838060a01b031982541617905501611c08565b919290916001600160a01b03611cca611c25836149b3565b1615611d5b57611cdc611c25856149b3565b6001600160a01b03611cee83856149d9565b516001600160a01b03909216911614611d52575b83811115611d4a57611d16611c25856149b3565b6001600160a01b03611d2a611c25846149b3565b6001600160a01b0390921691161461061e576001905b0192919092611c75565b600190611d40565b60019250611d02565b50919050600183611c7e565b6001600160a01b0391611d7a91906149d9565b5116610dc5575b6040515f6004825b60148310611db9577f695ac3ac73f08f2002284ffe563cefe798ee2878a5e04219522e2e99eb89d16861028085a1005b81356001600160a01b03811691908290036105155760208160019382935201920192019190611d89565b5050611d81565b82546001600160a01b031681526001928301929190910190602001611bf1565b50600a546001600160a01b0316331415611be5565b34610515575f366003190112610515576031546040516001600160a01b039091168152602090f35b34610515576040366003190112610515576112a76116326143b7565b3461051557602036600319011261051557611e7c6143b7565b600b5490336001600160a01b038316141580611ecd575b6112b8576001600160a01b03166001600160a01b0319919091168117600b556040519081525f516020615b555f395f51905f5290602090a1005b506009546001600160a01b0316331415611e93565b34610515575f36600319011261051557600a546040516001600160a01b039091168152602090f35b34610515575f366003190112610515576020602d54604051908152f35b3461051557604036600319011261051557611f406143b7565b6035546001600160a01b03163303611f8d576001600160a01b03165f818152603460209081526040918290208054602435179081905591519182525f516020615a955f395f51905f5291a2005b63fbb7077760e01b5f5260045ffd5b34610515576020366003190112610515576001600160a01b03611fbd6143b7565b165f52602e602052602060405f2054604051908152f35b3461051557604036600319011261051557611fed6143b7565b6024359060018060a01b036009541633141580612115575b6106c9576001600160a01b03165f818152600d60205260409020600101549091901561061e57604051635641ec0360e01b8152602081600481865afa908115610bb9575f916120e6575b506120d757815f52600d60205261206f600260405f2001546024546144c7565b602455815f52600d60205280600260405f200155612710612092826024546144f3565b80602455116120c85760207fbda9398315c83ccef012bcaa318a2ff7b680f36429d36597bd4bc25ac11ead5991604051908152a2005b633da428df60e21b5f5260045ffd5b637e5197f160e11b5f5260045ffd5b612108915060203d60201161210e575b6121008183614329565b81019061499b565b8361204f565b503d6120f6565b50600a546001600160a01b0316331415612005565b34610515576060366003190112610515576004356121466143cd565b61214e6143e3565b61215d6002600154141561494f565b6002600155829190806001600160a01b038316156125dc575b6001600160a01b0316156125d5575b831580156125b5575b6125a6576001600160a01b03169233840361251e575b6121ad90614e03565b926025545f90808611612257575b602086865f516020615cd55f395f51905f526040885f896121de866007546144c7565b600755808252600588528382206121f68782546144c7565b90555f516020615bf55f395f51905f52888551888152a3612219856025546144c7565b60255560085461223590869083906001600160a01b031661527f565b81519384528584018590526001600160a01b031692a260018055604051908152f35b90915f5b601481101561251357600e8101546001600160a01b0316801561250757838811156124ad5761228a84896144c7565b815f52600d602052600660405f2001548082105f146124a657505b801561249c576008546040516370a0823160e01b815230600482015290602090829060249082906001600160a01b03165afa908115610bb9575f9161246b575b5060405191632e1a7d4d60e01b835260048301526020826024815f875af1918215610bb9575f92612438575b506008546040516370a0823160e01b815230600482015290602090829060249082906001600160a01b03165afa908115610bb9575f91612405575b506123619161235a916144c7565b80966144f3565b94816123bf575b6040839261239a5f516020615a355f395f51905f5293600197965f52600d6020526006845f2001610b118282546144c7565b602655835f52600d6020526006825f2001549082519182526020820152a25b0161225b565b959860408261239a6123ed826123e760019998975f516020615a355f395f51905f52976144c7565b9e6144f3565b996123f883876152ba565b9350509293945050612368565b90506020813d8211612430575b8161241f60209383614329565b81010312610515575161236161234c565b3d9150612412565b9091506020813d8211612463575b8161245360209383614329565b810103126105155751908a612311565b3d9150612446565b90506020813d8211612494575b8161248560209383614329565b8101031261051557518a6122e5565b3d9150612478565b50506001906123b9565b90506122a5565b505094939291905b806025558085116124ea575b506124cc81856144f3565b906127108281020480920361060a5711610c835790919284806121bb565b935091506125006124fb83856144f3565b614e38565b91856124c1565b505094939291906124b5565b5094939291906124b5565b5f8481526006602090815260408083203384529091529020549060018201612548575b90506121a4565b8082106125975761255c816121ad936144c7565b5f868152600660209081526040808320338085529083529281902084905551928352909187915f516020615c355f395f51905f5291a3612541565b636ea381e160e11b5f5260045ffd5b636edcc52360e01b5f5260045ffd5b506001600160a01b0381165f90815260056020526040902054841161218e565b5033612185565b339250612176565b3461051557602036600319011261051557600954600435906001600160a01b0316330361050657670de0b6b3a76400008111612638576020815f516020615b355f395f51905f5292602a55604051908152a1005b6319ef490760e01b5f5260045ffd5b34610515576020366003190112610515576126606143f9565b602f546001600160a01b031633036126b65760207f68d2a9e78bb2679fce38ced936827f483b51ff64f0776fc33fc39b2881f237f891151560335461ff008260081b169061ff00191617603355604051908152a1005b63103db8a960e31b5f5260045ffd5b34610515576040366003190112610515576126de6143b7565b6035546001600160a01b03163303611f8d576001600160a01b03165f81815260346020908152604091829020805460243519169081905591519182525f516020615a955f395f51905f5291a2005b34610515575f36600319011261051557611a14611a08614477565b34610515575f36600319011261051557602060405160148152f35b34610515575f3660031901126105155761277d602554614e38565b5f905b60148210156127d657600e8201546001600160a01b031680156127c9576001916127c1915f52600d6020526127bb600660405f200154614e38565b906144f3565b910190612780565b5060209150604051908152f35b60209150610ec8565b34610515576040366003190112610515576127f86143b7565b60355460243591906001600160a01b03163303611f8d5760205f516020615a955f395f51905f529160018060a01b031692835f52603482528060405f2055604051908152a2005b34610515576020366003190112610515576001600160a01b036128606143b7565b165f526005602052602060405f2054604051908152f35b3461051557602036600319011261051557600954600435906001600160a01b03163303610506576113888111610ff2576020815f516020615ad55f395f51905f5292602d55604051908152a1005b34610515576040366003190112610515576128de6143b7565b600954602435906001600160a01b031633819003610506575f1982146129c8575b6008546001600160a01b038481169116811461294a575b926112a7937fab2246061d7b0dd3631d037e3f6da75782ae489eeb9f6af878a4b25df9b07c776020604051868152a261527f565b6040516370a0823160e01b815230600482015293909250602084602481865afa938415610bb9575f94612992575b506129896112a794602554906144c7565b92909350612916565b93506020843d6020116129c0575b816129ad60209383614329565b8101031261051557925192612989612978565b3d91506129a0565b6040516370a0823160e01b81523060048201529091506020816024816001600160a01b0387165afa908115610bb9575f91612a05575b50906128ff565b90506020813d602011612a2f575b81612a2060209383614329565b810103126105155751836129fe565b3d9150612a13565b3461051557604036600319011261051557600435612a536143cd565b90612a636002600154141561494f565b60026001556001600160a01b03821615612be7575b60ff602254166112b8576001600160a01b038216308114611b9e57815f198103612bb75750602354602554602654929350612ab383826144f3565b821115612bae57612acd92612ac7916144f3565b906144c7565b6008546040516370a0823160e01b815233600482015290602090829060249082906001600160a01b03165afa908115610bb9575f91612b7c575b5080821015612b7557505b905b8115610cbe575f5160206159d55f395f51905f526040612b368460209661519d565b93612b4f8160018060a01b03600854163090339061522b565b612b5b816025546144f3565b60255581519085825286820152a260018055604051908152f35b9050612b12565b90506020813d602011612ba6575b81612b9760209383614329565b81010312610515575184612b07565b3d9150612b8a565b5050505f612acd565b6023549081612bc8575b5050612b14565b612bdb90611b7f602554602654906144f3565b11610ccd578380612bc1565b339150612a78565b34610515575f366003190112610515576036546001600160a01b03163303612c3b573360018060a01b031960355416176035555f516020615a555f395f51905f526020604051338152a1005b63d273fd9560e01b5f5260045ffd5b3461051557604036600319011261051557612c636143b7565b612c6b6143cd565b6009546001600160a01b03163303610506576112a79161471b565b3461051557602036600319011261051557612c9f6143b7565b6035546001600160a01b03163303611f8d57603680546001600160a01b0319166001600160a01b0390921691821790556040519081527f364d2f5fdafcc5778c92c031ccf715352535731482158c029793bd034198f57190602090a1005b34610515575f366003190112610515576009546040516001600160a01b039091168152602090f35b346105155760e036600319011261051557612d3e6143b7565b612d466143cd565b90612d4f6143e3565b6064356001600160401b03811161051557612d6e903690600401614459565b926084356001600160401b03811161051557612d8e903690600401614459565b9160a4356001600160a01b03811692908390036105155760c4356001600160a01b0381169490859003610515575f549560ff8760081c16159687809861346c575b8015613455575b156133f95760ff1981166001175f55876133e8575b506028546133d9576001600160a01b03169687156133ca57600880546001600160a01b03191689179055805190816133385750506040516395d89b4160e01b81525f816004818b5afa908115610bb9575f9161331e575b50612e826007602060405184612e61829651809285808601910161434c565b810166081b95985d5b1d60ca1b838201520301601819810184520182614329565b8051906001600160401b03821161114657612ea2826110b26002546142d5565b602090601f83116001146132b957612ec392915f91836132ae575050614698565b6002555b80518061320e5750506040516395d89b4160e01b8152955f87600481845afa968715610bb9575f976131ea575b50612f2e6022604051809961372b60f11b6020830152612f1d815180926020868601910161434c565b81010301601f198101895288614329565b86516001600160401b03811161114657612f4d816113506003546142d5565b6020601f8211600114613180578160209392612f749260049a9b5f92613175575050614698565b6003555b60405163313ce56760e01b815296879182905afa948515610bb9575f95613130575b50602093925f516020615a755f395f51905f52855f516020615b555f395f51905f52945f516020615bb55f395f51905f5282809660ff5f516020615a555f395f51905f529c1660ff19600454161760045560018060a01b0316988960018060a01b031960095416176009555f516020615b755f395f51905f52826040518c8152a1600a80546001600160a01b03191682179055604051908152a1602b80546001600160a01b0319166001600160a01b03929092169182179055604051908152a1600b80546001600160a01b03191682179055604051908152a16103e8602d555f516020615ad55f395f51905f52826040516103e88152a160c8602c555f516020615af55f395f51905f528260405160c88152a142602755426028556529d635a8e000602a555f516020615b355f395f51905f52826040516529d635a8e0008152a1603580546001600160a01b03191682179055604051908152a16130fa57005b61ff00195f54165f557f7f26b83ff96e1f2b6a682f133852f6798a09c465da95921460cefb3847402498602060405160018152a1005b90939294506020813d60201161316d575b8161314e60209383614329565b8101031261051557519060ff8216820361051557909391926020612f9a565b3d9150613141565b015190508b806110d0565b601f1982169860035f52815f20995f5b8181106131d257509960019284926020969560049c9d106131ba575b505050811b01600355612f78565b01515f1960f88460031b161c191690558a80806131ac565b838301518c556001909b019a60209384019301613190565b6132079197503d805f833e6131ff8183614329565b8101906146aa565b9587612ef4565b9096906001600160401b0381116111465761322e816113506003546142d5565b6020601f821160011461325d5781602093926132559260049a9b5f92613175575050614698565b600355612f78565b601f1982169860035f52815f20995f5b81811061329657509960019284926020969560049c9d106131ba57505050811b01600355612f78565b838301518c556001909b019a6020938401930161326d565b015190508a806110d0565b90601f1983169160025f52815f20925f5b81811061330657509084600195949392106132ee575b505050811b01600255612ec7565b01515f1960f88460031b161c191690558980806132e0565b929360206001819287860151815501950193016132ca565b61333291503d805f833e6131ff8183614329565b88612e42565b6001600160401b03821161114657613355826110b26002546142d5565b602090601f831160011461337e5761337692915f91836132ae575050614698565b600255612ec7565b90601f1983169160025f52815f20925f5b8181106133b257509084600195949392106132ee57505050811b01600255612ec7565b9293602060018192878601518155019501930161338f565b637401d93160e01b5f5260045ffd5b6326490b0f60e01b5f5260045ffd5b61ffff1916610101175f5588612deb565b60405162461bcd60e51b815260206004820152602e60248201527f496e697469616c697a61626c653a20636f6e747261637420697320616c72656160448201526d191e481a5b9a5d1a585b1a5e995960921b6064820152608490fd5b50303b158015612dd65750600160ff821614612dd6565b50600160ff821610612dcf565b34610515575f366003190112610515577f00000000000000000000000000000000000000000000000000000000000000006001600160a01b031630036134d05760206040515f516020615b955f395f51905f528152f35b60405162461bcd60e51b815260206004820152603860248201527f555550535570677261646561626c653a206d757374206e6f742062652063616c6044820152771b1959081d1a1c9bdd59da0819195b1959d85d1958d85b1b60421b6064820152608490fd5b34610515575f36600319011261051557602f546040516001600160a01b039091168152602090f35b6040366003190112610515576135726143b7565b6024356001600160401b0381116105155736602382011215610515576135a2903690602481600401359101614423565b6135f97f00000000000000000000000000000000000000000000000000000000000000006001600160a01b03166135db3082141561455c565b5f516020615b955f395f51905f52546001600160a01b0316146145aa565b6009546001600160a01b03163303610506575f516020615a155f395f51905f525460ff161561362c57506112a79061579e565b6040516352d1902d60e01b81526001600160a01b03831690602081600481855afa5f9181613780575b506136a35760405162461bcd60e51b815260206004820152602e60248201525f516020615cb55f395f51905f5260448201526d6f6e206973206e6f74205555505360901b6064820152608490fd5b5f516020615b955f395f51905f520361373c576136bf8361579e565b5f516020615bd55f395f51905f525f80a2805115801590613734575b6136e157005b6112a7915f80604051936136f6606086614329565b602785525f516020615c755f395f51905f526020860152660819985a5b195960ca1b6040860152602081519101845af461372e615910565b9161593f565b5060016136db565b60405162461bcd60e51b815260206004820152602960248201525f516020615c555f395f51905f526044820152681a58589b195555525160ba1b6064820152608490fd5b9091506020813d6020116137ac575b8161379c60209383614329565b8101031261051557519085613655565b3d915061378f565b34610515575f3660031901126105155760206040515f516020615c155f395f51905f528152f35b34610515576020366003190112610515576137f46143b7565b6009546001600160a01b0316330361050657602f80546001600160a01b0319166001600160a01b039290921691821790557f28709a2dab2a5d5e8688e96159011151c51644ab21839a8a45b449634d7c8b2b5f80a2005b34610515576040366003190112610515576138646143b7565b6024359060018060a01b0360095416331415806138f5575b6106c9576001600160a01b03165f818152600d60205260409020600101549091901561061e57815f52600d60205280600360405f2001541161088c5760207f1796a8e0760e2de5b72e7bf64fccb7666c48ceab94cb6cae7cb7eff4b6f641ab91835f52600d825280600460405f200155604051908152a2005b50600a546001600160a01b031633141561387c565b34610515575f36600319011261051557600b546040516001600160a01b039091168152602090f35b34610515575f366003190112610515576020602954604051908152f35b34610515575f366003190112610515576020602a54604051908152f35b34610515576020366003190112610515576001600160a01b0361398d6143b7565b165f52600d60205261012060405f208054906001810154906002810154600382015460048301546005840154916006850154936008600787015496015496604051988952602089015260408801526060870152608086015260a085015260c084015260e0830152610100820152f35b3461051557604036600319011261051557613a156143b7565b335f52600660205260405f2060018060a01b0382165f5260205260405f206116a860243582546144f3565b3461051557602036600319011261051557613a596143b7565b613a927f00000000000000000000000000000000000000000000000000000000000000006001600160a01b03166135db3082141561455c565b6009546001600160a01b0316330361050657604051906020613ab48184614329565b5f8352808301601f1982013682375f516020615a155f395f51905f525460ff1615613ae55750506112a7915061579e565b6040516352d1902d60e01b81529192916001600160a01b038316908481600481855afa5f9181613c2f575b50613b5e5760405162461bcd60e51b815260048101869052602e60248201525f516020615cb55f395f51905f5260448201526d6f6e206973206e6f74205555505360901b6064820152608490fd5b5f516020615b955f395f51905f5203613beb57613b7a8361579e565b5f516020615bd55f395f51905f525f80a2835115801590613be4575b613b9c57005b5f80916112a7955f516020615c755f395f51905f5260405196613bc0606089614329565b60278852870152660819985a5b195960ca1b60408701525190845af461372e615910565b505f613b96565b60405162461bcd60e51b815260048101859052602960248201525f516020615c555f395f51905f526044820152681a58589b195555525160ba1b6064820152608490fd5b9091508581813d8311613c57575b613c478183614329565b8101031261051557519087613b10565b503d613c3d565b34610515575f366003190112610515576020610ec8615042565b34610515575f366003190112610515576020602854604051908152f35b34610515575f36600319011261051557602060ff602254166040519015158152f35b3461051557602036600319011261051557613cd06143b7565b6001600160a01b03811615613ceb575b610ec8602091614f7f565b5033613ce0565b34610515575f36600319011261051557602060ff60045416604051908152f35b34610515575f3660031901126105155760206040516301e185588152f35b3461051557606036600319011261051557613d496143b7565b613d516143cd565b6001600160a01b0382165f81815260066020908152604080832033845290915290205492604435929160018501613d8e575b5061163c9350614f09565b83851061259757613da28461163c966144c7565b5f8281526006602090815260408083203380855290835292819020849055519283529092915f516020615c355f395f51905f529190a384613d83565b34610515575f36600319011261051557600c546001600160a01b03163303613e2a573360018060a01b031960095416176009555f516020615b755f395f51905f526020604051338152a1005b631d33b37b60e31b5f5260045ffd5b34610515575f366003190112610515576020600754604051908152f35b34610515575f366003190112610515576023546025549060265490613e7b82846144f3565b811115613e9157612ac7610ec8926020946144f3565b50505060205f610ec8565b3461051557602036600319011261051557613eb56143f9565b8015613f1557600b546001600160a01b031633141580613f00575b6112b85760205f516020615ab55f395f51905f52915b151560ff196022541660ff821617602255604051908152a1005b506009546001600160a01b0316331415613ed0565b6009546001600160a01b031633036105065760205f516020615ab55f395f51905f5291613ee6565b346105155760a036600319011261051557613f566143b7565b60095460643591906044359060243590608435906001600160a01b03163303610506576021546001600160a01b03166106715760ff602254166112b8576001600160a01b038416908115610ccd57815f52600d602052600160405f20015461061e5760405163fbfa77cf60e01b8152602081600481865afa908115610bb9575f9161415c575b50306001600160a01b0390911603610ccd57604051631f1fcd5160e01b8152602081600481865afa908115610bb9575f9161412d575b506008546001600160a01b03908116911603610ccd57612710614037846024546144f3565b116120c85785841161088c576113888111610ff2576141259561411d946141127f5a6abd2af9fe6c0554fa08649e2d86e4393ff19dc304d072d38d295c9291d4dc936040516140858161430d565b81815260088760208301428152604084018b815260608501888152608086018a815260a087019142835260c08801935f855260e08901955f87526101008a01975f89525f52600d60205260405f2099518a555160018a015551600289015551600388015551600487015551600586015551600685015551600784015551910155604051938493888561451e565b0390a26024546144f3565b60245561453a565b6112a7614e6f565b61414f915060203d602011614155575b6141478183614329565b8101906144d4565b87614012565b503d61413d565b614175915060203d602011614155576141478183614329565b87613fdc565b34610515576040366003190112610515576141946143b7565b335f8181526006602090815260408083206001600160a01b03909516808452948252918290206024359081905591519182525f516020615c355f395f51905f5291a3602060405160018152f35b34610515575f366003190112610515576040515f600254614201816142d5565b8084529060018116908115611a76575060011461422857611a1483611a0881850382614329565b60025f9081525f5160206159f55f395f51905f52939250905b80821061425957509091508101602001611a086119f8565b919260018160209254838588010152019101909291614241565b34610515575f366003190112610515576020610ec8602554602654906144f3565b34610515575f366003190112610515576035546001600160a01b03168152602090f35b34610515576020366003190112610515576020610ec8600435614e03565b90600182811c92168015614303575b60208310146142ef57565b634e487b7160e01b5f52602260045260245ffd5b91607f16916142e4565b61012081019081106001600160401b0382111761114657604052565b601f909101601f19168101906001600160401b0382119082101761114657604052565b5f5b83811061435d5750505f910152565b818101518382015260200161434e565b6040916020825261438d815180928160208601526020868601910161434c565b601f01601f1916010190565b34610515576020366003190112610515576020610ec8600435614e38565b600435906001600160a01b038216820361051557565b602435906001600160a01b038216820361051557565b604435906001600160a01b038216820361051557565b60043590811515820361051557565b6001600160401b03811161114657601f01601f191660200190565b92919261442f82614408565b9161443d6040519384614329565b829481845281830111610515578281602093845f960137010152565b9080601f830112156105155781602061447493359101614423565b90565b60405190614486604083614329565b600582526418171a171b60d91b6020830152565b9181601f84011215610515578235916001600160401b038311610515576020838186019501011161051557565b9190820391821161060a57565b9081602091031261051557516001600160a01b03811681036105155790565b9190820180921161060a57565b811561450a570490565b634e487b7160e01b5f52601260045260245ffd5b9094939260609260808301968352602083015260408201520152565b602180546001600160a01b0319166001600160a01b0392909216919091179055565b1561456357565b60405162461bcd60e51b815260206004820152602c60248201525f516020615b155f395f51905f5260448201526b19195b1959d85d1958d85b1b60a21b6064820152608490fd5b156145b157565b60405162461bcd60e51b815260206004820152602c60248201525f516020615b155f395f51905f5260448201526b6163746976652070726f787960a01b6064820152608490fd5b601f8111614604575050565b60025f5260205f20906020601f840160051c8301931061463e575b601f0160051c01905b818110614633575050565b5f8155600101614628565b909150819061461f565b601f8111614654575050565b60035f5260205f20906020601f840160051c8301931061468e575b601f0160051c01905b818110614683575050565b5f8155600101614678565b909150819061466f565b8160011b915f199060031b1c19161790565b602081830312610515578051906001600160401b038211610515570181601f820112156105155780516146dc81614408565b926146ea6040519485614329565b8184526020828401011161051557614474916020808501910161434c565b8181029291811591840414171561060a57565b5f916001600160a01b03168015610ccd576001600160a01b0382165f818152600d60205260409020600101549092901561061e57815f52600d602052600160405f20015461061e57825f52600d602052600860405f206040519061477e8261430d565b80548252600181015460208301526002810154906040830191825260038101549160608401928352600482015493608081019485526147e860058401549760a083019889528760068601549560c08501968752600781015460e0860152015461010084015261513c565b6147f582516024546144f3565b602455885f52600d6020525f6006604082200155519551905192519351915191604051966148228861430d565b8752602087019482865260408801948552606088019081526080880191825260a0880192835260c0880193845260e08801945f86526101008901965f88528a5f52600d60205260405f2099518a555160018a015551600289015551600388015551600487015551600586015551600685015551600784015551910155813b156105155760405163ce5494bb60e01b8152600481018290525f8160248183875af18015610bb95761493a575b5080827f100b69bb6b504e1252e36b375233158edee64d071b399e2f81473a695fd1b0218580a3825b601481101561493457600e810180546001600160a01b0316841461491d57506001016148f6565b80546001600160a01b031916909217909155505050565b50505050565b6149479193505f90614329565b5f915f6148cd565b1561495657565b60405162461bcd60e51b815260206004820152601f60248201527f5265656e7472616e637947756172643a207265656e7472616e742063616c6c006044820152606490fd5b90816020910312610515575180151581036105155790565b60148110156149c55760051b60040190565b634e487b7160e01b5f52603260045260245ffd5b9060148110156149c55760051b0190565b356001600160a01b03811681036105155790565b90335f52600d602052600160405f2001541561061e576008546040516370a0823160e01b815233600482015290602090829060249082906001600160a01b03165afa908115610bb9575f91614d27575b50614a5984846144f3565b11610caf5780614d18575b614a6e82336153a4565b335f52600d602052600760405f2001614a888482546144f3565b9055614a9333615590565b90614a9d33615686565b9485811015614d1057905b81614ccf575b614b179083614c9f575b614ac283876144f3565b84811015614c4d5780614ae3614adb614b0593886144c7565b6025546144c7565b6025556008546001600160a01b031690614afd90876144c7565b90339061527f565b6127bb614b10615716565b91876144c7565b8380821115614c4257614b29916144c7565b6029555b335f818152600d6020908152604091829020426005820181905560275560078101546008820154600683015460029093015485519a8b52938a0198909852928801949094526060870191909152608086019490945260a085019190915260c084019190915260e0830191909152907f67f96d2854a335a4cadb49f84fd3ca6f990744ddb3feceeb4b349d2d53d32ad39061010090a2335f52600d602052600260405f200154158015614c36575b156144745750604051630efbb5cb60e41b8152602081600481335afa908115610bb9575f91614c07575090565b90506020813d602011614c2e575b81614c2260209383614329565b81010312610515575190565b3d9150614c15565b5060ff60225416614bda565b50505f602955614b2d565b848111614c5b575b50614b05565b80614c74614c6c87614c99946144c7565b6025546144f3565b6025556008546001600160a01b031690614c8f9087906144c7565b903090339061522b565b5f614c55565b335f52600d602052600660405f2001614cb98582546144f3565b9055614cc7846026546144f3565b602655614ab8565b94614d0882614b1792335f52600d602052600660405f2001614cf28382546144c7565b9055614d00826026546144c7565b6026556144c7565b959050614aae565b508490614aa8565b614d2281336152ba565b614a64565b90506020813d602011614d51575b81614d4260209383614329565b8101031261051557515f614a4e565b3d9150614d35565b5f5b6014811015614dc857600e810180546001600160a01b038481169291168214614d88575050600101614d5b565b80546001600160a01b03191690559150614da29050614e6f565b7f8e1ec3c16d6a67ea8effe2ac7adef9c2de0bc0dc47c49cdf18f6a8b0048085be5f80a2565b60405162461bcd60e51b81526020600482015260136024820152725661756c743a206e6f7420696e20717565756560681b6044820152606490fd5b6007548015614e3457614e14615776565b918215614e2d5761447492614e2891614708565b614500565b5050505f90565b5090565b614e40615776565b80151580614e64575b15614e5e57614e286144749260075490614708565b50505f90565b506007541515614e49565b5f905f5b6014811015614f0457600e810180546001600160a01b031691908215614eec5784614ea5575b50600191505b01614e73565b614eaf85836144c7565b9260148410156149c557600e9390930180546001600160a01b039094166001600160a01b031994851617905580549092169091556001905f614e99565b509290506001810180911161060a5760019092614e9f565b509050565b6001600160a01b03909116919082158015614f76575b611b9e5760205f516020615bf55f395f51905f529160018060a01b031692835f526005825260405f20614f538282546144c7565b9055845f526005825260405f20614f6b8282546144f3565b9055604051908152a3565b50308314614f1f565b6001600160a01b03165f818152600d602052604090206005015490614fbe614fa783426144c7565b92825f52600d602052600160405f200154906144c7565b9082151580615039575b80614fef575b15614e2d5761447492614e28915f52600d602052600760405f200154614708565b506040516308bcf8b560e21b8152602081600481855afa908115610bb9575f9161501a575b50614fce565b615033915060203d60201161210e576121008183614329565b5f615014565b50811515614fc8565b604051600254905f81615054846142d5565b9182825260208201946001811690815f1461512057506001146150d4575b61507e92500382614329565b519020615089614477565b602081519101206040519060208201925f516020615c955f395f51905f528452604083015260608201524660808201523060a082015260a081526150ce60c082614329565b51902090565b5060025f90815290915f5160206159f55f395f51905f525b81831061510457505090602061507e92820101615072565b60209193508060019154838588010152019101909183926150ec565b60ff191686525061507e92151560051b82016020019050615072565b6001600160a01b03165f818152600d602052604090206002015460245461516391906144c7565b602455805f52600d6020525f60026040822001557f4201c688d84c01154d321afa0c72f1bffe9eef53005c9de9d035074e71e9b32a5f80a2565b60075492916151aa615776565b8480151580615222575b1561521a57614e28906151c693614708565b925b8315611b8f57836151d8916144f3565b6007556001600160a01b03165f81815260056020526040902080546151fe9085906144f3565b90555f5f516020615bf55f395f51905f526020604051868152a3565b5050926151c8565b508115156151b4565b6040516323b872dd60e01b60208201526001600160a01b03928316602482015292909116604483015260648083019390935291815261527d9161526f608483614329565b6001600160a01b031661582e565b565b60405163a9059cbb60e01b60208201526001600160a01b03909216602483015260448083019390935291815261527d9161526f606483614329565b6001600160a01b03165f818152600d60205260409020600601549190818310610c835761531082615328946024548061532d575b50835f52600d602052600860405f20016153098382546144f3565b90556144c7565b905f52600d602052600660405f2001556026546144c7565b602655565b615363905f90602654908161536c575b5050855f52600d602052600260405f20016153598282546144c7565b90556024546144c7565b6024555f6152ee565b61537b9250614e289086614708565b855f52600d602052600260405f2001548082105f1461539d57505b5f8061533d565b9050615396565b6001600160a01b0381165f818152600d6020526040902060010154919391421461558857805f52600d6020526153e1600560405f200154426144c7565b908115610cbe57831561557f57805f52600d602052600660405f200154604051634731a87160e11b8152602081600481865afa8015610bb95784915f91615548575b506154426127109261543d61544b936301e18558966144c7565b614708565b602c5490614708565b0404905f52600d60205261271061546660405f205486614708565b0491612710615477602d5487614708565b049261548784611b7f83866144f3565b9580871161553e575b50906154cf918680987f5c971a56b919bc03cfcc69b3500de2c9400b81ff5977e541c5075e04348756f597986154d4575b50506040519485948561451e565b0390a1565b6154de823061519d565b8361551e575b505050305f52600560205260405f205480615501575b88906154c1565b602b5461551891906001600160a01b031630614f09565b5f6154fa565b61553692614e2861552f9286614708565b9030614f09565b875f806154e4565b95506154cf615490565b9150506020813d602011615577575b8161556460209383614329565b8101031261051557518390615442615423565b3d9150615557565b50509150505f90565b509150505f90565b60ff6022541661568157602554602654906155ab82826144f3565b926127106155df816155bf87602454614708565b049260018060a01b031695865f52600d602052600260405f200154614708565b5f958652600d602052604090952060068101546003820154600490920154919691959092909104828111801590615677575b61566c5761562892615622916144c7565b926144c7565b808210156156645750905b8082101561565c5750915b82101561564b5750505f90565b80821015615657575090565b905090565b90509161563e565b905090615633565b505050505050505f90565b5081841115615611565b505f90565b602454156156f95760018060a01b0316805f52600d6020526127106156c1600260405f2001546156bb602554602654906144f3565b90614708565b04905f52600d602052600660405f2001549060ff602254165f146156e3575090565b8082116156f05750505f90565b614474916144c7565b6001600160a01b03165f908152600d602052604090206006015490565b6029548015801561576c575b6156815761573e615735602754426144c7565b602a5490614708565b90670de0b6b3a7640000821015614e5e57670de0b6b3a76400006157658261447494614708565b04906144c7565b50602a5415615722565b615785602554602654906144f3565b61578d615716565b80821115614e5e57614474916144c7565b803b156157d3575f516020615b955f395f51905f5280546001600160a01b0319166001600160a01b0392909216919091179055565b60405162461bcd60e51b815260206004820152602d60248201527f455243313936373a206e657720696d706c656d656e746174696f6e206973206e60448201526c1bdd08184818dbdb9d1c9858dd609a1b6064820152608490fd5b906158889160018060a01b03165f806040519361584c604086614329565b602085527f5361666545524332303a206c6f772d6c6576656c2063616c6c206661696c6564602086015260208151910182855af161372e615910565b80519081159182156158f6575b50501561589e57565b60405162461bcd60e51b815260206004820152602a60248201527f5361666545524332303a204552433230206f7065726174696f6e20646964206e6044820152691bdd081cdd58d8d9595960b21b6064820152608490fd5b615909925060208091830101910161499b565b5f80615895565b3d1561593a573d9061592182614408565b9161592f6040519384614329565b82523d5f602084013e565b606090565b919290156159a15750815115615953575090565b3b1561595c5790565b60405162461bcd60e51b815260206004820152601d60248201527f416464726573733a2063616c6c20746f206e6f6e2d636f6e74726163740000006044820152606490fd5b8251909150156159b45750805190602001fd5b60405162461bcd60e51b81529081906159d0906004830161436d565b0390fdfe90890809c654f11d6e72a28fa60149770a0d11ec6c92319d6ceb2bb0a4ea1a15405787fa12a823e0f2b7631cc41b3ba8828b3321ca811111fa75cd3aa3bb5ace4910fdfa16fed3260ed0e7147f7cc6da11a60208b5b9406d12a635614ffd914306c03dc1e1399953729e53ec7181b6e753942e20fafe5b55917f5c34559ae69cce93baa0b608a7d420822b6b90cfcccb70574363ba4fd26ef5ac17dd465016c4df3c41a916aecbf42361a147f8348c242662c3ce20ecef30e826b80642477a3d78557646b1d8efa2cd49740d66df5aca39eb610ca8ca0e1ccac08979b6b2c46eba40372a3a724dca3c57156128ef1e896724b65b37a17f190b1ad5de68f3a4f30810a1c261ca2c0cd86a0152c51c43ba9dc329639d2349f98140891b2ea798eb7a7883b0074f96e2c7fab65eb25abf624c488761a5db889e3bb84855dcc6daaf46756e6374696f6e206d7573742062652063616c6c6564207468726f75676820056863905a721211fc4dda1d688efc8f120b4b689d2e41da8249cf6eff200691837b9ad138a0a1839a9637afce5306a5c13e23eb63365686843a5319a243609c8d55d160c0009eb3d739442df0a3ca089ed64378bfac017e7ddad463f9815b87360894a13ba1a3210667c828492db98dca3e2076cc3735a920a3ca505d382bbcff54978127edd34aec0f9061fb3b155fbe0ededdfa881ee3e0d541d3a1eef438bc7cd75a20ee27fd9adebab32041f755214dbc6bffa90cc0225b39da2e5c2d3bddf252ad1be2c89b69c2b068fc378daa952ba7f163c4a11628f55a4df523b3ef6e71edae12b1b97f4d1f60370fef10105fa2faae0126114a169c64845d6126c98c5be1e5ebec7d5bd14f71427d1e84f3dd0314c0f7b2291e5b200ac8c7c3b92545524331393637557067726164653a20756e737570706f727465642070726f78416464726573733a206c6f772d6c6576656c2064656c65676174652063616c6c8b73c3c69bb8fe3d512ecc4cf759cc79239f7b179b0ffacaa9a75d522b39400f45524331393637557067726164653a206e657720696d706c656d656e74617469f279e6a1f5e320cca91135676d9cb6e44ca8a08c0b88342bcdb1144f6511b568a2646970667358221220eea9a16c461627eb99aab48b5a509991c95f0bbbf932414a2b7e90753792ff6b64736f6c634300081e0033","linkReferences":{}},"methodIdentifiers":{"API_VERSION()":"77e3b267","DEGRADATION_COEFFICIENT()":"d250f088","DOMAIN_SEPARATOR()":"3644e515","DOMAIN_TYPE_HASH()":"c0993eea","MAXIMUM_STRATEGIES()":"772d2312","MAX_BPS()":"fd967f47","PERMIT_TYPE_HASH()":"4d4bb197","SECS_PER_YEAR()":"28998af0","_shareValuePublic_(uint256)":"06a52a07","_sharesForAmountPublic_(uint256)":"076d8942","acceptGovernance()":"238efcbc","acceptRoleManager()":"6d020808","accountant()":"4fb3ccc5","activation()":"3629c8de","addRole(address,uint256)":"7fde1c8a","addStrategy(address,uint256,uint256,uint256,uint256)":"14b4e26e","addStrategyToQueue(address)":"f76e4caa","allowance(address,address)":"dd62ed3e","apiVersion()":"25829410","approve(address,uint256)":"095ea7b3","autoAllocate()":"ef27c0ad","auto_allocate(bool)":"79f32e89","availableDepositLimit()":"153c27c4","balanceOf(address)":"70a08231","creditAvailable(address)":"d7648013","debtOutstanding(address)":"bdcf36bb","debtRatio()":"cea55f57","decimals()":"313ce567","decreaseAllowance(address,uint256)":"a457c2d7","default_queue(bool)":"b0890e98","deposit(uint256,address)":"6e553f65","depositLimit()":"ecf70858","depositLimitModule()":"9e34e348","emergencyShutdown()":"3403c2fc","expectedReturn(address)":"33586b67","governance()":"5aa6e675","guardian()":"452a9320","increaseAllowance(address,uint256)":"39509351","initialize(address,address,address,string,string,address,address)":"538baeab","lastReport()":"c3535b52","lockedProfit()":"44b81396","lockedProfitDegradation()":"42232716","management()":"88a8d602","managementFee()":"a6f7f5d6","maxAvailableShares()":"75de2902","migrateStrategy(address,address)":"6cb56d19","minTotalIdle()":"e2d4a860","mint(uint256,address)":"94bf804d","name()":"06fdde03","nonces(address)":"7ecebe00","pendingGovernance()":"f39c38a0","pendingRoleManager()":"e415a574","performanceFee()":"87788782","permit(address,address,uint256,uint256,bytes)":"9fd5a6cf","previewDeposit(uint256)":"ef8b30f7","previewMint(uint256)":"b3d7f6b9","pricePerShare()":"99530b06","proxiableUUID()":"52d1902d","redeemShares(uint256,address,address)":"7bf48da5","removeRole(address,uint256)":"79db5f67","removeStrategyFromQueue(address)":"b22439f5","report(uint256,uint256,uint256)":"a1d9bafc","revokeStrategy(address)":"bb994d48","rewards()":"9ec5a894","roleManager()":"00435da5","roles(address)":"99374642","setAccountant(address)":"48ea7127","setDepositLimit(uint256)":"bdc8144b","setDepositLimitModule(address,bool)":"a964e98b","setEmergencyShutdown(bool)":"14c64402","setGovernance(address)":"ab033ea9","setGuardian(address)":"8a0dac4a","setLockedProfitDegradation(uint256)":"7a550365","setManagement(address)":"d4a22bde","setManagementFee(uint256)":"fe56e232","setMinTotalIdle(uint256)":"aad87162","setName(string)":"c47f0027","setPerformanceFee(uint256)":"70897b23","setProfitMaxUnlockTime(uint256)":"df69b22a","setRewards(address)":"ec38a862","setRole(address,uint256)":"74277a63","setSymbol(string)":"b84c8246","setWithdrawalLimitModule(address)":"da7f2437","setWithdrawalQueue(address[20])":"94148415","strategies(address)":"39ebf823","sweep(address,uint256)":"6ea056a9","symbol()":"95d89b41","token()":"fc0c546a","totalAssets()":"01e1d114","totalDebt()":"fc7b9c18","totalIdle()":"9aa7df94","totalSupply()":"18160ddd","transfer(address,uint256)":"a9059cbb","transferFrom(address,address,uint256)":"23b872dd","transferRoleManager(address)":"629b9142","transferShares(address,uint256)":"8fcb4e5b","updateStrategyDebtRatio(address,uint256)":"7c6a4f24","updateStrategyMaxDebtPerHarvest(address,uint256)":"4757a156","updateStrategyMinDebtPerHarvest(address,uint256)":"e722befe","updateStrategyPerformanceFee(address,uint256)":"d0194ed6","upgradeTo(address)":"3659cfe6","upgradeToAndCall(address,bytes)":"4f1ef286","useDefaultQueue()":"bbe4eb49","withdraw(uint256,address,uint256)":"e63697c8","withdrawLimitModule()":"91986003","withdrawalQueue(uint256)":"c822adda"},"id":5}