{"abi":[{"type":"function","name":"API_VERSION","inputs":[],"outputs":[{"name":"","type":"string","internalType":"string"}],"stateMutability":"view"},{"type":"function","name":"DEGRADATION_COEFFICIENT","inputs":[],"outputs":[{"name":"","type":"uint256","internalType":"uint256"}],"stateMutability":"view"},{"type":"function","name":"DOMAIN_SEPARATOR","inputs":[],"outputs":[{"name":"","type":"bytes32","internalType":"bytes32"}],"stateMutability":"view"},{"type":"function","name":"DOMAIN_TYPE_HASH","inputs":[],"outputs":[{"name":"","type":"bytes32","internalType":"bytes32"}],"stateMutability":"view"},{"type":"function","name":"MAXIMUM_STRATEGIES","inputs":[],"outputs":[{"name":"","type":"uint256","internalType":"uint256"}],"stateMutability":"view"},{"type":"function","name":"MAX_BPS","inputs":[],"outputs":[{"name":"","type":"uint256","internalType":"uint256"}],"stateMutability":"view"},{"type":"function","name":"PERMIT_TYPE_HASH","inputs":[],"outputs":[{"name":"","type":"bytes32","internalType":"bytes32"}],"stateMutability":"view"},{"type":"function","name":"SECS_PER_YEAR","inputs":[],"outputs":[{"name":"","type":"uint256","internalType":"uint256"}],"stateMutability":"view"},{"type":"function","name":"_shareValuePublic_","inputs":[{"name":"shares","type":"uint256","internalType":"uint256"}],"outputs":[{"name":"","type":"uint256","internalType":"uint256"}],"stateMutability":"view"},{"type":"function","name":"_sharesForAmountPublic_","inputs":[{"name":"amount","type":"uint256","internalType":"uint256"}],"outputs":[{"name":"","type":"uint256","internalType":"uint256"}],"stateMutability":"view"},{"type":"function","name":"acceptGovernance","inputs":[],"outputs":[],"stateMutability":"nonpayable"},{"type":"function","name":"acceptRoleManager","inputs":[],"outputs":[],"stateMutability":"nonpayable"},{"type":"function","name":"accountant","inputs":[],"outputs":[{"name":"","type":"address","internalType":"address"}],"stateMutability":"view"},{"type":"function","name":"activation","inputs":[],"outputs":[{"name":"","type":"uint256","internalType":"uint256"}],"stateMutability":"view"},{"type":"function","name":"addRole","inputs":[{"name":"_account","type":"address","internalType":"address"},{"name":"_role","type":"uint256","internalType":"uint256"}],"outputs":[],"stateMutability":"nonpayable"},{"type":"function","name":"addStrategy","inputs":[{"name":"strategy","type":"address","internalType":"address"},{"name":"_debtRatio","type":"uint256","internalType":"uint256"},{"name":"minDebtPerHarvest","type":"uint256","internalType":"uint256"},{"name":"maxDebtPerHarvest","type":"uint256","internalType":"uint256"},{"name":"_performanceFee","type":"uint256","internalType":"uint256"}],"outputs":[],"stateMutability":"nonpayable"},{"type":"function","name":"addStrategyToQueue","inputs":[{"name":"strategy","type":"address","internalType":"address"}],"outputs":[],"stateMutability":"nonpayable"},{"type":"function","name":"allowance","inputs":[{"name":"","type":"address","internalType":"address"},{"name":"","type":"address","internalType":"address"}],"outputs":[{"name":"","type":"uint256","internalType":"uint256"}],"stateMutability":"view"},{"type":"function","name":"apiVersion","inputs":[],"outputs":[{"name":"","type":"string","internalType":"string"}],"stateMutability":"pure"},{"type":"function","name":"approve","inputs":[{"name":"spender","type":"address","internalType":"address"},{"name":"amount","type":"uint256","internalType":"uint256"}],"outputs":[{"name":"","type":"bool","internalType":"bool"}],"stateMutability":"nonpayable"},{"type":"function","name":"autoAllocate","inputs":[],"outputs":[{"name":"","type":"bool","internalType":"bool"}],"stateMutability":"view"},{"type":"function","name":"auto_allocate","inputs":[{"name":"_auto","type":"bool","internalType":"bool"}],"outputs":[],"stateMutability":"nonpayable"},{"type":"function","name":"availableDepositLimit","inputs":[],"outputs":[{"name":"","type":"uint256","internalType":"uint256"}],"stateMutability":"view"},{"type":"function","name":"balanceOf","inputs":[{"name":"","type":"address","internalType":"address"}],"outputs":[{"name":"","type":"uint256","internalType":"uint256"}],"stateMutability":"view"},{"type":"function","name":"creditAvailable","inputs":[{"name":"strategy","type":"address","internalType":"address"}],"outputs":[{"name":"","type":"uint256","internalType":"uint256"}],"stateMutability":"view"},{"type":"function","name":"debtOutstanding","inputs":[{"name":"strategy","type":"address","internalType":"address"}],"outputs":[{"name":"","type":"uint256","internalType":"uint256"}],"stateMutability":"view"},{"type":"function","name":"debtRatio","inputs":[],"outputs":[{"name":"","type":"uint256","internalType":"uint256"}],"stateMutability":"view"},{"type":"function","name":"decimals","inputs":[],"outputs":[{"name":"","type":"uint8","internalType":"uint8"}],"stateMutability":"view"},{"type":"function","name":"decreaseAllowance","inputs":[{"name":"spender","type":"address","internalType":"address"},{"name":"amount","type":"uint256","internalType":"uint256"}],"outputs":[{"name":"","type":"bool","internalType":"bool"}],"stateMutability":"nonpayable"},{"type":"function","name":"default_queue","inputs":[{"name":"_useDefault","type":"bool","internalType":"bool"}],"outputs":[],"stateMutability":"nonpayable"},{"type":"function","name":"deposit","inputs":[{"name":"_amount","type":"uint256","internalType":"uint256"},{"name":"recipient","type":"address","internalType":"address"}],"outputs":[{"name":"","type":"uint256","internalType":"uint256"}],"stateMutability":"nonpayable"},{"type":"function","name":"depositLimit","inputs":[],"outputs":[{"name":"","type":"uint256","internalType":"uint256"}],"stateMutability":"view"},{"type":"function","name":"depositLimitModule","inputs":[],"outputs":[{"name":"","type":"address","internalType":"address"}],"stateMutability":"view"},{"type":"function","name":"emergencyShutdown","inputs":[],"outputs":[{"name":"","type":"bool","internalType":"bool"}],"stateMutability":"view"},{"type":"function","name":"expectedReturn","inputs":[{"name":"strategy","type":"address","internalType":"address"}],"outputs":[{"name":"","type":"uint256","internalType":"uint256"}],"stateMutability":"view"},{"type":"function","name":"governance","inputs":[],"outputs":[{"name":"","type":"address","internalType":"address"}],"stateMutability":"view"},{"type":"function","name":"guardian","inputs":[],"outputs":[{"name":"","type":"address","internalType":"address"}],"stateMutability":"view"},{"type":"function","name":"increaseAllowance","inputs":[{"name":"spender","type":"address","internalType":"address"},{"name":"amount","type":"uint256","internalType":"uint256"}],"outputs":[{"name":"","type":"bool","internalType":"bool"}],"stateMutability":"nonpayable"},{"type":"function","name":"initialize","inputs":[{"name":"_token","type":"address","internalType":"address"},{"name":"_governance","type":"address","internalType":"address"},{"name":"_rewards","type":"address","internalType":"address"},{"name":"nameOverride","type":"string","internalType":"string"},{"name":"symbolOverride","type":"string","internalType":"string"},{"name":"_guardian","type":"address","internalType":"address"},{"name":"_management","type":"address","internalType":"address"}],"outputs":[],"stateMutability":"nonpayable"},{"type":"function","name":"lastReport","inputs":[],"outputs":[{"name":"","type":"uint256","internalType":"uint256"}],"stateMutability":"view"},{"type":"function","name":"lockedProfit","inputs":[],"outputs":[{"name":"","type":"uint256","internalType":"uint256"}],"stateMutability":"view"},{"type":"function","name":"lockedProfitDegradation","inputs":[],"outputs":[{"name":"","type":"uint256","internalType":"uint256"}],"stateMutability":"view"},{"type":"function","name":"management","inputs":[],"outputs":[{"name":"","type":"address","internalType":"address"}],"stateMutability":"view"},{"type":"function","name":"managementFee","inputs":[],"outputs":[{"name":"","type":"uint256","internalType":"uint256"}],"stateMutability":"view"},{"type":"function","name":"maxAvailableShares","inputs":[],"outputs":[{"name":"","type":"uint256","internalType":"uint256"}],"stateMutability":"view"},{"type":"function","name":"migrateStrategy","inputs":[{"name":"oldVersion","type":"address","internalType":"address"},{"name":"newVersion","type":"address","internalType":"address"}],"outputs":[],"stateMutability":"nonpayable"},{"type":"function","name":"minTotalIdle","inputs":[],"outputs":[{"name":"","type":"uint256","internalType":"uint256"}],"stateMutability":"view"},{"type":"function","name":"mint","inputs":[{"name":"shares","type":"uint256","internalType":"uint256"},{"name":"recipient","type":"address","internalType":"address"}],"outputs":[{"name":"","type":"uint256","internalType":"uint256"}],"stateMutability":"nonpayable"},{"type":"function","name":"name","inputs":[],"outputs":[{"name":"","type":"string","internalType":"string"}],"stateMutability":"view"},{"type":"function","name":"nonces","inputs":[{"name":"","type":"address","internalType":"address"}],"outputs":[{"name":"","type":"uint256","internalType":"uint256"}],"stateMutability":"view"},{"type":"function","name":"pendingGovernance","inputs":[],"outputs":[{"name":"","type":"address","internalType":"address"}],"stateMutability":"view"},{"type":"function","name":"pendingRoleManager","inputs":[],"outputs":[{"name":"","type":"address","internalType":"address"}],"stateMutability":"view"},{"type":"function","name":"performanceFee","inputs":[],"outputs":[{"name":"","type":"uint256","internalType":"uint256"}],"stateMutability":"view"},{"type":"function","name":"permit","inputs":[{"name":"owner","type":"address","internalType":"address"},{"name":"spender","type":"address","internalType":"address"},{"name":"value","type":"uint256","internalType":"uint256"},{"name":"deadline","type":"uint256","internalType":"uint256"},{"name":"signature","type":"bytes","internalType":"bytes"}],"outputs":[{"name":"","type":"bool","internalType":"bool"}],"stateMutability":"nonpayable"},{"type":"function","name":"previewDeposit","inputs":[{"name":"assets","type":"uint256","internalType":"uint256"}],"outputs":[{"name":"","type":"uint256","internalType":"uint256"}],"stateMutability":"view"},{"type":"function","name":"previewMint","inputs":[{"name":"shares_","type":"uint256","internalType":"uint256"}],"outputs":[{"name":"","type":"uint256","internalType":"uint256"}],"stateMutability":"view"},{"type":"function","name":"pricePerShare","inputs":[],"outputs":[{"name":"","type":"uint256","internalType":"uint256"}],"stateMutability":"view"},{"type":"function","name":"redeemShares","inputs":[{"name":"shares","type":"uint256","internalType":"uint256"},{"name":"recipient","type":"address","internalType":"address"},{"name":"owner","type":"address","internalType":"address"}],"outputs":[{"name":"","type":"uint256","internalType":"uint256"}],"stateMutability":"nonpayable"},{"type":"function","name":"removeRole","inputs":[{"name":"_account","type":"address","internalType":"address"},{"name":"_role","type":"uint256","internalType":"uint256"}],"outputs":[],"stateMutability":"nonpayable"},{"type":"function","name":"removeStrategyFromQueue","inputs":[{"name":"strategy","type":"address","internalType":"address"}],"outputs":[],"stateMutability":"nonpayable"},{"type":"function","name":"report","inputs":[{"name":"gain","type":"uint256","internalType":"uint256"},{"name":"loss","type":"uint256","internalType":"uint256"},{"name":"_debtPayment","type":"uint256","internalType":"uint256"}],"outputs":[{"name":"","type":"uint256","internalType":"uint256"}],"stateMutability":"nonpayable"},{"type":"function","name":"revokeStrategy","inputs":[{"name":"strategy","type":"address","internalType":"address"}],"outputs":[],"stateMutability":"nonpayable"},{"type":"function","name":"rewards","inputs":[],"outputs":[{"name":"","type":"address","internalType":"address"}],"stateMutability":"view"},{"type":"function","name":"roleManager","inputs":[],"outputs":[{"name":"","type":"address","internalType":"address"}],"stateMutability":"view"},{"type":"function","name":"roles","inputs":[{"name":"","type":"address","internalType":"address"}],"outputs":[{"name":"","type":"uint256","internalType":"uint256"}],"stateMutability":"view"},{"type":"function","name":"setAccountant","inputs":[{"name":"_acc","type":"address","internalType":"address"}],"outputs":[],"stateMutability":"nonpayable"},{"type":"function","name":"setDepositLimit","inputs":[{"name":"limit","type":"uint256","internalType":"uint256"}],"outputs":[],"stateMutability":"nonpayable"},{"type":"function","name":"setDepositLimitModule","inputs":[{"name":"_module","type":"address","internalType":"address"},{"name":"_override","type":"bool","internalType":"bool"}],"outputs":[],"stateMutability":"nonpayable"},{"type":"function","name":"setEmergencyShutdown","inputs":[{"name":"active","type":"bool","internalType":"bool"}],"outputs":[],"stateMutability":"nonpayable"},{"type":"function","name":"setGovernance","inputs":[{"name":"_gov","type":"address","internalType":"address"}],"outputs":[],"stateMutability":"nonpayable"},{"type":"function","name":"setGuardian","inputs":[{"name":"_guardian","type":"address","internalType":"address"}],"outputs":[],"stateMutability":"nonpayable"},{"type":"function","name":"setLockedProfitDegradation","inputs":[{"name":"degradation","type":"uint256","internalType":"uint256"}],"outputs":[],"stateMutability":"nonpayable"},{"type":"function","name":"setManagement","inputs":[{"name":"_mgmt","type":"address","internalType":"address"}],"outputs":[],"stateMutability":"nonpayable"},{"type":"function","name":"setManagementFee","inputs":[{"name":"fee","type":"uint256","internalType":"uint256"}],"outputs":[],"stateMutability":"nonpayable"},{"type":"function","name":"setMinTotalIdle","inputs":[{"name":"_min","type":"uint256","internalType":"uint256"}],"outputs":[],"stateMutability":"nonpayable"},{"type":"function","name":"setName","inputs":[{"name":"_name","type":"string","internalType":"string"}],"outputs":[],"stateMutability":"nonpayable"},{"type":"function","name":"setPerformanceFee","inputs":[{"name":"fee","type":"uint256","internalType":"uint256"}],"outputs":[],"stateMutability":"nonpayable"},{"type":"function","name":"setProfitMaxUnlockTime","inputs":[{"name":"_time","type":"uint256","internalType":"uint256"}],"outputs":[],"stateMutability":"nonpayable"},{"type":"function","name":"setRewards","inputs":[{"name":"_rewards","type":"address","internalType":"address"}],"outputs":[],"stateMutability":"nonpayable"},{"type":"function","name":"setRole","inputs":[{"name":"_account","type":"address","internalType":"address"},{"name":"_role","type":"uint256","internalType":"uint256"}],"outputs":[],"stateMutability":"nonpayable"},{"type":"function","name":"setSymbol","inputs":[{"name":"_symbol","type":"string","internalType":"string"}],"outputs":[],"stateMutability":"nonpayable"},{"type":"function","name":"setWithdrawalLimitModule","inputs":[{"name":"_module","type":"address","internalType":"address"}],"outputs":[],"stateMutability":"nonpayable"},{"type":"function","name":"setWithdrawalQueue","inputs":[{"name":"queue","type":"address[20]","internalType":"address[20]"}],"outputs":[],"stateMutability":"nonpayable"},{"type":"function","name":"strategies","inputs":[{"name":"","type":"address","internalType":"address"}],"outputs":[{"name":"performanceFee","type":"uint256","internalType":"uint256"},{"name":"activation","type":"uint256","internalType":"uint256"},{"name":"debtRatio","type":"uint256","internalType":"uint256"},{"name":"minDebtPerHarvest","type":"uint256","internalType":"uint256"},{"name":"maxDebtPerHarvest","type":"uint256","internalType":"uint256"},{"name":"lastReport","type":"uint256","internalType":"uint256"},{"name":"totalDebt","type":"uint256","internalType":"uint256"},{"name":"totalGain","type":"uint256","internalType":"uint256"},{"name":"totalLoss","type":"uint256","internalType":"uint256"}],"stateMutability":"view"},{"type":"function","name":"sweep","inputs":[{"name":"_token","type":"address","internalType":"address"},{"name":"amount","type":"uint256","internalType":"uint256"}],"outputs":[],"stateMutability":"nonpayable"},{"type":"function","name":"symbol","inputs":[],"outputs":[{"name":"","type":"string","internalType":"string"}],"stateMutability":"view"},{"type":"function","name":"token","inputs":[],"outputs":[{"name":"","type":"address","internalType":"contract IERC20"}],"stateMutability":"view"},{"type":"function","name":"totalAssets","inputs":[],"outputs":[{"name":"","type":"uint256","internalType":"uint256"}],"stateMutability":"view"},{"type":"function","name":"totalDebt","inputs":[],"outputs":[{"name":"","type":"uint256","internalType":"uint256"}],"stateMutability":"view"},{"type":"function","name":"totalIdle","inputs":[],"outputs":[{"name":"","type":"uint256","internalType":"uint256"}],"stateMutability":"view"},{"type":"function","name":"totalSupply","inputs":[],"outputs":[{"name":"","type":"uint256","internalType":"uint256"}],"stateMutability":"view"},{"type":"function","name":"transfer","inputs":[{"name":"to","type":"address","internalType":"address"},{"name":"amount","type":"uint256","internalType":"uint256"}],"outputs":[{"name":"","type":"bool","internalType":"bool"}],"stateMutability":"nonpayable"},{"type":"function","name":"transferFrom","inputs":[{"name":"from","type":"address","internalType":"address"},{"name":"to","type":"address","internalType":"address"},{"name":"amount","type":"uint256","internalType":"uint256"}],"outputs":[{"name":"","type":"bool","internalType":"bool"}],"stateMutability":"nonpayable"},{"type":"function","name":"transferRoleManager","inputs":[{"name":"_pendingRoleManager","type":"address","internalType":"address"}],"outputs":[],"stateMutability":"nonpayable"},{"type":"function","name":"transferShares","inputs":[{"name":"to","type":"address","internalType":"address"},{"name":"amount","type":"uint256","internalType":"uint256"}],"outputs":[],"stateMutability":"nonpayable"},{"type":"function","name":"updateStrategyDebtRatio","inputs":[{"name":"strategy","type":"address","internalType":"address"},{"name":"_debtRatio","type":"uint256","internalType":"uint256"}],"outputs":[],"stateMutability":"nonpayable"},{"type":"function","name":"updateStrategyMaxDebtPerHarvest","inputs":[{"name":"strategy","type":"address","internalType":"address"},{"name":"m","type":"uint256","internalType":"uint256"}],"outputs":[],"stateMutability":"nonpayable"},{"type":"function","name":"updateStrategyMinDebtPerHarvest","inputs":[{"name":"strategy","type":"address","internalType":"address"},{"name":"m","type":"uint256","internalType":"uint256"}],"outputs":[],"stateMutability":"nonpayable"},{"type":"function","name":"updateStrategyPerformanceFee","inputs":[{"name":"strategy","type":"address","internalType":"address"},{"name":"pf","type":"uint256","internalType":"uint256"}],"outputs":[],"stateMutability":"nonpayable"},{"type":"function","name":"useDefaultQueue","inputs":[],"outputs":[{"name":"","type":"bool","internalType":"bool"}],"stateMutability":"view"},{"type":"function","name":"withdraw","inputs":[{"name":"assets","type":"uint256","internalType":"uint256"},{"name":"recipient","type":"address","internalType":"address"},{"name":"maxLoss","type":"uint256","internalType":"uint256"}],"outputs":[{"name":"","type":"uint256","internalType":"uint256"}],"stateMutability":"nonpayable"},{"type":"function","name":"withdrawLimitModule","inputs":[],"outputs":[{"name":"","type":"address","internalType":"address"}],"stateMutability":"view"},{"type":"function","name":"withdrawalQueue","inputs":[{"name":"","type":"uint256","internalType":"uint256"}],"outputs":[{"name":"","type":"address","internalType":"address"}],"stateMutability":"view"},{"type":"event","name":"Approval","inputs":[{"name":"owner","type":"address","indexed":true,"internalType":"address"},{"name":"spender","type":"address","indexed":true,"internalType":"address"},{"name":"value","type":"uint256","indexed":false,"internalType":"uint256"}],"anonymous":false},{"type":"event","name":"Deposit","inputs":[{"name":"recipient","type":"address","indexed":true,"internalType":"address"},{"name":"shares","type":"uint256","indexed":false,"internalType":"uint256"},{"name":"amount","type":"uint256","indexed":false,"internalType":"uint256"}],"anonymous":false},{"type":"event","name":"EmergencyShutdown","inputs":[{"name":"active","type":"bool","indexed":false,"internalType":"bool"}],"anonymous":false},{"type":"event","name":"FeeReport","inputs":[{"name":"management_fee","type":"uint256","indexed":false,"internalType":"uint256"},{"name":"performance_fee","type":"uint256","indexed":false,"internalType":"uint256"},{"name":"strategist_fee","type":"uint256","indexed":false,"internalType":"uint256"},{"name":"duration","type":"uint256","indexed":false,"internalType":"uint256"}],"anonymous":false},{"type":"event","name":"LockedProfitDegradationUpdated","inputs":[{"name":"value","type":"uint256","indexed":false,"internalType":"uint256"}],"anonymous":false},{"type":"event","name":"NewPendingGovernance","inputs":[{"name":"pendingGovernance","type":"address","indexed":true,"internalType":"address"}],"anonymous":false},{"type":"event","name":"RoleSet","inputs":[{"name":"account","type":"address","indexed":true,"internalType":"address"},{"name":"role","type":"uint256","indexed":false,"internalType":"uint256"}],"anonymous":false},{"type":"event","name":"StrategyAdded","inputs":[{"name":"strategy","type":"address","indexed":true,"internalType":"address"},{"name":"debtRatio","type":"uint256","indexed":false,"internalType":"uint256"},{"name":"minDebtPerHarvest","type":"uint256","indexed":false,"internalType":"uint256"},{"name":"maxDebtPerHarvest","type":"uint256","indexed":false,"internalType":"uint256"},{"name":"performanceFee","type":"uint256","indexed":false,"internalType":"uint256"}],"anonymous":false},{"type":"event","name":"StrategyAddedToQueue","inputs":[{"name":"strategy","type":"address","indexed":true,"internalType":"address"}],"anonymous":false},{"type":"event","name":"StrategyMigrated","inputs":[{"name":"oldVersion","type":"address","indexed":true,"internalType":"address"},{"name":"newVersion","type":"address","indexed":true,"internalType":"address"}],"anonymous":false},{"type":"event","name":"StrategyRemovedFromQueue","inputs":[{"name":"strategy","type":"address","indexed":true,"internalType":"address"}],"anonymous":false},{"type":"event","name":"StrategyReported","inputs":[{"name":"strategy","type":"address","indexed":true,"internalType":"address"},{"name":"gain","type":"uint256","indexed":false,"internalType":"uint256"},{"name":"loss","type":"uint256","indexed":false,"internalType":"uint256"},{"name":"debtPaid","type":"uint256","indexed":false,"internalType":"uint256"},{"name":"totalGain","type":"uint256","indexed":false,"internalType":"uint256"},{"name":"totalLoss","type":"uint256","indexed":false,"internalType":"uint256"},{"name":"totalDebt","type":"uint256","indexed":false,"internalType":"uint256"},{"name":"debtAdded","type":"uint256","indexed":false,"internalType":"uint256"},{"name":"debtRatio","type":"uint256","indexed":false,"internalType":"uint256"}],"anonymous":false},{"type":"event","name":"StrategyRevoked","inputs":[{"name":"strategy","type":"address","indexed":true,"internalType":"address"}],"anonymous":false},{"type":"event","name":"StrategyUpdateDebtRatio","inputs":[{"name":"strategy","type":"address","indexed":true,"internalType":"address"},{"name":"debtRatio","type":"uint256","indexed":false,"internalType":"uint256"}],"anonymous":false},{"type":"event","name":"StrategyUpdateMaxDebtPerHarvest","inputs":[{"name":"strategy","type":"address","indexed":true,"internalType":"address"},{"name":"maxDebtPerHarvest","type":"uint256","indexed":false,"internalType":"uint256"}],"anonymous":false},{"type":"event","name":"StrategyUpdateMinDebtPerHarvest","inputs":[{"name":"strategy","type":"address","indexed":true,"internalType":"address"},{"name":"minDebtPerHarvest","type":"uint256","indexed":false,"internalType":"uint256"}],"anonymous":false},{"type":"event","name":"StrategyUpdatePerformanceFee","inputs":[{"name":"strategy","type":"address","indexed":true,"internalType":"address"},{"name":"performanceFee","type":"uint256","indexed":false,"internalType":"uint256"}],"anonymous":false},{"type":"event","name":"Sweep","inputs":[{"name":"token","type":"address","indexed":true,"internalType":"address"},{"name":"amount","type":"uint256","indexed":false,"internalType":"uint256"}],"anonymous":false},{"type":"event","name":"Transfer","inputs":[{"name":"sender","type":"address","indexed":true,"internalType":"address"},{"name":"receiver","type":"address","indexed":true,"internalType":"address"},{"name":"value","type":"uint256","indexed":false,"internalType":"uint256"}],"anonymous":false},{"type":"event","name":"UpdateAccountant","inputs":[{"name":"accountant","type":"address","indexed":true,"internalType":"address"}],"anonymous":false},{"type":"event","name":"UpdateAutoAllocate","inputs":[{"name":"autoAllocate","type":"bool","indexed":false,"internalType":"bool"}],"anonymous":false},{"type":"event","name":"UpdateDepositLimit","inputs":[{"name":"depositLimit","type":"uint256","indexed":false,"internalType":"uint256"}],"anonymous":false},{"type":"event","name":"UpdateDepositLimitModule","inputs":[{"name":"module","type":"address","indexed":true,"internalType":"address"}],"anonymous":false},{"type":"event","name":"UpdateFutureRoleManager","inputs":[{"name":"pendingRoleManager","type":"address","indexed":false,"internalType":"address"}],"anonymous":false},{"type":"event","name":"UpdateGovernance","inputs":[{"name":"governance","type":"address","indexed":false,"internalType":"address"}],"anonymous":false},{"type":"event","name":"UpdateGuardian","inputs":[{"name":"guardian","type":"address","indexed":false,"internalType":"address"}],"anonymous":false},{"type":"event","name":"UpdateManagement","inputs":[{"name":"management","type":"address","indexed":false,"internalType":"address"}],"anonymous":false},{"type":"event","name":"UpdateManagementFee","inputs":[{"name":"managementFee","type":"uint256","indexed":false,"internalType":"uint256"}],"anonymous":false},{"type":"event","name":"UpdateMinimumTotalIdle","inputs":[{"name":"minTotalIdle","type":"uint256","indexed":false,"internalType":"uint256"}],"anonymous":false},{"type":"event","name":"UpdatePerformanceFee","inputs":[{"name":"performanceFee","type":"uint256","indexed":false,"internalType":"uint256"}],"anonymous":false},{"type":"event","name":"UpdateProfitMaxUnlockTime","inputs":[{"name":"time","type":"uint256","indexed":false,"internalType":"uint256"}],"anonymous":false},{"type":"event","name":"UpdateRewards","inputs":[{"name":"rewards","type":"address","indexed":false,"internalType":"address"}],"anonymous":false},{"type":"event","name":"UpdateRoleManager","inputs":[{"name":"roleManager","type":"address","indexed":false,"internalType":"address"}],"anonymous":false},{"type":"event","name":"UpdateUseDefaultQueue","inputs":[{"name":"useDefaultQueue","type":"bool","indexed":false,"internalType":"bool"}],"anonymous":false},{"type":"event","name":"UpdateWithdrawLimitModule","inputs":[{"name":"module","type":"address","indexed":true,"internalType":"address"}],"anonymous":false},{"type":"event","name":"UpdateWithdrawalQueue","inputs":[{"name":"queue","type":"address[20]","indexed":false,"internalType":"address[20]"}],"anonymous":false},{"type":"event","name":"Withdraw","inputs":[{"name":"recipient","type":"address","indexed":true,"internalType":"address"},{"name":"shares","type":"uint256","indexed":false,"internalType":"uint256"},{"name":"amount","type":"uint256","indexed":false,"internalType":"uint256"}],"anonymous":false},{"type":"event","name":"WithdrawFromStrategy","inputs":[{"name":"strategy","type":"address","indexed":true,"internalType":"address"},{"name":"totalDebt","type":"uint256","indexed":false,"internalType":"uint256"},{"name":"loss","type":"uint256","indexed":false,"internalType":"uint256"}],"anonymous":false}],"bytecode":{"object":"0x608060405234801561000f575f80fd5b5060015f55616f4780620000225f395ff3fe608060405234801561000f575f80fd5b50600436106105d4575f3560e01c80638fcb4e5b1161030d578063c0993eea116101a0578063e415a574116100ef578063ef8b30f7116100a9578063fc0c546a11610084578063fc0c546a14610d77578063fc7b9c1814610d8a578063fd967f4714610d93578063fe56e23214610d9c575f80fd5b8063ef8b30f714610646578063f39c38a014610d51578063f76e4caa14610d64575f80fd5b8063e415a57414610cea578063e63697c814610cfd578063e722befe14610d10578063ec38a86214610d23578063ecf7085814610d36578063ef27c0ad14610d3f575f80fd5b8063d250f0881161015a578063da7f243711610135578063da7f243714610c91578063dd62ed3e14610ca4578063df69b22a14610cce578063e2d4a86014610ce1575f80fd5b8063d250f08814610c5c578063d4a22bde14610c6b578063d764801314610c7e575f80fd5b8063c0993eea14610bea578063c3535b5214610c11578063c47f002714610c1a578063c822adda14610c2d578063cea55f5714610c40578063d0194ed614610c49575f80fd5b8063a6f7f5d61161025c578063b22439f511610216578063bb994d48116101f1578063bb994d4814610ba4578063bbe4eb4914610bb7578063bdc8144b14610bc4578063bdcf36bb14610bd7575f80fd5b8063b22439f514610b7e578063b3d7f6b91461061e578063b84c824614610b91575f80fd5b8063a6f7f5d614610b16578063a9059cbb14610b1f578063a964e98b14610b32578063aad8716214610b45578063ab033ea914610b58578063b0890e9814610b6b575f80fd5b806399530b06116102c75780639ec5a894116102a25780639ec5a89414610aca5780639fd5a6cf14610add578063a1d9bafc14610af0578063a457c2d714610b03575f80fd5b806399530b0614610aa65780639aa7df9414610aae5780639e34e34814610ab7575f80fd5b80638fcb4e5b14610a335780639198600314610a465780639414841514610a5957806394bf804d14610a6c57806395d89b4114610a7f5780639937464214610a87575f80fd5b806348ea71271161048557806375de2902116103d45780637bf48da51161038e5780637fde1c8a116103695780637fde1c8a146109f15780638778878214610a0457806388a8d60214610a0d5780638a0dac4a14610a20575f80fd5b80637bf48da5146109ac5780637c6a4f24146109bf5780637ecebe00146109d2575f80fd5b806375de29021461093f578063772d23121461094757806377e3b2671461094f57806379db5f671461097357806379f32e89146109865780637a55036514610999575f80fd5b80636cb56d191161043f5780636ea056a91161041a5780636ea056a9146108e757806370897b23146108fa57806370a082311461090d57806374277a631461092c575f80fd5b80636cb56d19146108b95780636d020808146108cc5780636e553f65146108d4575f80fd5b806348ea7127146108335780634d4bb197146108465780634fb3ccc51461086d578063538baeab146108805780635aa6e67514610893578063629b9142146108a6575f80fd5b806325829410116105415780633644e515116104fb57806342232716116104d657806342232716146107fb57806344b8139614610804578063452a93201461080d5780634757a15614610820575f80fd5b80633644e51514610744578063395093511461074c57806339ebf8231461075f575f80fd5b806325829410146106d057806328998af0146106f1578063313ce567146106fc57806333586b671461071b5780633403c2fc1461072e5780633629c8de1461073b575f80fd5b806314b4e26e1161059257806314b4e26e1461067c57806314c6440214610691578063153c27c4146106a457806318160ddd146106ac578063238efcbc146106b557806323b872dd146106bd575f80fd5b8062435da5146105d857806301e1d1141461060857806306a52a071461061e57806306fdde0314610631578063076d894214610646578063095ea7b314610659575b5f80fd5b6034546105eb906001600160a01b031681565b6040516001600160a01b0390911681526020015b60405180910390f35b610610610daf565b6040519081526020016105ff565b61061061062c3660046162f5565b610dbd565b610639610dcd565b6040516105ff919061632e565b6106106106543660046162f5565b610e59565b61066c610667366004616374565b610e63565b60405190151581526020016105ff565b61068f61068a36600461639e565b610ebb565b005b61068f61069f3660046163eb565b6113d1565b6106106114ab565b61061060065481565b61068f6114d6565b61066c6106cb366004616406565b61157b565b60408051808201909152600581526418171a171b60d91b6020820152610639565b6106106301e1855881565b6003546107099060ff1681565b60405160ff90911681526020016105ff565b610610610729366004616444565b611652565b60215461066c9060ff1681565b61061060275481565b61061061166e565b61066c61075a366004616374565b611677565b6107b761076d366004616444565b600c602052805f5260405f205f91509050805f0154908060010154908060020154908060030154908060040154908060050154908060060154908060070154908060080154905089565b60408051998a5260208a0198909852968801959095526060870193909352608086019190915260a085015260c084015260e0830152610100820152610120016105ff565b61061060295481565b61061060285481565b600a546105eb906001600160a01b031681565b61068f61082e366004616374565b6116f3565b61068f610841366004616444565b611821565b6106107f6e71edae12b1b97f4d1f60370fef10105fa2faae0126114a169c64845d6126c981565b602e546105eb906001600160a01b031681565b61068f61088e36600461651d565b611894565b6008546105eb906001600160a01b031681565b61068f6108b4366004616444565b611d85565b61068f6108c73660046165d9565b611dfd565b61068f6121f7565b6106106108e2366004616610565b612296565b61068f6108f5366004616374565b612526565b61068f6109083660046162f5565b6126af565b61061061091b366004616444565b60046020525f908152604090205481565b61068f61093a366004616374565b61273a565b6106106127b0565b610610601481565b6106396040518060400160405280600581526020016418171a171b60d91b81525081565b61068f610981366004616374565b612840565b61068f6109943660046163eb565b6128bb565b61068f6109a73660046162f5565b612950565b6106106109ba366004616633565b6129fb565b61068f6109cd366004616374565b612fdd565b6106106109e0366004616444565b602d6020525f908152604090205481565b61068f6109ff366004616374565b6131f6565b610610602c5481565b6009546105eb906001600160a01b031681565b61068f610a2e366004616444565b613270565b61068f610a41366004616374565b613324565b6030546105eb906001600160a01b031681565b61068f610a67366004616672565b61332f565b610610610a7a366004616610565b613775565b61063961395c565b610610610a95366004616444565b60336020525f908152604090205481565b610610613969565b61061060245481565b602f546105eb906001600160a01b031681565b602a546105eb906001600160a01b031681565b61066c610aeb3660046166df565b613985565b610610610afe366004616756565b613c7b565b61066c610b11366004616374565b614171565b610610602b5481565b61066c610b2d366004616374565b6141a5565b61068f610b4036600461677f565b6141ba565b61068f610b533660046162f5565b61427c565b61068f610b66366004616444565b6142db565b61068f610b793660046163eb565b61434e565b61068f610b8c366004616444565b6143ce565b61068f610b9f3660046167ab565b61450b565b61068f610bb2366004616444565b614542565b60325461066c9060ff1681565b61068f610bd23660046162f5565b614624565b610610610be5366004616444565b614683565b6106107f8b73c3c69bb8fe3d512ecc4cf759cc79239f7b179b0ffacaa9a75d522b39400f81565b61061060265481565b61068f610c283660046167ab565b61469f565b6105eb610c3b3660046162f5565b6146d6565b61061060235481565b61068f610c57366004616374565b6146f5565b610610670de0b6b3a764000081565b61068f610c79366004616444565b6147ce565b610610610c8c366004616444565b614846565b61068f610c9f366004616444565b614862565b610610610cb23660046165d9565b600560209081525f928352604080842090915290825290205481565b61068f610cdc3660046162f5565b6148d5565b61061060315481565b6035546105eb906001600160a01b031681565b610610610d0b3660046167ea565b6149d6565b61068f610d1e366004616374565b614f35565b61068f610d31366004616444565b615057565b61061060225481565b60325461066c90610100900460ff1681565b600b546105eb906001600160a01b031681565b61068f610d72366004616444565b615131565b6007546105eb906001600160a01b031681565b61061060255481565b61061061271081565b61068f610daa3660046162f5565b615319565b5f610db86153c1565b905090565b5f610dc7826153d2565b92915050565b60018054610dda9061680e565b80601f0160208091040260200160405190810160405280929190818152602001828054610e069061680e565b8015610e515780601f10610e2857610100808354040283529160200191610e51565b820191905f5260205f20905b815481529060010190602001808311610e3457829003601f168201915b505050505081565b5f610dc782615411565b335f8181526005602090815260408083206001600160a01b038716808552925280832085905551919290915f80516020616ef283398151915290610eaa9086815260200190565b60405180910390a350600192915050565b6008546001600160a01b03163314610eee5760405162461bcd60e51b8152600401610ee590616840565b60405180910390fd5b5f600d610efd6001601461687d565b60148110610f0d57610f0d616890565b01546001600160a01b031614610f595760405162461bcd60e51b815260206004820152601160248201527015985d5b1d0e881c5d595d5948199d5b1b607a1b6044820152606401610ee5565b60215460ff1615610f7c5760405162461bcd60e51b8152600401610ee5906168a4565b6001600160a01b038516610fc65760405162461bcd60e51b815260206004820152601160248201527005661756c743a207374726174656779203607c1b6044820152606401610ee5565b6001600160a01b0385165f908152600c60205260409020600101541561101e5760405162461bcd60e51b815260206004820152600d60248201526c5661756c743a2065786973747360981b6044820152606401610ee5565b306001600160a01b0316856001600160a01b031663fbfa77cf6040518163ffffffff1660e01b8152600401602060405180830381865afa158015611064573d5f803e3d5ffd5b505050506040513d601f19601f8201168201806040525081019061108891906168cd565b6001600160a01b0316146110d35760405162461bcd60e51b815260206004820152601260248201527115985d5b1d0e881ddc9bdb99c81d985d5b1d60721b6044820152606401610ee5565b60075460408051631f1fcd5160e01b815290516001600160a01b0392831692881691631f1fcd519160048083019260209291908290030181865afa15801561111d573d5f803e3d5ffd5b505050506040513d601f19601f8201168201806040525081019061114191906168cd565b6001600160a01b03161461118b5760405162461bcd60e51b815260206004820152601160248201527015985d5b1d0e881ddc9bdb99c81dd85b9d607a1b6044820152606401610ee5565b6127108460235461119c91906168e8565b11156111e25760405162461bcd60e51b81526020600482015260156024820152745661756c743a20726174696f206f766572666c6f7760581b6044820152606401610ee5565b818311156112255760405162461bcd60e51b815260206004820152601060248201526f0acc2ead8e87440dad2dc407c40dac2f60831b6044820152606401610ee5565b61123260026127106168fb565b8111156112515760405162461bcd60e51b8152600401610ee59061691a565b6040518061012001604052808281526020014281526020018581526020018481526020018381526020014281526020015f81526020015f81526020015f815250600c5f876001600160a01b03166001600160a01b031681526020019081526020015f205f820151815f01556020820151816001015560408201518160020155606082015181600301556080820151816004015560a0820151816005015560c0820151816006015560e082015181600701556101008201518160080155905050846001600160a01b03167f5a6abd2af9fe6c0554fa08649e2d86e4393ff19dc304d072d38d295c9291d4dc85858585604051611365949392919093845260208401929092526040830152606082015260800190565b60405180910390a28360235f82825461137e91906168e8565b90915550859050600d6113936001601461687d565b601481106113a3576113a3616890565b0180546001600160a01b0319166001600160a01b03929092169190911790556113ca615449565b5050505050565b801561143957600a546001600160a01b03163314806113fa57506008546001600160a01b031633145b6114345760405162461bcd60e51b815260206004820152600b60248201526a0acc2ead8e87440c2eae8d60ab1b6044820152606401610ee5565b611463565b6008546001600160a01b031633146114635760405162461bcd60e51b8152600401610ee590616840565b6021805460ff19168215159081179091556040519081527fba40372a3a724dca3c57156128ef1e896724b65b37a17f190b1ad5de68f3a4f3906020015b60405180910390a150565b5f6114b46153c1565b602254116114c157505f90565b6114c96153c1565b602254610db8919061687d565b600b546001600160a01b031633146115305760405162461bcd60e51b815260206004820152601d60248201527f5661756c743a206e6f742070656e64696e6720676f7665726e616e63650000006044820152606401610ee5565b600880546001600160a01b031916339081179091556040519081527f8d55d160c0009eb3d739442df0a3ca089ed64378bfac017e7ddad463f9815b87906020015b60405180910390a1565b6001600160a01b0383165f9081526005602090815260408083203384529091528120545f19811461163a57828110156115e95760405162461bcd60e51b815260206004820152601060248201526f5661756c743a20616c6c6f77616e636560801b6044820152606401610ee5565b6115f3838261687d565b6001600160a01b0386165f81815260056020908152604080832033808552908352928190208590555193845290925f80516020616ef2833981519152910160405180910390a35b611645858585615518565b60019150505b9392505050565b5f6001600160a01b038216611665573391505b610dc78261560e565b5f610db861571e565b335f9081526005602090815260408083206001600160a01b03861684529091528120805483919083906116ab9084906168e8565b9091555050335f8181526005602090815260408083206001600160a01b038816808552908352928190205490519081529192915f80516020616ef28339815191529101610eaa565b6008546001600160a01b031633148061171657506009546001600160a01b031633145b6117325760405162461bcd60e51b8152600401610ee590616943565b6001600160a01b0382165f908152600c60205260409020600101546117695760405162461bcd60e51b8152600401610ee59061696c565b6001600160a01b0382165f908152600c60205260409020600301548110156117c65760405162461bcd60e51b815260206004820152601060248201526f2b30bab63a1d1036b0bc101e1036b4b760811b6044820152606401610ee5565b6001600160a01b0382165f818152600c602052604090819020600401839055517f1796a8e0760e2de5b72e7bf64fccb7666c48ceab94cb6cae7cb7eff4b6f641ab906118159084815260200190565b60405180910390a25050565b6008546001600160a01b0316331461184b5760405162461bcd60e51b8152600401610ee590616840565b602e80546001600160a01b0319166001600160a01b0383169081179091556040517f28709a2dab2a5d5e8688e96159011151c51644ab21839a8a45b449634d7c8b2b905f90a250565b602754156118e45760405162461bcd60e51b815260206004820152601a60248201527f5661756c743a20616c726561647920696e697469616c697a65640000000000006044820152606401610ee5565b6001600160a01b03871661192b5760405162461bcd60e51b815260206004820152600e60248201526d05661756c743a20746f6b656e20360941b6044820152606401610ee5565b600780546001600160a01b0319166001600160a01b03891617905583515f036119e357866001600160a01b03166395d89b416040518163ffffffff1660e01b81526004015f60405180830381865afa158015611989573d5f803e3d5ffd5b505050506040513d5f823e601f3d908101601f191682016040526119b091908101906169a3565b6040516020016119c09190616a0c565b604051602081830303815290604052600190816119dd9190616a83565b506119f1565b60016119ef8582616a83565b505b82515f03611a8e57866001600160a01b03166395d89b416040518163ffffffff1660e01b81526004015f60405180830381865afa158015611a34573d5f803e3d5ffd5b505050506040513d5f823e601f3d908101601f19168201604052611a5b91908101906169a3565b604051602001611a6b9190616b3f565b60405160208183030381529060405260029081611a889190616a83565b50611a9c565b6002611a9a8482616a83565b505b866001600160a01b031663313ce5676040518163ffffffff1660e01b8152600401602060405180830381865afa158015611ad8573d5f803e3d5ffd5b505050506040513d601f19601f82011682018060405250810190611afc9190616b68565b6003805460ff191660ff92909216919091179055600880546001600160a01b0319166001600160a01b0388169081179091556040519081527f8d55d160c0009eb3d739442df0a3ca089ed64378bfac017e7ddad463f9815b879060200160405180910390a1600980546001600160a01b0319166001600160a01b0383169081179091556040519081527fff54978127edd34aec0f9061fb3b155fbe0ededdfa881ee3e0d541d3a1eef4389060200160405180910390a1602a80546001600160a01b0319166001600160a01b0387169081179091556040519081527fdf3c41a916aecbf42361a147f8348c242662c3ce20ecef30e826b80642477a3d9060200160405180910390a1600a80546001600160a01b0319166001600160a01b0384169081179091556040519081527f837b9ad138a0a1839a9637afce5306a5c13e23eb63365686843a5319a243609c9060200160405180910390a16103e8602c8190556040519081527f0810a1c261ca2c0cd86a0152c51c43ba9dc329639d2349f98140891b2ea798eb9060200160405180910390a160c8602b8190556040519081527f7a7883b0074f96e2c7fab65eb25abf624c488761a5db889e3bb84855dcc6daaf9060200160405180910390a1426026819055602755620f4240611ce9670de0b6b3a7640000602e616b88565b611cf391906168fb565b60298190556040519081527f056863905a721211fc4dda1d688efc8f120b4b689d2e41da8249cf6eff2006919060200160405180910390a1603480546001600160a01b0319166001600160a01b0388169081179091556040519081527fce93baa0b608a7d420822b6b90cfcccb70574363ba4fd26ef5ac17dd465016c49060200160405180910390a150505050505050565b6034546001600160a01b03163314611daf5760405162461bcd60e51b8152600401610ee590616b9f565b603580546001600160a01b0319166001600160a01b0383169081179091556040519081527f364d2f5fdafcc5778c92c031ccf715352535731482158c029793bd034198f571906020016114a0565b6008546001600160a01b03163314611e275760405162461bcd60e51b8152600401610ee590616840565b6001600160a01b038116611e6c5760405162461bcd60e51b815260206004820152600c60248201526b05661756c743a206e657720360a41b6044820152606401610ee5565b6001600160a01b0382165f908152600c6020526040902060010154611ec85760405162461bcd60e51b81526020600482015260126024820152712b30bab63a1d1037b632103ab735b737bbb760711b6044820152606401610ee5565b6001600160a01b0381165f908152600c602052604090206001015415611f245760405162461bcd60e51b81526020600482015260116024820152705661756c743a206e65772065786973747360781b6044820152606401610ee5565b6001600160a01b0382165f908152600c6020908152604091829020825161012081018452815481526001820154928101929092526002810154928201929092526003820154606082015260048201546080820152600582015460a0820152600682015460c0820152600782015460e0820152600890910154610100820152611fab836157d0565b806040015160235f828254611fc091906168e8565b925050819055505f600c5f856001600160a01b03166001600160a01b031681526020019081526020015f2060060181905550604051806101200160405280825f015181526020018260a0015181526020018260400151815260200182606001518152602001826080015181526020018260a0015181526020018260c0015181526020015f81526020015f815250600c5f846001600160a01b03166001600160a01b031681526020019081526020015f205f820151815f01556020820151816001015560408201518160020155606082015181600301556080820151816004015560a0820151816005015560c0820151816006015560e082015181600701556101008201518160080155905050826001600160a01b031663ce5494bb836040518263ffffffff1660e01b815260040161210791906001600160a01b0391909116815260200190565b5f604051808303815f87803b15801561211e575f80fd5b505af1158015612130573d5f803e3d5ffd5b50506040516001600160a01b038086169350861691507f100b69bb6b504e1252e36b375233158edee64d071b399e2f81473a695fd1b021905f90a35f5b60148110156121f057836001600160a01b0316600d826014811061219357612193616890565b01546001600160a01b0316036121de5782600d82601481106121b7576121b7616890565b0180546001600160a01b0319166001600160a01b0392909216919091179055506121f39050565b806121e881616bd6565b91505061216d565b50505b5050565b6035546001600160a01b031633146122515760405162461bcd60e51b815260206004820152601f60248201527f5661756c743a206e6f742070656e64696e6720726f6c65206d616e61676572006044820152606401610ee5565b603480546001600160a01b031916339081179091556040519081527fce93baa0b608a7d420822b6b90cfcccb70574363ba4fd26ef5ac17dd465016c490602001611571565b5f60025f54036122b85760405162461bcd60e51b8152600401610ee590616bee565b60025f556001600160a01b0382166122ce573391505b60215460ff16156122f15760405162461bcd60e51b8152600401610ee5906168a4565b306001600160a01b038316036123405760405162461bcd60e51b815260206004820152601460248201527315985d5b1d0e88189859081c9958da5c1a595b9d60621b6044820152606401610ee5565b82600181016123f3575f6123526153c1565b60225411612360575f612375565b6123686153c1565b602254612375919061687d565b6007546040516370a0823160e01b81523360048201529192506123eb9183916001600160a01b0316906370a0823190602401602060405180830381865afa1580156123c2573d5f803e3d5ffd5b505050506040513d601f19601f820116820180604052508101906123e69190616c25565b615849565b915050612456565b6022541561245657602254816124076153c1565b61241191906168e8565b11156124565760405162461bcd60e51b815260206004820152601460248201527315985d5b1d0e8819195c1bdcda5d081b1a5b5a5d60621b6044820152606401610ee5565b5f811161249a5760405162461bcd60e51b815260206004820152601260248201527115985d5b1d0e881e995c9bc8185b5bdd5b9d60721b6044820152606401610ee5565b5f6124a5848361585e565b6007549091506124c0906001600160a01b0316333085615953565b8160245f8282546124d191906168e8565b909155505060408051828152602081018490526001600160a01b038616917f90890809c654f11d6e72a28fa60149770a0d11ec6c92319d6ceb2bb0a4ea1a15910160405180910390a260015f55949350505050565b6008546001600160a01b031633146125505760405162461bcd60e51b8152600401610ee590616840565b80600181016125c2576040516370a0823160e01b81523060048201526001600160a01b038416906370a0823190602401602060405180830381865afa15801561259b573d5f803e3d5ffd5b505050506040513d601f19601f820116820180604052508101906125bf9190616c25565b90505b6007546001600160a01b039081169084160361264f57602480546040516370a0823160e01b815230600482015290916001600160a01b038616916370a082319101602060405180830381865afa15801561261e573d5f803e3d5ffd5b505050506040513d601f19601f820116820180604052508101906126429190616c25565b61264c919061687d565b90505b826001600160a01b03167fab2246061d7b0dd3631d037e3f6da75782ae489eeb9f6af878a4b25df9b07c778260405161268a91815260200190565b60405180910390a26008546126aa9084906001600160a01b031683615968565b505050565b6008546001600160a01b031633146126d95760405162461bcd60e51b8152600401610ee590616840565b6126e660026127106168fb565b8111156127055760405162461bcd60e51b8152600401610ee59061691a565b602c8190556040518181527f0810a1c261ca2c0cd86a0152c51c43ba9dc329639d2349f98140891b2ea798eb906020016114a0565b6034546001600160a01b031633146127645760405162461bcd60e51b8152600401610ee590616b9f565b6001600160a01b0382165f8181526033602052604090819020839055517f78557646b1d8efa2cd49740d66df5aca39eb610ca8ca0e1ccac08979b6b2c46e906118159084815260200190565b5f806127bd602454615411565b90505f5b601481101561283a575f600d82601481106127de576127de616890565b01546001600160a01b03169050806127f6575061283a565b6001600160a01b0381165f908152600c602052604090206006015461281a90615411565b61282490846168e8565b925050808061283290616bd6565b9150506127c1565b50919050565b6034546001600160a01b0316331461286a5760405162461bcd60e51b8152600401610ee590616b9f565b6001600160a01b0382165f8181526033602090815260409182902080548519169081905591519182527f78557646b1d8efa2cd49740d66df5aca39eb610ca8ca0e1ccac08979b6b2c46e9101611815565b602e546001600160a01b031633146129075760405162461bcd60e51b815260206004820152600f60248201526e5661756c743a20616363206f6e6c7960881b6044820152606401610ee5565b603280548215156101000261ff00199091161790556040517f68d2a9e78bb2679fce38ced936827f483b51ff64f0776fc33fc39b2881f237f8906114a090831515815260200190565b6008546001600160a01b0316331461297a5760405162461bcd60e51b8152600401610ee590616840565b670de0b6b3a76400008111156129c65760405162461bcd60e51b81526020600482015260116024820152702b30bab63a1d103232b3901f1031b7b2b360791b6044820152606401610ee5565b60298190556040518181527f056863905a721211fc4dda1d688efc8f120b4b689d2e41da8249cf6eff200691906020016114a0565b5f60025f5403612a1d5760405162461bcd60e51b8152600401610ee590616bee565b60025f556001600160a01b038316612a33573392505b6001600160a01b038216612a45573391505b5f84118015612a6b57506001600160a01b0382165f908152600460205260409020548411155b612aa75760405162461bcd60e51b815260206004820152600d60248201526c5661756c743a2073686172657360981b6044820152606401610ee5565b6001600160a01b0382163314612b85576001600160a01b0382165f9081526005602090815260408083203384529091529020545f198114612b835784811015612b325760405162461bcd60e51b815260206004820152601960248201527f5661756c743a20616c6c6f77616e6365203c20736861726573000000000000006044820152606401610ee5565b612b3c858261687d565b6001600160a01b0384165f81815260056020908152604080832033808552908352928190208590555193845290925f80516020616ef2833981519152910160405180910390a35b505b5f612b8f856153d2565b6024549091505f81831115612eef575f5b6014811015612e60575f600d8260148110612bbd57612bbd616890565b01546001600160a01b0316905080612bd55750612e60565b838511612be25750612e60565b5f612bed858761687d565b6001600160a01b0383165f908152600c6020526040902060060154909150612c16908290615849565b9050805f03612c26575050612e4e565b6007546040516370a0823160e01b81523060048201525f916001600160a01b0316906370a0823190602401602060405180830381865afa158015612c6c573d5f803e3d5ffd5b505050506040513d601f19601f82011682018060405250810190612c909190616c25565b604051632e1a7d4d60e01b8152600481018490529091505f906001600160a01b03851690632e1a7d4d906024016020604051808303815f875af1158015612cd9573d5f803e3d5ffd5b505050506040513d601f19601f82011682018060405250810190612cfd9190616c25565b6007546040516370a0823160e01b81523060048201529192505f9184916001600160a01b0316906370a0823190602401602060405180830381865afa158015612d48573d5f803e3d5ffd5b505050506040513d601f19601f82011682018060405250810190612d6c9190616c25565b612d76919061687d565b9050612d8281896168e8565b97508115612dac57612d94828a61687d565b9850612da082886168e8565b9650612dac858361597c565b6001600160a01b0385165f908152600c602052604081206006018054839290612dd690849061687d565b925050819055508060255f828254612dee919061687d565b90915550506001600160a01b0385165f818152600c60209081526040918290206006015482519081529081018590527f06c03dc1e1399953729e53ec7181b6e753942e20fafe5b55917f5c34559ae69c910160405180910390a250505050505b80612e5881616bd6565b915050612ba0565b50602482905581831115612e8857819250612e858184612e8091906168e8565b615411565b96505b612710612e9582856168e8565b612ea190612710616b88565b612eab91906168fb565b811115612eef5760405162461bcd60e51b81526020600482015260126024820152715661756c743a20657863657373206c6f737360701b6044820152606401610ee5565b8660065f828254612f00919061687d565b90915550506001600160a01b0385165f9081526004602052604081208054899290612f2c90849061687d565b90915550506040518781525f906001600160a01b038716905f80516020616ed28339815191529060200160405180910390a38260245f828254612f6f919061687d565b9091555050600754612f8b906001600160a01b03168785615968565b60408051888152602081018590526001600160a01b038816917ff279e6a1f5e320cca91135676d9cb6e44ca8a08c0b88342bcdb1144f6511b568910160405180910390a2505060015f55949350505050565b6008546001600160a01b031633148061300057506009546001600160a01b031633145b61301c5760405162461bcd60e51b8152600401610ee590616943565b6001600160a01b0382165f908152600c60205260409020600101546130535760405162461bcd60e51b8152600401610ee59061696c565b816001600160a01b0316635641ec036040518163ffffffff1660e01b8152600401602060405180830381865afa15801561308f573d5f803e3d5ffd5b505050506040513d601f19601f820116820180604052508101906130b39190616c3c565b156131005760405162461bcd60e51b815260206004820152601e60248201527f5661756c743a20737472617465677920656d657267656e6379206578697400006044820152606401610ee5565b6001600160a01b0382165f908152600c6020526040812060020154602380549192909161312e90849061687d565b90915550506001600160a01b0382165f908152600c60205260408120600201829055602380548392906131629084906168e8565b909155505060235461271010156131bb5760405162461bcd60e51b815260206004820152601a60248201527f5661756c743a2064656274526174696f203e204d41585f4250530000000000006044820152606401610ee5565b816001600160a01b03167fbda9398315c83ccef012bcaa318a2ff7b680f36429d36597bd4bc25ac11ead598260405161181591815260200190565b6034546001600160a01b031633146132205760405162461bcd60e51b8152600401610ee590616b9f565b6001600160a01b0382165f81815260336020908152604091829020805485179081905591519182527f78557646b1d8efa2cd49740d66df5aca39eb610ca8ca0e1ccac08979b6b2c46e9101611815565b600a546001600160a01b031633148061329357506008546001600160a01b031633145b6132d65760405162461bcd60e51b81526020600482015260146024820152730acc2ead8e87440ceeac2e4c8d2c2dc40c2eae8d60631b6044820152606401610ee5565b600a80546001600160a01b0319166001600160a01b0383169081179091556040519081527f837b9ad138a0a1839a9637afce5306a5c13e23eb63365686843a5319a243609c906020016114a0565b6121f3338383615518565b6008546001600160a01b031633148061335257506009546001600160a01b031633145b61336e5760405162461bcd60e51b8152600401610ee590616943565b604080516102808101918290525f91600d9060149082845b81546001600160a01b0316815260019091019060200180831161338657505050505090505f5b6014811015613739575f8382601481106133c8576133c8616890565b6020020160208101906133db9190616444565b6001600160a01b03160361345c575f8282601481106133fc576133fc616890565b60200201516001600160a01b0316146134575760405162461bcd60e51b815260206004820152601a60248201527f5661756c743a2063616e6e6f7420657874656e642071756575650000000000006044820152606401610ee5565b613739565b5f82826014811061346f5761346f616890565b60200201516001600160a01b0316036134be5760405162461bcd60e51b815260206004820152601160248201527015985d5b1d0e8818d85b9b9bdd08185919607a1b6044820152606401610ee5565b5f600c5f8584601481106134d4576134d4616890565b6020020160208101906134e79190616444565b6001600160a01b03166001600160a01b031681526020019081526020015f2060010154116135275760405162461bcd60e51b8152600401610ee59061696c565b5f805b6014811015613681575f85826014811061354657613546616890565b6020020160208101906135599190616444565b6001600160a01b0316036135705760019150613681565b83816014811061358257613582616890565b60200201516001600160a01b03168584601481106135a2576135a2616890565b6020020160208101906135b59190616444565b6001600160a01b0316036135c857600191505b8281111561366f578481601481106135e2576135e2616890565b6020020160208101906135f59190616444565b6001600160a01b031685846014811061361057613610616890565b6020020160208101906136239190616444565b6001600160a01b03160361366f5760405162461bcd60e51b81526020600482015260136024820152725661756c743a2064757020737472617465677960681b6044820152606401610ee5565b8061367981616bd6565b91505061352a565b50806136cf5760405162461bcd60e51b815260206004820152601e60248201527f5661756c743a206e6f742065786973747320696e206f6c6420717565756500006044820152606401610ee5565b8382601481106136e1576136e1616890565b6020020160208101906136f49190616444565b600d836014811061370757613707616890565b0180546001600160a01b0319166001600160a01b0392909216919091179055508061373181616bd6565b9150506133ac565b507f695ac3ac73f08f2002284ffe563cefe798ee2878a5e04219522e2e99eb89d168826040516137699190616c57565b60405180910390a15050565b5f60025f54036137975760405162461bcd60e51b8152600401610ee590616bee565b60025f556001600160a01b0382166137ad573391505b60215460ff16156137d05760405162461bcd60e51b8152600401610ee5906168a4565b306001600160a01b0383160361381f5760405162461bcd60e51b815260206004820152601460248201527315985d5b1d0e88189859081c9958da5c1a595b9d60621b6044820152606401610ee5565b5f83116138635760405162461bcd60e51b81526020600482015260126024820152715661756c743a207a65726f2073686172657360701b6044820152606401610ee5565b5f61386d846153d2565b602254909150156138d357602254816138846153c1565b61388e91906168e8565b11156138d35760405162461bcd60e51b815260206004820152601460248201527315985d5b1d0e8819195c1bdcda5d081b1a5b5a5d60621b6044820152606401610ee5565b6007546138eb906001600160a01b0316333084615953565b8060245f8282546138fc91906168e8565b9091555061390c9050838561585e565b5060408051858152602081018390526001600160a01b038516917f90890809c654f11d6e72a28fa60149770a0d11ec6c92319d6ceb2bb0a4ea1a15910160405180910390a260015f559392505050565b60028054610dda9061680e565b6003545f90610db8906139809060ff16600a616d7b565b6153d2565b5f6001600160a01b0387166139cd5760405162461bcd60e51b815260206004820152600e60248201526d05661756c743a206f776e657220360941b6044820152606401610ee5565b42841015613a155760405162461bcd60e51b815260206004820152601560248201527415985d5b1d0e881c195c9b5a5d08195e1c1a5c9959605a1b6044820152606401610ee5565b5f613a1e61571e565b6001600160a01b038981165f818152602d60209081526040918290205482517f6e71edae12b1b97f4d1f60370fef10105fa2faae0126114a169c64845d6126c98184015280840194909452938c166060840152608083018b905260a083019390935260c08083018a90528151808403909101815260e08301909152805192019190912061190160f01b610100830152610102820192909252610122810191909152610142016040516020818303038152906040528051906020012090505f805f613ae88787615af7565b9250925092505f6001858386866040515f8152602001604052604051613b2a949392919093845260ff9290921660208401526040830152606082015260800190565b6020604051602081039080840390855afa158015613b4a573d5f803e3d5ffd5b5050506020604051035190508b6001600160a01b0316816001600160a01b031614613bac5760405162461bcd60e51b81526020600482015260126024820152715661756c743a20696e76616c69642073696760701b6044820152606401610ee5565b8960055f8e6001600160a01b03166001600160a01b031681526020019081526020015f205f8d6001600160a01b03166001600160a01b031681526020019081526020015f20819055506001602d5f8e6001600160a01b03166001600160a01b031681526020019081526020015f205f828254613c2891906168e8565b925050819055508a6001600160a01b03168c6001600160a01b03165f80516020616ef28339815191528c604051613c6191815260200190565b60405180910390a35060019b9a5050505050505050505050565b335f908152600c6020526040812060010154613cd95760405162461bcd60e51b815260206004820152601760248201527f5661756c743a20756e6b6e6f776e207265706f727465720000000000000000006044820152606401610ee5565b613ce382856168e8565b6007546040516370a0823160e01b81523360048201526001600160a01b03909116906370a0823190602401602060405180830381865afa158015613d29573d5f803e3d5ffd5b505050506040513d601f19601f82011682018060405250810190613d4d9190616c25565b1015613da55760405162461bcd60e51b815260206004820152602160248201527f5661756c743a20696e73756666696369656e7420746f6b656e2062616c616e636044820152606560f81b6064820152608401610ee5565b8215613db557613db5338461597c565b5f613dc03386615b51565b335f908152600c6020526040812060070180549293508792909190613de69084906168e8565b909155505f9050613df633615de5565b90505f613e0233615f03565b90505f613e0f8683615849565b90508015613e6357335f908152600c602052604081206006018054839290613e3890849061687d565b925050819055508060255f828254613e50919061687d565b90915550613e609050818361687d565b91505b8215613ea857335f908152600c602052604081206006018054859290613e8a9084906168e8565b925050819055508260255f828254613ea291906168e8565b90915550505b5f613eb3828a6168e8565b905083811015613f0157613ec7818561687d565b60245f828254613ed7919061687d565b9091555050600754613efc906001600160a01b031633613ef7848861687d565b615968565b613f49565b83811115613f4957613f13848261687d565b60245f828254613f2391906168e8565b9091555050600754613f49906001600160a01b03163330613f44888661687d565b615953565b5f613f54868b61687d565b613f5c615fb9565b613f6691906168e8565b905088811115613f8257613f7a898261687d565b602855613f87565b5f6028555b42600c5f336001600160a01b03166001600160a01b031681526020019081526020015f206005018190555042602681905550336001600160a01b03167f67f96d2854a335a4cadb49f84fd3ca6f990744ddb3feceeb4b349d2d53d32ad38b8b86600c5f336001600160a01b03166001600160a01b031681526020019081526020015f2060070154600c5f336001600160a01b03166001600160a01b031681526020019081526020015f2060080154600c5f336001600160a01b03166001600160a01b031681526020019081526020015f20600601548c600c5f336001600160a01b03166001600160a01b031681526020019081526020015f20600201546040516140c9989796959493929190978852602088019690965260408701949094526060860192909252608085015260a084015260c083015260e08201526101000190565b60405180910390a2335f908152600c602052604090206002015415806140f1575060215460ff165b1561416357336001600160a01b031663efbb5cb06040518163ffffffff1660e01b8152600401602060405180830381865afa158015614132573d5f803e3d5ffd5b505050506040513d601f19601f820116820180604052508101906141569190616c25565b965050505050505061164b565b83965050505050505061164b565b335f9081526005602090815260408083206001600160a01b03861684529091528120805483919083906116ab90849061687d565b5f6141b1338484615518565b50600192915050565b6008546001600160a01b031633146141e45760405162461bcd60e51b8152600401610ee590616840565b80614232575f19602254146142325760405162461bcd60e51b81526020600482015260146024820152730acc2ead8e87440d8d2dad2e840dcdee840dac2f60631b6044820152606401610ee5565b602f80546001600160a01b0319166001600160a01b0384169081179091556040517f777d215db24fb9fee4ded85c66b422abd7162a1caa6ed3ec4c031f6cd29ada52905f90a25050565b6008546001600160a01b031633146142a65760405162461bcd60e51b8152600401610ee590616840565b60318190556040518181527f01a4494beed88920b88742cc58f2744e198f55ff192635a1fbabc6be8ffade81906020016114a0565b6008546001600160a01b031633146143055760405162461bcd60e51b8152600401610ee590616840565b600b80546001600160a01b0319166001600160a01b0383169081179091556040517f90ad4c550d25bd23af61db38d1ff8671b89edaaa0bca0fc36bac5084ecc120bd905f90a250565b6008546001600160a01b031633148061437157506009546001600160a01b031633145b61438d5760405162461bcd60e51b8152600401610ee590616943565b6032805460ff19168215159081179091556040519081527f1f88e73ebc721f227812938fe07a069ec1f7136aafacb397ed460bd15dee13f1906020016114a0565b6008546001600160a01b03163314806143f157506009546001600160a01b031633145b61440d5760405162461bcd60e51b8152600401610ee590616943565b5f5b60148110156144c957816001600160a01b0316600d826014811061443557614435616890565b01546001600160a01b0316036144b7575f600d826014811061445957614459616890565b0180546001600160a01b0319166001600160a01b0392909216919091179055614480615449565b6040516001600160a01b038316907f8e1ec3c16d6a67ea8effe2ac7adef9c2de0bc0dc47c49cdf18f6a8b0048085be905f90a25050565b806144c181616bd6565b91505061440f565b5060405162461bcd60e51b81526020600482015260136024820152725661756c743a206e6f7420696e20717565756560681b6044820152606401610ee5565b50565b6008546001600160a01b031633146145355760405162461bcd60e51b8152600401610ee590616840565b60026126aa828483616d89565b336001600160a01b038216148061456357506008546001600160a01b031633145b806145785750600a546001600160a01b031633145b6145b95760405162461bcd60e51b81526020600482015260126024820152710acc2ead8e87440e4caecded6ca40c2eae8d60731b6044820152606401610ee5565b6001600160a01b0381165f908152600c6020526040812060020154900361461b5760405162461bcd60e51b815260206004820152601660248201527515985d5b1d0e88185b1c9958591e481c995d9bdad95960521b6044820152606401610ee5565b614508816157d0565b6008546001600160a01b0316331461464e5760405162461bcd60e51b8152600401610ee590616840565b60228190556040518181527fae565aab888bca5e19e25a13db7b0c9144305bf55cb0f3f4d724f730e5acdd62906020016114a0565b5f6001600160a01b038216614696573391505b610dc782615f03565b6008546001600160a01b031633146146c95760405162461bcd60e51b8152600401610ee590616840565b60016126aa828483616d89565b600d81601481106146e5575f80fd5b01546001600160a01b0316905081565b6008546001600160a01b0316331461471f5760405162461bcd60e51b8152600401610ee590616840565b61472c60026127106168fb565b81111561474b5760405162461bcd60e51b8152600401610ee59061691a565b6001600160a01b0382165f908152600c60205260409020600101546147825760405162461bcd60e51b8152600401610ee59061696c565b6001600160a01b0382165f818152600c602052604090819020839055517fe57488a65fa53066d4c25bac90db47dda4e5de3025ac12bf76ff07211cf7f39e906118159084815260200190565b6008546001600160a01b031633146147f85760405162461bcd60e51b8152600401610ee590616840565b600980546001600160a01b0319166001600160a01b0383169081179091556040519081527fff54978127edd34aec0f9061fb3b155fbe0ededdfa881ee3e0d541d3a1eef438906020016114a0565b5f6001600160a01b038216614859573391505b610dc782615de5565b6008546001600160a01b0316331461488c5760405162461bcd60e51b8152600401610ee590616840565b603080546001600160a01b0319166001600160a01b0383169081179091556040517fce6e3f8beda82a13c441d76efd4a6335760f219f38c60502e6680060874e109d905f90a250565b6008546001600160a01b031633146148ff5760405162461bcd60e51b8152600401610ee590616840565b6301e185588111156149455760405162461bcd60e51b815260206004820152600f60248201526e5661756c743a20746f6f206c6f6e6760881b6044820152606401610ee5565b805f0361495a575f6029819055602855614970565b61496c81670de0b6b3a76400006168fb565b6029555b6040518181527ff361aed463da6fa20358e45c6209f1d3e16d4eca706e6eab0b0aeb338729c77a9060200160405180910390a17f056863905a721211fc4dda1d688efc8f120b4b689d2e41da8249cf6eff2006916029546040516114a091815260200190565b5f60025f54036149f85760405162461bcd60e51b8152600401610ee590616bee565b60025f556001600160a01b038316614a0e573392505b612710821115614a605760405162461bcd60e51b815260206004820152601860248201527f5661756c743a206d61784c6f7373203e204d41585f42505300000000000000006044820152606401610ee5565b5f8411614aa45760405162461bcd60e51b81526020600482015260126024820152715661756c743a207a65726f2061737365747360701b6044820152606401610ee5565b5f614aae85615411565b335f90815260046020526040902054909150811115614b0f5760405162461bcd60e51b815260206004820152601a60248201527f5661756c743a20696e73756666696369656e74207368617265730000000000006044820152606401610ee5565b60245485905f81831115614e58575f5b6014811015614ddf575f600d8260148110614b3c57614b3c616890565b01546001600160a01b0316905080614b545750614ddf565b838511614b615750614ddf565b5f614b6c858761687d565b6001600160a01b0383165f908152600c6020526040902060060154909150614b95908290615849565b9050805f03614ba5575050614dcd565b6007546040516370a0823160e01b81523060048201525f916001600160a01b0316906370a0823190602401602060405180830381865afa158015614beb573d5f803e3d5ffd5b505050506040513d601f19601f82011682018060405250810190614c0f9190616c25565b604051632e1a7d4d60e01b8152600481018490529091505f906001600160a01b03851690632e1a7d4d906024016020604051808303815f875af1158015614c58573d5f803e3d5ffd5b505050506040513d601f19601f82011682018060405250810190614c7c9190616c25565b6007546040516370a0823160e01b81523060048201529192505f9184916001600160a01b0316906370a0823190602401602060405180830381865afa158015614cc7573d5f803e3d5ffd5b505050506040513d601f19601f82011682018060405250810190614ceb9190616c25565b614cf5919061687d565b9050614d0181896168e8565b97508115614d2b57614d13828a61687d565b9850614d1f82886168e8565b9650614d2b858361597c565b6001600160a01b0385165f908152600c602052604081206006018054839290614d5590849061687d565b925050819055508060255f828254614d6d919061687d565b90915550506001600160a01b0385165f818152600c60209081526040918290206006015482519081529081018590527f06c03dc1e1399953729e53ec7181b6e753942e20fafe5b55917f5c34559ae69c910160405180910390a250505050505b80614dd781616bd6565b915050614b1f565b50602482905581831115614df1578192505b612710614dfe8488616b88565b614e0891906168fb565b811115614e4c5760405162461bcd60e51b81526020600482015260126024820152715661756c743a20657863657373206c6f737360701b6044820152606401610ee5565b614e5583615411565b93505b8360065f828254614e69919061687d565b9091555050335f9081526004602052604081208054869290614e8c90849061687d565b90915550506040518481525f9033905f80516020616ed28339815191529060200160405180910390a38260245f828254614ec6919061687d565b9091555050600754614ee2906001600160a01b03168885615968565b60408051858152602081018590526001600160a01b038916917ff279e6a1f5e320cca91135676d9cb6e44ca8a08c0b88342bcdb1144f6511b568910160405180910390a2505060015f5550949350505050565b6008546001600160a01b0316331480614f5857506009546001600160a01b031633145b614f745760405162461bcd60e51b8152600401610ee590616943565b6001600160a01b0382165f908152600c6020526040902060010154614fab5760405162461bcd60e51b8152600401610ee59061696c565b6001600160a01b0382165f908152600c60205260409020600401548111156150085760405162461bcd60e51b815260206004820152601060248201526f0acc2ead8e87440dad2dc407c40dac2f60831b6044820152606401610ee5565b6001600160a01b0382165f818152600c602052604090819020600301839055517f0b728ad785976532c4aaadde09b1cba5f262a7090e83c62d2377bc405678b29c906118159084815260200190565b6008546001600160a01b031633146150815760405162461bcd60e51b8152600401610ee590616840565b6001600160a01b038116158015906150a257506001600160a01b0381163014155b6150e35760405162461bcd60e51b81526020600482015260126024820152715661756c743a20626164207265776172647360701b6044820152606401610ee5565b602a80546001600160a01b0319166001600160a01b0383169081179091556040519081527fdf3c41a916aecbf42361a147f8348c242662c3ce20ecef30e826b80642477a3d906020016114a0565b6008546001600160a01b031633148061515457506009546001600160a01b031633145b6151705760405162461bcd60e51b8152600401610ee590616943565b6001600160a01b0381165f908152600c60205260409020600101546151a75760405162461bcd60e51b8152600401610ee59061696c565b5f805b6014811015615257575f600d82601481106151c7576151c7616890565b01546001600160a01b03169050806151df5750615257565b836001600160a01b0316816001600160a01b0316036152365760405162461bcd60e51b81526020600482015260136024820152725661756c743a2064757020696e20717565756560681b6044820152606401610ee5565b8261524081616bd6565b93505050808061524f90616bd6565b9150506151aa565b506014811061529c5760405162461bcd60e51b815260206004820152601160248201527015985d5b1d0e881c5d595d5948199d5b1b607a1b6044820152606401610ee5565b81600d6152ab6001601461687d565b601481106152bb576152bb616890565b0180546001600160a01b0319166001600160a01b03929092169190911790556152e2615449565b6040516001600160a01b038316907fa8727d412c6fa1e2497d6d6f275e2d9fe4d9318d5b793632e60ad9d38ee8f1fa905f90a25050565b6008546001600160a01b031633146153435760405162461bcd60e51b8152600401610ee590616840565b61271081111561538c5760405162461bcd60e51b81526020600482015260146024820152735661756c743a206d6766203e204d41585f42505360601b6044820152606401610ee5565b602b8190556040518181527f7a7883b0074f96e2c7fab65eb25abf624c488761a5db889e3bb84855dcc6daaf906020016114a0565b5f602554602454610db891906168e8565b5f6006545f036153e0575090565b5f6153e961603a565b9050805f036153fa57505f92915050565b6006546154078285616b88565b61164b91906168fb565b5f8061541b61603a565b90505f8111801561542d57505f600654115b156154415780600654846154079190616b88565b505f92915050565b5f805b60148110156121f3575f600d826014811061546957615469616890565b01546001600160a01b031690508061548e576154866001846168e8565b925050615506565b82156155045780600d6154a1858561687d565b601481106154b1576154b1616890565b0180546001600160a01b0319166001600160a01b03929092169190911790555f600d83601481106154e4576154e4616890565b0180546001600160a01b0319166001600160a01b03929092169190911790555b505b8061551081616bd6565b91505061544c565b6001600160a01b0382161580159061553957506001600160a01b0382163014155b6155755760405162461bcd60e51b815260206004820152600d60248201526c5661756c743a2062616420746f60981b6044820152606401610ee5565b6001600160a01b0383165f908152600460205260408120805483929061559c90849061687d565b90915550506001600160a01b0382165f90815260046020526040812080548392906155c89084906168e8565b92505081905550816001600160a01b0316836001600160a01b03165f80516020616ed28339815191528360405161560191815260200190565b60405180910390a3505050565b6001600160a01b0381165f908152600c602052604081206005015481615634824261687d565b6001600160a01b0385165f908152600c60205260408120600101549192509061565d908461687d565b90505f8211801561566d57505f81115b80156156d45750846001600160a01b03166322f3e2d46040518163ffffffff1660e01b8152600401602060405180830381865afa1580156156b0573d5f803e3d5ffd5b505050506040513d601f19601f820116820180604052508101906156d49190616c3c565b15615714576001600160a01b0385165f908152600c60205260409020600701548190615701908490616b88565b61570b91906168fb565b95945050505050565b505f949350505050565b5f7f8b73c3c69bb8fe3d512ecc4cf759cc79239f7b179b0ffacaa9a75d522b39400f600160405161574f9190616e44565b604080519182900382208282018252600583526418171a171b60d91b6020938401528151928301939093528101919091527f2115bf7bb3ef63f99b3f91be4b15c7617080f11392cc8975ff8ea0f1a4f67aa960608201524660808201523060a082015260c00160405160208183030381529060405280519060200120905090565b6001600160a01b0381165f908152600c602052604081206002015460238054919290916157fe90849061687d565b90915550506001600160a01b0381165f818152600c6020526040808220600201829055517f4201c688d84c01154d321afa0c72f1bffe9eef53005c9de9d035074e71e9b32a9190a250565b5f818310615857578161164b565b5090919050565b6006545f908161586c61603a565b90505f8211801561587c57505f81115b1561589d578061588c8386616b88565b61589691906168fb565b92506158a1565b8392505b825f036158e55760405162461bcd60e51b81526020600482015260126024820152715661756c743a207a65726f2073686172657360701b6044820152606401610ee5565b6158ef83836168e8565b6006556001600160a01b0385165f90815260046020526040812080548592906159199084906168e8565b90915550506040518381526001600160a01b038616905f905f80516020616ed28339815191529060200160405180910390a3505092915050565b6121f06001600160a01b03851684848461606a565b6126aa6001600160a01b03841683836160d5565b6001600160a01b0382165f908152600c6020526040902060060154818110156159e75760405162461bcd60e51b815260206004820152601860248201527f5661756c743a206c6f7373203e20746f74616c206465627400000000000000006044820152606401610ee5565b60235415615a83576025545f9015615a3a57615a3760255460235485615a0d9190616b88565b615a1791906168fb565b6001600160a01b0386165f908152600c6020526040902060020154615849565b90505b6001600160a01b0384165f908152600c602052604081206002018054839290615a6490849061687d565b925050819055508060235f828254615a7c919061687d565b9091555050505b6001600160a01b0383165f908152600c602052604081206008018054849290615aad9084906168e8565b90915550615abd9050828261687d565b6001600160a01b0384165f908152600c602052604081206006019190915560258054849290615aed90849061687d565b9091555050505050565b5f808060418414615b3a5760405162461bcd60e51b815260206004820152600d60248201526c2b30bab63a1d1039b4b3b632b760991b6044820152606401610ee5565b5050823593602084013593604001355f1a92509050565b6001600160a01b0382165f908152600c6020526040812060010154429003615b7a57505f610dc7565b6001600160a01b0383165f908152600c6020526040812060050154615b9f904261687d565b9050805f03615be45760405162461bcd60e51b81526020600482015260116024820152705661756c743a2073616d6520626c6f636b60781b6044820152606401610ee5565b825f03615bf4575f915050610dc7565b5f6301e18558612710602b5484886001600160a01b0316638e6350e26040518163ffffffff1660e01b8152600401602060405180830381865afa158015615c3d573d5f803e3d5ffd5b505050506040513d601f19601f82011682018060405250810190615c619190616c25565b6001600160a01b038a165f908152600c6020526040902060060154615c86919061687d565b615c909190616b88565b615c9a9190616b88565b615ca491906168fb565b615cae91906168fb565b6001600160a01b0386165f908152600c60205260408120549192509061271090615cd89087616b88565b615ce291906168fb565b90505f612710602c5487615cf69190616b88565b615d0091906168fb565b905080615d0d83856168e8565b615d1791906168e8565b945085851115615d25578594505b8415615d93575f615d36308761585e565b90508215615d63575f86615d4a8386616b88565b615d5491906168fb565b9050615d61308a83615518565b505b305f908152600460205260409020548015615d9057602a54615d909030906001600160a01b031683615518565b50505b6040805184815260208101839052908101839052606081018590527f5c971a56b919bc03cfcc69b3500de2c9400b81ff5977e541c5075e04348756f59060800160405180910390a15050505092915050565b6021545f9060ff1615615df957505f919050565b5f615e026153c1565b90505f61271082602354615e169190616b88565b615e2091906168fb565b6025546001600160a01b0386165f908152600c6020526040812060020154929350909161271090615e52908690616b88565b615e5c91906168fb565b6001600160a01b0387165f908152600c6020526040902060068101546003820154600490920154929350918284111580615e965750848611155b15615ea957505f98975050505050505050565b5f615eb4848661687d565b9050615ec4816123e6888a61687d565b9050615ed281602454615849565b905082811015615eeb57505f9998505050505050505050565b615ef58183615849565b9a9950505050505050505050565b5f6023545f03615f2b57506001600160a01b03165f908152600c602052604090206006015490565b5f612710615f376153c1565b6001600160a01b0385165f908152600c6020526040902060020154615f5c9190616b88565b615f6691906168fb565b6001600160a01b0384165f908152600c60205260409020600601546021549192509060ff1615615f97579392505050565b818111615fa757505f9392505050565b615fb1828261687d565b949350505050565b5f6028545f1480615fca5750602954155b15615fd457505f90565b5f60295460265442615fe6919061687d565b615ff09190616b88565b9050670de0b6b3a764000081101561603357602854670de0b6b3a76400006160188284616b88565b61602291906168fb565b61602c908261687d565b9250505090565b5f91505090565b5f806160446153c1565b90505f61604f615fb9565b9050808211616060575f9250505090565b61602c818361687d565b6040516001600160a01b03808516602483015283166044820152606481018290526121f09085906323b872dd60e01b906084015b60408051601f198184030181529190526020810180516001600160e01b03166001600160e01b031990931692909217909152616105565b6040516001600160a01b0383166024820152604481018290526126aa90849063a9059cbb60e01b9060640161609e565b5f616159826040518060400160405280602081526020017f5361666545524332303a206c6f772d6c6576656c2063616c6c206661696c6564815250856001600160a01b03166161d89092919063ffffffff16565b905080515f14806161795750808060200190518101906161799190616c3c565b6126aa5760405162461bcd60e51b815260206004820152602a60248201527f5361666545524332303a204552433230206f7065726174696f6e20646964206e6044820152691bdd081cdd58d8d9595960b21b6064820152608401610ee5565b6060615fb184845f85855f80866001600160a01b031685876040516161fd9190616eb6565b5f6040518083038185875af1925050503d805f8114616237576040519150601f19603f3d011682016040523d82523d5f602084013e61623c565b606091505b509150915061624d87838387616258565b979650505050505050565b606083156162c65782515f036162bf576001600160a01b0385163b6162bf5760405162461bcd60e51b815260206004820152601d60248201527f416464726573733a2063616c6c20746f206e6f6e2d636f6e74726163740000006044820152606401610ee5565b5081615fb1565b615fb183838151156162db5781518083602001fd5b8060405162461bcd60e51b8152600401610ee5919061632e565b5f60208284031215616305575f80fd5b5035919050565b5f5b8381101561632657818101518382015260200161630e565b50505f910152565b602081525f825180602084015261634c81604085016020870161630c565b601f01601f19169190910160400192915050565b6001600160a01b0381168114614508575f80fd5b5f8060408385031215616385575f80fd5b823561639081616360565b946020939093013593505050565b5f805f805f60a086880312156163b2575f80fd5b85356163bd81616360565b97602087013597506040870135966060810135965060800135945092505050565b8015158114614508575f80fd5b5f602082840312156163fb575f80fd5b813561164b816163de565b5f805f60608486031215616418575f80fd5b833561642381616360565b9250602084013561643381616360565b929592945050506040919091013590565b5f60208284031215616454575f80fd5b813561164b81616360565b634e487b7160e01b5f52604160045260245ffd5b604051601f8201601f1916810167ffffffffffffffff8111828210171561649c5761649c61645f565b604052919050565b5f67ffffffffffffffff8211156164bd576164bd61645f565b50601f01601f191660200190565b5f82601f8301126164da575f80fd5b81356164ed6164e8826164a4565b616473565b818152846020838601011115616501575f80fd5b816020850160208301375f918101602001919091529392505050565b5f805f805f805f60e0888a031215616533575f80fd5b873561653e81616360565b9650602088013561654e81616360565b9550604088013561655e81616360565b9450606088013567ffffffffffffffff8082111561657a575f80fd5b6165868b838c016164cb565b955060808a013591508082111561659b575f80fd5b506165a88a828b016164cb565b93505060a08801356165b981616360565b915060c08801356165c981616360565b8091505092959891949750929550565b5f80604083850312156165ea575f80fd5b82356165f581616360565b9150602083013561660581616360565b809150509250929050565b5f8060408385031215616621575f80fd5b82359150602083013561660581616360565b5f805f60608486031215616645575f80fd5b83359250602084013561665781616360565b9150604084013561666781616360565b809150509250925092565b5f610280808385031215616684575f80fd5b838184011115616692575f80fd5b509092915050565b5f8083601f8401126166aa575f80fd5b50813567ffffffffffffffff8111156166c1575f80fd5b6020830191508360208285010111156166d8575f80fd5b9250929050565b5f805f805f8060a087890312156166f4575f80fd5b86356166ff81616360565b9550602087013561670f81616360565b94506040870135935060608701359250608087013567ffffffffffffffff811115616738575f80fd5b61674489828a0161669a565b979a9699509497509295939492505050565b5f805f60608486031215616768575f80fd5b505081359360208301359350604090920135919050565b5f8060408385031215616790575f80fd5b823561679b81616360565b91506020830135616605816163de565b5f80602083850312156167bc575f80fd5b823567ffffffffffffffff8111156167d2575f80fd5b6167de8582860161669a565b90969095509350505050565b5f805f606084860312156167fc575f80fd5b83359250602084013561643381616360565b600181811c9082168061682257607f821691505b60208210810361283a57634e487b7160e01b5f52602260045260245ffd5b6020808252600f908201526e5661756c743a20676f76206f6e6c7960881b604082015260600190565b634e487b7160e01b5f52601160045260245ffd5b81810381811115610dc757610dc7616869565b634e487b7160e01b5f52603260045260245ffd5b6020808252600f908201526e2b30bab63a1d1039b43aba3237bbb760891b604082015260600190565b5f602082840312156168dd575f80fd5b815161164b81616360565b80820180821115610dc757610dc7616869565b5f8261691557634e487b7160e01b5f52601260045260245ffd5b500490565b6020808252600f908201526e5661756c743a207066203e2035302560881b604082015260600190565b6020808252600f908201526e15985d5b1d0e8819dbdd8bdb59db5d608a1b604082015260600190565b60208082526017908201527f5661756c743a20756e6b6e6f776e207374726174656779000000000000000000604082015260600190565b5f602082840312156169b3575f80fd5b815167ffffffffffffffff8111156169c9575f80fd5b8201601f810184136169d9575f80fd5b80516169e76164e8826164a4565b8181528560208385010111156169fb575f80fd5b61570b82602083016020860161630c565b5f8251616a1d81846020870161630c565b66081b95985d5b1d60ca1b920191825250600701919050565b601f8211156126aa575f81815260208120601f850160051c81016020861015616a5c5750805b601f850160051c820191505b81811015616a7b57828155600101616a68565b505050505050565b815167ffffffffffffffff811115616a9d57616a9d61645f565b616ab181616aab845461680e565b84616a36565b602080601f831160018114616ae4575f8415616acd5750858301515b5f19600386901b1c1916600185901b178555616a7b565b5f85815260208120601f198616915b82811015616b1257888601518255948401946001909101908401616af3565b5085821015616b2f57878501515f19600388901b60f8161c191681555b5050505050600190811b01905550565b61372b60f11b81525f8251616b5b81600285016020870161630c565b9190910160020192915050565b5f60208284031215616b78575f80fd5b815160ff8116811461164b575f80fd5b8082028115828204841417610dc757610dc7616869565b60208082526018908201527f5661756c743a20726f6c65206d616e61676572206f6e6c790000000000000000604082015260600190565b5f60018201616be757616be7616869565b5060010190565b6020808252601f908201527f5265656e7472616e637947756172643a207265656e7472616e742063616c6c00604082015260600190565b5f60208284031215616c35575f80fd5b5051919050565b5f60208284031215616c4c575f80fd5b815161164b816163de565b610280810181835f5b6014811015616c92578135616c7481616360565b6001600160a01b031683526020928301929190910190600101616c60565b50505092915050565b600181815b80851115616cd557815f1904821115616cbb57616cbb616869565b80851615616cc857918102915b93841c9390800290616ca0565b509250929050565b5f82616ceb57506001610dc7565b81616cf757505f610dc7565b8160018114616d0d5760028114616d1757616d33565b6001915050610dc7565b60ff841115616d2857616d28616869565b50506001821b610dc7565b5060208310610133831016604e8410600b8410161715616d56575081810a610dc7565b616d608383616c9b565b805f1904821115616d7357616d73616869565b029392505050565b5f61164b60ff841683616cdd565b67ffffffffffffffff831115616da157616da161645f565b616db583616daf835461680e565b83616a36565b5f601f841160018114616de6575f8515616dcf5750838201355b5f19600387901b1c1916600186901b1783556113ca565b5f83815260209020601f19861690835b82811015616e165786850135825560209485019460019092019101616df6565b5086821015616e32575f1960f88860031b161c19848701351681555b505060018560011b0183555050505050565b5f808354616e518161680e565b60018281168015616e695760018114616e7e57616eaa565b60ff1984168752821515830287019450616eaa565b875f526020805f205f5b85811015616ea15781548a820152908401908201616e88565b50505082870194505b50929695505050505050565b5f8251616ec781846020870161630c565b919091019291505056feddf252ad1be2c89b69c2b068fc378daa952ba7f163c4a11628f55a4df523b3ef8c5be1e5ebec7d5bd14f71427d1e84f3dd0314c0f7b2291e5b200ac8c7c3b925a264697066735822122090b56995506e12516d1b0cbff83f414a09bb3af808329f2fc8e0351fbd37064f64736f6c63430008140033","linkReferences":{}},"methodIdentifiers":{"API_VERSION()":"77e3b267","DEGRADATION_COEFFICIENT()":"d250f088","DOMAIN_SEPARATOR()":"3644e515","DOMAIN_TYPE_HASH()":"c0993eea","MAXIMUM_STRATEGIES()":"772d2312","MAX_BPS()":"fd967f47","PERMIT_TYPE_HASH()":"4d4bb197","SECS_PER_YEAR()":"28998af0","_shareValuePublic_(uint256)":"06a52a07","_sharesForAmountPublic_(uint256)":"076d8942","acceptGovernance()":"238efcbc","acceptRoleManager()":"6d020808","accountant()":"4fb3ccc5","activation()":"3629c8de","addRole(address,uint256)":"7fde1c8a","addStrategy(address,uint256,uint256,uint256,uint256)":"14b4e26e","addStrategyToQueue(address)":"f76e4caa","allowance(address,address)":"dd62ed3e","apiVersion()":"25829410","approve(address,uint256)":"095ea7b3","autoAllocate()":"ef27c0ad","auto_allocate(bool)":"79f32e89","availableDepositLimit()":"153c27c4","balanceOf(address)":"70a08231","creditAvailable(address)":"d7648013","debtOutstanding(address)":"bdcf36bb","debtRatio()":"cea55f57","decimals()":"313ce567","decreaseAllowance(address,uint256)":"a457c2d7","default_queue(bool)":"b0890e98","deposit(uint256,address)":"6e553f65","depositLimit()":"ecf70858","depositLimitModule()":"9e34e348","emergencyShutdown()":"3403c2fc","expectedReturn(address)":"33586b67","governance()":"5aa6e675","guardian()":"452a9320","increaseAllowance(address,uint256)":"39509351","initialize(address,address,address,string,string,address,address)":"538baeab","lastReport()":"c3535b52","lockedProfit()":"44b81396","lockedProfitDegradation()":"42232716","management()":"88a8d602","managementFee()":"a6f7f5d6","maxAvailableShares()":"75de2902","migrateStrategy(address,address)":"6cb56d19","minTotalIdle()":"e2d4a860","mint(uint256,address)":"94bf804d","name()":"06fdde03","nonces(address)":"7ecebe00","pendingGovernance()":"f39c38a0","pendingRoleManager()":"e415a574","performanceFee()":"87788782","permit(address,address,uint256,uint256,bytes)":"9fd5a6cf","previewDeposit(uint256)":"ef8b30f7","previewMint(uint256)":"b3d7f6b9","pricePerShare()":"99530b06","redeemShares(uint256,address,address)":"7bf48da5","removeRole(address,uint256)":"79db5f67","removeStrategyFromQueue(address)":"b22439f5","report(uint256,uint256,uint256)":"a1d9bafc","revokeStrategy(address)":"bb994d48","rewards()":"9ec5a894","roleManager()":"00435da5","roles(address)":"99374642","setAccountant(address)":"48ea7127","setDepositLimit(uint256)":"bdc8144b","setDepositLimitModule(address,bool)":"a964e98b","setEmergencyShutdown(bool)":"14c64402","setGovernance(address)":"ab033ea9","setGuardian(address)":"8a0dac4a","setLockedProfitDegradation(uint256)":"7a550365","setManagement(address)":"d4a22bde","setManagementFee(uint256)":"fe56e232","setMinTotalIdle(uint256)":"aad87162","setName(string)":"c47f0027","setPerformanceFee(uint256)":"70897b23","setProfitMaxUnlockTime(uint256)":"df69b22a","setRewards(address)":"ec38a862","setRole(address,uint256)":"74277a63","setSymbol(string)":"b84c8246","setWithdrawalLimitModule(address)":"da7f2437","setWithdrawalQueue(address[20])":"94148415","strategies(address)":"39ebf823","sweep(address,uint256)":"6ea056a9","symbol()":"95d89b41","token()":"fc0c546a","totalAssets()":"01e1d114","totalDebt()":"fc7b9c18","totalIdle()":"9aa7df94","totalSupply()":"18160ddd","transfer(address,uint256)":"a9059cbb","transferFrom(address,address,uint256)":"23b872dd","transferRoleManager(address)":"629b9142","transferShares(address,uint256)":"8fcb4e5b","updateStrategyDebtRatio(address,uint256)":"7c6a4f24","updateStrategyMaxDebtPerHarvest(address,uint256)":"4757a156","updateStrategyMinDebtPerHarvest(address,uint256)":"e722befe","updateStrategyPerformanceFee(address,uint256)":"d0194ed6","useDefaultQueue()":"bbe4eb49","withdraw(uint256,address,uint256)":"e63697c8","withdrawLimitModule()":"91986003","withdrawalQueue(uint256)":"c822adda"},"id":1}