{"abi":[{"type":"constructor","inputs":[{"name":"_name","type":"string","internalType":"string"},{"name":"_symbol","type":"string","internalType":"string"},{"name":"_decimals","type":"uint8","internalType":"uint8"}],"stateMutability":"nonpayable"},{"type":"function","name":"allowance","inputs":[{"name":"","type":"address","internalType":"address"},{"name":"","type":"address","internalType":"address"}],"outputs":[{"name":"","type":"uint256","internalType":"uint256"}],"stateMutability":"view"},{"type":"function","name":"approve","inputs":[{"name":"spender","type":"address","internalType":"address"},{"name":"amount","type":"uint256","internalType":"uint256"}],"outputs":[{"name":"","type":"bool","internalType":"bool"}],"stateMutability":"nonpayable"},{"type":"function","name":"balanceOf","inputs":[{"name":"account","type":"address","internalType":"address"}],"outputs":[{"name":"","type":"uint256","internalType":"uint256"}],"stateMutability":"view"},{"type":"function","name":"burn","inputs":[{"name":"from","type":"address","internalType":"address"},{"name":"amount","type":"uint256","internalType":"uint256"}],"outputs":[],"stateMutability":"nonpayable"},{"type":"function","name":"decimals","inputs":[],"outputs":[{"name":"","type":"uint8","internalType":"uint8"}],"stateMutability":"view"},{"type":"function","name":"mint","inputs":[{"name":"to","type":"address","internalType":"address"},{"name":"amount","type":"uint256","internalType":"uint256"}],"outputs":[],"stateMutability":"nonpayable"},{"type":"function","name":"name","inputs":[],"outputs":[{"name":"","type":"string","internalType":"string"}],"stateMutability":"view"},{"type":"function","name":"setBalanceOfShouldRevert","inputs":[{"name":"_shouldRevert","type":"bool","internalType":"bool"}],"outputs":[],"stateMutability":"nonpayable"},{"type":"function","name":"setTransferShouldRevert","inputs":[{"name":"_shouldRevert","type":"bool","internalType":"bool"}],"outputs":[],"stateMutability":"nonpayable"},{"type":"function","name":"symbol","inputs":[],"outputs":[{"name":"","type":"string","internalType":"string"}],"stateMutability":"view"},{"type":"function","name":"totalSupply","inputs":[],"outputs":[{"name":"","type":"uint256","internalType":"uint256"}],"stateMutability":"view"},{"type":"function","name":"transfer","inputs":[{"name":"to","type":"address","internalType":"address"},{"name":"amount","type":"uint256","internalType":"uint256"}],"outputs":[{"name":"","type":"bool","internalType":"bool"}],"stateMutability":"nonpayable"},{"type":"function","name":"transferFrom","inputs":[{"name":"from","type":"address","internalType":"address"},{"name":"to","type":"address","internalType":"address"},{"name":"amount","type":"uint256","internalType":"uint256"}],"outputs":[{"name":"","type":"bool","internalType":"bool"}],"stateMutability":"nonpayable"},{"type":"event","name":"Approval","inputs":[{"name":"owner","type":"address","indexed":true,"internalType":"address"},{"name":"spender","type":"address","indexed":true,"internalType":"address"},{"name":"value","type":"uint256","indexed":false,"internalType":"uint256"}],"anonymous":false},{"type":"event","name":"Transfer","inputs":[{"name":"from","type":"address","indexed":true,"internalType":"address"},{"name":"to","type":"address","indexed":true,"internalType":"address"},{"name":"value","type":"uint256","indexed":false,"internalType":"uint256"}],"anonymous":false}],"bytecode":{"object":"0x608060405234801562000010575f80fd5b5060405162000d1a38038062000d1a83398101604081905262000033916200012b565b5f62000040848262000236565b5060016200004f838262000236565b506002805460ff191660ff9290921691909117905550620002fe9050565b634e487b7160e01b5f52604160045260245ffd5b5f82601f83011262000091575f80fd5b81516001600160401b0380821115620000ae57620000ae6200006d565b604051601f8301601f19908116603f01168101908282118183101715620000d957620000d96200006d565b81604052838152602092508683858801011115620000f5575f80fd5b5f91505b83821015620001185785820183015181830184015290820190620000f9565b5f93810190920192909252949350505050565b5f805f606084860312156200013e575f80fd5b83516001600160401b038082111562000155575f80fd5b620001638783880162000081565b9450602086015191508082111562000179575f80fd5b50620001888682870162000081565b925050604084015160ff811681146200019f575f80fd5b809150509250925092565b600181811c90821680620001bf57607f821691505b602082108103620001de57634e487b7160e01b5f52602260045260245ffd5b50919050565b601f82111562000231575f81815260208120601f850160051c810160208610156200020c5750805b601f850160051c820191505b818110156200022d5782815560010162000218565b5050505b505050565b81516001600160401b038111156200025257620002526200006d565b6200026a81620002638454620001aa565b84620001e4565b602080601f831160018114620002a0575f8415620002885750858301515b5f19600386901b1c1916600185901b1785556200022d565b5f85815260208120601f198616915b82811015620002d057888601518255948401946001909101908401620002af565b5085821015620002ee57878501515f19600388901b60f8161c191681555b5050505050600190811b01905550565b610a0e806200030c5f395ff3fe608060405234801561000f575f80fd5b50600436106100cb575f3560e01c806340c10f191161008857806395d89b411161006357806395d89b41146101ca5780639dc29fac146101d2578063a9059cbb146101e5578063dd62ed3e146101f8575f80fd5b806340c10f1914610183578063468c15a91461019657806370a08231146101b7575f80fd5b806306fdde03146100cf578063095ea7b3146100ed57806318160ddd1461011057806323b872dd14610127578063313ce5671461013a578063333901f314610159575b5f80fd5b6100d7610222565b6040516100e49190610836565b60405180910390f35b6101006100fb36600461089c565b6102ad565b60405190151581526020016100e4565b61011960035481565b6040519081526020016100e4565b6101006101353660046108c4565b610319565b6002546101479060ff1681565b60405160ff90911681526020016100e4565b6101816101673660046108fd565b600680549115156101000261ff0019909216919091179055565b005b61018161019136600461089c565b61044b565b6101816101a43660046108fd565b6006805460ff1916911515919091179055565b6101196101c536600461091c565b6104d2565b6100d7610547565b6101816101e036600461089c565b610554565b6101006101f336600461089c565b6105d5565b610119610206366004610935565b600560209081525f928352604080842090915290825290205481565b5f805461022e90610966565b80601f016020809104026020016040519081016040528092919081815260200182805461025a90610966565b80156102a55780601f1061027c576101008083540402835291602001916102a5565b820191905f5260205f20905b81548152906001019060200180831161028857829003601f168201915b505050505081565b335f8181526005602090815260408083206001600160a01b038716808552925280832085905551919290917f8c5be1e5ebec7d5bd14f71427d1e84f3dd0314c0f7b2291e5b200ac8c7c3b925906103079086815260200190565b60405180910390a35060015b92915050565b6006545f9060ff16156103735760405162461bcd60e51b815260206004820152601c60248201527f4d6f636b45524332303a207472616e736665722072657665727465640000000060448201526064015b60405180910390fd5b6001600160a01b0384163314610438576001600160a01b0384165f9081526005602090815260408083203384529091529020545f19811461043657828110156104085760405162461bcd60e51b815260206004820152602160248201527f4d6f636b45524332303a20696e73756666696369656e7420616c6c6f77616e636044820152606560f81b606482015260840161036a565b61041283826109b2565b6001600160a01b0386165f9081526005602090815260408083203384529091529020555b505b61044384848461063c565b949350505050565b8060035f82825461045c91906109c5565b90915550506001600160a01b0382165f90815260046020526040812080548392906104889084906109c5565b90915550506040518181526001600160a01b038316905f907fddf252ad1be2c89b69c2b068fc378daa952ba7f163c4a11628f55a4df523b3ef906020015b60405180910390a35050565b6006545f90610100900460ff161561052c5760405162461bcd60e51b815260206004820152601d60248201527f4d6f636b45524332303a2062616c616e63654f66207265766572746564000000604482015260640161036a565b506001600160a01b03165f9081526004602052604090205490565b6001805461022e90610966565b6001600160a01b0382165f908152600460205260408120805483929061057b9084906109b2565b925050819055508060035f82825461059391906109b2565b90915550506040518181525f906001600160a01b038416907fddf252ad1be2c89b69c2b068fc378daa952ba7f163c4a11628f55a4df523b3ef906020016104c6565b6006545f9060ff161561062a5760405162461bcd60e51b815260206004820152601c60248201527f4d6f636b45524332303a207472616e7366657220726576657274656400000000604482015260640161036a565b61063533848461063c565b9392505050565b5f6001600160a01b0384166106a55760405162461bcd60e51b815260206004820152602960248201527f4d6f636b45524332303a207472616e736665722066726f6d20746865207a65726044820152686f206164647265737360b81b606482015260840161036a565b6001600160a01b03831661070b5760405162461bcd60e51b815260206004820152602760248201527f4d6f636b45524332303a207472616e7366657220746f20746865207a65726f206044820152666164647265737360c81b606482015260840161036a565b6001600160a01b0384165f908152600460205260409020548211156107855760405162461bcd60e51b815260206004820152602a60248201527f4d6f636b45524332303a207472616e7366657220616d6f756e7420657863656560448201526964732062616c616e636560b01b606482015260840161036a565b6001600160a01b0384165f90815260046020526040812080548492906107ac9084906109b2565b90915550506001600160a01b0383165f90815260046020526040812080548492906107d89084906109c5565b92505081905550826001600160a01b0316846001600160a01b03167fddf252ad1be2c89b69c2b068fc378daa952ba7f163c4a11628f55a4df523b3ef8460405161082491815260200190565b60405180910390a35060019392505050565b5f6020808352835180828501525f5b8181101561086157858101830151858201604001528201610845565b505f604082860101526040601f19601f8301168501019250505092915050565b80356001600160a01b0381168114610897575f80fd5b919050565b5f80604083850312156108ad575f80fd5b6108b683610881565b946020939093013593505050565b5f805f606084860312156108d6575f80fd5b6108df84610881565b92506108ed60208501610881565b9150604084013590509250925092565b5f6020828403121561090d575f80fd5b81358015158114610635575f80fd5b5f6020828403121561092c575f80fd5b61063582610881565b5f8060408385031215610946575f80fd5b61094f83610881565b915061095d60208401610881565b90509250929050565b600181811c9082168061097a57607f821691505b60208210810361099857634e487b7160e01b5f52602260045260245ffd5b50919050565b634e487b7160e01b5f52601160045260245ffd5b818103818111156103135761031361099e565b808201808211156103135761031361099e56fea2646970667358221220435229e882bac621f4a0b3a7278c7156a065d320f7d7866d583ebfb0b5753fbc64736f6c63430008140033","linkReferences":{}},"methodIdentifiers":{"allowance(address,address)":"dd62ed3e","approve(address,uint256)":"095ea7b3","balanceOf(address)":"70a08231","burn(address,uint256)":"9dc29fac","decimals()":"313ce567","mint(address,uint256)":"40c10f19","name()":"06fdde03","setBalanceOfShouldRevert(bool)":"333901f3","setTransferShouldRevert(bool)":"468c15a9","symbol()":"95d89b41","totalSupply()":"18160ddd","transfer(address,uint256)":"a9059cbb","transferFrom(address,address,uint256)":"23b872dd"},"id":31}