{"abi":[{"type":"constructor","inputs":[{"name":"_want","type":"address","internalType":"address"},{"name":"_controller","type":"address","internalType":"address"},{"name":"_cToken","type":"address","internalType":"address"},{"name":"_comptroller","type":"address","internalType":"address"},{"name":"_name","type":"string","internalType":"string"},{"name":"_riskScore","type":"uint8","internalType":"uint8"}],"stateMutability":"nonpayable"},{"type":"function","name":"balanceOf","inputs":[],"outputs":[{"name":"","type":"uint256","internalType":"uint256"}],"stateMutability":"view"},{"type":"function","name":"cToken","inputs":[],"outputs":[{"name":"","type":"address","internalType":"address"}],"stateMutability":"view"},{"type":"function","name":"comptroller","inputs":[],"outputs":[{"name":"","type":"address","internalType":"address"}],"stateMutability":"view"},{"type":"function","name":"controller","inputs":[],"outputs":[{"name":"","type":"address","internalType":"address"}],"stateMutability":"view"},{"type":"function","name":"deposit","inputs":[{"name":"_amount","type":"uint256","internalType":"uint256"}],"outputs":[{"name":"","type":"uint256","internalType":"uint256"}],"stateMutability":"nonpayable"},{"type":"function","name":"emergencyWithdraw","inputs":[],"outputs":[{"name":"","type":"uint256","internalType":"uint256"}],"stateMutability":"nonpayable"},{"type":"function","name":"getAPY","inputs":[],"outputs":[{"name":"","type":"uint256","internalType":"uint256"}],"stateMutability":"view"},{"type":"function","name":"getRiskScore","inputs":[],"outputs":[{"name":"","type":"uint8","internalType":"uint8"}],"stateMutability":"view"},{"type":"function","name":"getTVL","inputs":[],"outputs":[{"name":"","type":"uint256","internalType":"uint256"}],"stateMutability":"view"},{"type":"function","name":"getTotalDeposits","inputs":[],"outputs":[{"name":"","type":"uint256","internalType":"uint256"}],"stateMutability":"view"},{"type":"function","name":"harvest","inputs":[],"outputs":[{"name":"","type":"uint256","internalType":"uint256"}],"stateMutability":"nonpayable"},{"type":"function","name":"isPaused","inputs":[],"outputs":[{"name":"","type":"bool","internalType":"bool"}],"stateMutability":"view"},{"type":"function","name":"name","inputs":[],"outputs":[{"name":"","type":"string","internalType":"string"}],"stateMutability":"view"},{"type":"function","name":"pause","inputs":[],"outputs":[],"stateMutability":"nonpayable"},{"type":"function","name":"testCoverBranches","inputs":[{"name":"_testCase","type":"uint8","internalType":"uint8"},{"name":"_amount","type":"uint256","internalType":"uint256"}],"outputs":[{"name":"","type":"uint256","internalType":"uint256"}],"stateMutability":"nonpayable"},{"type":"function","name":"unpause","inputs":[],"outputs":[],"stateMutability":"nonpayable"},{"type":"function","name":"want","inputs":[],"outputs":[{"name":"","type":"address","internalType":"address"}],"stateMutability":"view"},{"type":"function","name":"withdraw","inputs":[{"name":"_amount","type":"uint256","internalType":"uint256"}],"outputs":[{"name":"","type":"uint256","internalType":"uint256"}],"stateMutability":"nonpayable"},{"type":"function","name":"withdrawAll","inputs":[],"outputs":[{"name":"","type":"uint256","internalType":"uint256"}],"stateMutability":"nonpayable"},{"type":"event","name":"Deposit","inputs":[{"name":"caller","type":"address","indexed":true,"internalType":"address"},{"name":"amount","type":"uint256","indexed":false,"internalType":"uint256"},{"name":"shares","type":"uint256","indexed":false,"internalType":"uint256"}],"anonymous":false},{"type":"event","name":"EmergencyWithdraw","inputs":[{"name":"amount","type":"uint256","indexed":false,"internalType":"uint256"}],"anonymous":false},{"type":"event","name":"Harvest","inputs":[{"name":"harvested","type":"uint256","indexed":false,"internalType":"uint256"}],"anonymous":false},{"type":"event","name":"StrategyPaused","inputs":[],"anonymous":false},{"type":"event","name":"StrategyUnpaused","inputs":[],"anonymous":false},{"type":"event","name":"Withdraw","inputs":[{"name":"caller","type":"address","indexed":true,"internalType":"address"},{"name":"shares","type":"uint256","indexed":false,"internalType":"uint256"},{"name":"amount","type":"uint256","indexed":false,"internalType":"uint256"}],"anonymous":false}],"bytecode":{"object":"0x60a060405234801562000010575f80fd5b5060405162001f5c38038062001f5c8339810160408190526200003391620003b9565b858583836001600160a01b038416620000a25760405162461bcd60e51b815260206004820152602660248201527f4261736553747261746567793a2077616e7420616464726573732063616e6e6f60448201526507420626520360d41b60648201526084015b60405180910390fd5b6001600160a01b0383166200010f5760405162461bcd60e51b815260206004820152602c60248201527f4261736553747261746567793a20636f6e74726f6c6c6572206164647265737360448201526b02063616e6e6f7420626520360a41b606482015260840162000099565b5f8160ff16118015620001265750600a8160ff1611155b6200018e5760405162461bcd60e51b815260206004820152603160248201527f4261736553747261746567793a207269736b2073636f7265206d7573742062656044820152700206265747765656e203120616e6420313607c1b606482015260840162000099565b6001600160a01b0380851660805260018054918516620100000262010000600160b01b03199092169190911790555f620001c983826200056d565b506001805461ffff191660ff9092169190911790555050506001600160a01b038416620002515760405162461bcd60e51b815260206004820152602f60248201527f436f6d706f756e6453747261746567793a2063546f6b656e2063616e6e6f742060448201526e6265207a65726f206164647265737360881b606482015260840162000099565b6001600160a01b038316620002cf5760405162461bcd60e51b815260206004820152603460248201527f436f6d706f756e6453747261746567793a20636f6d7074726f6c6c657220636160448201527f6e6e6f74206265207a65726f2061646472657373000000000000000000000000606482015260840162000099565b600380546001600160a01b03199081166001600160a01b038781169182179093556004805490921686841617825560805160405163095ea7b360e01b8152928301919091525f1960248301529091169063095ea7b3906044016020604051808303815f875af115801562000345573d5f803e3d5ffd5b505050506040513d601f19601f820116820180604052508101906200036b919062000635565b505050505050506200065d565b80516001600160a01b03811681146200038f575f80fd5b919050565b634e487b7160e01b5f52604160045260245ffd5b805160ff811681146200038f575f80fd5b5f805f805f8060c08789031215620003cf575f80fd5b620003da8762000378565b95506020620003eb81890162000378565b9550620003fb6040890162000378565b94506200040b6060890162000378565b60808901519094506001600160401b038082111562000428575f80fd5b818a0191508a601f8301126200043c575f80fd5b81518181111562000451576200045162000394565b604051601f8201601f19908116603f011681019083821181831017156200047c576200047c62000394565b816040528281528d8684870101111562000494575f80fd5b5f93505b82841015620004b7578484018601518185018701529285019262000498565b5f868483010152809750505050505050620004d560a08801620003a8565b90509295509295509295565b600181811c90821680620004f657607f821691505b6020821081036200051557634e487b7160e01b5f52602260045260245ffd5b50919050565b601f82111562000568575f81815260208120601f850160051c81016020861015620005435750805b601f850160051c820191505b8181101562000564578281556001016200054f565b5050505b505050565b81516001600160401b0381111562000589576200058962000394565b620005a1816200059a8454620004e1565b846200051b565b602080601f831160018114620005d7575f8415620005bf5750858301515b5f19600386901b1c1916600185901b17855562000564565b5f85815260208120601f198616915b828110156200060757888601518255948401946001909101908401620005e6565b50858210156200062557878501515f19600388901b60f8161c191681555b5050505050600190811b01905550565b5f6020828403121562000646575f80fd5b8151801515811462000656575f80fd5b9392505050565b608051611884620006d85f395f8181610155015281816103cf015281816104e101528181610591015281816108ad0152818161097f01528181610b6b01528181610c7d01528181610d2d01528181610eeb01528181610f6d015281816110af015281816112ac0152818161140401526114b401526118845ff3fe608060405234801561000f575f80fd5b506004361061011c575f3560e01c8063722713f7116100a9578063b187bd261161006e578063b187bd2614610222578063b6b55f251461023d578063d2cbf7ad14610250578063db2e21bc14610258578063f77c479114610260575f80fd5b8063722713f7146101ef5780637d0499b7146101f75780638456cb591461020a578063853828b61461021257806397b3fcaa1461021a575f80fd5b80632e1a7d4d116100ef5780632e1a7d4d146101a45780633f4ba83a146101b75780634641257d146101c15780635fe3b567146101c957806369e527da146101dc575f80fd5b806306fdde0314610120578063168a48221461013e5780631f1fcd51146101505780632b35f7391461018f575b5f80fd5b610128610279565b604051610135919061164b565b60405180910390f35b6002545b604051908152602001610135565b6101777f000000000000000000000000000000000000000000000000000000000000000081565b6040516001600160a01b039091168152602001610135565b60015460405160ff9091168152602001610135565b6101426101b2366004611696565b610308565b6101bf61060e565b005b610142610673565b600454610177906001600160a01b031681565b600354610177906001600160a01b031681565b610142610786565b6101426102053660046116ad565b61092b565b6101bf610a46565b610142610aaf565b610142610dad565b600154610100900460ff166040519015158152602001610135565b61014261024b366004611696565b610db6565b610142611139565b6101426111f1565b600154610177906201000090046001600160a01b031681565b60605f8054610287906116dc565b80601f01602080910402602001604051908101604052809291908181526020018280546102b3906116dc565b80156102fe5780601f106102d5576101008083540402835291602001916102fe565b820191905f5260205f20905b8154815290600101906020018083116102e157829003601f168201915b5050505050905090565b6001545f906201000090046001600160a01b031633146103435760405162461bcd60e51b815260040161033a90611714565b60405180910390fd5b5f82116103b85760405162461bcd60e51b815260206004820152603860248201527f436f6d706f756e6453747261746567793a20776974686472617720616d6f756e60448201527f74206d7573742062652067726561746572207468616e20300000000000000000606482015260840161033a565b6040516370a0823160e01b81523060048201525f907f00000000000000000000000000000000000000000000000000000000000000006001600160a01b0316906370a0823190602401602060405180830381865afa15801561041c573d5f803e3d5ffd5b505050506040513d601f19601f82011682018060405250810190610440919061175e565b60035460405163852a12e360e01b8152600481018690529192506001600160a01b03169063852a12e3906024016020604051808303815f875af1158015610489573d5f803e3d5ffd5b505050506040513d601f19601f820116820180604052508101906104ad919061175e565b156104ca5760405162461bcd60e51b815260040161033a90611775565b6040516370a0823160e01b81523060048201525f907f00000000000000000000000000000000000000000000000000000000000000006001600160a01b0316906370a0823190602401602060405180830381865afa15801561052e573d5f803e3d5ffd5b505050506040513d601f19601f82011682018060405250810190610552919061175e565b90505f61055f83836117cc565b60015460405163a9059cbb60e01b81526001600160a01b036201000090920482166004820152602481018390529192507f0000000000000000000000000000000000000000000000000000000000000000169063a9059cbb906044016020604051808303815f875af11580156105d7573d5f803e3d5ffd5b505050506040513d601f19601f820116820180604052508101906105fb91906117df565b50610606858261155d565b949350505050565b6001546201000090046001600160a01b0316331461063e5760405162461bcd60e51b815260040161033a90611714565b6001805461ff00191690556040517f1ff6abc1b134021c8527845dcdb865dc289bfdd957830d74683159bb968f4cd1905f90a1565b6001545f906201000090046001600160a01b031633146106a55760405162461bcd60e51b815260040161033a90611714565b600154610100900460ff16156106fd5760405162461bcd60e51b815260206004820181905260248201527f4261736553747261746567793a20737472617465677920697320706175736564604482015260640161033a565b60035460408051632b257d1d60e11b815290515f926001600160a01b03169163564afa3a9160048083019260209291908290030181865afa158015610744573d5f803e3d5ffd5b505050506040513d601f19601f82011682018060405250810190610768919061175e565b9050801561077e57610779816115c7565b905090565b5f9150505b90565b6003546040516370a0823160e01b81523060048201525f9182916001600160a01b03909116906370a0823190602401602060405180830381865afa1580156107d0573d5f803e3d5ffd5b505050506040513d601f19601f820116820180604052508101906107f4919061175e565b90505f60035f9054906101000a90046001600160a01b03166001600160a01b031663182df0f56040518163ffffffff1660e01b8152600401602060405180830381865afa158015610847573d5f803e3d5ffd5b505050506040513d601f19601f8201168201806040525081019061086b919061175e565b90505f670de0b6b3a76400006108818385611805565b61088b919061181c565b6040516370a0823160e01b81523060048201529091505f906001600160a01b037f000000000000000000000000000000000000000000000000000000000000000016906370a0823190602401602060405180830381865afa1580156108f2573d5f803e3d5ffd5b505050506040513d601f19601f82011682018060405250810190610916919061175e565b9050610922818361183b565b94505050505090565b6001545f906201000090046001600160a01b0316331461095d5760405162461bcd60e51b815260040161033a90611714565b8260ff16600103610a13576040516370a0823160e01b81523060048201525f907f00000000000000000000000000000000000000000000000000000000000000006001600160a01b0316906370a0823190602401602060405180830381865afa1580156109cc573d5f803e3d5ffd5b505050506040513d601f19601f820116820180604052508101906109f0919061175e565b90505f6109fe60028561181c565b9050610a0a84826115fd565b9150610a409050565b8260ff16600203610a3d575f610a2a60028461181c565b9050610a36838261155d565b9050610a40565b505f5b92915050565b6001546201000090046001600160a01b03163314610a765760405162461bcd60e51b815260040161033a90611714565b6001805461ff0019166101001790556040517fe628b9497ee1f4e6fedddc2cb01459087e67c6fc93ea6946abcbdea7eb7684bf905f90a1565b6001545f906201000090046001600160a01b03163314610ae15760405162461bcd60e51b815260040161033a90611714565b600354604051633af9e66960e01b81523060048201525f916001600160a01b031690633af9e669906024016020604051808303815f875af1158015610b28573d5f803e3d5ffd5b505050506040513d601f19601f82011682018060405250810190610b4c919061175e565b9050801561077e576040516370a0823160e01b81523060048201525f907f00000000000000000000000000000000000000000000000000000000000000006001600160a01b0316906370a0823190602401602060405180830381865afa158015610bb8573d5f803e3d5ffd5b505050506040513d601f19601f82011682018060405250810190610bdc919061175e565b60035460405163852a12e360e01b8152600481018590529192506001600160a01b03169063852a12e3906024016020604051808303815f875af1158015610c25573d5f803e3d5ffd5b505050506040513d601f19601f82011682018060405250810190610c49919061175e565b15610c665760405162461bcd60e51b815260040161033a90611775565b6040516370a0823160e01b81523060048201525f907f00000000000000000000000000000000000000000000000000000000000000006001600160a01b0316906370a0823190602401602060405180830381865afa158015610cca573d5f803e3d5ffd5b505050506040513d601f19601f82011682018060405250810190610cee919061175e565b90505f610cfb83836117cc565b60015460405163a9059cbb60e01b81526001600160a01b036201000090920482166004820152602481018390529192507f0000000000000000000000000000000000000000000000000000000000000000169063a9059cbb906044016020604051808303815f875af1158015610d73573d5f803e3d5ffd5b505050506040513d601f19601f82011682018060405250810190610d9791906117df565b50610da2848261155d565b935061078392505050565b5f610779610786565b6001545f906201000090046001600160a01b03163314610de85760405162461bcd60e51b815260040161033a90611714565b600154610100900460ff1615610e405760405162461bcd60e51b815260206004820181905260248201527f4261736553747261746567793a20737472617465677920697320706175736564604482015260640161033a565b5f8211610eb55760405162461bcd60e51b815260206004820152603760248201527f436f6d706f756e6453747261746567793a206465706f73697420616d6f756e7460448201527f206d7573742062652067726561746572207468616e2030000000000000000000606482015260840161033a565b6001546040516323b872dd60e01b8152620100009091046001600160a01b039081166004830152306024830152604482018490527f000000000000000000000000000000000000000000000000000000000000000016906323b872dd906064016020604051808303815f875af1158015610f31573d5f803e3d5ffd5b505050506040513d601f19601f82011682018060405250810190610f5591906117df565b506040516370a0823160e01b81523060048201525f907f00000000000000000000000000000000000000000000000000000000000000006001600160a01b0316906370a0823190602401602060405180830381865afa158015610fba573d5f803e3d5ffd5b505050506040513d601f19601f82011682018060405250810190610fde919061175e565b60035460405163140e25ad60e31b8152600481018690529192506001600160a01b03169063a0712d68906024016020604051808303815f875af1158015611027573d5f803e3d5ffd5b505050506040513d601f19601f8201168201806040525081019061104b919061175e565b156110985760405162461bcd60e51b815260206004820181905260248201527f436f6d706f756e6453747261746567793a206465706f736974206661696c6564604482015260640161033a565b6040516370a0823160e01b81523060048201525f907f00000000000000000000000000000000000000000000000000000000000000006001600160a01b0316906370a0823190602401602060405180830381865afa1580156110fc573d5f803e3d5ffd5b505050506040513d601f19601f82011682018060405250810190611120919061175e565b90505f61112d82846117cc565b905061060685826115fd565b5f8060035f9054906101000a90046001600160a01b03166001600160a01b031663ae9d70b06040518163ffffffff1660e01b8152600401602060405180830381865afa15801561118b573d5f803e3d5ffd5b505050506040513d601f19601f820116820180604052508101906111af919061175e565b905080156111e857670de0b6b3a76400006111cd6220148083611805565b6111d8906064611805565b6111e2919061181c565b91505090565b6101f491505090565b6001545f906201000090046001600160a01b031633146112235760405162461bcd60e51b815260040161033a90611714565b6003546040516370a0823160e01b81523060048201525f916001600160a01b0316906370a0823190602401602060405180830381865afa158015611269573d5f803e3d5ffd5b505050506040513d601f19601f8201168201806040525081019061128d919061175e565b9050801561077e576040516370a0823160e01b81523060048201525f907f00000000000000000000000000000000000000000000000000000000000000006001600160a01b0316906370a0823190602401602060405180830381865afa1580156112f9573d5f803e3d5ffd5b505050506040513d601f19601f8201168201806040525081019061131d919061175e565b60035460405163db006a7560e01b8152600481018590529192506001600160a01b03169063db006a75906024016020604051808303815f875af1158015611366573d5f803e3d5ffd5b505050506040513d601f19601f8201168201806040525081019061138a919061175e565b156113ed5760405162461bcd60e51b815260206004820152602d60248201527f436f6d706f756e6453747261746567793a20656d657267656e6379207769746860448201526c191c985dd85b0819985a5b1959609a1b606482015260840161033a565b6040516370a0823160e01b81523060048201525f907f00000000000000000000000000000000000000000000000000000000000000006001600160a01b0316906370a0823190602401602060405180830381865afa158015611451573d5f803e3d5ffd5b505050506040513d601f19601f82011682018060405250810190611475919061175e565b90505f61148283836117cc565b60015460405163a9059cbb60e01b81526001600160a01b036201000090920482166004820152602481018390529192507f0000000000000000000000000000000000000000000000000000000000000000169063a9059cbb906044016020604051808303815f875af11580156114fa573d5f803e3d5ffd5b505050506040513d601f19601f8201168201806040525081019061151e91906117df565b506040518181527f99d7f8b71cfb9126984f7a5eed3a40e64a8959e9b0e442221546fb04ec6a489c9060200160405180910390a1935061078392505050565b600254811115611570575f600255611587565b8060025f82825461158191906117cc565b90915550505b604080518381526020810183905233917ff279e6a1f5e320cca91135676d9cb6e44ca8a08c0b88342bcdb1144f6511b56891015b60405180910390a25050565b6040518181527f80f97f878e16410266694f134ddf012f2be424f54f8b5cafa107eccc51d00d589060200160405180910390a150565b8160025f82825461160e919061183b565b9091555050604080518381526020810183905233917f90890809c654f11d6e72a28fa60149770a0d11ec6c92319d6ceb2bb0a4ea1a1591016115bb565b5f6020808352835180828501525f5b818110156116765785810183015185820160400152820161165a565b505f604082860101526040601f19601f8301168501019250505092915050565b5f602082840312156116a6575f80fd5b5035919050565b5f80604083850312156116be575f80fd5b823560ff811681146116ce575f80fd5b946020939093013593505050565b600181811c908216806116f057607f821691505b60208210810361170e57634e487b7160e01b5f52602260045260245ffd5b50919050565b6020808252602a908201527f4261736553747261746567793a2063616c6c6572206973206e6f74207468652060408201526931b7b73a3937b63632b960b11b606082015260800190565b5f6020828403121561176e575f80fd5b5051919050565b60208082526023908201527f436f6d706f756e6453747261746567793a207769746864726177616c206661696040820152621b195960ea1b606082015260800190565b634e487b7160e01b5f52601160045260245ffd5b81810381811115610a4057610a406117b8565b5f602082840312156117ef575f80fd5b815180151581146117fe575f80fd5b9392505050565b8082028115828204841417610a4057610a406117b8565b5f8261183657634e487b7160e01b5f52601260045260245ffd5b500490565b80820180821115610a4057610a406117b856fea26469706673582212200af862be1b1ae5e41e466504aa15321cc4349b79bf06a1b0f3193560e41632b164736f6c63430008140033","linkReferences":{}},"methodIdentifiers":{"balanceOf()":"722713f7","cToken()":"69e527da","comptroller()":"5fe3b567","controller()":"f77c4791","deposit(uint256)":"b6b55f25","emergencyWithdraw()":"db2e21bc","getAPY()":"d2cbf7ad","getRiskScore()":"2b35f739","getTVL()":"97b3fcaa","getTotalDeposits()":"168a4822","harvest()":"4641257d","isPaused()":"b187bd26","name()":"06fdde03","pause()":"8456cb59","testCoverBranches(uint8,uint256)":"7d0499b7","unpause()":"3f4ba83a","want()":"1f1fcd51","withdraw(uint256)":"2e1a7d4d","withdrawAll()":"853828b6"},"id":24}