{"abi":[{"type":"constructor","inputs":[],"stateMutability":"nonpayable"},{"type":"function","name":"acceptGovernance","inputs":[],"outputs":[],"stateMutability":"nonpayable"},{"type":"function","name":"authorizedAddresses","inputs":[{"name":"","type":"address","internalType":"address"}],"outputs":[{"name":"","type":"bool","internalType":"bool"}],"stateMutability":"view"},{"type":"function","name":"baseFeeProvider","inputs":[],"outputs":[{"name":"","type":"address","internalType":"address"}],"stateMutability":"view"},{"type":"function","name":"governance","inputs":[],"outputs":[{"name":"","type":"address","internalType":"address"}],"stateMutability":"view"},{"type":"function","name":"isCurrentBaseFeeAcceptable","inputs":[],"outputs":[{"name":"","type":"bool","internalType":"bool"}],"stateMutability":"view"},{"type":"function","name":"manualBaseFeeBool","inputs":[],"outputs":[{"name":"","type":"bool","internalType":"bool"}],"stateMutability":"view"},{"type":"function","name":"maxAcceptableBaseFee","inputs":[],"outputs":[{"name":"","type":"uint256","internalType":"uint256"}],"stateMutability":"view"},{"type":"function","name":"pendingGovernance","inputs":[],"outputs":[{"name":"","type":"address","internalType":"address"}],"stateMutability":"view"},{"type":"function","name":"setAuthorized","inputs":[{"name":"_target","type":"address","internalType":"address"},{"name":"_value","type":"bool","internalType":"bool"}],"outputs":[],"stateMutability":"nonpayable"},{"type":"function","name":"setBaseFeeProvider","inputs":[{"name":"_baseFeeProvider","type":"address","internalType":"address"}],"outputs":[],"stateMutability":"nonpayable"},{"type":"function","name":"setManualBaseFeeBool","inputs":[{"name":"_manualBaseFeeBool","type":"bool","internalType":"bool"}],"outputs":[],"stateMutability":"nonpayable"},{"type":"function","name":"setMaxAcceptableBaseFee","inputs":[{"name":"_maxAcceptableBaseFee","type":"uint256","internalType":"uint256"}],"outputs":[],"stateMutability":"nonpayable"},{"type":"function","name":"setPendingGovernance","inputs":[{"name":"_governance","type":"address","internalType":"address"}],"outputs":[],"stateMutability":"nonpayable"},{"type":"event","name":"NewGovernance","inputs":[{"name":"governance","type":"address","indexed":true,"internalType":"address"}],"anonymous":false},{"type":"event","name":"NewProvider","inputs":[{"name":"provider","type":"address","indexed":true,"internalType":"address"}],"anonymous":false},{"type":"event","name":"UpdatedAuthorization","inputs":[{"name":"target","type":"address","indexed":true,"internalType":"address"},{"name":"authorized","type":"bool","indexed":false,"internalType":"bool"}],"anonymous":false},{"type":"event","name":"UpdatedManualBaseFee","inputs":[{"name":"manualFee","type":"bool","indexed":false,"internalType":"bool"}],"anonymous":false},{"type":"event","name":"UpdatedMaxBaseFee","inputs":[{"name":"baseFee","type":"uint256","indexed":false,"internalType":"uint256"}],"anonymous":false}],"bytecode":{"object":"0x6080806040523461003557600280546001600160a01b031916331790556005805460ff191660011790556105d6908161003a8239f35b5f80fdfe6040608081526004361015610012575f80fd5b5f90813560e01c80630abb6035146103cf578063238efcbc14610368578063244edd79146102ff57806334a9e75c146102da5780633909e1ae1461027257806347003cb71461024b5780634f62fb86146102285780635aa6e67514610200578063711bf9b21461017f578063bf95ab4914610161578063e10efcdd14610113578063f19e207e146100d65763f39c38a0146100ab575f80fd5b346100d257816003193601126100d25760035490516001600160a01b039091168152602090f35b5080fd5b50346100d25760203660031901126100d25760209160ff9082906001600160a01b03610100610414565b1681526004855220541690519015158152f35b50346100d25760203660031901126100d25760207f7dcfcc373856c123e2e781d90a483279c6f026653a768c30832d6dc9f749a4af916004359061015561051e565b8160015551908152a180f35b50346100d257816003193601126100d2576020906001549051908152f35b50346100d257806003193601126100d257610198610414565b602435908115158092036101fc577f8d6437292b994fc738dc2a2d36adca80c5c3516dde0ca63fedcbb70101b21a31916020916101d3610559565b6001600160a01b031680865260048352848620805460ff191660ff84161790559351908152a280f35b8380fd5b50346100d257816003193601126100d25760025490516001600160a01b039091168152602090f35b50346100d257816003193601126100d25760209060ff6005541690519015158152f35b50346100d257816003193601126100d257905490516001600160a01b039091168152602090f35b50346100d25760203660031901126100d257600435908115158092036102d6577f182fa601a3bf72179118750b74939977b97571ddef8172b735bca99e693feca6916020916102bf61051e565b60ff196005541660ff83161760055551908152a180f35b8280fd5b50346100d257816003193601126100d2576020906102f661042e565b90519015158152f35b823461036557602036600319011261036557610319610414565b610321610559565b81546001600160a01b0319166001600160a01b039190911690811782557f3ac461748dd21b3c9c3faa9c85712c1a04cd3eebcfee2a026acaaa82b1094ec08280a280f35b80fd5b823461036557806003193601126103655761038e60018060a01b036003541633146104e4565b336bffffffffffffffffffffffff60a01b6002541617600255337f4f386975ea1c2f7cf1845b08bee00626fbb624ecad16254d63d9bb9ba86526de8280a280f35b8234610365576020366003190112610365576103e9610414565b6103f1610559565b60018060a01b03166bffffffffffffffffffffffff60a01b600354161760035580f35b600435906001600160a01b038216820361042a57565b5f80fd5b5f80546001600160a01b03168061044a57505060ff6005541690565b60206004916040519283809263250db73960e21b82525afa9182156104d857809261047a575b5050600154101590565b90915060203d81116104d1575b601f8101601f1916830167ffffffffffffffff8111848210176104bd576020918491604052810103126103655750515f80610470565b634e487b7160e01b83526041600452602483fd5b503d610487565b604051903d90823e3d90fd5b156104eb57565b60405162461bcd60e51b815260206004820152600b60248201526a08585d5d1a1bdc9a5e995960aa1b6044820152606490fd5b335f526004602052600160ff60405f2054161515148015610545575b610543906104e4565b565b506002546001600160a01b0316331461053a565b6002546001600160a01b0316330361056d57565b60405162461bcd60e51b815260206004820152600b60248201526a21676f7665726e616e636560a81b6044820152606490fdfea2646970667358221220aaf0752b90e2b38bc308d746f3cf0e5ef6f02ecee7259cfffef6abb9583c9caf64736f6c63430008140033","linkReferences":{}},"methodIdentifiers":{"acceptGovernance()":"238efcbc","authorizedAddresses(address)":"f19e207e","baseFeeProvider()":"47003cb7","governance()":"5aa6e675","isCurrentBaseFeeAcceptable()":"34a9e75c","manualBaseFeeBool()":"4f62fb86","maxAcceptableBaseFee()":"bf95ab49","pendingGovernance()":"f39c38a0","setAuthorized(address,bool)":"711bf9b2","setBaseFeeProvider(address)":"244edd79","setManualBaseFeeBool(bool)":"3909e1ae","setMaxAcceptableBaseFee(uint256)":"e10efcdd","setPendingGovernance(address)":"0abb6035"},"id":1}