{"abi":[{"type":"constructor","inputs":[],"stateMutability":"nonpayable"},{"type":"function","name":"acceptGovernance","inputs":[],"outputs":[],"stateMutability":"nonpayable"},{"type":"function","name":"authorizedAddresses","inputs":[{"name":"","type":"address","internalType":"address"}],"outputs":[{"name":"","type":"bool","internalType":"bool"}],"stateMutability":"view"},{"type":"function","name":"baseFeeProvider","inputs":[],"outputs":[{"name":"","type":"address","internalType":"address"}],"stateMutability":"view"},{"type":"function","name":"governance","inputs":[],"outputs":[{"name":"","type":"address","internalType":"address"}],"stateMutability":"view"},{"type":"function","name":"isCurrentBaseFeeAcceptable","inputs":[],"outputs":[{"name":"","type":"bool","internalType":"bool"}],"stateMutability":"view"},{"type":"function","name":"manualBaseFeeBool","inputs":[],"outputs":[{"name":"","type":"bool","internalType":"bool"}],"stateMutability":"view"},{"type":"function","name":"maxAcceptableBaseFee","inputs":[],"outputs":[{"name":"","type":"uint256","internalType":"uint256"}],"stateMutability":"view"},{"type":"function","name":"pendingGovernance","inputs":[],"outputs":[{"name":"","type":"address","internalType":"address"}],"stateMutability":"view"},{"type":"function","name":"setAuthorized","inputs":[{"name":"_target","type":"address","internalType":"address"},{"name":"_value","type":"bool","internalType":"bool"}],"outputs":[],"stateMutability":"nonpayable"},{"type":"function","name":"setBaseFeeProvider","inputs":[{"name":"_baseFeeProvider","type":"address","internalType":"address"}],"outputs":[],"stateMutability":"nonpayable"},{"type":"function","name":"setManualBaseFeeBool","inputs":[{"name":"_manualBaseFeeBool","type":"bool","internalType":"bool"}],"outputs":[],"stateMutability":"nonpayable"},{"type":"function","name":"setMaxAcceptableBaseFee","inputs":[{"name":"_maxAcceptableBaseFee","type":"uint256","internalType":"uint256"}],"outputs":[],"stateMutability":"nonpayable"},{"type":"function","name":"setPendingGovernance","inputs":[{"name":"_governance","type":"address","internalType":"address"}],"outputs":[],"stateMutability":"nonpayable"},{"type":"event","name":"NewGovernance","inputs":[{"name":"governance","type":"address","indexed":true,"internalType":"address"}],"anonymous":false},{"type":"event","name":"NewProvider","inputs":[{"name":"provider","type":"address","indexed":true,"internalType":"address"}],"anonymous":false},{"type":"event","name":"UpdatedAuthorization","inputs":[{"name":"target","type":"address","indexed":true,"internalType":"address"},{"name":"authorized","type":"bool","indexed":false,"internalType":"bool"}],"anonymous":false},{"type":"event","name":"UpdatedManualBaseFee","inputs":[{"name":"manualFee","type":"bool","indexed":false,"internalType":"bool"}],"anonymous":false},{"type":"event","name":"UpdatedMaxBaseFee","inputs":[{"name":"baseFee","type":"uint256","indexed":false,"internalType":"uint256"}],"anonymous":false}],"bytecode":{"object":"0x608060405234801561000f575f80fd5b50600280546001600160a01b031916331790556005805460ff191660011790556106248061003c5f395ff3fe608060405234801561000f575f80fd5b50600436106100cb575f3560e01c80634f62fb8611610088578063bf95ab4911610063578063bf95ab491461018c578063e10efcdd146101a3578063f19e207e146101b6578063f39c38a0146101d8575f80fd5b80634f62fb86146101595780635aa6e67514610166578063711bf9b214610179575f80fd5b80630abb6035146100cf578063238efcbc146100e4578063244edd79146100ec57806334a9e75c146100ff5780633909e1ae1461011c57806347003cb71461012f575b5f80fd5b6100e26100dd366004610547565b6101eb565b005b6100e2610215565b6100e26100fa366004610547565b6102a1565b6101076102f0565b60405190151581526020015b60405180910390f35b6100e261012a366004610576565b610389565b5f54610141906001600160a01b031681565b6040516001600160a01b039091168152602001610113565b6005546101079060ff1681565b600254610141906001600160a01b031681565b6100e261018736600461058f565b6103d9565b61019560015481565b604051908152602001610113565b6100e26101b13660046105c0565b61043f565b6101076101c4366004610547565b60046020525f908152604090205460ff1681565b600354610141906001600160a01b031681565b6101f361047c565b600380546001600160a01b0319166001600160a01b0392909216919091179055565b6003546001600160a01b031633146102625760405162461bcd60e51b815260206004820152600b60248201526a08585d5d1a1bdc9a5e995960aa1b60448201526064015b60405180910390fd5b600280546001600160a01b031916339081179091556040517f4f386975ea1c2f7cf1845b08bee00626fbb624ecad16254d63d9bb9ba86526de905f90a2565b6102a961047c565b5f80546001600160a01b0319166001600160a01b038316908117825560405190917f3ac461748dd21b3c9c3faa9c85712c1a04cd3eebcfee2a026acaaa82b1094ec091a250565b5f80546001600160a01b031661030a575060055460ff1690565b5f805f9054906101000a90046001600160a01b03166001600160a01b0316639436dce46040518163ffffffff1660e01b8152600401602060405180830381865afa15801561035a573d5f803e3d5ffd5b505050506040513d601f19601f8201168201806040525081019061037e91906105d7565b600154101592915050565b6103916104c6565b6005805460ff19168215159081179091556040519081527f182fa601a3bf72179118750b74939977b97571ddef8172b735bca99e693feca6906020015b60405180910390a150565b6103e161047c565b6001600160a01b0382165f81815260046020908152604091829020805460ff191685151590811790915591519182527f8d6437292b994fc738dc2a2d36adca80c5c3516dde0ca63fedcbb70101b21a31910160405180910390a25050565b6104476104c6565b60018190556040518181527f7dcfcc373856c123e2e781d90a483279c6f026653a768c30832d6dc9f749a4af906020016103ce565b6002546001600160a01b031633146104c45760405162461bcd60e51b815260206004820152600b60248201526a21676f7665726e616e636560a81b6044820152606401610259565b565b335f9081526004602052604090205460ff161515600114806104f257506002546001600160a01b031633145b6104c45760405162461bcd60e51b815260206004820152600b60248201526a08585d5d1a1bdc9a5e995960aa1b6044820152606401610259565b80356001600160a01b0381168114610542575f80fd5b919050565b5f60208284031215610557575f80fd5b6105608261052c565b9392505050565b80358015158114610542575f80fd5b5f60208284031215610586575f80fd5b61056082610567565b5f80604083850312156105a0575f80fd5b6105a98361052c565b91506105b760208401610567565b90509250929050565b5f602082840312156105d0575f80fd5b5035919050565b5f602082840312156105e7575f80fd5b505191905056fea2646970667358221220d1dd9f7056ca111969d089b4f3ce905d6605ea73589051d840035bcf888ca7c164736f6c63430008140033","linkReferences":{}},"methodIdentifiers":{"acceptGovernance()":"238efcbc","authorizedAddresses(address)":"f19e207e","baseFeeProvider()":"47003cb7","governance()":"5aa6e675","isCurrentBaseFeeAcceptable()":"34a9e75c","manualBaseFeeBool()":"4f62fb86","maxAcceptableBaseFee()":"bf95ab49","pendingGovernance()":"f39c38a0","setAuthorized(address,bool)":"711bf9b2","setBaseFeeProvider(address)":"244edd79","setManualBaseFeeBool(bool)":"3909e1ae","setMaxAcceptableBaseFee(uint256)":"e10efcdd","setPendingGovernance(address)":"0abb6035"},"id":1}