{"abi":[{"type":"constructor","inputs":[],"stateMutability":"nonpayable"},{"type":"function","name":"acceptGovernance","inputs":[],"outputs":[],"stateMutability":"nonpayable"},{"type":"function","name":"banksy","inputs":[{"name":"","type":"address","internalType":"address"}],"outputs":[{"name":"","type":"bool","internalType":"bool"}],"stateMutability":"view"},{"type":"function","name":"endorseVault","inputs":[{"name":"vault","type":"address","internalType":"address"},{"name":"releaseDelta","type":"uint256","internalType":"uint256"}],"outputs":[],"stateMutability":"nonpayable"},{"type":"function","name":"governance","inputs":[],"outputs":[{"name":"","type":"address","internalType":"address"}],"stateMutability":"view"},{"type":"function","name":"isRegistered","inputs":[{"name":"","type":"address","internalType":"address"}],"outputs":[{"name":"","type":"bool","internalType":"bool"}],"stateMutability":"view"},{"type":"function","name":"latestRelease","inputs":[],"outputs":[{"name":"","type":"string","internalType":"string"}],"stateMutability":"view"},{"type":"function","name":"latestVault","inputs":[{"name":"token","type":"address","internalType":"address"}],"outputs":[{"name":"","type":"address","internalType":"address"}],"stateMutability":"view"},{"type":"function","name":"newExperimentalVault","inputs":[{"name":"token","type":"address","internalType":"address"},{"name":"_governance","type":"address","internalType":"address"},{"name":"guardian","type":"address","internalType":"address"},{"name":"rewards","type":"address","internalType":"address"},{"name":"name","type":"string","internalType":"string"},{"name":"symbol","type":"string","internalType":"string"},{"name":"releaseDelta","type":"uint256","internalType":"uint256"}],"outputs":[{"name":"","type":"address","internalType":"address"}],"stateMutability":"nonpayable"},{"type":"function","name":"newRelease","inputs":[{"name":"vault","type":"address","internalType":"address"}],"outputs":[],"stateMutability":"nonpayable"},{"type":"function","name":"newVault","inputs":[{"name":"token","type":"address","internalType":"address"},{"name":"guardian","type":"address","internalType":"address"},{"name":"rewards","type":"address","internalType":"address"},{"name":"name","type":"string","internalType":"string"},{"name":"symbol","type":"string","internalType":"string"},{"name":"releaseDelta","type":"uint256","internalType":"uint256"}],"outputs":[{"name":"","type":"address","internalType":"address"}],"stateMutability":"nonpayable"},{"type":"function","name":"numReleases","inputs":[],"outputs":[{"name":"","type":"uint256","internalType":"uint256"}],"stateMutability":"view"},{"type":"function","name":"numTokens","inputs":[],"outputs":[{"name":"","type":"uint256","internalType":"uint256"}],"stateMutability":"view"},{"type":"function","name":"numVaults","inputs":[{"name":"","type":"address","internalType":"address"}],"outputs":[{"name":"","type":"uint256","internalType":"uint256"}],"stateMutability":"view"},{"type":"function","name":"pendingGovernance","inputs":[],"outputs":[{"name":"","type":"address","internalType":"address"}],"stateMutability":"view"},{"type":"function","name":"releases","inputs":[{"name":"","type":"uint256","internalType":"uint256"}],"outputs":[{"name":"","type":"address","internalType":"address"}],"stateMutability":"view"},{"type":"function","name":"setBanksy","inputs":[{"name":"tagger","type":"address","internalType":"address"},{"name":"allowed","type":"bool","internalType":"bool"}],"outputs":[],"stateMutability":"nonpayable"},{"type":"function","name":"setGovernance","inputs":[{"name":"_gov","type":"address","internalType":"address"}],"outputs":[],"stateMutability":"nonpayable"},{"type":"function","name":"tagVault","inputs":[{"name":"vault","type":"address","internalType":"address"},{"name":"tag","type":"string","internalType":"string"}],"outputs":[],"stateMutability":"nonpayable"},{"type":"function","name":"tags","inputs":[{"name":"","type":"address","internalType":"address"}],"outputs":[{"name":"","type":"string","internalType":"string"}],"stateMutability":"view"},{"type":"function","name":"tokens","inputs":[{"name":"","type":"uint256","internalType":"uint256"}],"outputs":[{"name":"","type":"address","internalType":"address"}],"stateMutability":"view"},{"type":"function","name":"vaults","inputs":[{"name":"","type":"address","internalType":"address"},{"name":"","type":"uint256","internalType":"uint256"}],"outputs":[{"name":"","type":"address","internalType":"address"}],"stateMutability":"view"},{"type":"event","name":"NewExperimentalVault","inputs":[{"name":"token","type":"address","indexed":true,"internalType":"address"},{"name":"deployer","type":"address","indexed":true,"internalType":"address"},{"name":"vault","type":"address","indexed":false,"internalType":"address"},{"name":"api_version","type":"string","indexed":false,"internalType":"string"}],"anonymous":false},{"type":"event","name":"NewGovernance","inputs":[{"name":"governance","type":"address","indexed":false,"internalType":"address"}],"anonymous":false},{"type":"event","name":"NewRelease","inputs":[{"name":"release_id","type":"uint256","indexed":true,"internalType":"uint256"},{"name":"template","type":"address","indexed":false,"internalType":"address"},{"name":"api_version","type":"string","indexed":false,"internalType":"string"}],"anonymous":false},{"type":"event","name":"NewVault","inputs":[{"name":"token","type":"address","indexed":true,"internalType":"address"},{"name":"vault_id","type":"uint256","indexed":true,"internalType":"uint256"},{"name":"vault","type":"address","indexed":false,"internalType":"address"},{"name":"api_version","type":"string","indexed":false,"internalType":"string"}],"anonymous":false},{"type":"event","name":"VaultTagged","inputs":[{"name":"vault","type":"address","indexed":false,"internalType":"address"},{"name":"tag","type":"string","indexed":false,"internalType":"string"}],"anonymous":false}],"bytecode":{"object":"0x6080806040523461002857600780546001600160a01b03191633179055611685908161002d8239f35b5f80fdfe60806040526004361015610011575f80fd5b5f3560e01c8063238efcbc1461016457806333990d4b1461015f5780634f64b2be1461015a57806356e0a94b1461015557806358b8f842146101505780635aa6e6751461014b5780635bd4b0f2146101465780635e05f6af1461014157806360bd68f81461013c5780637bbfc69e146101375780637be0ca5e146101325780638e499bcf1461012d578063ab033ea914610128578063b0b40fce14610123578063b366a35c1461011e578063b6a9f40f14610119578063c3c5a54714610114578063e177dc701461010f578063ee711ed51461010a578063f39c38a0146101055763f9c7bba514610100575f80fd5b610d6a565b610d42565b610d02565b610c46565b610c06565b610bd4565b610a2e565b6109a7565b610958565b61093b565b610886565b61083e565b61074b565b6106e9565b61063e565b6105e8565b61050a565b61040d565b6103db565b6101ed565b610177565b5f91031261017357565b5f80fd5b34610173575f3660031901126101735761019c60018060a01b03600854163314610da5565b336001600160601b0360a01b60075416176007557f4f386975ea1c2f7cf1845b08bee00626fbb624ecad16254d63d9bb9ba86526de6020604051338152a1005b6001600160a01b0381160361017357565b346101735760203660031901126101735760043561020a816101dc565b6007546102329061022b906001600160a01b03165b6001600160a01b031690565b3314610da5565b5f908154908161030b575b61027281610253845f52600160205260405f2090565b80546001600160a01b0319166001600160a01b03909216919091179055565b61027b82610ed9565b8355604051630258294160e41b81529083826004816001600160a01b0385165afa908115610306577fa6fbd216b6734f34092f1be6b7247e1551a6d4f2d5000c53721cfdc119a5b7cf9285926102e2575b506102dc60405192839283610ee7565b0390a280f35b6102ff9192503d8087833e6102f7818361048e565b810190610e30565b905f6102cc565b610e8f565b61033b61021f61021f61032e61032086610df4565b5f52600160205260405f2090565b546001600160a01b031690565b6040518481600481630258294160e41b958682525afa9081156103065785916103c1575b5060405191825284826004816001600160a01b0387165afa908115610306576103a09286926103a5575b506020815191012090602081519101201415610e9a565b61023d565b6103ba9192503d8088833e6102f7818361048e565b905f610389565b6103d591503d8087833e6102f7818361048e565b5f61035f565b34610173576020366003190112610173576004355f526004602052602060018060a01b0360405f205416604051908152f35b34610173575f3660031901126101735760205f54604051908152f35b90600182811c92168015610457575b602083101461044357565b634e487b7160e01b5f52602260045260245ffd5b91607f1691610438565b634e487b7160e01b5f52604160045260245ffd5b67ffffffffffffffff811161048957604052565b610461565b90601f8019910116810190811067ffffffffffffffff82111761048957604052565b5f5b8381106104c15750505f910152565b81810151838201526020016104b2565b906020916104ea815180928185528580860191016104b0565b601f01601f1916010190565b9060206105079281815201906104d1565b90565b34610173576020806003193601126101735760043590610529826101dc565b5f9160018060a01b03168252600981526040822090604051918381549061054f82610429565b808652926001928084169081156105c45750600114610589575b61058586610579818a038261048e565b604051918291826104f6565b0390f35b9080949650528483205b8284106105b157505050816105859361057992820101935f80610569565b8054858501870152928501928101610593565b60ff19168787015250505050151560051b8201019150610579816105855f80610569565b34610173575f366003190112610173576007546040516001600160a01b039091168152602090f35b9181601f840112156101735782359167ffffffffffffffff8311610173576020838186019501011161017357565b346101735760e03660031901126101735760043561065b816101dc565b602435610667816101dc565b60443591610674836101dc565b60643592610681846101dc565b67ffffffffffffffff92608435848111610173576106a3903690600401610610565b9060a43595861161017357610585966106c36106cf973690600401610610565b95909460c43597611381565b6040516001600160a01b0390911681529081906020820190565b3461017357604036600319011261017357600435610706816101dc565b60243590811515809203610173576007546001600160a01b03919061072e9083163314610da5565b165f52600a60205260405f209060ff801983541691161790555f80f35b3461017357604036600319011261017357600435610768816101dc565b60243567ffffffffffffffff811161017357610788903690600401610610565b6007549092906001600160a01b031633036107f8575b6107f3836107e77f07bd58794c2ca0ae152f7719eb5f02c654476de972cadec0e8191ae8be42096d95856107e28660018060a01b03165f52600960205260405f2090565b611558565b6040519384938461161a565b0390a1005b335f52600a60205260ff60405f20541661079e5760405162461bcd60e51b815260206004820152600a6024820152696e6f742062616e6b737960b01b6044820152606490fd5b3461017357604036600319011261017357602060043561085d816101dc565b60018060a01b038091165f526003825260405f206024355f52825260405f205416604051908152f35b34610173575f80600319360112610938578054801561090657816108b761021f61021f61032e610320600496610df4565b604051630258294160e41b815292839182905afa908115610306578261058593926108eb575b5050604051918291826104f6565b6108ff92503d8091833e6102f7818361048e565b5f806108dd565b60405162461bcd60e51b815260206004820152600a6024820152696e6f2072656c6561736560b01b6044820152606490fd5b80fd5b34610173575f366003190112610173576020600554604051908152f35b3461017357602036600319011261017357600435610975816101dc565b6007546001600160a01b03919061098f9083163314610da5565b166001600160601b0360a01b60085416176008555f80f35b346101735760c0366003190112610173576004356109c4816101dc565b602435906109d1826101dc565b604435906109de826101dc565b67ffffffffffffffff9160643583811161017357610a00903690600401610610565b6084959195359485116101735761058595610a226106cf963690600401610610565b94909360a43596610f3f565b3461017357604036600319011261017357600435610a4b816101dc565b600754610a649061022b906001600160a01b031661021f565b604051635aa6e67560e01b8152602091906001600160a01b0382811691908482600481865afa90811561030657610aa5925f92610bb5575b50163314611489565b610ac661021f61021f61032e610320602435610ac15f54610df4565b610e07565b604051915f83600481630258294160e41b958682525afa928315610306575f93610b9a575b506040519182525f82600481845afa918215610306576004938693610b25925f91610b81575b5084815191012090848151910120146114c4565b604051637e062a3560e11b815292839182905afa90811561030657610b52935f92610b54575b505061114d565b005b610b739250803d10610b7a575b610b6b818361048e565b810190611474565b5f80610b4b565b503d610b61565b610b94913d8091833e6102f7818361048e565b5f610b11565b610bae91933d8091833e6102f7818361048e565b915f610aeb565b610bcd919250863d8811610b7a57610b6b818361048e565b905f610a9c565b34610173576020366003190112610173576004355f526001602052602060018060a01b0360405f205416604051908152f35b3461017357602036600319011261017357600435610c23816101dc565b60018060a01b03165f526006602052602060ff60405f2054166040519015158152f35b3461017357602036600319011261017357600435610c63816101dc565b6001600160a01b0381165f8181526002602052604090205490919015610cc85761032e6106cf91610585935f526003602052610cbc610cb660405f209260018060a01b03165f52600260205260405f2090565b54610df4565b5f5260205260405f2090565b60405162461bcd60e51b81526020600482015260126024820152713737903b30bab63a103337b9103a37b5b2b760711b6044820152606490fd5b3461017357602036600319011261017357600435610d1f816101dc565b60018060a01b03165f52600a602052602060ff60405f2054166040519015158152f35b34610173575f366003190112610173576008546040516001600160a01b039091168152602090f35b3461017357602036600319011261017357600435610d87816101dc565b60018060a01b03165f526002602052602060405f2054604051908152f35b15610dac57565b60405162461bcd60e51b815260206004820152600c60248201526b1d5b985d5d1a1bdc9a5e995960a21b6044820152606490fd5b634e487b7160e01b5f52601160045260245ffd5b5f19810191908211610e0257565b610de0565b91908203918211610e0257565b67ffffffffffffffff811161048957601f01601f191660200190565b6020818303126101735780519067ffffffffffffffff8211610173570181601f82011215610173578051610e6381610e14565b92610e71604051948561048e565b818452602082840101116101735761050791602080850191016104b0565b6040513d5f823e3d90fd5b15610ea157565b60405162461bcd60e51b815260206004820152601060248201526f39b0b6b29030b834903b32b939b4b7b760811b6044820152606490fd5b9060018201809211610e0257565b6001600160a01b039091168152604060208201819052610507929101906104d1565b929192610f1582610e14565b91610f23604051938461048e565b829481845281830111610173578281602093845f960137010152565b969394959192610f5a60018060a01b03600754163314610da5565b5f545f19808201969091808811610e02570301948511610e025761050796610f8a610f9292610f9a983691610f09565b933691610f09565b923388610ffa565b809261114d565b959796929394610fdf60c096610fed9360018060a01b0397888097818094168d521660208c01521660408a015260e060608a015260e08901906104d1565b9087820360808901526104d1565b961660a085015216910152565b5f968752600160205260408720546001600160a01b03979594939291908816801561108257611028906110b9565b97881693843b1561107e5786929161105991604051998a988997889663538baeab60e01b8852309560048901610fa1565b03925af180156103065761106b575090565b8061107861050792610475565b80610169565b8680fd5b60405162461bcd60e51b815260206004820152600f60248201526e756e6b6e6f776e2072656c6561736560881b6044820152606490fd5b60379060405190693d602d80600a3d3981f3825269363d3d373d3d3d363d7360148301526001600160601b03199060601b1660288201526e5af43d82803e903d91602b57fd5bf3603c8201525ff0906001600160a01b0382161561111957565b60405162461bcd60e51b815260206004820152600c60248201526b18db1bdb994819985a5b195960a21b6044820152606490fd5b6001600160a01b0381165f908152600260205260409020549190826112ac575b61119c826102538561118f8560018060a01b03165f52600360205260405f2090565b905f5260205260405f2090565b6111a583610ed9565b6001600160a01b0382165f9081526002602090815260408083209390935560069052205460ff1615611254575b604051630258294160e41b8152906001600160a01b03905f836004818786165afa928315610306577fce089905ba4a4d622553bcb5646fd23e895c256f0376eee04e99e61cec1dc7e893611236915f9161123b575b50604051938493169583610ee7565b0390a3565b61124e913d8091833e6102f7818361048e565b5f611227565b6001600160a01b0381165f90815260066020526040902061127c90805460ff19166001179055565b611294816102536005545f52600460205260405f2090565b6112a76112a2600554610ed9565b600555565b6111d2565b6112db61021f61021f61032e6112d28560018060a01b03165f52600360205260405f2090565b610cbc88610df4565b6040519081630258294160e41b918282528160045f9586935afa908115610306578391611367575b5060405191825282826004816001600160a01b0389165afa9182156103065783611345949361134a575b50506020815191012090602081519101201415610e9a565b61116d565b61135f9293503d8091833e6102f7818361048e565b905f8061132d565b61137b91503d8085833e6102f7818361048e565b5f611303565b979596939094969291925f54965f199081890198808a11610e02570301968711610e02576113b76113bf926113c6993691610f09565b943691610f09565b9387610ffa565b604051630258294160e41b81529091906001600160a01b035f826004818488165afa918215610306575f92611433575b5061142d7f57a9cdc2a05e05f66e76769bdbe88e21ec45d9ee0f97d4cb60395d4c75dcbcda91604051918291339616948783610ee7565b0390a390565b61146c61142d917f57a9cdc2a05e05f66e76769bdbe88e21ec45d9ee0f97d4cb60395d4c75dcbcda93943d8091833e6102f7818361048e565b9291506113f6565b908160209103126101735751610507816101dc565b1561149057565b60405162461bcd60e51b815260206004820152600c60248201526b1b9bdd0819dbdd995c9b995960a21b6044820152606490fd5b156114cb57565b60405162461bcd60e51b81526020600482015260126024820152716e6f74207461726765742072656c6561736560701b6044820152606490fd5b90601f811161151357505050565b5f91825260208220906020601f850160051c8301941061154e575b601f0160051c01915b82811061154357505050565b818155600101611537565b909250829061152e565b90929167ffffffffffffffff81116104895761157e816115788454610429565b84611505565b5f601f82116001146115b557819293945f926115aa575b50508160011b915f199060031b1c1916179055565b013590505f80611595565b601f198216946115c8845f5260205f2090565b91805b8781106116025750836001959697106115e9575b505050811b019055565b01355f19600384901b60f8161c191690555f80806115df565b909260206001819286860135815501940191016115cb565b9192606093819260018060a01b0316845260406020850152816040850152848401375f828201840152601f01601f191601019056fea2646970667358221220c34e15130cda5725a5fd209ff9e9421a97f35c80b8ea32c0d3bd592010392c8064736f6c63430008140033","linkReferences":{}},"methodIdentifiers":{"acceptGovernance()":"238efcbc","banksy(address)":"ee711ed5","endorseVault(address,uint256)":"b366a35c","governance()":"5aa6e675","isRegistered(address)":"c3c5a547","latestRelease()":"7be0ca5e","latestVault(address)":"e177dc70","newExperimentalVault(address,address,address,address,string,string,uint256)":"5bd4b0f2","newRelease(address)":"33990d4b","newVault(address,address,address,string,string,uint256)":"b0b40fce","numReleases()":"56e0a94b","numTokens()":"8e499bcf","numVaults(address)":"f9c7bba5","pendingGovernance()":"f39c38a0","releases(uint256)":"b6a9f40f","setBanksy(address,bool)":"5e05f6af","setGovernance(address)":"ab033ea9","tagVault(address,string)":"60bd68f8","tags(address)":"58b8f842","tokens(uint256)":"4f64b2be","vaults(address,uint256)":"7bbfc69e"},"id":7}