{"abi":[{"type":"constructor","inputs":[],"stateMutability":"nonpayable"},{"type":"function","name":"acceptGovernance","inputs":[],"outputs":[],"stateMutability":"nonpayable"},{"type":"function","name":"agendaCount","inputs":[{"name":"vault","type":"address","internalType":"address"}],"outputs":[{"name":"","type":"uint256","internalType":"uint256"}],"stateMutability":"view"},{"type":"function","name":"banksy","inputs":[{"name":"","type":"address","internalType":"address"}],"outputs":[{"name":"","type":"bool","internalType":"bool"}],"stateMutability":"view"},{"type":"function","name":"createAgenda","inputs":[{"name":"vault","type":"address","internalType":"address"},{"name":"title","type":"string","internalType":"string"},{"name":"content","type":"string","internalType":"string"},{"name":"ipfsHash","type":"string","internalType":"string"},{"name":"metaTags","type":"string[]","internalType":"string[]"},{"name":"riskLevel","type":"uint8","internalType":"uint8"}],"outputs":[{"name":"","type":"uint256","internalType":"uint256"}],"stateMutability":"nonpayable"},{"type":"function","name":"endorseVault","inputs":[{"name":"vault","type":"address","internalType":"address"},{"name":"releaseDelta","type":"uint256","internalType":"uint256"}],"outputs":[],"stateMutability":"nonpayable"},{"type":"function","name":"getAgenda","inputs":[{"name":"vault","type":"address","internalType":"address"},{"name":"agendaId","type":"uint256","internalType":"uint256"}],"outputs":[{"name":"title","type":"string","internalType":"string"},{"name":"content","type":"string","internalType":"string"},{"name":"ipfsHash","type":"string","internalType":"string"},{"name":"metaTags","type":"string[]","internalType":"string[]"},{"name":"riskLevel","type":"uint8","internalType":"uint8"},{"name":"timestamp","type":"uint256","internalType":"uint256"},{"name":"author","type":"address","internalType":"address"},{"name":"active","type":"bool","internalType":"bool"}],"stateMutability":"view"},{"type":"function","name":"governance","inputs":[],"outputs":[{"name":"","type":"address","internalType":"address"}],"stateMutability":"view"},{"type":"function","name":"isRegistered","inputs":[{"name":"","type":"address","internalType":"address"}],"outputs":[{"name":"","type":"bool","internalType":"bool"}],"stateMutability":"view"},{"type":"function","name":"latestAgendaId","inputs":[{"name":"vault","type":"address","internalType":"address"}],"outputs":[{"name":"exists","type":"bool","internalType":"bool"},{"name":"id","type":"uint256","internalType":"uint256"}],"stateMutability":"view"},{"type":"function","name":"latestRelease","inputs":[],"outputs":[{"name":"","type":"string","internalType":"string"}],"stateMutability":"view"},{"type":"function","name":"latestVault","inputs":[{"name":"token","type":"address","internalType":"address"}],"outputs":[{"name":"","type":"address","internalType":"address"}],"stateMutability":"view"},{"type":"function","name":"newExperimentalVault","inputs":[{"name":"token","type":"address","internalType":"address"},{"name":"_governance","type":"address","internalType":"address"},{"name":"guardian","type":"address","internalType":"address"},{"name":"rewards","type":"address","internalType":"address"},{"name":"name","type":"string","internalType":"string"},{"name":"symbol","type":"string","internalType":"string"},{"name":"releaseDelta","type":"uint256","internalType":"uint256"}],"outputs":[{"name":"","type":"address","internalType":"address"}],"stateMutability":"nonpayable"},{"type":"function","name":"newRelease","inputs":[{"name":"vault","type":"address","internalType":"address"}],"outputs":[],"stateMutability":"nonpayable"},{"type":"function","name":"newVault","inputs":[{"name":"token","type":"address","internalType":"address"},{"name":"guardian","type":"address","internalType":"address"},{"name":"rewards","type":"address","internalType":"address"},{"name":"name","type":"string","internalType":"string"},{"name":"symbol","type":"string","internalType":"string"},{"name":"releaseDelta","type":"uint256","internalType":"uint256"}],"outputs":[{"name":"","type":"address","internalType":"address"}],"stateMutability":"nonpayable"},{"type":"function","name":"numReleases","inputs":[],"outputs":[{"name":"","type":"uint256","internalType":"uint256"}],"stateMutability":"view"},{"type":"function","name":"numTokens","inputs":[],"outputs":[{"name":"","type":"uint256","internalType":"uint256"}],"stateMutability":"view"},{"type":"function","name":"numVaults","inputs":[{"name":"","type":"address","internalType":"address"}],"outputs":[{"name":"","type":"uint256","internalType":"uint256"}],"stateMutability":"view"},{"type":"function","name":"pendingGovernance","inputs":[],"outputs":[{"name":"","type":"address","internalType":"address"}],"stateMutability":"view"},{"type":"function","name":"releases","inputs":[{"name":"","type":"uint256","internalType":"uint256"}],"outputs":[{"name":"","type":"address","internalType":"address"}],"stateMutability":"view"},{"type":"function","name":"setAgendaActive","inputs":[{"name":"vault","type":"address","internalType":"address"},{"name":"agendaId","type":"uint256","internalType":"uint256"},{"name":"active","type":"bool","internalType":"bool"}],"outputs":[],"stateMutability":"nonpayable"},{"type":"function","name":"setBanksy","inputs":[{"name":"tagger","type":"address","internalType":"address"},{"name":"allowed","type":"bool","internalType":"bool"}],"outputs":[],"stateMutability":"nonpayable"},{"type":"function","name":"setGovernance","inputs":[{"name":"_gov","type":"address","internalType":"address"}],"outputs":[],"stateMutability":"nonpayable"},{"type":"function","name":"tagVault","inputs":[{"name":"vault","type":"address","internalType":"address"},{"name":"tag","type":"string","internalType":"string"}],"outputs":[],"stateMutability":"nonpayable"},{"type":"function","name":"tags","inputs":[{"name":"","type":"address","internalType":"address"}],"outputs":[{"name":"","type":"string","internalType":"string"}],"stateMutability":"view"},{"type":"function","name":"tokens","inputs":[{"name":"","type":"uint256","internalType":"uint256"}],"outputs":[{"name":"","type":"address","internalType":"address"}],"stateMutability":"view"},{"type":"function","name":"updateAgendaMetaTags","inputs":[{"name":"vault","type":"address","internalType":"address"},{"name":"agendaId","type":"uint256","internalType":"uint256"},{"name":"metaTags","type":"string[]","internalType":"string[]"}],"outputs":[],"stateMutability":"nonpayable"},{"type":"function","name":"vaultCreator","inputs":[{"name":"","type":"address","internalType":"address"}],"outputs":[{"name":"","type":"address","internalType":"address"}],"stateMutability":"view"},{"type":"function","name":"vaults","inputs":[{"name":"","type":"address","internalType":"address"},{"name":"","type":"uint256","internalType":"uint256"}],"outputs":[{"name":"","type":"address","internalType":"address"}],"stateMutability":"view"},{"type":"event","name":"AgendaActivated","inputs":[{"name":"vault","type":"address","indexed":true,"internalType":"address"},{"name":"agendaId","type":"uint256","indexed":true,"internalType":"uint256"},{"name":"active","type":"bool","indexed":false,"internalType":"bool"}],"anonymous":false},{"type":"event","name":"AgendaCreated","inputs":[{"name":"vault","type":"address","indexed":true,"internalType":"address"},{"name":"agendaId","type":"uint256","indexed":true,"internalType":"uint256"},{"name":"author","type":"address","indexed":true,"internalType":"address"},{"name":"title","type":"string","indexed":false,"internalType":"string"},{"name":"riskLevel","type":"uint8","indexed":false,"internalType":"uint8"},{"name":"ipfsHash","type":"string","indexed":false,"internalType":"string"}],"anonymous":false},{"type":"event","name":"AgendaUpdatedMeta","inputs":[{"name":"vault","type":"address","indexed":true,"internalType":"address"},{"name":"agendaId","type":"uint256","indexed":true,"internalType":"uint256"},{"name":"metaTags","type":"string[]","indexed":false,"internalType":"string[]"}],"anonymous":false},{"type":"event","name":"NewExperimentalVault","inputs":[{"name":"token","type":"address","indexed":true,"internalType":"address"},{"name":"deployer","type":"address","indexed":true,"internalType":"address"},{"name":"vault","type":"address","indexed":false,"internalType":"address"},{"name":"api_version","type":"string","indexed":false,"internalType":"string"}],"anonymous":false},{"type":"event","name":"NewGovernance","inputs":[{"name":"governance","type":"address","indexed":false,"internalType":"address"}],"anonymous":false},{"type":"event","name":"NewRelease","inputs":[{"name":"release_id","type":"uint256","indexed":true,"internalType":"uint256"},{"name":"template","type":"address","indexed":false,"internalType":"address"},{"name":"api_version","type":"string","indexed":false,"internalType":"string"}],"anonymous":false},{"type":"event","name":"NewVault","inputs":[{"name":"token","type":"address","indexed":true,"internalType":"address"},{"name":"vault_id","type":"uint256","indexed":true,"internalType":"uint256"},{"name":"vault","type":"address","indexed":false,"internalType":"address"},{"name":"api_version","type":"string","indexed":false,"internalType":"string"}],"anonymous":false},{"type":"event","name":"VaultTagged","inputs":[{"name":"vault","type":"address","indexed":false,"internalType":"address"},{"name":"tag","type":"string","indexed":false,"internalType":"string"}],"anonymous":false}],"bytecode":{"object":"0x60808060405234602757600780546001600160a01b03191633179055612527908161002c8239f35b5f80fdfe6080806040526004361015610012575f80fd5b5f3560e01c9081630158ce3b14611ad7575080630c2d37d6146117a4578063238efcbc1461174257806333990d4b14611589578063444925f71461149c5780634748651f1461146b5780634f64b2be1461143957806356e0a94b1461141d57806358b8f842146113d15780635aa6e675146113a95780635bd4b0f2146112455780635e05f6af146111e557806360bd68f8146110435780636786d6801461100357806372437b96146109605780637bbfc69e146109145780637be0ca5e1461084c5780638e499bcf1461082f578063ab033ea9146107df578063b0b40fce146106fe578063b366a35c146104c5578063b6a9f40f14610493578063c3c5a54714610456578063db16719b146102b3578063e177dc70146101f1578063ee711ed5146101b4578063f39c38a01461018c5763f9c7bba514610150575f80fd5b34610188576020366003190112610188576001600160a01b03610171611b0b565b165f526002602052602060405f2054604051908152f35b5f80fd5b34610188575f366003190112610188576008546040516001600160a01b039091168152602090f35b34610188576020366003190112610188576001600160a01b036101d5611b0b565b165f52600a602052602060ff60405f2054166040519015158152f35b34610188576020366003190112610188576001600160a01b03610212611b0b565b16805f52600260205260405f20541561027957805f52600360205260405f20905f52600260205260405f20545f198101908111610265575f52602052602060018060a01b0360405f205416604051908152f35b634e487b7160e01b5f52601160045260245ffd5b60405162461bcd60e51b81526020600482015260126024820152713737903b30bab63a103337b9103a37b5b2b760711b6044820152606490fd5b34610188576040366003190112610188576103066102cf611b0b565b6001600160a01b03165f818152600c602052604090205460243591906102f6908310611cc9565b5f52600c60205260405f20611e1e565b50600381019060ff60048201541691600582015460068301549361032984611bd8565b93610342600261033b60018401611bd8565b9201611bd8565b84549161034e83611d04565b9261035c6040519485611bb5565b8084526020840180975f5260205f205f915b8383106104395750505050906103a66103b492610398604051996101008b526101008b0190611c78565b9089820360208b0152611c78565b908782036040890152611c78565b90858203606087015251808252602082019160208260051b82010195925f915b83831061040c576080890186905260a0808a018890526001600160a01b038b1660c08b01528a901c60ff16151560e08a015288880389f35b909192939660208061042a600193601f198682030187528b51611c78565b990193019301919392906103d4565b60016020819261044885611bd8565b81520192019201919061036e565b34610188576020366003190112610188576001600160a01b03610477611b0b565b165f526006602052602060ff60405f2054166040519015158152f35b34610188576020366003190112610188576004355f526001602052602060018060a01b0360405f205416604051908152f35b34610188576040366003190112610188576104de611b0b565b6104f360018060a01b03600754163314611ec2565b604051635aa6e67560e01b81526001600160a01b0382169190602081600481865afa90811561062a575f916106df575b50336001600160a01b03909116036106ab575f545f1981019081116102655761054f9060243590611efd565b5f90815260016020526040808220549051630258294160e41b81529190829060049082906001600160a01b03165afa90811561062a575f91610691575b50604051630258294160e41b81525f81600481875afa90811561062a575f9161066f575b506020815191012090602081519101200361063557602060049260405193848092637e062a3560e11b82525afa90811561062a576105f7925f926105f9575b503391612275565b005b61061c91925060203d602011610623575b6106148183611bb5565b810190612023565b90836105ef565b503d61060a565b6040513d5f823e3d90fd5b60405162461bcd60e51b81526020600482015260126024820152716e6f74207461726765742072656c6561736560701b6044820152606490fd5b61068b91503d805f833e6106838183611bb5565b810190611f0a565b846105b0565b6106a591503d805f833e6106838183611bb5565b8361058c565b60405162461bcd60e51b815260206004820152600c60248201526b1b9bdd0819dbdd995c9b995960a21b6044820152606490fd5b6106f8915060203d602011610623576106148183611bb5565b83610523565b346101885760c036600319011261018857610717611b0b565b61071f611b21565b90610728611b37565b6064356001600160401b03811161018857610747903690600401611c9c565b9093906084356001600160401b03811161018857610769903690600401611c9c565b61078160018060a09794971b03600754163314611ec2565b5f545f19810194908511610265576107bc6107cd966107b460209a6107ac6107c49960a43590611efd565b973691611de8565b933691611de8565b9233886120e4565b91823391612275565b6040516001600160a01b039091168152f35b34610188576020366003190112610188576107f8611b0b565b61080d60018060a01b03600754163314611ec2565b600880546001600160a01b0319166001600160a01b0392909216919091179055005b34610188575f366003190112610188576020600554604051908152f35b34610188575f366003190112610188575f5480156108e2575f198101908111610265575f90815260016020526040808220549051630258294160e41b81529190829060049082906001600160a01b03165afa801561062a576108c4915f916108c8575b50604051918291602083526020830190611c78565b0390f35b6108dc91503d805f833e6106838183611bb5565b826108af565b60405162461bcd60e51b815260206004820152600a6024820152696e6f2072656c6561736560b01b6044820152606490fd5b34610188576040366003190112610188576001600160a01b03610935611b0b565b165f52600360205260405f206024355f52602052602060018060a01b0360405f205416604051908152f35b346101885760c036600319011261018857610979611b0b565b6024356001600160401b03811161018857610998903690600401611c9c565b916044356001600160401b038111610188576109b8903690600401611c9c565b90916064356001600160401b038111610188576109d9903690600401611c9c565b90939092906084356001600160401b038111610188576109fd903690600401611b4d565b9160a4359360ff851680950361018857610a173387612042565b15610fbe576040516101008101939092906001600160401b03851184861017610dc3578a958c9560405260608552602085019860608a5260408601916060835260608701936060855260808801955f875260a08901975f895260c08a019b5f8d5260e08b019b5f8d523690610a8b92611de8565b8a523690610a9892611de8565b8c528d8d3690610aa792611de8565b8452610ab282611d1b565b915f5b818110610f8a575050508352888452428552338852600187526001600160a01b03165f818152600c602052604090208054919a91600160401b811015610dc357610b0491600182018155611e1e565b969096610f7757518051906001600160401b038211610dc357610b3182610b2b8a54611b7d565b8a611e5f565b602090601f8311600114610f1457610b5392915f9183610d4f575b5050611e4d565b86555b51805160018701916001600160401b038211610dc357610b8082610b7a8554611b7d565b85611e5f565b602090601f8311600114610eb157610ba192915f9183610d4f575050611e4d565b90555b51805160028601916001600160401b038211610dc357610bc882610b7a8554611b7d565b602090601f8311600114610e4e57610be992915f9183610d4f575050611e4d565b90555b5180516003850191600160401b8211610dc3578254828455808310610dd7575b50602001915f5260205f20915f905b828210610cf0575050915160048501805460ff191660ff9290921691909117905550505160058201559151600690920180546001600160a01b0319166001600160a01b039390931692909217825551610c779190151590611fd0565b815f52600c60205260405f2054945f19860195861161026557602096610ce57f8f8bb44e8cc090c13269be7bd3e2c3865d3f04e6851e9752a2f3832dd58830f1938896610cd1604051958695606087526060870191611ea2565b918b85015283820360408501523398611ea2565b0390a4604051908152f35b80518051906001600160401b038211610dc357610d1782610d118854611b7d565b88611e5f565b602090601f8311600114610d5a5792610d40836001959460209487965f92610d4f575050611e4d565b87555b01940191019092610c1b565b015190505f80610b4c565b90601f19831691875f52815f20925f5b818110610dab5750936020936001969387969383889510610d93575b505050811b018755610d43565b01515f1960f88460031b161c191690555f8080610d86565b92936020600181928786015181550195019301610d6a565b634e487b7160e01b5f52604160045260245ffd5b835f528260205f2091820191015b818110610df25750610c0c565b80610dff60019254611b7d565b80610e0c575b5001610de5565b601f81118314610e2157505f81555b5f610e05565b610e3d90825f5283601f60205f20920160051c82019101611e37565b805f525f6020812081835555610e1b565b90601f19831691845f52815f20925f5b818110610e995750908460019594939210610e81575b505050811b019055610bec565b01515f1960f88460031b161c191690558f8080610e74565b92936020600181928786015181550195019301610e5e565b90601f19831691845f52815f20925f5b818110610efc5750908460019594939210610ee4575b505050811b019055610ba4565b01515f1960f88460031b161c191690555f8080610ed7565b92936020600181928786015181550195019301610ec1565b90601f19831691895f52815f20925f5b818110610f5f5750908460019594939210610f47575b505050811b018655610b56565b01515f1960f88460031b161c191690555f8080610f3a565b92936020600181928786015181550195019301610f24565b634e487b7160e01b5f525f60045260245ffd5b80610fa2610f9b6001938587611d64565b3691611de8565b610fac8287611db9565b52610fb78186611db9565b5001610ab5565b60405162461bcd60e51b815260206004820152601f60248201527f6e6f7420617574686f72697a656420746f20637265617465206167656e6461006044820152606490fd5b34610188576020366003190112610188576001600160a01b03611024611b0b565b165f52600b602052602060018060a01b0360405f205416604051908152f35b346101885760403660031901126101885761105c611b0b565b6024356001600160401b0381116101885761107b903690600401611c9c565b600754919290916001600160a01b0316330361119f575b6001600160a01b03165f818152600960205260409020926001600160401b038311610dc3576110cb836110c58654611b7d565b86611e5f565b5f93601f841160011461112a579061111a916110fe85805f5160206124d25f395f51905f52985f9161111f575b50611e4d565b90555b6040519384938452604060208501526040840191611ea2565b0390a1005b9050840135896110f8565b601f19841694815f5260205f20955f5b81811061118757509561111a939291865f5160206124d25f395f51905f52981061116e575b5050600185811b019055611101565b8301355f19600388901b60f8161c19169055868061115f565b8483013588556001909701966020928301920161113a565b335f52600a60205260ff60405f2054166110925760405162461bcd60e51b815260206004820152600a6024820152696e6f742062616e6b737960b01b6044820152606490fd5b34610188576040366003190112610188576111fe611b0b565b602435908115158092036101885761122160018060a01b03600754163314611ec2565b60018060a01b03165f52600a60205260405f209060ff801983541691161790555f80f35b346101885760e03660031901126101885761125e611b0b565b611266611b21565b61126e611b37565b90606435906001600160a01b0382168203610188576084356001600160401b038111610188576112a2903690600401611c9c565b909390929060a4356001600160401b038111610188576112c6903690600401611c9c565b5f545f19810197919492908811610265576112f66112fe926112ee6113059a60c43590611efd565b983691611de8565b943691611de8565b93876120e4565b90611311338383612275565b604051630258294160e41b8152916001600160a01b03811691905f84600481865afa801561062a576113847f57a9cdc2a05e05f66e76769bdbe88e21ec45d9ee0f97d4cb60395d4c75dcbcda916020965f9161138f575b5060405133956001600160a01b03169490928392909183611fab565b0390a3604051908152f35b6113a391503d805f833e6106838183611bb5565b87611368565b34610188575f366003190112610188576007546040516001600160a01b039091168152602090f35b34610188576020366003190112610188576001600160a01b036113f2611b0b565b165f5260096020526108c461140960405f20611bd8565b604051918291602083526020830190611c78565b34610188575f3660031901126101885760205f54604051908152f35b34610188576020366003190112610188576004355f526004602052602060018060a01b0360405f205416604051908152f35b3461018857602036600319011261018857604061148e611489611b0b565b611fed565b825191151582526020820152f35b34610188576060366003190112610188576114b5611b0b565b602435906044359081151590818303610188576114d23382612042565b15611544577f9937103f7755ee74a26c64a972ed89b0584bc2be40904010e15a24f8396ec9699161153b60209260018060a01b031694855f52600c845261151e60405f20548810611cc9565b855f52600c845260066115348860405f20611e1e565b5001611fd0565b604051908152a3005b60405162461bcd60e51b815260206004820152601f60248201527f6e6f7420617574686f72697a656420746f20746f67676c65206167656e6461006044820152606490fd5b34610188576020366003190112610188576115a2611b0b565b6115b760018060a01b03600754163314611ec2565b5f549081611676575b5f82815260016020819052604090912080546001600160a01b0319166001600160a01b0384161790558201808311610265575f908155604051630258294160e41b81529190826004816001600160a01b0385165afa90811561062a577fa6fbd216b6734f34092f1be6b7247e1551a6d4f2d5000c53721cfdc119a5b7cf925f9261165a575b5061165560405192839283611fab565b0390a2005b61166f9192503d805f833e6106838183611bb5565b9084611645565b5f198201828111610265575f90815260016020526040808220549051630258294160e41b81529190829060049082906001600160a01b03165afa90811561062a575f91611728575b50604051630258294160e41b8152905f826004816001600160a01b0387165afa90811561062a57611707925f9261170c575b506020815191012090602081519101201415611f6c565b6115c0565b6117219192503d805f833e6106838183611bb5565b90856116f0565b61173c91503d805f833e6106838183611bb5565b836116be565b34610188575f3660031901126101885761176760018060a01b03600854163314611ec2565b3360018060a01b031960075416176007557f4f386975ea1c2f7cf1845b08bee00626fbb624ecad16254d63d9bb9ba86526de6020604051338152a1005b34610188576060366003190112610188576117bd611b0b565b602435906044356001600160401b038111610188576117e0903690600401611b4d565b916117eb3382612042565b15611a925760018060a01b031691825f52600c60205261181060405f20548510611cc9565b61181981611d1b565b5f5b828110611a655750835f52600c602052600361183a8660405f20611e1e565b508251910191600160401b8211610dc35782548284558083106119ee575b50602001915f5260205f20915f905b828210611921575050505060405191816020840160208552526040830160408360051b85010192825f90601e19813603015b8383106118ca5789897f0a25f0a700fbdac529c04f2a44febadff2a7e83d9c960336f7ad02fd8fc283908a8a038ba3005b909192939495603f19888203018652863582811215610188578301602081019190356001600160401b038111610188578036038313610188576119136020928392600195611ea2565b980196019493019190611899565b80518051906001600160401b038211610dc35761194282610d118854611b7d565b602090601f8311600114611985579261196b836001959460209487965f9261197a575050611e4d565b87555b01940191019092611867565b015190508e80610b4c565b90601f19831691875f52815f20925f5b8181106119d657509360209360019693879693838895106119be575b505050811b01875561196e565b01515f1960f88460031b161c191690558d80806119b1565b92936020600181928786015181550195019301611995565b835f528260205f2091820191015b818110611a095750611858565b80611a1660019254611b7d565b80611a23575b50016119fc565b601f81118314611a3857505f81555b8a611a1c565b611a5490825f5283601f60205f20920160051c82019101611e37565b805f525f6020812081835555611a32565b80611a76610f9b6001938688611d64565b611a808285611db9565b52611a8b8184611db9565b500161181b565b60405162461bcd60e51b815260206004820152601d60248201527f6e6f7420617574686f72697a656420746f20757064617465206d6574610000006044820152606490fd5b34610188576020366003190112610188576020906001600160a01b03611afb611b0b565b165f52600c825260405f20548152f35b600435906001600160a01b038216820361018857565b602435906001600160a01b038216820361018857565b604435906001600160a01b038216820361018857565b9181601f84011215610188578235916001600160401b038311610188576020808501948460051b01011161018857565b90600182811c92168015611bab575b6020831014611b9757565b634e487b7160e01b5f52602260045260245ffd5b91607f1691611b8c565b601f909101601f19168101906001600160401b03821190821017610dc357604052565b9060405191825f825492611beb84611b7d565b8084529360018116908115611c565750600114611c12575b50611c1092500383611bb5565b565b90505f9291925260205f20905f915b818310611c3a575050906020611c10928201015f611c03565b6020919350806001915483858901015201910190918492611c21565b905060209250611c1094915060ff191682840152151560051b8201015f611c03565b805180835260209291819084018484015e5f828201840152601f01601f1916010190565b9181601f84011215610188578235916001600160401b038311610188576020838186019501011161018857565b15611cd057565b60405162461bcd60e51b815260206004820152600c60248201526b30b3b2b73230a4b21027a7a160a11b6044820152606490fd5b6001600160401b038111610dc35760051b60200190565b90611d2582611d04565b611d326040519182611bb5565b8281528092611d43601f1991611d04565b01905f5b828110611d5357505050565b806060602080938501015201611d47565b9190811015611da55760051b81013590601e19813603018212156101885701803591906001600160401b038311610188576020018236038113610188579190565b634e487b7160e01b5f52603260045260245ffd5b8051821015611da55760209160051b010190565b6001600160401b038111610dc357601f01601f191660200190565b929192611df482611dcd565b91611e026040519384611bb5565b829481845281830111610188578281602093845f960137010152565b8054821015611da5575f52600760205f20910201905f90565b818110611e42575050565b5f8155600101611e37565b8160011b915f199060031b1c19161790565b9190601f8111611e6e57505050565b611c10925f5260205f20906020601f840160051c83019310611e98575b601f0160051c0190611e37565b9091508190611e8b565b908060209392818452848401375f828201840152601f01601f1916010190565b15611ec957565b60405162461bcd60e51b815260206004820152600c60248201526b1d5b985d5d1a1bdc9a5e995960a21b6044820152606490fd5b9190820391821161026557565b602081830312610188578051906001600160401b038211610188570181601f8201121561018857805190611f3d82611dcd565b92611f4b6040519485611bb5565b8284526020838301011161018857815f9260208093018386015e8301015290565b15611f7357565b60405162461bcd60e51b815260206004820152601060248201526f39b0b6b29030b834903b32b939b4b7b760811b6044820152606490fd5b6001600160a01b039091168152604060208201819052611fcd92910190611c78565b90565b805460ff60a01b191691151560a01b60ff60a01b16919091179055565b6001600160a01b03165f908152600c602052604090205490811561201c575f1982019182116102655760019190565b5f91508190565b9081602091031261018857516001600160a01b03811681036101885790565b6007546001600160a01b03928316921682146120be57604051635aa6e67560e01b81526001600160a01b039190911690602081600481855afa90811561062a575f916120c5575b506001600160a01b031682146120be575f908152600b60205260409020546001600160a01b0316146120b9575f90565b600190565b5050600190565b6120de915060203d602011610623576106148183611bb5565b5f612089565b91929394955f52600160205260405f205460018060a01b0381161561223e5780763d602d80600a3d3981f3363d3d373d3d3d363d7300000062ffffff6e5af43d82803e903d91602b57fd5bf39360881c16175f5260018060781b03199060781b1617602052603760095ff0956001600160a01b03871692831561220057833b156101885760405163538baeab60e01b81526001600160a01b0391821660048201529281166024840152909316604482015260e06064820152935f93859384928692849290916121ce91906121bc9060e4860190611c78565b84810360031901608486015290611c78565b6001600160a01b0390911660a48301523060c483015203925af1801561062a576121f6575090565b5f611fcd91611bb5565b60405162461bcd60e51b8152602060048201526016602482015275115490cc4c4d8dce8818dc99585d194819985a5b195960521b6044820152606490fd5b60405162461bcd60e51b815260206004820152600f60248201526e756e6b6e6f776e2072656c6561736560881b6044820152606490fd5b6001600160a01b03165f8181526002602052604090205492909183612401575b5f838152600360209081526040808320878452909152902080546001600160a01b0319166001600160a01b0383161790556001840180851161026557835f52600260205260405f2055825f52600660205260ff60405f205416156123b3575b6004916001600160a01b0381166123ac57505f335b6001600160a01b03838116808452600b602052604080852080546001600160a01b03191694909316939093179091559051630258294160e41b815293849182905afa90811561062a577fce089905ba4a4d622553bcb5646fd23e895c256f0376eee04e99e61cec1dc7e8925f92612390575b5061238b60405192839283611fab565b0390a3565b6123a59192503d805f833e6106838183611bb5565b905f61237b565b5f90612309565b825f52600660205260405f20600160ff198254161790556005545f52600460205260405f208360018060a01b03198254161790556005549160018301809311610265576005929092556122f4565b825f52600360205260405f205f198501858111610265575f5260205260045f60018060a01b0360408220541660405192838092630258294160e41b82525afa90811561062a575f916124b7575b50604051630258294160e41b8152905f826004816001600160a01b0387165afa90811561062a57612496925f9261249b57506020815191012090602081519101201415611f6c565b612295565b6124b09192503d805f833e6106838183611bb5565b905f6116f0565b6124cb91503d805f833e6106838183611bb5565b5f61244e56fe07bd58794c2ca0ae152f7719eb5f02c654476de972cadec0e8191ae8be42096da264697066735822122020dddef1da6917c4ea352497e88ed8ede2c01f6348f7ac5dcb830c8323f5470f64736f6c634300081e0033","linkReferences":{}},"methodIdentifiers":{"acceptGovernance()":"238efcbc","agendaCount(address)":"0158ce3b","banksy(address)":"ee711ed5","createAgenda(address,string,string,string,string[],uint8)":"72437b96","endorseVault(address,uint256)":"b366a35c","getAgenda(address,uint256)":"db16719b","governance()":"5aa6e675","isRegistered(address)":"c3c5a547","latestAgendaId(address)":"4748651f","latestRelease()":"7be0ca5e","latestVault(address)":"e177dc70","newExperimentalVault(address,address,address,address,string,string,uint256)":"5bd4b0f2","newRelease(address)":"33990d4b","newVault(address,address,address,string,string,uint256)":"b0b40fce","numReleases()":"56e0a94b","numTokens()":"8e499bcf","numVaults(address)":"f9c7bba5","pendingGovernance()":"f39c38a0","releases(uint256)":"b6a9f40f","setAgendaActive(address,uint256,bool)":"444925f7","setBanksy(address,bool)":"5e05f6af","setGovernance(address)":"ab033ea9","tagVault(address,string)":"60bd68f8","tags(address)":"58b8f842","tokens(uint256)":"4f64b2be","updateAgendaMetaTags(address,uint256,string[])":"0c2d37d6","vaultCreator(address)":"6786d680","vaults(address,uint256)":"7bbfc69e"},"id":7}