{"abi":[{"type":"constructor","inputs":[{"name":"_want","type":"address","internalType":"address"},{"name":"_controller","type":"address","internalType":"address"},{"name":"_lendingPool","type":"address","internalType":"address"},{"name":"_aToken","type":"address","internalType":"address"}],"stateMutability":"nonpayable"},{"type":"function","name":"aToken","inputs":[],"outputs":[{"name":"","type":"address","internalType":"address"}],"stateMutability":"view"},{"type":"function","name":"balanceOf","inputs":[],"outputs":[{"name":"","type":"uint256","internalType":"uint256"}],"stateMutability":"view"},{"type":"function","name":"controller","inputs":[],"outputs":[{"name":"","type":"address","internalType":"address"}],"stateMutability":"view"},{"type":"function","name":"deposit","inputs":[{"name":"_amount","type":"uint256","internalType":"uint256"}],"outputs":[{"name":"","type":"uint256","internalType":"uint256"}],"stateMutability":"nonpayable"},{"type":"function","name":"emergencyWithdraw","inputs":[],"outputs":[{"name":"","type":"uint256","internalType":"uint256"}],"stateMutability":"nonpayable"},{"type":"function","name":"getAPY","inputs":[],"outputs":[{"name":"","type":"uint256","internalType":"uint256"}],"stateMutability":"view"},{"type":"function","name":"getRiskScore","inputs":[],"outputs":[{"name":"","type":"uint8","internalType":"uint8"}],"stateMutability":"view"},{"type":"function","name":"getTVL","inputs":[],"outputs":[{"name":"","type":"uint256","internalType":"uint256"}],"stateMutability":"view"},{"type":"function","name":"getTotalDeposits","inputs":[],"outputs":[{"name":"","type":"uint256","internalType":"uint256"}],"stateMutability":"view"},{"type":"function","name":"harvest","inputs":[],"outputs":[{"name":"","type":"uint256","internalType":"uint256"}],"stateMutability":"nonpayable"},{"type":"function","name":"isPaused","inputs":[],"outputs":[{"name":"","type":"bool","internalType":"bool"}],"stateMutability":"view"},{"type":"function","name":"lendingPool","inputs":[],"outputs":[{"name":"","type":"address","internalType":"address"}],"stateMutability":"view"},{"type":"function","name":"name","inputs":[],"outputs":[{"name":"","type":"string","internalType":"string"}],"stateMutability":"view"},{"type":"function","name":"pause","inputs":[],"outputs":[],"stateMutability":"nonpayable"},{"type":"function","name":"unpause","inputs":[],"outputs":[],"stateMutability":"nonpayable"},{"type":"function","name":"want","inputs":[],"outputs":[{"name":"","type":"address","internalType":"address"}],"stateMutability":"view"},{"type":"function","name":"withdraw","inputs":[{"name":"_amount","type":"uint256","internalType":"uint256"}],"outputs":[{"name":"","type":"uint256","internalType":"uint256"}],"stateMutability":"nonpayable"},{"type":"function","name":"withdrawAll","inputs":[],"outputs":[{"name":"","type":"uint256","internalType":"uint256"}],"stateMutability":"nonpayable"},{"type":"event","name":"Deposit","inputs":[{"name":"caller","type":"address","indexed":true,"internalType":"address"},{"name":"amount","type":"uint256","indexed":false,"internalType":"uint256"},{"name":"shares","type":"uint256","indexed":false,"internalType":"uint256"}],"anonymous":false},{"type":"event","name":"EmergencyWithdraw","inputs":[{"name":"amount","type":"uint256","indexed":false,"internalType":"uint256"}],"anonymous":false},{"type":"event","name":"Harvest","inputs":[{"name":"harvested","type":"uint256","indexed":false,"internalType":"uint256"}],"anonymous":false},{"type":"event","name":"StrategyPaused","inputs":[],"anonymous":false},{"type":"event","name":"StrategyUnpaused","inputs":[],"anonymous":false},{"type":"event","name":"Withdraw","inputs":[{"name":"caller","type":"address","indexed":true,"internalType":"address"},{"name":"shares","type":"uint256","indexed":false,"internalType":"uint256"},{"name":"amount","type":"uint256","indexed":false,"internalType":"uint256"}],"anonymous":false}],"bytecode":{"object":"0x60a060405234801562000010575f80fd5b506040516200154538038062001545833981016040819052620000339162000330565b60408051808201909152600d81526c4161766520537472617465677960981b60208201528490849060026001600160a01b038416620000c85760405162461bcd60e51b815260206004820152602660248201527f4261736553747261746567793a2077616e7420616464726573732063616e6e6f60448201526507420626520360d41b60648201526084015b60405180910390fd5b6001600160a01b038316620001355760405162461bcd60e51b815260206004820152602c60248201527f4261736553747261746567793a20636f6e74726f6c6c6572206164647265737360448201526b02063616e6e6f7420626520360a41b6064820152608401620000bf565b5f8160ff161180156200014c5750600a8160ff1611155b620001b45760405162461bcd60e51b815260206004820152603160248201527f4261736553747261746567793a207269736b2073636f7265206d7573742062656044820152700206265747765656e203120616e6420313607c1b6064820152608401620000bf565b6001600160a01b0380851660805260018054918516620100000262010000600160b01b03199092169190911790555f620001ef83826200042a565b506001805461ffff191660ff9092169190911790555050506001600160a01b038216620002765760405162461bcd60e51b815260206004820152602e60248201527f4161766553747261746567793a206c656e64696e6720706f6f6c20616464726560448201526d073732063616e6e6f7420626520360941b6064820152608401620000bf565b6001600160a01b038116620002df5760405162461bcd60e51b815260206004820152602860248201527f4161766553747261746567793a2061546f6b656e20616464726573732063616e60448201526706e6f7420626520360c41b6064820152608401620000bf565b600380546001600160a01b039384166001600160a01b0319918216179091556004805492909316911617905550620004f29050565b80516001600160a01b03811681146200032b575f80fd5b919050565b5f805f806080858703121562000344575f80fd5b6200034f8562000314565b93506200035f6020860162000314565b92506200036f6040860162000314565b91506200037f6060860162000314565b905092959194509250565b634e487b7160e01b5f52604160045260245ffd5b600181811c90821680620003b357607f821691505b602082108103620003d257634e487b7160e01b5f52602260045260245ffd5b50919050565b601f82111562000425575f81815260208120601f850160051c81016020861015620004005750805b601f850160051c820191505b8181101562000421578281556001016200040c565b5050505b505050565b81516001600160401b038111156200044657620004466200038a565b6200045e816200045784546200039e565b84620003d8565b602080601f83116001811462000494575f84156200047c5750858301515b5f19600386901b1c1916600185901b17855562000421565b5f85815260208120601f198616915b82811015620004c457888601518255948401946001909101908401620004a3565b5085821015620004e257878501515f19600388901b60f8161c191681555b5050505050600190811b01905550565b6080516110176200052e5f395f818161014a01528181610452015281816105ec0152818161091a015281816109f10152610bc501526110175ff3fe608060405234801561000f575f80fd5b5060043610610111575f3560e01c8063853828b61161009e578063b187bd261161006e578063b187bd2614610204578063b6b55f251461021f578063d2cbf7ad14610232578063db2e21bc1461023a578063f77c479114610242575f80fd5b8063853828b6146101ce57806397b3fcaa146101d6578063a0c1f15e146101de578063a59a9973146101f1575f80fd5b80632e1a7d4d116100e45780632e1a7d4d146101995780633f4ba83a146101ac5780634641257d146101b6578063722713f7146101be5780638456cb59146101c6575f80fd5b806306fdde0314610115578063168a4822146101335780631f1fcd51146101455780632b35f73914610184575b5f80fd5b61011d61025b565b60405161012a9190610e32565b60405180910390f35b6002545b60405190815260200161012a565b61016c7f000000000000000000000000000000000000000000000000000000000000000081565b6040516001600160a01b03909116815260200161012a565b60015460405160ff909116815260200161012a565b6101376101a7366004610e4b565b6102ea565b6101b461051c565b005b610137610581565b6101376105d3565b6101b4610700565b610137610769565b6101376107f5565b60045461016c906001600160a01b031681565b60035461016c906001600160a01b031681565b600154610100900460ff16604051901515815260200161012a565b61013761022d366004610e4b565b610803565b61012c610137565b610137610b39565b60015461016c906201000090046001600160a01b031681565b60605f805461026990610e62565b80601f016020809104026020016040519081016040528092919081815260200182805461029590610e62565b80156102e05780601f106102b7576101008083540402835291602001916102e0565b820191905f5260205f20905b8154815290600101906020018083116102c357829003601f168201915b5050505050905090565b6001545f906201000090046001600160a01b031633146103255760405162461bcd60e51b815260040161031c90610e9a565b60405180910390fd5b5f82116103915760405162461bcd60e51b815260206004820152603460248201527f4161766553747261746567793a20776974686472617720616d6f756e74206d75604482015273073742062652067726561746572207468616e20360641b606482015260840161031c565b5f61039a6105d3565b9050828110156103f75760405162461bcd60e51b815260206004820152602260248201527f4161766553747261746567793a20696e73756666696369656e742062616c616e604482015261636560f01b606482015260840161031c565b6104366040518060400160405280601d81526020017f57697468647261776e20257320746f6b656e732066726f6d204161766500000081525084610c83565b604051336024820152604481018490525f906001600160a01b037f0000000000000000000000000000000000000000000000000000000000000000169060640160408051601f198184030181529181526020820180516001600160e01b031663a9059cbb60e01b179052516104ab9190610ee4565b5f604051808303815f865af19150503d805f81146104e4576040519150601f19603f3d011682016040523d82523d5f602084013e6104e9565b606091505b505090508061050a5760405162461bcd60e51b815260040161031c90610eff565b6105148485610ccc565b509192915050565b6001546201000090046001600160a01b0316331461054c5760405162461bcd60e51b815260040161031c90610e9a565b6001805461ff00191690556040517f1ff6abc1b134021c8527845dcdb865dc289bfdd957830d74683159bb968f4cd1905f90a1565b5f805f90506105c56040518060400160405280601e81526020017f48617276657374656420257320726577617264732066726f6d2041617665000081525082610c83565b6105ce81610d36565b919050565b6040513060248201525f90819081906001600160a01b037f0000000000000000000000000000000000000000000000000000000000000000169060440160408051601f198184030181529181526020820180516001600160e01b03166370a0823160e01b179052516106459190610ee4565b5f60405180830381855afa9150503d805f811461067d576040519150601f19603f3d011682016040523d82523d5f602084013e610682565b606091505b5091509150816106e55760405162461bcd60e51b815260206004820152602860248201527f4161766553747261746567793a20746f6b656e2062616c616e636520636865636044820152671ac819985a5b195960c21b606482015260840161031c565b808060200190518101906106f99190610f42565b9250505090565b6001546201000090046001600160a01b031633146107305760405162461bcd60e51b815260040161031c90610e9a565b6001805461ff0019166101001790556040517fe628b9497ee1f4e6fedddc2cb01459087e67c6fc93ea6946abcbdea7eb7684bf905f90a1565b6001545f906201000090046001600160a01b0316331461079b5760405162461bcd60e51b815260040161031c90610e9a565b60405162461bcd60e51b815260206004820152602960248201527f4261736553747261746567793a207769746864726177416c6c206e6f7420696d6044820152681c1b195b595b9d195960ba1b606482015260840161031c565b5f6107fe6105d3565b905090565b6001545f90610100900460ff161561085d5760405162461bcd60e51b815260206004820181905260248201527f4261736553747261746567793a20737472617465677920697320706175736564604482015260640161031c565b6001546201000090046001600160a01b0316331461088d5760405162461bcd60e51b815260040161031c90610e9a565b5f82116108f85760405162461bcd60e51b815260206004820152603360248201527f4161766553747261746567793a206465706f73697420616d6f756e74206d75736044820152720742062652067726561746572207468616e203606c1b606482015260840161031c565b604051336024820152306044820152606481018390525f906001600160a01b037f0000000000000000000000000000000000000000000000000000000000000000169060840160408051601f198184030181529181526020820180516001600160e01b03166323b872dd60e01b179052516109739190610ee4565b5f604051808303815f865af19150503d805f81146109ac576040519150601f19603f3d011682016040523d82523d5f602084013e6109b1565b606091505b50509050806109d25760405162461bcd60e51b815260040161031c90610eff565b6003546040516001600160a01b039182166024820152604481018590527f00000000000000000000000000000000000000000000000000000000000000009091169060640160408051601f198184030181529181526020820180516001600160e01b031663095ea7b360e01b17905251610a4c9190610ee4565b5f604051808303815f865af19150503d805f8114610a85576040519150601f19603f3d011682016040523d82523d5f602084013e610a8a565b606091505b50508091505080610ae95760405162461bcd60e51b815260206004820152602360248201527f4161766553747261746567793a20746f6b656e20617070726f76616c206661696044820152621b195960ea1b606482015260840161031c565b610b286040518060400160405280601b81526020017f4465706f736974656420257320746f6b656e7320746f2041617665000000000081525084610c83565b610b328384610d6c565b5090919050565b6001545f906201000090046001600160a01b03163314610b6b5760405162461bcd60e51b815260040161031c90610e9a565b5f610b746105d3565b905080156105ce57610b9e604051806060016040528060278152602001610fbb6027913982610c83565b6001546040516001600160a01b036201000090920482166024820152604481018390525f917f0000000000000000000000000000000000000000000000000000000000000000169060640160408051601f198184030181529181526020820180516001600160e01b031663a9059cbb60e01b17905251610c1e9190610ee4565b5f604051808303815f865af19150503d805f8114610c57576040519150601f19603f3d011682016040523d82523d5f602084013e610c5c565b606091505b5050905080610c7d5760405162461bcd60e51b815260040161031c90610eff565b50905090565b610cc88282604051602401610c99929190610f59565b60408051601f198184030181529190526020810180516001600160e01b0316632d839cb360e21b179052610dba565b5050565b600254811115610cdf575f600255610cf6565b8060025f828254610cf09190610f8e565b90915550505b604080518381526020810183905233917ff279e6a1f5e320cca91135676d9cb6e44ca8a08c0b88342bcdb1144f6511b56891015b60405180910390a25050565b6040518181527f80f97f878e16410266694f134ddf012f2be424f54f8b5cafa107eccc51d00d589060200160405180910390a150565b8160025f828254610d7d9190610fa7565b9091555050604080518381526020810183905233917f90890809c654f11d6e72a28fa60149770a0d11ec6c92319d6ceb2bb0a4ea1a159101610d2a565b610dc381610dc6565b50565b5f6a636f6e736f6c652e6c6f6790505f80835160208501845afa505050565b5f5b83811015610dff578181015183820152602001610de7565b50505f910152565b5f8151808452610e1e816020860160208601610de5565b601f01601f19169290920160200192915050565b602081525f610e446020830184610e07565b9392505050565b5f60208284031215610e5b575f80fd5b5035919050565b600181811c90821680610e7657607f821691505b602082108103610e9457634e487b7160e01b5f52602260045260245ffd5b50919050565b6020808252602a908201527f4261736553747261746567793a2063616c6c6572206973206e6f74207468652060408201526931b7b73a3937b63632b960b11b606082015260800190565b5f8251610ef5818460208701610de5565b9190910192915050565b60208082526023908201527f4161766553747261746567793a20746f6b656e207472616e73666572206661696040820152621b195960ea1b606082015260800190565b5f60208284031215610f52575f80fd5b5051919050565b604081525f610f6b6040830185610e07565b90508260208301529392505050565b634e487b7160e01b5f52601160045260245ffd5b81810381811115610fa157610fa1610f7a565b92915050565b80820180821115610fa157610fa1610f7a56fe456d657267656e63792077697468647261776e20257320746f6b656e732066726f6d2041617665a26469706673582212206afa4fa41fcb13f88629fc7827219ab1158888edf551d76803ab27e39d57af9764736f6c63430008140033","linkReferences":{}},"methodIdentifiers":{"aToken()":"a0c1f15e","balanceOf()":"722713f7","controller()":"f77c4791","deposit(uint256)":"b6b55f25","emergencyWithdraw()":"db2e21bc","getAPY()":"d2cbf7ad","getRiskScore()":"2b35f739","getTVL()":"97b3fcaa","getTotalDeposits()":"168a4822","harvest()":"4641257d","isPaused()":"b187bd26","lendingPool()":"a59a9973","name()":"06fdde03","pause()":"8456cb59","unpause()":"3f4ba83a","want()":"1f1fcd51","withdraw(uint256)":"2e1a7d4d","withdrawAll()":"853828b6"},"id":27}