{"abi":[{"type":"constructor","inputs":[{"name":"_token","type":"address","internalType":"contract IERC20"},{"name":"_initialOwner","type":"address","internalType":"address"}],"stateMutability":"nonpayable"},{"type":"function","name":"claimFee","inputs":[{"name":"to","type":"address","internalType":"address"},{"name":"amount","type":"uint256","internalType":"uint256"}],"outputs":[],"stateMutability":"nonpayable"},{"type":"function","name":"depositFee","inputs":[{"name":"amount","type":"uint256","internalType":"uint256"}],"outputs":[],"stateMutability":"nonpayable"},{"type":"function","name":"governanceAddresses","inputs":[{"name":"","type":"address","internalType":"address"}],"outputs":[{"name":"","type":"bool","internalType":"bool"}],"stateMutability":"view"},{"type":"function","name":"owner","inputs":[],"outputs":[{"name":"","type":"address","internalType":"address"}],"stateMutability":"view"},{"type":"function","name":"poolBalance","inputs":[],"outputs":[{"name":"","type":"uint256","internalType":"uint256"}],"stateMutability":"view"},{"type":"function","name":"renounceOwnership","inputs":[],"outputs":[],"stateMutability":"nonpayable"},{"type":"function","name":"setGovernanceAddress","inputs":[{"name":"_governance","type":"address","internalType":"address"},{"name":"_status","type":"bool","internalType":"bool"}],"outputs":[],"stateMutability":"nonpayable"},{"type":"function","name":"token","inputs":[],"outputs":[{"name":"","type":"address","internalType":"contract IERC20"}],"stateMutability":"view"},{"type":"function","name":"totalFees","inputs":[],"outputs":[{"name":"","type":"uint256","internalType":"uint256"}],"stateMutability":"view"},{"type":"function","name":"transferOwnership","inputs":[{"name":"newOwner","type":"address","internalType":"address"}],"outputs":[],"stateMutability":"nonpayable"},{"type":"event","name":"FeeClaimed","inputs":[{"name":"to","type":"address","indexed":true,"internalType":"address"},{"name":"amount","type":"uint256","indexed":false,"internalType":"uint256"}],"anonymous":false},{"type":"event","name":"FeeDeposited","inputs":[{"name":"amount","type":"uint256","indexed":false,"internalType":"uint256"}],"anonymous":false},{"type":"event","name":"OwnershipTransferred","inputs":[{"name":"previousOwner","type":"address","indexed":true,"internalType":"address"},{"name":"newOwner","type":"address","indexed":true,"internalType":"address"}],"anonymous":false},{"type":"error","name":"OwnableInvalidOwner","inputs":[{"name":"owner","type":"address","internalType":"address"}]},{"type":"error","name":"OwnableUnauthorizedAccount","inputs":[{"name":"account","type":"address","internalType":"address"}]}],"bytecode":{"object":"0x608060405234801561000f575f80fd5b506040516108e93803806108e983398101604081905261002e91610107565b806001600160a01b03811661005c57604051631e4fbdf760e01b81525f600482015260240160405180910390fd5b610065816100a1565b50600180546001600160a01b0319166001600160a01b0393841617815591165f908152600360205260409020805460ff1916909117905561013f565b5f80546001600160a01b038381166001600160a01b0319831681178455604051919092169283917f8be0079c531659141344cd1fd0a4f28419497f9722a3daafe3b4186f6b6457e09190a35050565b6001600160a01b0381168114610104575f80fd5b50565b5f8060408385031215610118575f80fd5b8251610123816100f0565b6020840151909250610134816100f0565b809150509250929050565b61079d8061014c5f395ff3fe608060405234801561000f575f80fd5b506004361061009b575f3560e01c80638da5cb5b116100635780638da5cb5b1461011d57806396365d4414610141578063dda4079714610149578063f2fde38b1461015c578063fc0c546a1461016f575f80fd5b806313114a9d1461009f578063423c485a146100bb5780635fda9f9c146100d05780636bbd049414610102578063715018a614610115575b5f80fd5b6100a860025481565b6040519081526020015b60405180910390f35b6100ce6100c9366004610654565b610182565b005b6100f26100de366004610686565b60036020525f908152604090205460ff1681565b60405190151581526020016100b2565b6100ce6101103660046106b3565b6102e0565b6100ce610312565b5f546001600160a01b03165b6040516001600160a01b0390911681526020016100b2565b6100a8610325565b6100ce6101573660046106e8565b610394565b6100ce61016a366004610686565b61059c565b600154610129906001600160a01b031681565b61018a6105d9565b5f81116101de5760405162461bcd60e51b815260206004820181905260248201527f416d6f756e74206d7573742062652067726561746572207468616e207a65726f60448201526064015b60405180910390fd5b6001546040516323b872dd60e01b8152336004820152306024820152604481018390526001600160a01b03909116906323b872dd906064016020604051808303815f875af1158015610232573d5f803e3d5ffd5b505050506040513d601f19601f820116820180604052508101906102569190610710565b6102945760405162461bcd60e51b815260206004820152600f60248201526e151c985b9cd9995c8819985a5b1959608a1b60448201526064016101d5565b8060025f8282546102a5919061072b565b90915550506040518181527f97c6598492bfccef3451e4c16311cefb660074f2f7d1db55b8769daa9d2e4e619060200160405180910390a150565b6102e86105d9565b6001600160a01b03919091165f908152600360205260409020805460ff1916911515919091179055565b61031a6105d9565b6103235f610605565b565b6001546040516370a0823160e01b81523060048201525f916001600160a01b0316906370a0823190602401602060405180830381865afa15801561036b573d5f803e3d5ffd5b505050506040513d601f19601f8201168201806040525081019061038f9190610750565b905090565b61039c6105d9565b5f81116103eb5760405162461bcd60e51b815260206004820181905260248201527f416d6f756e74206d7573742062652067726561746572207468616e207a65726f60448201526064016101d5565b6001546040516370a0823160e01b815230600482015282916001600160a01b0316906370a0823190602401602060405180830381865afa158015610431573d5f803e3d5ffd5b505050506040513d601f19601f820116820180604052508101906104559190610750565b10156104a35760405162461bcd60e51b815260206004820152601960248201527f496e73756666696369656e7420706f6f6c2062616c616e63650000000000000060448201526064016101d5565b60015460405163a9059cbb60e01b81526001600160a01b038481166004830152602482018490529091169063a9059cbb906044016020604051808303815f875af11580156104f3573d5f803e3d5ffd5b505050506040513d601f19601f820116820180604052508101906105179190610710565b6105555760405162461bcd60e51b815260206004820152600f60248201526e151c985b9cd9995c8819985a5b1959608a1b60448201526064016101d5565b816001600160a01b03167f20ca5094f3a20c321cbe4123d0f01b276b81df0fa24cd4d83d9253956035d8638260405161059091815260200190565b60405180910390a25050565b6105a46105d9565b6001600160a01b0381166105cd57604051631e4fbdf760e01b81525f60048201526024016101d5565b6105d681610605565b50565b5f546001600160a01b031633146103235760405163118cdaa760e01b81523360048201526024016101d5565b5f80546001600160a01b038381166001600160a01b0319831681178455604051919092169283917f8be0079c531659141344cd1fd0a4f28419497f9722a3daafe3b4186f6b6457e09190a35050565b5f60208284031215610664575f80fd5b5035919050565b80356001600160a01b0381168114610681575f80fd5b919050565b5f60208284031215610696575f80fd5b61069f8261066b565b9392505050565b80151581146105d6575f80fd5b5f80604083850312156106c4575f80fd5b6106cd8361066b565b915060208301356106dd816106a6565b809150509250929050565b5f80604083850312156106f9575f80fd5b6107028361066b565b946020939093013593505050565b5f60208284031215610720575f80fd5b815161069f816106a6565b8082018082111561074a57634e487b7160e01b5f52601160045260245ffd5b92915050565b5f60208284031215610760575f80fd5b505191905056fea2646970667358221220bce8fdcff6bb3348abe8b25548a6f5d816e43199e21282d2f2666fb6dd9c908564736f6c63430008140033","linkReferences":{}},"methodIdentifiers":{"claimFee(address,uint256)":"dda40797","depositFee(uint256)":"423c485a","governanceAddresses(address)":"5fda9f9c","owner()":"8da5cb5b","poolBalance()":"96365d44","renounceOwnership()":"715018a6","setGovernanceAddress(address,bool)":"6bbd0494","token()":"fc0c546a","totalFees()":"13114a9d","transferOwnership(address)":"f2fde38b"},"id":6}