{"abi":[{"type":"constructor","inputs":[{"name":"_token","type":"address","internalType":"address"},{"name":"_controller","type":"address","internalType":"address"},{"name":"_feeRecipient","type":"address","internalType":"address"}],"stateMutability":"nonpayable"},{"type":"function","name":"balanceOf","inputs":[{"name":"","type":"address","internalType":"address"}],"outputs":[{"name":"","type":"uint256","internalType":"uint256"}],"stateMutability":"view"},{"type":"function","name":"controller","inputs":[],"outputs":[{"name":"","type":"address","internalType":"address"}],"stateMutability":"view"},{"type":"function","name":"deposit","inputs":[{"name":"_amount","type":"uint256","internalType":"uint256"}],"outputs":[{"name":"shares","type":"uint256","internalType":"uint256"}],"stateMutability":"nonpayable"},{"type":"function","name":"feeRecipient","inputs":[],"outputs":[{"name":"","type":"address","internalType":"address"}],"stateMutability":"view"},{"type":"function","name":"getPricePerShare","inputs":[],"outputs":[{"name":"","type":"uint256","internalType":"uint256"}],"stateMutability":"view"},{"type":"function","name":"performanceFee","inputs":[],"outputs":[{"name":"","type":"uint256","internalType":"uint256"}],"stateMutability":"view"},{"type":"function","name":"setController","inputs":[{"name":"_newController","type":"address","internalType":"address"}],"outputs":[],"stateMutability":"nonpayable"},{"type":"function","name":"setControllerForTesting","inputs":[{"name":"_newController","type":"address","internalType":"address"}],"outputs":[],"stateMutability":"nonpayable"},{"type":"function","name":"setFeeRecipient","inputs":[{"name":"_newRecipient","type":"address","internalType":"address"}],"outputs":[],"stateMutability":"nonpayable"},{"type":"function","name":"setPerformanceFee","inputs":[{"name":"_newFee","type":"uint256","internalType":"uint256"}],"outputs":[],"stateMutability":"nonpayable"},{"type":"function","name":"setWithdrawalFee","inputs":[{"name":"_newFee","type":"uint256","internalType":"uint256"}],"outputs":[],"stateMutability":"nonpayable"},{"type":"function","name":"token","inputs":[],"outputs":[{"name":"","type":"address","internalType":"address"}],"stateMutability":"view"},{"type":"function","name":"totalSupply","inputs":[],"outputs":[{"name":"","type":"uint256","internalType":"uint256"}],"stateMutability":"view"},{"type":"function","name":"withdraw","inputs":[{"name":"_shares","type":"uint256","internalType":"uint256"}],"outputs":[{"name":"amount","type":"uint256","internalType":"uint256"}],"stateMutability":"nonpayable"},{"type":"function","name":"withdrawalFee","inputs":[],"outputs":[{"name":"","type":"uint256","internalType":"uint256"}],"stateMutability":"view"},{"type":"event","name":"ControllerUpdated","inputs":[{"name":"newController","type":"address","indexed":false,"internalType":"address"}],"anonymous":false},{"type":"event","name":"Deposit","inputs":[{"name":"user","type":"address","indexed":true,"internalType":"address"},{"name":"amount","type":"uint256","indexed":false,"internalType":"uint256"},{"name":"shares","type":"uint256","indexed":false,"internalType":"uint256"}],"anonymous":false},{"type":"event","name":"FeeRecipientUpdated","inputs":[{"name":"newRecipient","type":"address","indexed":false,"internalType":"address"}],"anonymous":false},{"type":"event","name":"PerformanceFeeUpdated","inputs":[{"name":"newFee","type":"uint256","indexed":false,"internalType":"uint256"}],"anonymous":false},{"type":"event","name":"Withdraw","inputs":[{"name":"user","type":"address","indexed":true,"internalType":"address"},{"name":"shares","type":"uint256","indexed":false,"internalType":"uint256"},{"name":"amount","type":"uint256","indexed":false,"internalType":"uint256"}],"anonymous":false},{"type":"event","name":"WithdrawalFeeUpdated","inputs":[{"name":"newFee","type":"uint256","indexed":false,"internalType":"uint256"}],"anonymous":false}],"bytecode":{"object":"0x60a06040526103e8600355600a6004553480156200001b575f80fd5b5060405162001432380380620014328339810160408190526200003e91620001ba565b6001600160a01b0383166200009a5760405162461bcd60e51b815260206004820181905260248201527f5661756c743a20746f6b656e20616464726573732063616e6e6f74206265203060448201526064015b60405180910390fd5b6001600160a01b038216620001005760405162461bcd60e51b815260206004820152602560248201527f5661756c743a20636f6e74726f6c6c657220616464726573732063616e6e6f74604482015264020626520360dc1b606482015260840162000091565b6001600160a01b038116620001685760405162461bcd60e51b815260206004820152602760248201527f5661756c743a20666565526563697069656e7420616464726573732063616e6e60448201526606f7420626520360cc1b606482015260840162000091565b6001600160a01b039283166080525f80549284166001600160a01b03199384161790556005805491909316911617905562000201565b80516001600160a01b0381168114620001b5575f80fd5b919050565b5f805f60608486031215620001cd575f80fd5b620001d8846200019e565b9250620001e8602085016200019e565b9150620001f8604085016200019e565b90509250925092565b6080516111f56200023d5f395f81816102120152818161048c0152818161059b015281816109f601528181610b680152610e6d01526111f55ff3fe608060405234801561000f575f80fd5b50600436106100f0575f3560e01c80638778878211610093578063b6b55f2511610063578063b6b55f25146101d5578063e74b981b146101e8578063f77c4791146101fb578063fc0c546a1461020d575f80fd5b8063877887821461019d5780638bc7e8c4146101a657806392eefe9b146101af578063ac1e5025146101c2575f80fd5b80633d68175c116100ce5780633d68175c14610138578063469048401461014057806370897b231461016b57806370a082311461017e575f80fd5b806318160ddd146100f45780632e1a7d4d146101105780633c6e543714610123575b5f80fd5b6100fd60015481565b6040519081526020015b60405180910390f35b6100fd61011e36600461107f565b610234565b610136610131366004611096565b6106cb565b005b6100fd610783565b600554610153906001600160a01b031681565b6040516001600160a01b039091168152602001610107565b61013661017936600461107f565b6107c6565b6100fd61018c366004611096565b60026020525f908152604090205481565b6100fd60035481565b6100fd60045481565b6101366101bd366004611096565b610887565b6101366101d036600461107f565b6108b0565b6100fd6101e336600461107f565b61096f565b6101366101f6366004611096565b610d76565b5f54610153906001600160a01b031681565b6101537f000000000000000000000000000000000000000000000000000000000000000081565b5f80821161029f5760405162461bcd60e51b815260206004820152602d60248201527f5661756c743a20776974686472617720736861726573206d757374206265206760448201526c0726561746572207468616e203609c1b60648201526084015b60405180910390fd5b335f908152600260205260409020548211156102fd5760405162461bcd60e51b815260206004820152601a60248201527f5661756c743a20696e73756666696369656e74207368617265730000000000006044820152606401610296565b5f610306610e54565b60015490915061031682856110d7565b61032091906110f4565b91505f6127106004548461033491906110d7565b61033e91906110f4565b90505f61034b8285611113565b90508460015f82825461035e9190611113565b9091555050335f9081526002602052604081208054879290610381908490611113565b90915550505f8054604051602481018790526001600160a01b039091169060440160408051601f198184030181529181526020820180516001600160e01b0316635fed067960e01b179052516103d79190611126565b5f604051808303815f865af19150503d805f8114610410576040519150601f19603f3d011682016040523d82523d5f602084013e610415565b606091505b50509050806104725760405162461bcd60e51b815260206004820152602360248201527f5661756c743a20636f6e74726f6c6c6572207769746864726177616c206661696044820152621b195960ea1b6064820152608401610296565b604051336024820152604481018390526001600160a01b037f0000000000000000000000000000000000000000000000000000000000000000169060640160408051601f198184030181529181526020820180516001600160e01b031663a9059cbb60e01b179052516104e59190611126565b5f604051808303815f865af19150503d805f811461051e576040519150601f19603f3d011682016040523d82523d5f602084013e610523565b606091505b505080915050806105765760405162461bcd60e51b815260206004820152601c60248201527f5661756c743a20746f6b656e207472616e73666572206661696c6564000000006044820152606401610296565b8215610687576005546040516001600160a01b039182166024820152604481018590527f00000000000000000000000000000000000000000000000000000000000000009091169060640160408051601f198184030181529181526020820180516001600160e01b031663a9059cbb60e01b179052516105f69190611126565b5f604051808303815f865af19150503d805f811461062f576040519150601f19603f3d011682016040523d82523d5f602084013e610634565b606091505b505080915050806106875760405162461bcd60e51b815260206004820152601a60248201527f5661756c743a20666565207472616e73666572206661696c65640000000000006044820152606401610296565b604080518781526020810184905233917ff279e6a1f5e320cca91135676d9cb6e44ca8a08c0b88342bcdb1144f6511b568910160405180910390a250949350505050565b6001600160a01b03811661072f5760405162461bcd60e51b815260206004820152602560248201527f5661756c743a20636f6e74726f6c6c65722063616e6e6f742062652030206164604482015264647265737360d81b6064820152608401610296565b5f80546001600160a01b0319166001600160a01b0383169081179091556040519081527f1304018cfe79741dcf02ba6b61d39cc4757d59395d03224d9925c7aa83002146906020015b60405180910390a150565b5f6001545f0361079a5750670de0b6b3a764000090565b6001546107a5610e54565b6107b790670de0b6b3a76400006110d7565b6107c191906110f4565b905090565b5f546001600160a01b031633146107ef5760405162461bcd60e51b815260040161029690611152565b610bb88111156108525760405162461bcd60e51b815260206004820152602860248201527f5661756c743a20706572666f726d616e6365206665652063616e6e6f74206578604482015267636565642033302560c01b6064820152608401610296565b60038190556040518181527f9b49d0cd76012d9c67241c2f68f836efbaf50ea29901a250040671402d5263f590602001610778565b5f546001600160a01b031633146106cb5760405162461bcd60e51b815260040161029690611152565b5f546001600160a01b031633146108d95760405162461bcd60e51b815260040161029690611152565b6101f481111561093a5760405162461bcd60e51b815260206004820152602660248201527f5661756c743a207769746864726177616c206665652063616e6e6f742065786360448201526565656420352560d01b6064820152608401610296565b60048190556040518181527fe94edcc114da5287ecb30ee8aacf12e6c16b11b8583d7f9e477ab1616e33d53d90602001610778565b5f8082116109d45760405162461bcd60e51b815260206004820152602c60248201527f5661756c743a206465706f73697420616d6f756e74206d75737420626520677260448201526b06561746572207468616e20360a41b6064820152608401610296565b604051336024820152306044820152606481018390525f906001600160a01b037f0000000000000000000000000000000000000000000000000000000000000000169060840160408051601f198184030181529181526020820180516001600160e01b03166323b872dd60e01b17905251610a4f9190611126565b5f604051808303815f865af19150503d805f8114610a88576040519150601f19603f3d011682016040523d82523d5f602084013e610a8d565b606091505b5050905080610ade5760405162461bcd60e51b815260206004820152601c60248201527f5661756c743a20746f6b656e207472616e73666572206661696c6564000000006044820152606401610296565b6001545f03610aef57829150610b11565b610af7610e54565b600154610b0490856110d7565b610b0e91906110f4565b91505b8160015f828254610b229190611195565b9091555050335f9081526002602052604081208054849290610b45908490611195565b90915550505f546040516001600160a01b039182166024820152604481018590527f00000000000000000000000000000000000000000000000000000000000000009091169060640160408051601f198184030181529181526020820180516001600160e01b031663095ea7b360e01b17905251610bc39190611126565b5f604051808303815f865af19150503d805f8114610bfc576040519150601f19603f3d011682016040523d82523d5f602084013e610c01565b606091505b50508091505080610c545760405162461bcd60e51b815260206004820152601c60248201527f5661756c743a20746f6b656e20617070726f76616c206661696c6564000000006044820152606401610296565b5f54604051602481018590526001600160a01b039091169060440160408051601f198184030181529181526020820180516001600160e01b031663230a5c4b60e11b17905251610ca49190611126565b5f604051808303815f865af19150503d805f8114610cdd576040519150601f19603f3d011682016040523d82523d5f602084013e610ce2565b606091505b50508091505080610d355760405162461bcd60e51b815260206004820181905260248201527f5661756c743a20636f6e74726f6c6c6572206465706f736974206661696c65646044820152606401610296565b604080518481526020810184905233917f90890809c654f11d6e72a28fa60149770a0d11ec6c92319d6ceb2bb0a4ea1a15910160405180910390a250919050565b5f546001600160a01b03163314610d9f5760405162461bcd60e51b815260040161029690611152565b6001600160a01b038116610e065760405162461bcd60e51b815260206004820152602860248201527f5661756c743a2066656520726563697069656e742063616e6e6f742062652030604482015267206164647265737360c01b6064820152608401610296565b600580546001600160a01b0319166001600160a01b0383169081179091556040519081527f7a7b5a0a132f9e0581eb8527f66eae9ee89c2a3e79d4ac7e41a1f1f4d48a7fc290602001610778565b6040513060248201525f90819081906001600160a01b037f0000000000000000000000000000000000000000000000000000000000000000169060440160408051601f198184030181529181526020820180516001600160e01b03166370a0823160e01b17905251610ec69190611126565b5f60405180830381855afa9150503d805f8114610efe576040519150601f19603f3d011682016040523d82523d5f602084013e610f03565b606091505b509150915081610f5f5760405162461bcd60e51b815260206004820152602160248201527f5661756c743a20746f6b656e2062616c616e636520636865636b206661696c656044820152601960fa1b6064820152608401610296565b5f81806020019051810190610f7491906111a8565b5f5460408051600481526024810182526020810180516001600160e01b031663b90f3f3b60e01b17905290519293506001600160a01b0390911691610fb99190611126565b5f60405180830381855afa9150503d805f8114610ff1576040519150601f19603f3d011682016040523d82523d5f602084013e610ff6565b606091505b509093509150826110555760405162461bcd60e51b8152602060048201526024808201527f5661756c743a2073747261746567792062616c616e636520636865636b2066616044820152631a5b195960e21b6064820152608401610296565b5f8280602001905181019061106a91906111a8565b90506110768183611195565b94505050505090565b5f6020828403121561108f575f80fd5b5035919050565b5f602082840312156110a6575f80fd5b81356001600160a01b03811681146110bc575f80fd5b9392505050565b634e487b7160e01b5f52601160045260245ffd5b80820281158282048414176110ee576110ee6110c3565b92915050565b5f8261110e57634e487b7160e01b5f52601260045260245ffd5b500490565b818103818111156110ee576110ee6110c3565b5f82515f5b81811015611145576020818601810151858301520161112b565b505f920191825250919050565b60208082526023908201527f5661756c743a2063616c6c6572206973206e6f742074686520636f6e74726f6c6040820152623632b960e91b606082015260800190565b808201808211156110ee576110ee6110c3565b5f602082840312156111b8575f80fd5b505191905056fea26469706673582212208f25de933981acf4490ff882020b6f57f24d31dc4c0ff4e946f79da96d1ab32264736f6c63430008140033","linkReferences":{}},"methodIdentifiers":{"balanceOf(address)":"70a08231","controller()":"f77c4791","deposit(uint256)":"b6b55f25","feeRecipient()":"46904840","getPricePerShare()":"3d68175c","performanceFee()":"87788782","setController(address)":"92eefe9b","setControllerForTesting(address)":"3c6e5437","setFeeRecipient(address)":"e74b981b","setPerformanceFee(uint256)":"70897b23","setWithdrawalFee(uint256)":"ac1e5025","token()":"fc0c546a","totalSupply()":"18160ddd","withdraw(uint256)":"2e1a7d4d","withdrawalFee()":"8bc7e8c4"},"id":22}