{"abi":[{"type":"function","name":"API_VERSION","inputs":[],"outputs":[{"name":"","type":"string","internalType":"string"}],"stateMutability":"view"},{"type":"function","name":"DEGRADATION_COEFFICIENT","inputs":[],"outputs":[{"name":"","type":"uint256","internalType":"uint256"}],"stateMutability":"view"},{"type":"function","name":"DOMAIN_SEPARATOR","inputs":[],"outputs":[{"name":"","type":"bytes32","internalType":"bytes32"}],"stateMutability":"view"},{"type":"function","name":"DOMAIN_TYPE_HASH","inputs":[],"outputs":[{"name":"","type":"bytes32","internalType":"bytes32"}],"stateMutability":"view"},{"type":"function","name":"MAXIMUM_STRATEGIES","inputs":[],"outputs":[{"name":"","type":"uint256","internalType":"uint256"}],"stateMutability":"view"},{"type":"function","name":"MAX_BPS","inputs":[],"outputs":[{"name":"","type":"uint256","internalType":"uint256"}],"stateMutability":"view"},{"type":"function","name":"PERMIT_TYPE_HASH","inputs":[],"outputs":[{"name":"","type":"bytes32","internalType":"bytes32"}],"stateMutability":"view"},{"type":"function","name":"SECS_PER_YEAR","inputs":[],"outputs":[{"name":"","type":"uint256","internalType":"uint256"}],"stateMutability":"view"},{"type":"function","name":"_shareValuePublic_","inputs":[{"name":"shares","type":"uint256","internalType":"uint256"}],"outputs":[{"name":"","type":"uint256","internalType":"uint256"}],"stateMutability":"view"},{"type":"function","name":"_sharesForAmountPublic_","inputs":[{"name":"amount","type":"uint256","internalType":"uint256"}],"outputs":[{"name":"","type":"uint256","internalType":"uint256"}],"stateMutability":"view"},{"type":"function","name":"acceptGovernance","inputs":[],"outputs":[],"stateMutability":"nonpayable"},{"type":"function","name":"activation","inputs":[],"outputs":[{"name":"","type":"uint256","internalType":"uint256"}],"stateMutability":"view"},{"type":"function","name":"addStrategy","inputs":[{"name":"strategy","type":"address","internalType":"address"},{"name":"_debtRatio","type":"uint256","internalType":"uint256"},{"name":"minDebtPerHarvest","type":"uint256","internalType":"uint256"},{"name":"maxDebtPerHarvest","type":"uint256","internalType":"uint256"},{"name":"_performanceFee","type":"uint256","internalType":"uint256"}],"outputs":[],"stateMutability":"nonpayable"},{"type":"function","name":"addStrategyToQueue","inputs":[{"name":"strategy","type":"address","internalType":"address"}],"outputs":[],"stateMutability":"nonpayable"},{"type":"function","name":"allowance","inputs":[{"name":"","type":"address","internalType":"address"},{"name":"","type":"address","internalType":"address"}],"outputs":[{"name":"","type":"uint256","internalType":"uint256"}],"stateMutability":"view"},{"type":"function","name":"apiVersion","inputs":[],"outputs":[{"name":"","type":"string","internalType":"string"}],"stateMutability":"pure"},{"type":"function","name":"approve","inputs":[{"name":"spender","type":"address","internalType":"address"},{"name":"amount","type":"uint256","internalType":"uint256"}],"outputs":[{"name":"","type":"bool","internalType":"bool"}],"stateMutability":"nonpayable"},{"type":"function","name":"availableDepositLimit","inputs":[],"outputs":[{"name":"","type":"uint256","internalType":"uint256"}],"stateMutability":"view"},{"type":"function","name":"balanceOf","inputs":[{"name":"","type":"address","internalType":"address"}],"outputs":[{"name":"","type":"uint256","internalType":"uint256"}],"stateMutability":"view"},{"type":"function","name":"creditAvailable","inputs":[{"name":"strategy","type":"address","internalType":"address"}],"outputs":[{"name":"","type":"uint256","internalType":"uint256"}],"stateMutability":"view"},{"type":"function","name":"debtOutstanding","inputs":[{"name":"strategy","type":"address","internalType":"address"}],"outputs":[{"name":"","type":"uint256","internalType":"uint256"}],"stateMutability":"view"},{"type":"function","name":"debtRatio","inputs":[],"outputs":[{"name":"","type":"uint256","internalType":"uint256"}],"stateMutability":"view"},{"type":"function","name":"decimals","inputs":[],"outputs":[{"name":"","type":"uint256","internalType":"uint256"}],"stateMutability":"view"},{"type":"function","name":"decreaseAllowance","inputs":[{"name":"spender","type":"address","internalType":"address"},{"name":"amount","type":"uint256","internalType":"uint256"}],"outputs":[{"name":"","type":"bool","internalType":"bool"}],"stateMutability":"nonpayable"},{"type":"function","name":"deposit","inputs":[{"name":"_amount","type":"uint256","internalType":"uint256"},{"name":"recipient","type":"address","internalType":"address"}],"outputs":[{"name":"","type":"uint256","internalType":"uint256"}],"stateMutability":"nonpayable"},{"type":"function","name":"depositLimit","inputs":[],"outputs":[{"name":"","type":"uint256","internalType":"uint256"}],"stateMutability":"view"},{"type":"function","name":"emergencyShutdown","inputs":[],"outputs":[{"name":"","type":"bool","internalType":"bool"}],"stateMutability":"view"},{"type":"function","name":"expectedReturn","inputs":[{"name":"strategy","type":"address","internalType":"address"}],"outputs":[{"name":"","type":"uint256","internalType":"uint256"}],"stateMutability":"view"},{"type":"function","name":"governance","inputs":[],"outputs":[{"name":"","type":"address","internalType":"address"}],"stateMutability":"view"},{"type":"function","name":"guardian","inputs":[],"outputs":[{"name":"","type":"address","internalType":"address"}],"stateMutability":"view"},{"type":"function","name":"increaseAllowance","inputs":[{"name":"spender","type":"address","internalType":"address"},{"name":"amount","type":"uint256","internalType":"uint256"}],"outputs":[{"name":"","type":"bool","internalType":"bool"}],"stateMutability":"nonpayable"},{"type":"function","name":"initialize","inputs":[{"name":"_token","type":"address","internalType":"address"},{"name":"_governance","type":"address","internalType":"address"},{"name":"_rewards","type":"address","internalType":"address"},{"name":"nameOverride","type":"string","internalType":"string"},{"name":"symbolOverride","type":"string","internalType":"string"},{"name":"_guardian","type":"address","internalType":"address"},{"name":"_management","type":"address","internalType":"address"}],"outputs":[],"stateMutability":"nonpayable"},{"type":"function","name":"lastReport","inputs":[],"outputs":[{"name":"","type":"uint256","internalType":"uint256"}],"stateMutability":"view"},{"type":"function","name":"lockedProfit","inputs":[],"outputs":[{"name":"","type":"uint256","internalType":"uint256"}],"stateMutability":"view"},{"type":"function","name":"lockedProfitDegradation","inputs":[],"outputs":[{"name":"","type":"uint256","internalType":"uint256"}],"stateMutability":"view"},{"type":"function","name":"management","inputs":[],"outputs":[{"name":"","type":"address","internalType":"address"}],"stateMutability":"view"},{"type":"function","name":"managementFee","inputs":[],"outputs":[{"name":"","type":"uint256","internalType":"uint256"}],"stateMutability":"view"},{"type":"function","name":"maxAvailableShares","inputs":[],"outputs":[{"name":"","type":"uint256","internalType":"uint256"}],"stateMutability":"view"},{"type":"function","name":"migrateStrategy","inputs":[{"name":"oldVersion","type":"address","internalType":"address"},{"name":"newVersion","type":"address","internalType":"address"}],"outputs":[],"stateMutability":"nonpayable"},{"type":"function","name":"name","inputs":[],"outputs":[{"name":"","type":"string","internalType":"string"}],"stateMutability":"view"},{"type":"function","name":"nonces","inputs":[{"name":"","type":"address","internalType":"address"}],"outputs":[{"name":"","type":"uint256","internalType":"uint256"}],"stateMutability":"view"},{"type":"function","name":"pendingGovernance","inputs":[],"outputs":[{"name":"","type":"address","internalType":"address"}],"stateMutability":"view"},{"type":"function","name":"performanceFee","inputs":[],"outputs":[{"name":"","type":"uint256","internalType":"uint256"}],"stateMutability":"view"},{"type":"function","name":"permit","inputs":[{"name":"owner","type":"address","internalType":"address"},{"name":"spender","type":"address","internalType":"address"},{"name":"value","type":"uint256","internalType":"uint256"},{"name":"deadline","type":"uint256","internalType":"uint256"},{"name":"signature","type":"bytes","internalType":"bytes"}],"outputs":[{"name":"","type":"bool","internalType":"bool"}],"stateMutability":"nonpayable"},{"type":"function","name":"pricePerShare","inputs":[],"outputs":[{"name":"","type":"uint256","internalType":"uint256"}],"stateMutability":"view"},{"type":"function","name":"removeStrategyFromQueue","inputs":[{"name":"strategy","type":"address","internalType":"address"}],"outputs":[],"stateMutability":"nonpayable"},{"type":"function","name":"report","inputs":[{"name":"gain","type":"uint256","internalType":"uint256"},{"name":"loss","type":"uint256","internalType":"uint256"},{"name":"_debtPayment","type":"uint256","internalType":"uint256"}],"outputs":[{"name":"","type":"uint256","internalType":"uint256"}],"stateMutability":"nonpayable"},{"type":"function","name":"revokeStrategy","inputs":[{"name":"strategy","type":"address","internalType":"address"}],"outputs":[],"stateMutability":"nonpayable"},{"type":"function","name":"rewards","inputs":[],"outputs":[{"name":"","type":"address","internalType":"address"}],"stateMutability":"view"},{"type":"function","name":"setDepositLimit","inputs":[{"name":"limit","type":"uint256","internalType":"uint256"}],"outputs":[],"stateMutability":"nonpayable"},{"type":"function","name":"setEmergencyShutdown","inputs":[{"name":"active","type":"bool","internalType":"bool"}],"outputs":[],"stateMutability":"nonpayable"},{"type":"function","name":"setGovernance","inputs":[{"name":"_gov","type":"address","internalType":"address"}],"outputs":[],"stateMutability":"nonpayable"},{"type":"function","name":"setGuardian","inputs":[{"name":"_guardian","type":"address","internalType":"address"}],"outputs":[],"stateMutability":"nonpayable"},{"type":"function","name":"setLockedProfitDegradation","inputs":[{"name":"degradation","type":"uint256","internalType":"uint256"}],"outputs":[],"stateMutability":"nonpayable"},{"type":"function","name":"setManagement","inputs":[{"name":"_mgmt","type":"address","internalType":"address"}],"outputs":[],"stateMutability":"nonpayable"},{"type":"function","name":"setManagementFee","inputs":[{"name":"fee","type":"uint256","internalType":"uint256"}],"outputs":[],"stateMutability":"nonpayable"},{"type":"function","name":"setName","inputs":[{"name":"_name","type":"string","internalType":"string"}],"outputs":[],"stateMutability":"nonpayable"},{"type":"function","name":"setPerformanceFee","inputs":[{"name":"fee","type":"uint256","internalType":"uint256"}],"outputs":[],"stateMutability":"nonpayable"},{"type":"function","name":"setRewards","inputs":[{"name":"_rewards","type":"address","internalType":"address"}],"outputs":[],"stateMutability":"nonpayable"},{"type":"function","name":"setSymbol","inputs":[{"name":"_symbol","type":"string","internalType":"string"}],"outputs":[],"stateMutability":"nonpayable"},{"type":"function","name":"setWithdrawalQueue","inputs":[{"name":"queue","type":"address[20]","internalType":"address[20]"}],"outputs":[],"stateMutability":"nonpayable"},{"type":"function","name":"strategies","inputs":[{"name":"","type":"address","internalType":"address"}],"outputs":[{"name":"performanceFee","type":"uint256","internalType":"uint256"},{"name":"activation","type":"uint256","internalType":"uint256"},{"name":"debtRatio","type":"uint256","internalType":"uint256"},{"name":"minDebtPerHarvest","type":"uint256","internalType":"uint256"},{"name":"maxDebtPerHarvest","type":"uint256","internalType":"uint256"},{"name":"lastReport","type":"uint256","internalType":"uint256"},{"name":"totalDebt","type":"uint256","internalType":"uint256"},{"name":"totalGain","type":"uint256","internalType":"uint256"},{"name":"totalLoss","type":"uint256","internalType":"uint256"}],"stateMutability":"view"},{"type":"function","name":"sweep","inputs":[{"name":"_token","type":"address","internalType":"address"},{"name":"amount","type":"uint256","internalType":"uint256"}],"outputs":[],"stateMutability":"nonpayable"},{"type":"function","name":"symbol","inputs":[],"outputs":[{"name":"","type":"string","internalType":"string"}],"stateMutability":"view"},{"type":"function","name":"token","inputs":[],"outputs":[{"name":"","type":"address","internalType":"contract IERC20"}],"stateMutability":"view"},{"type":"function","name":"totalAssets","inputs":[],"outputs":[{"name":"","type":"uint256","internalType":"uint256"}],"stateMutability":"view"},{"type":"function","name":"totalDebt","inputs":[],"outputs":[{"name":"","type":"uint256","internalType":"uint256"}],"stateMutability":"view"},{"type":"function","name":"totalIdle","inputs":[],"outputs":[{"name":"","type":"uint256","internalType":"uint256"}],"stateMutability":"view"},{"type":"function","name":"totalSupply","inputs":[],"outputs":[{"name":"","type":"uint256","internalType":"uint256"}],"stateMutability":"view"},{"type":"function","name":"transfer","inputs":[{"name":"to","type":"address","internalType":"address"},{"name":"amount","type":"uint256","internalType":"uint256"}],"outputs":[{"name":"","type":"bool","internalType":"bool"}],"stateMutability":"nonpayable"},{"type":"function","name":"transferFrom","inputs":[{"name":"from","type":"address","internalType":"address"},{"name":"to","type":"address","internalType":"address"},{"name":"amount","type":"uint256","internalType":"uint256"}],"outputs":[{"name":"","type":"bool","internalType":"bool"}],"stateMutability":"nonpayable"},{"type":"function","name":"updateStrategyDebtRatio","inputs":[{"name":"strategy","type":"address","internalType":"address"},{"name":"_debtRatio","type":"uint256","internalType":"uint256"}],"outputs":[],"stateMutability":"nonpayable"},{"type":"function","name":"updateStrategyMaxDebtPerHarvest","inputs":[{"name":"strategy","type":"address","internalType":"address"},{"name":"m","type":"uint256","internalType":"uint256"}],"outputs":[],"stateMutability":"nonpayable"},{"type":"function","name":"updateStrategyMinDebtPerHarvest","inputs":[{"name":"strategy","type":"address","internalType":"address"},{"name":"m","type":"uint256","internalType":"uint256"}],"outputs":[],"stateMutability":"nonpayable"},{"type":"function","name":"updateStrategyPerformanceFee","inputs":[{"name":"strategy","type":"address","internalType":"address"},{"name":"pf","type":"uint256","internalType":"uint256"}],"outputs":[],"stateMutability":"nonpayable"},{"type":"function","name":"withdraw","inputs":[{"name":"maxShares","type":"uint256","internalType":"uint256"},{"name":"recipient","type":"address","internalType":"address"},{"name":"maxLoss","type":"uint256","internalType":"uint256"}],"outputs":[{"name":"","type":"uint256","internalType":"uint256"}],"stateMutability":"nonpayable"},{"type":"function","name":"withdrawalQueue","inputs":[{"name":"","type":"uint256","internalType":"uint256"}],"outputs":[{"name":"","type":"address","internalType":"address"}],"stateMutability":"view"},{"type":"event","name":"Approval","inputs":[{"name":"owner","type":"address","indexed":true,"internalType":"address"},{"name":"spender","type":"address","indexed":true,"internalType":"address"},{"name":"value","type":"uint256","indexed":false,"internalType":"uint256"}],"anonymous":false},{"type":"event","name":"Deposit","inputs":[{"name":"recipient","type":"address","indexed":true,"internalType":"address"},{"name":"shares","type":"uint256","indexed":false,"internalType":"uint256"},{"name":"amount","type":"uint256","indexed":false,"internalType":"uint256"}],"anonymous":false},{"type":"event","name":"EmergencyShutdown","inputs":[{"name":"active","type":"bool","indexed":false,"internalType":"bool"}],"anonymous":false},{"type":"event","name":"FeeReport","inputs":[{"name":"management_fee","type":"uint256","indexed":false,"internalType":"uint256"},{"name":"performance_fee","type":"uint256","indexed":false,"internalType":"uint256"},{"name":"strategist_fee","type":"uint256","indexed":false,"internalType":"uint256"},{"name":"duration","type":"uint256","indexed":false,"internalType":"uint256"}],"anonymous":false},{"type":"event","name":"LockedProfitDegradationUpdated","inputs":[{"name":"value","type":"uint256","indexed":false,"internalType":"uint256"}],"anonymous":false},{"type":"event","name":"NewPendingGovernance","inputs":[{"name":"pendingGovernance","type":"address","indexed":true,"internalType":"address"}],"anonymous":false},{"type":"event","name":"StrategyAdded","inputs":[{"name":"strategy","type":"address","indexed":true,"internalType":"address"},{"name":"debtRatio","type":"uint256","indexed":false,"internalType":"uint256"},{"name":"minDebtPerHarvest","type":"uint256","indexed":false,"internalType":"uint256"},{"name":"maxDebtPerHarvest","type":"uint256","indexed":false,"internalType":"uint256"},{"name":"performanceFee","type":"uint256","indexed":false,"internalType":"uint256"}],"anonymous":false},{"type":"event","name":"StrategyAddedToQueue","inputs":[{"name":"strategy","type":"address","indexed":true,"internalType":"address"}],"anonymous":false},{"type":"event","name":"StrategyMigrated","inputs":[{"name":"oldVersion","type":"address","indexed":true,"internalType":"address"},{"name":"newVersion","type":"address","indexed":true,"internalType":"address"}],"anonymous":false},{"type":"event","name":"StrategyRemovedFromQueue","inputs":[{"name":"strategy","type":"address","indexed":true,"internalType":"address"}],"anonymous":false},{"type":"event","name":"StrategyReported","inputs":[{"name":"strategy","type":"address","indexed":true,"internalType":"address"},{"name":"gain","type":"uint256","indexed":false,"internalType":"uint256"},{"name":"loss","type":"uint256","indexed":false,"internalType":"uint256"},{"name":"debtPaid","type":"uint256","indexed":false,"internalType":"uint256"},{"name":"totalGain","type":"uint256","indexed":false,"internalType":"uint256"},{"name":"totalLoss","type":"uint256","indexed":false,"internalType":"uint256"},{"name":"totalDebt","type":"uint256","indexed":false,"internalType":"uint256"},{"name":"debtAdded","type":"uint256","indexed":false,"internalType":"uint256"},{"name":"debtRatio","type":"uint256","indexed":false,"internalType":"uint256"}],"anonymous":false},{"type":"event","name":"StrategyRevoked","inputs":[{"name":"strategy","type":"address","indexed":true,"internalType":"address"}],"anonymous":false},{"type":"event","name":"StrategyUpdateDebtRatio","inputs":[{"name":"strategy","type":"address","indexed":true,"internalType":"address"},{"name":"debtRatio","type":"uint256","indexed":false,"internalType":"uint256"}],"anonymous":false},{"type":"event","name":"StrategyUpdateMaxDebtPerHarvest","inputs":[{"name":"strategy","type":"address","indexed":true,"internalType":"address"},{"name":"maxDebtPerHarvest","type":"uint256","indexed":false,"internalType":"uint256"}],"anonymous":false},{"type":"event","name":"StrategyUpdateMinDebtPerHarvest","inputs":[{"name":"strategy","type":"address","indexed":true,"internalType":"address"},{"name":"minDebtPerHarvest","type":"uint256","indexed":false,"internalType":"uint256"}],"anonymous":false},{"type":"event","name":"StrategyUpdatePerformanceFee","inputs":[{"name":"strategy","type":"address","indexed":true,"internalType":"address"},{"name":"performanceFee","type":"uint256","indexed":false,"internalType":"uint256"}],"anonymous":false},{"type":"event","name":"Sweep","inputs":[{"name":"token","type":"address","indexed":true,"internalType":"address"},{"name":"amount","type":"uint256","indexed":false,"internalType":"uint256"}],"anonymous":false},{"type":"event","name":"Transfer","inputs":[{"name":"sender","type":"address","indexed":true,"internalType":"address"},{"name":"receiver","type":"address","indexed":true,"internalType":"address"},{"name":"value","type":"uint256","indexed":false,"internalType":"uint256"}],"anonymous":false},{"type":"event","name":"UpdateDepositLimit","inputs":[{"name":"depositLimit","type":"uint256","indexed":false,"internalType":"uint256"}],"anonymous":false},{"type":"event","name":"UpdateGovernance","inputs":[{"name":"governance","type":"address","indexed":false,"internalType":"address"}],"anonymous":false},{"type":"event","name":"UpdateGuardian","inputs":[{"name":"guardian","type":"address","indexed":false,"internalType":"address"}],"anonymous":false},{"type":"event","name":"UpdateManagement","inputs":[{"name":"management","type":"address","indexed":false,"internalType":"address"}],"anonymous":false},{"type":"event","name":"UpdateManagementFee","inputs":[{"name":"managementFee","type":"uint256","indexed":false,"internalType":"uint256"}],"anonymous":false},{"type":"event","name":"UpdatePerformanceFee","inputs":[{"name":"performanceFee","type":"uint256","indexed":false,"internalType":"uint256"}],"anonymous":false},{"type":"event","name":"UpdateRewards","inputs":[{"name":"rewards","type":"address","indexed":false,"internalType":"address"}],"anonymous":false},{"type":"event","name":"UpdateWithdrawalQueue","inputs":[{"name":"queue","type":"address[20]","indexed":false,"internalType":"address[20]"}],"anonymous":false},{"type":"event","name":"Withdraw","inputs":[{"name":"recipient","type":"address","indexed":true,"internalType":"address"},{"name":"shares","type":"uint256","indexed":false,"internalType":"uint256"},{"name":"amount","type":"uint256","indexed":false,"internalType":"uint256"}],"anonymous":false},{"type":"event","name":"WithdrawFromStrategy","inputs":[{"name":"strategy","type":"address","indexed":true,"internalType":"address"},{"name":"totalDebt","type":"uint256","indexed":false,"internalType":"uint256"},{"name":"loss","type":"uint256","indexed":false,"internalType":"uint256"}],"anonymous":false}],"bytecode":{"object":"0x6080806040523460195760015f55614ae2908161001e8239f35b5f80fdfe60806040526004361015610011575f80fd5b5f3560e01c806301e1d1141461318957806306a52a071461316b57806306fdde03146130c6578063076d8942146130a8578063095ea7b31461304257806314b4e26e14612d6057806314c6440214612cb3578063153c27c414612c6d57806318160ddd14612c50578063238efcbc14612bd157806323b872dd14612b2b5780632582941014611c4857806328998af014612b0d578063313ce56714612af057806333586b6714612ab55780633403c2fc14612a935780633629c8de14612a765780633644e51514612a5c5780633950935114612a1857806339ebf82314612988578063422327161461296b57806344b813961461294e578063452a9320146129265780634757a156146128345780634d4bb1971461280d578063538baeab146121c25780635aa6e6751461219a5780636cb56d191461215b5780636e553f6514611efc5780636ea056a914611d8757806370897b2314611d3357806370a0823114611cfb57806375de290214611c7e578063772d231214611c6357806377e3b26714611c485780637a55036514611bb45780637c6a4f2414611a465780637ecebe0014611a0e57806387788782146119f157806388a8d602146119c95780638a0dac4a14611948578063941484151461167d57806395d89b41146115a357806399530b061461157a5780639aa7df941461155d5780639ec5a894146115355780639fd5a6cf146112e3578063a1d9bafc146112bf578063a457c2d714611231578063a6f7f5d614611214578063a9059cbb146111e3578063ab033ea914611170578063b22439f51461111d578063b84c824614611033578063bb994d4814610f84578063bdc8144b14610f2b578063bdcf36bb14610ef0578063c0993eea14610ec9578063c3535b5214610eac578063c47f002714610da2578063c822adda14610d6c578063cea55f5714610d4f578063d0194ed614610cb4578063d250f08814610c92578063d4a22bde14610c2c578063d764801314610be9578063dd62ed3e14610b99578063e63697c81461071f578063e722befe1461062d578063ec38a86214610582578063ecf7085814610565578063f39c38a01461053d578063f76e4caa14610421578063fc0c546a146103f9578063fc7b9c18146103dc578063fd967f47146103c05763fe56e23214610368575f80fd5b346103bc5760203660031901126103bc575f5160206149ad5f395f51905f5260206004356103a160018060a01b0360085416331461334b565b6103af61271082111561399d565b80602b55604051908152a1005b5f80fd5b346103bc575f3660031901126103bc5760206040516127108152f35b346103bc575f3660031901126103bc576020602554604051908152f35b346103bc575f3660031901126103bc576007546040516001600160a01b039091168152602090f35b346103bc5760203660031901126103bc5761043a61326e565b6008546001600160a01b031633148015610529575b61045890613547565b60018060a01b03811690815f52600c60205261047c600160405f2001541515613579565b5f90815b601483101561051957600d83015484906001600160a01b031680156104d2576104aa911415613a32565b5f1981146104be5760019283019201610480565b634e487b7160e01b5f52601160045260245ffd5b50506104eb925060146104e6915b1061338a565b613525565b6104f3613f5d565b7fa8727d412c6fa1e2497d6d6f275e2d9fe4d9318d5b793632e60ad9d38ee8f1fa5f80a2005b6104eb925060146104e6916104e0565b506009546001600160a01b0316331461044f565b346103bc575f3660031901126103bc57600b546040516001600160a01b039091168152602090f35b346103bc575f3660031901126103bc576020602254604051908152f35b346103bc5760203660031901126103bc5761059b61326e565b6105b060018060a01b0360085416331461334b565b6001600160a01b031680151580610623575b156105f457602a80546001600160a01b031916821790556040519081525f51602061496d5f395f51905f5290602090a1005b60405162461bcd60e51b81526020600482015260076024820152667265776172647360c81b6044820152606490fd5b50308114156105c2565b346103bc5760403660031901126103bc5761064661326e565b6024359060018060a01b03600854163314801561070b575b61066790613547565b60018060a01b031690815f52600c60205261068a600160405f2001541515613579565b815f52600c60205280600460405f200154106106dd5760207f0b728ad785976532c4aaadde09b1cba5f262a7090e83c62d2377bc405678b29c91835f52600c825280600360405f200155604051908152a2005b60405162461bcd60e51b81526020600482015260066024820152650cee840dac2f60d31b6044820152606490fd5b506009546001600160a01b0316331461065e565b346103bc5760603660031901126103bc5760043561073b613284565b6044359161074d60025f541415613964565b60025f556001600160a01b03821615610b91575b61076f612710841115613e95565b5f198103610b8b5750335f52600460205260405f2054905b6107a28280151580610b73575b61079d90613ec7565b613efc565b926024545f90808611610860575b602086867ff279e6a1f5e320cca91135676d9cb6e44ca8a08c0b88342bcdb1144f6511b5686040886107e48460065461337d565b600655335f5260048652815f206107fc85825461337d565b90555f82518581525f516020614a2d5f395f51905f52883392a36108228560245461337d565b60245560075461083e90869083906001600160a01b03166143c6565b81519384528584018590526001600160a01b031692a260015f55604051908152f35b9091925f5b6014811015610b6957600d8101546001600160a01b03168015610b5e5783881115610acc57610894848961337d565b815f52600c602052600660405f2001548082105f14610ac557505b8015610abb576007546040516370a0823160e01b815230600482015290602090829060249082906001600160a01b03165afa908115610a4c575f91610a8a575b5060405191632e1a7d4d60e01b835260048301526020826024815f875af1918215610a4c575f92610a57575b506007546040516370a0823160e01b815230600482015290602090829060249082906001600160a01b03165afa908115610a4c575f91610a19575b5061096b916109649161337d565b8096613479565b94816109d3575b604083926109ae5f51602061494d5f395f51905f5293600197965f52600c6020526006845f20016109a482825461337d565b905560255461337d565b602555835f52600c6020526006825f2001549082519182526020820152a25b01610865565b95986040826109ae610a01826109fb60019998975f51602061494d5f395f51905f529761337d565b9e613479565b99610a0c8387614479565b9350509293945050610972565b90506020813d8211610a44575b81610a33602093836131fe565b810103126103bc575161096b610956565b3d9150610a26565b6040513d5f823e3d90fd5b9091506020813d8211610a82575b81610a72602093836131fe565b810103126103bc5751908a61091b565b3d9150610a65565b90506020813d8211610ab3575b81610aa4602093836131fe565b810103126103bc57518a6108ef565b3d9150610a97565b50506001906109cd565b90506108af565b5050949392905b80602455808511610b3a575b50610af761271091610af18487613479565b906136c2565b0410610b075790918380806107b0565b60405162461bcd60e51b815260206004820152600b60248201526a657863657373206c6f737360a81b6044820152606490fd5b93509150612710610af7610b56610b518487613479565b613f2f565b939150610adf565b505094939290610ad3565b5094939290610ad3565b50335f90815260046020526040902054811115610794565b90610787565b339150610761565b346103bc5760403660031901126103bc57610bb261326e565b610bba613284565b6001600160a01b039182165f908152600560209081526040808320949093168252928352819020549051908152f35b346103bc5760203660031901126103bc57610c0261326e565b6001600160a01b03811615610c25575b610c1d602091614783565b604051908152f35b5033610c12565b346103bc5760203660031901126103bc575f516020614a0d5f395f51905f526020610c5561326e565b610c6a60018060a01b0360085416331461334b565b600980546001600160a01b0319166001600160a01b03929092169182179055604051908152a1005b346103bc575f3660031901126103bc576020604051670de0b6b3a76400008152f35b346103bc5760403660031901126103bc57610ccd61326e565b7fe57488a65fa53066d4c25bac90db47dda4e5de3025ac12bf76ff07211cf7f39e602060243592610d0960018060a01b0360085416331461334b565b610d176113888511156134d8565b60018060a01b031692835f52600c8252610d39600160405f2001541515613579565b835f52600c82528060405f2055604051908152a2005b346103bc575f3660031901126103bc576020602354604051908152f35b346103bc5760203660031901126103bc5760043560148110156103bc57600d01546040516001600160a01b039091168152602090f35b346103bc5760203660031901126103bc576004356001600160401b0381116103bc57610dd290369060040161331e565b610de760018060a01b0360085416331461334b565b6001600160401b038111610e9857610e0981610e046001546131aa565b6135af565b5f601f8211600114610e39578190610e29935f92610e2e575b505061364f565b600155005b013590508380610e22565b601f1982169260015f5260205f20915f5b858110610e8057508360019510610e67575b505050811b01600155005b01355f19600384901b60f8161c19169055828080610e5c565b90926020600181928686013581550194019101610e4a565b634e487b7160e01b5f52604160045260245ffd5b346103bc575f3660031901126103bc576020602654604051908152f35b346103bc575f3660031901126103bc5760206040515f516020614a8d5f395f51905f528152f35b346103bc5760203660031901126103bc57610f0961326e565b6001600160a01b03811615610f24575b610c1d602091614879565b5033610f19565b346103bc5760203660031901126103bc577fae565aab888bca5e19e25a13db7b0c9144305bf55cb0f3f4d724f730e5acdd626020600435610f7760018060a01b0360085416331461334b565b80602255604051908152a1005b346103bc5760203660031901126103bc57610f9d61326e565b6001600160a01b038116338114801561101f575b801561100b575b610fc190613547565b5f52600c602052600260405f20015415610fe057610fde906141e1565b005b606460405162461bcd60e51b81526020600482015260046024820152637a65726f60e01b6044820152fd5b50600a546001600160a01b03163314610fb8565b506008546001600160a01b03163314610fb1565b346103bc5760203660031901126103bc576004356001600160401b0381116103bc5761106390369060040161331e565b61107860018060a01b0360085416331461334b565b6001600160401b038111610e985761109a816110956002546131aa565b6135ff565b5f601f82116001146110be5781906110b9935f92610e2e57505061364f565b600255005b601f1982169260025f5260205f20915f5b858110611105575083600195106110ec575b505050811b01600255005b01355f19600384901b60f8161c191690558280806110e1565b909260206001819286860135815501940191016110cf565b346103bc5760203660031901126103bc57610fde61113961326e565b6008546001600160a01b03163314801561115c575b61115790613547565b613df2565b506009546001600160a01b0316331461114e565b346103bc5760203660031901126103bc5761118961326e565b61119e60018060a01b0360085416331461334b565b600b80546001600160a01b0319166001600160a01b039290921691821790557f90ad4c550d25bd23af61db38d1ff8671b89edaaa0bca0fc36bac5084ecc120bd5f80a2005b346103bc5760403660031901126103bc576112096111ff61326e565b6024359033613ff7565b602060405160018152f35b346103bc575f3660031901126103bc576020602b54604051908152f35b346103bc5760403660031901126103bc5761124a61326e565b335f52600560205260405f2060018060a01b0382165f5260205260405f20611275602435825461337d565b9055335f8181526005602090815260408083206001600160a01b0395909516808452948252918290205491519182525f516020614a6d5f395f51905f5291a3602060405160018152f35b346103bc5760603660031901126103bc576020610c1d604435602435600435613a64565b346103bc5760a03660031901126103bc576112fc61326e565b611304613284565b60643591604435906084356001600160401b0381116103bc5761132b90369060040161331e565b6001600160a01b03909216939091908415611508574286106114d957604190611352614167565b90865f52602d60205260405f2054976040519060208201925f516020614a4d5f395f51905f52845289604084015260018060a01b0316998a606084015288608084015260a083015260c082015260c081526113ae60e0826131fe565b51902060405190602082019261190160f01b845260228301526042820152604281526113db6062826131fe565b51902091036114ab5760805f91602080946040519283526040810135851a82840152803560408401520135606082015282805260015afa15610a4c575f516001600160a01b031682900361148057815f52600560205260405f20835f526020528060405f2055815f52602d60205260405f20805491600183018093116104be575f516020614a6d5f395f51905f529260209255604051908152a3602060405160018152f35b60405162461bcd60e51b815260206004820152600360248201526273696760e81b6044820152606490fd5b60405162461bcd60e51b815260206004820152600660248201526539b4b3b632b760d11b6044820152606490fd5b60405162461bcd60e51b8152602060048201526007602482015266195e1c1a5c995960ca1b6044820152606490fd5b60405162461bcd60e51b815260206004820152600560248201526437bbb732b960d91b6044820152606490fd5b346103bc575f3660031901126103bc57602a546040516001600160a01b039091168152602090f35b346103bc575f3660031901126103bc576020602454604051908152f35b346103bc575f3660031901126103bc57600354604d81116104be57610c1d602091600a0a613efc565b346103bc575f3660031901126103bc576040515f6002546115c3816131aa565b808452906001811690811561165957506001146115fb575b6115f7836115eb818503826131fe565b60405191829182613242565b0390f35b60025f9081527f405787fa12a823e0f2b7631cc41b3ba8828b3321ca811111fa75cd3aa3bb5ace939250905b80821061163f575090915081016020016115eb6115db565b919260018160209254838588010152019101909291611627565b60ff191660208086019190915291151560051b840190910191506115eb90506115db565b346103bc576102803660031901126103bc5736610284116103bc576008546001600160a01b031633148015611934575b6116b690613547565b604051600d5f825b6014821061191457836116d3610280826131fe565b5f905b601482101561190d576001600160a01b036116f86116f3846139e7565b613a1e565b1615611861576001600160a01b036117108383613a0d565b511615611833576001600160a01b0361172b6116f3846139e7565b165f52600c602052611745600160405f2001541515613579565b5f915f5b6014811061178b575b5061175f60019293613425565b61176b6116f3826139e7565b81600d0190838060a01b0316838060a01b031982541617905501906116d6565b926001600160a01b036117a06116f3866139e7565b1615611826576001936117b56116f3846139e7565b858060a01b036117c58387613a0d565b511690868060a01b03161461181e575b808386921115611819576118106117ee6116f3866139e7565b838060a01b036118006116f3856139e7565b1690848060a01b03161415613a32565b01909350611749565b611810565b8491506117d5565b506001925061175f611752565b60405162461bcd60e51b81526020600482015260066024820152651b9bc818591960d21b6044820152606490fd5b6001600160a01b039161187391613a0d565b51166118dc575b6040515f6004825b601483106118b2577f695ac3ac73f08f2002284ffe563cefe798ee2878a5e04219522e2e99eb89d16861028085a1005b81356001600160a01b03811691908290036103bc5760208160019382935201920192019190611882565b60405162461bcd60e51b81526020600482015260096024820152681b9bc8195e1d195b9960ba1b6044820152606490fd5b505061187a565b82546001600160a01b0316815260019283019291909101906020016116be565b506009546001600160a01b031633146116ad565b346103bc5760203660031901126103bc575f5160206149cd5f395f51905f52602061197161326e565b600a5490336001600160a01b0383161480156119b5575b61199190613547565b6001600160a01b03166001600160a01b0319919091168117600a55604051908152a1005b506008546001600160a01b03163314611988565b346103bc575f3660031901126103bc576009546040516001600160a01b039091168152602090f35b346103bc575f3660031901126103bc576020602c54604051908152f35b346103bc5760203660031901126103bc576001600160a01b03611a2f61326e565b165f52602d602052602060405f2054604051908152f35b346103bc5760403660031901126103bc57611a5f61326e565b6024359060018060a01b036008541633148015611ba0575b611a8090613547565b60018060a01b031690815f52600c602052611aa3600160405f2001541515613579565b604051635641ec0360e01b8152602081600481865afa908115610a4c575f91611b71575b50611b435760207fbda9398315c83ccef012bcaa318a2ff7b680f36429d36597bd4bc25ac11ead5991835f52600c8252611b0a600260405f20015460235461337d565b602355835f52600c825280600260405f200155611b3a612710611b2f83602354613479565b806023551115613486565b604051908152a2005b60405162461bcd60e51b8152602060048201526006602482015265195b595e1a5d60d21b6044820152606490fd5b611b93915060203d602011611b99575b611b8b81836131fe565b8101906139cf565b83611ac7565b503d611b81565b506009546001600160a01b03163314611a77565b346103bc5760203660031901126103bc57600435611bdd60018060a01b0360085416331461334b565b670de0b6b3a76400008111611c1d576020817f056863905a721211fc4dda1d688efc8f120b4b689d2e41da8249cf6eff20069192602955604051908152a1005b60405162461bcd60e51b815260206004820152600360248201526264656760e81b6044820152606490fd5b346103bc575f3660031901126103bc576115f76115eb6132fb565b346103bc575f3660031901126103bc57602060405160148152f35b346103bc575f3660031901126103bc57611c99602454613f2f565b5f905b6014821015611cf257600d8201546001600160a01b03168015611ce557600191611cdd915f52600c602052611cd7600660405f200154613f2f565b90613479565b910190611c9c565b5060209150604051908152f35b60209150610c1d565b346103bc5760203660031901126103bc576001600160a01b03611d1c61326e565b165f526004602052602060405f2054604051908152f35b346103bc5760203660031901126103bc575f51602061498d5f395f51905f526020600435611d6c60018060a01b0360085416331461334b565b611d7a61138882111561399d565b80602c55604051908152a1005b346103bc5760403660031901126103bc57611da061326e565b600854602435906001600160a01b0316611dbb33821461334b565b5f198214611e8d575b6007546001600160a01b0384811691168114611e0f575b92610fde937fab2246061d7b0dd3631d037e3f6da75782ae489eeb9f6af878a4b25df9b07c776020604051868152a26143c6565b6040516370a0823160e01b815230600482015293909250602084602481865afa938415610a4c575f94611e57575b50611e4e610fde946024549061337d565b92909350611ddb565b93506020843d602011611e85575b81611e72602093836131fe565b810103126103bc57925192611e4e611e3d565b3d9150611e65565b6040516370a0823160e01b81523060048201529091506020816024816001600160a01b0387165afa908115610a4c575f91611eca575b5090611dc4565b90506020813d602011611ef4575b81611ee5602093836131fe565b810103126103bc575183611ec3565b3d9150611ed8565b346103bc5760403660031901126103bc57600435611f18613284565b90611f2760025f541415613964565b60025f556001600160a01b03821615612153575b611f4a60ff60215416156133bc565b6001600160a01b03821630811461212257815f1981036120c05750602254602454602554929350611f7b8382613479565b8211156120b757611f9592611f8f91613479565b9061337d565b6007546040516370a0823160e01b815233600482015290602090829060249082906001600160a01b03165afa908115610a4c575f91612085575b508082101561207e57505b905b8115612050577f90890809c654f11d6e72a28fa60149770a0d11ec6c92319d6ceb2bb0a4ea1a15604061201184602096614242565b9361202a8160018060a01b0360075416309033906142fe565b61203681602454613479565b60245581519085825286820152a260015f55604051908152f35b60405162461bcd60e51b8152602060048201526006602482015265185b5bdd5b9d60d21b6044820152606490fd5b9050611fda565b90506020813d6020116120af575b816120a0602093836131fe565b810103126103bc575184611fcf565b3d9150612093565b5050505f611f95565b60225490816120d1575b5050611fdc565b6120e9906120e460245460255490613479565b613479565b116120f55783806120ca565b60405162461bcd60e51b81526020600482015260056024820152641b1a5b5a5d60da1b6044820152606490fd5b60405162461bcd60e51b81526020600482015260096024820152681c9958da5c1a595b9d60ba1b6044820152606490fd5b339150611f3b565b346103bc5760403660031901126103bc57610fde61217761326e565b61217f613284565b9061219560018060a01b0360085416331461334b565b6136d5565b346103bc575f3660031901126103bc576008546040516001600160a01b039091168152602090f35b346103bc5760e03660031901126103bc576121db61326e565b6121e3613284565b6044356001600160a01b03811692908390036103bc576064356001600160401b0381116103bc576122189036906004016132b5565b906084356001600160401b0381116103bc576122389036906004016132b5565b60a4356001600160a01b0381169391908490036103bc5760c4356001600160a01b03811693908490036103bc576027546127da57600780546001600160a01b0319166001600160a01b0392909216918217905582519092816127485750506040516395d89b4160e01b81525f81600481865afa908115610a4c575f9161272e575b506122f960076020604051846122d88296518092858086019101613221565b810166081b95985d5b1d60ca1b8382015203016018198101845201826131fe565b8051906001600160401b038211610e985761231982610e046001546131aa565b602090601f83116001146126c95761233a92915f91836126be57505061364f565b6001555b805190816126215750506040516395d89b4160e01b81525f81600481855afa908115610a4c575f916125ff575b506123a56022604051809361372b60f11b60208301526123948151809260208686019101613221565b81010301601f1981018352826131fe565b8051906001600160401b038211610e98576123c5826110956002546131aa565b602090601f83116001146125955782602093600495936123ec935f9261258a57505061364f565b6002555b60405163313ce56760e01b815292839182905afa8015610a4c575f9061254d575b60ff91501690610100821015612522575f5160206149cd5f395f51905f52945f516020614a0d5f395f51905f5260208096935f5160206149ed5f395f51905f528280965f51602061496d5f395f51905f529860035560018060a01b03168060018060a01b03196008541617600855604051908152a1600980546001600160a01b03191682179055604051908152a1602a80546001600160a01b03191682179055604051908152a1600a80546001600160a01b03191682179055604051908152a16103e8602c555f51602061498d5f395f51905f5260206040516103e88152a160c8602b555f5160206149ad5f395f51905f52602060405160c88152a14260268190556027556529d635a8e000602955005b60405162461bcd60e51b815260206004820152600360248201526264656360e81b6044820152606490fd5b506020813d602011612582575b81612567602093836131fe565b810103126103bc575160ff811681036103bc5760ff90612411565b3d915061255a565b015190508a80610e22565b90601f1983169160025f52815f20925f5b8181106125e7575092600192859260209660049896106125cf575b505050811b016002556123f0565b01515f1960f88460031b161c191690558980806125c1565b929360206001819287860151815501950193016125a6565b61261b91503d805f833e61261381836131fe565b810190613661565b8661236b565b6001600160401b038211610e985761263e826110956002546131aa565b602090601f831160011461266d578260209360049593612665935f9261258a57505061364f565b6002556123f0565b90601f1983169160025f52815f20925f5b8181106126a6575092600192859260209660049896106125cf57505050811b016002556123f0565b9293602060018192878601518155019501930161267e565b015190508980610e22565b90601f1983169160015f52815f20925f5b81811061271657509084600195949392106126fe575b505050811b0160015561233e565b01515f1960f88460031b161c191690558880806126f0565b929360206001819287860151815501950193016126da565b61274291503d805f833e61261381836131fe565b876122b9565b6001600160401b038211610e985761276582610e046001546131aa565b602090601f831160011461278e5761278692915f91836126be57505061364f565b60015561233e565b90601f1983169160015f52815f20925f5b8181106127c257509084600195949392106126fe57505050811b0160015561233e565b9293602060018192878601518155019501930161279f565b60405162461bcd60e51b815260206004820152600b60248201526a1a5b9a5d1a585b1a5e995960aa1b6044820152606490fd5b346103bc575f3660031901126103bc5760206040515f516020614a4d5f395f51905f528152f35b346103bc5760403660031901126103bc5761284d61326e565b6024359060018060a01b036008541633148015612912575b61286e90613547565b60018060a01b031690815f52600c602052612891600160405f2001541515613579565b815f52600c60205280600360405f200154116128e45760207f1796a8e0760e2de5b72e7bf64fccb7666c48ceab94cb6cae7cb7eff4b6f641ab91835f52600c825280600460405f200155604051908152a2005b60405162461bcd60e51b8152602060048201526006602482015265363a1036b4b760d11b6044820152606490fd5b506009546001600160a01b03163314612865565b346103bc575f3660031901126103bc57600a546040516001600160a01b039091168152602090f35b346103bc575f3660031901126103bc576020602854604051908152f35b346103bc575f3660031901126103bc576020602954604051908152f35b346103bc5760203660031901126103bc576001600160a01b036129a961326e565b165f52600c60205261012060405f208054906001810154906002810154600382015460048301546005840154916006850154936008600787015496015496604051988952602089015260408801526060870152608086015260a085015260c084015260e0830152610100820152f35b346103bc5760403660031901126103bc57612a3161326e565b335f52600560205260405f2060018060a01b0382165f5260205260405f206112756024358254613479565b346103bc575f3660031901126103bc576020610c1d614167565b346103bc575f3660031901126103bc576020602754604051908152f35b346103bc575f3660031901126103bc57602060ff602154166040519015158152f35b346103bc5760203660031901126103bc57612ace61326e565b6001600160a01b03811615612ae9575b610c1d60209161409d565b5033612ade565b346103bc575f3660031901126103bc576020600354604051908152f35b346103bc575f3660031901126103bc5760206040516301e185588152f35b346103bc5760603660031901126103bc57611209612b4761326e565b612b4f613284565b6001600160a01b0382165f8181526005602090815260408083203384529091529020546044359391908460018201612b8a575b505050613ff7565b612b939161337d565b5f8281526005602090815260408083203380855290835292819020849055519283529092915f516020614a6d5f395f51905f529190a3848084612b82565b346103bc575f3660031901126103bc57600b546001600160a01b03163303612c1d573360018060a01b031960085416176008555f5160206149ed5f395f51905f526020604051338152a1005b60405162461bcd60e51b815260206004820152600b60248201526a6e6f742070656e64696e6760a81b6044820152606490fd5b346103bc575f3660031901126103bc576020600654604051908152f35b346103bc575f3660031901126103bc576022546024549060255490612c928284613479565b811115612ca857611f8f610c1d92602094613479565b50505060205f610c1d565b346103bc5760203660031901126103bc57600435801515908181036103bc577fba40372a3a724dca3c57156128ef1e896724b65b37a17f190b1ad5de68f3a4f39160209115612d4657600a546001600160a01b031633148015612d32575b612d1a90613547565b60ff196021541660ff821617602155604051908152a1005b506008546001600160a01b03163314612d11565b612d5b60018060a01b0360085416331461334b565b612d1a565b346103bc5760a03660031901126103bc57612d7961326e565b6024359060443560643592608435612d9c60018060a01b0360085416331461334b565b602054612db2906001600160a01b03161561338a565b612dc160ff60215416156133bc565b6001600160a01b03841690612dd78215156133f3565b815f52600c602052612df0600160405f20015415613425565b60405163fbfa77cf60e01b8152602081600481865afa908115610a4c575f91613023575b50306001600160a01b0390911603612ff657604051631f1fcd5160e01b8152602081600481865afa908115610a4c575f91612fc7575b506007546001600160a01b03908116911603612f9c57612e79612710612e7285602354613479565b1115613486565b858411612f6f57612f6795612f5f94612f5483612ebb6113887f5a6abd2af9fe6c0554fa08649e2d86e4393ff19dc304d072d38d295c9291d4dc9611156134d8565b604051612ec7816131e2565b81815260088760208301428152604084018b815260608501888152608086018a815260a087019142835260c08801935f855260e08901955f87526101008a01975f89525f52600c60205260405f2099518a555160018a0155516002890155516003880155516004870155516005860155516006850155516007840155519101556040519384938885613509565b0390a2602354613479565b602355613525565b610fde613f5d565b60405162461bcd60e51b815260206004820152600560248201526472616e676560d81b6044820152606490fd5b606460405162461bcd60e51b81526020600482015260046024820152631dd85b9d60e21b6044820152fd5b612fe9915060203d602011612fef575b612fe181836131fe565b81019061345a565b87612e4a565b503d612fd7565b60405162461bcd60e51b81526020600482015260056024820152641d985d5b1d60da1b6044820152606490fd5b61303c915060203d602011612fef57612fe181836131fe565b87612e14565b346103bc5760403660031901126103bc5761305b61326e565b335f8181526005602090815260408083206001600160a01b03909516808452948252918290206024359081905591519182525f516020614a6d5f395f51905f5291a3602060405160018152f35b346103bc5760203660031901126103bc576020610c1d600435613f2f565b346103bc575f3660031901126103bc576040515f6001546130e6816131aa565b8084529060018116908115611659575060011461310d576115f7836115eb818503826131fe565b60015f9081527fb10e2d527612073b26eecdfd717e6a320cf44b4afac2b0732d9fcbe2b7fa0cf6939250905b808210613151575090915081016020016115eb6115db565b919260018160209254838588010152019101909291613139565b346103bc5760203660031901126103bc576020610c1d600435613efc565b346103bc575f3660031901126103bc576020610c1d60245460255490613479565b90600182811c921680156131d8575b60208310146131c457565b634e487b7160e01b5f52602260045260245ffd5b91607f16916131b9565b61012081019081106001600160401b03821117610e9857604052565b601f909101601f19168101906001600160401b03821190821017610e9857604052565b5f5b8381106132325750505f910152565b8181015183820152602001613223565b604091602082526132628151809281602086015260208686019101613221565b601f01601f1916010190565b600435906001600160a01b03821682036103bc57565b602435906001600160a01b03821682036103bc57565b6001600160401b038111610e9857601f01601f191660200190565b81601f820112156103bc578035906132cc8261329a565b926132da60405194856131fe565b828452602083830101116103bc57815f926020809301838601378301015290565b6040519061330a6040836131fe565b600582526418171a171b60d91b6020830152565b9181601f840112156103bc578235916001600160401b0383116103bc57602083818601950101116103bc57565b1561335257565b60405162461bcd60e51b815260206004820152600360248201526233b7bb60e91b6044820152606490fd5b919082039182116104be57565b1561339157565b606460405162461bcd60e51b8152602060048201526004602482015263199d5b1b60e21b6044820152fd5b156133c357565b60405162461bcd60e51b815260206004820152600860248201526739b43aba3237bbb760c11b6044820152606490fd5b156133fa57565b606460405162461bcd60e51b815260206004820152600460248201526330b2323960e11b6044820152fd5b1561342c57565b60405162461bcd60e51b815260206004820152600660248201526565786973747360d01b6044820152606490fd5b908160209103126103bc57516001600160a01b03811681036103bc5790565b919082018092116104be57565b1561348d57565b60405162461bcd60e51b8152602060048201526005602482015264726174696f60d81b6044820152606490fd5b81156134c4570490565b634e487b7160e01b5f52601260045260245ffd5b156134df57565b60405162461bcd60e51b8152602060048201526002602482015261383360f11b6044820152606490fd5b9094939260609260808301968352602083015260408201520152565b602080546001600160a01b0319166001600160a01b0392909216919091179055565b1561354e57565b606460405162461bcd60e51b81526020600482015260046024820152630c2eae8d60e31b6044820152fd5b1561358057565b60405162461bcd60e51b81526020600482015260076024820152663ab735b737bbb760c91b6044820152606490fd5b601f81116135bb575050565b60015f5260205f20906020601f840160051c830193106135f5575b601f0160051c01905b8181106135ea575050565b5f81556001016135df565b90915081906135d6565b601f811161360b575050565b60025f5260205f20906020601f840160051c83019310613645575b601f0160051c01905b81811061363a575050565b5f815560010161362f565b9091508190613626565b8160011b915f199060031b1c19161790565b6020818303126103bc578051906001600160401b0382116103bc570181601f820112156103bc5780516136938161329a565b926136a160405194856131fe565b818452602082840101116103bc576136bf9160208085019101613221565b90565b818102929181159184041417156104be57565b5f916001600160a01b03166136eb8115156133f3565b6001600160a01b0382165f818152600c60205260409020600101549092901561393957815f52600c602052600160405f20015461390e57825f52600c602052600860405f206040519061373d826131e2565b80548252600181015460208301526002810154906040830191825260038101549160608401928352600482015493608081019485526137a760058401549760a083019889528760068601549560c08501968752600781015460e086015201546101008401526141e1565b6137b48251602354613479565b602355885f52600c6020525f6006604082200155519551905192519351915191604051966137e1886131e2565b8752602087019482865260408801948552606088019081526080880191825260a0880192835260c0880193845260e08801945f86526101008901965f88528a5f52600c60205260405f2099518a555160018a015551600289015551600388015551600487015551600586015551600685015551600784015551910155813b156103bc5760405163ce5494bb60e01b8152600481018290525f8160248183875af18015610a4c576138f9575b5080827f100b69bb6b504e1252e36b375233158edee64d071b399e2f81473a695fd1b0218580a3825b60148110156138f357600d810180546001600160a01b031684146138dc57506001016138b5565b80546001600160a01b031916909217909155505050565b50505050565b6139069193505f906131fe565b5f915f61388c565b60405162461bcd60e51b81526020600482015260036024820152626e657760e81b6044820152606490fd5b60405162461bcd60e51b81526020600482015260036024820152621bdb1960ea1b6044820152606490fd5b1561396b57565b60405162461bcd60e51b815260206004820152600a6024820152695245454e5452414e435960b01b6044820152606490fd5b156139a457565b60405162461bcd60e51b815260206004820152600360248201526266656560e81b6044820152606490fd5b908160209103126103bc575180151581036103bc5790565b60148110156139f95760051b60040190565b634e487b7160e01b5f52603260045260245ffd5b9060148110156139f95760051b0190565b356001600160a01b03811681036103bc5790565b15613a3957565b60405162461bcd60e51b815260206004820152600360248201526206475760ec1b6044820152606490fd5b90335f52600c602052613a7f600160405f2001541515613579565b6007546040516370a0823160e01b815233600482015290602090829060249082906001600160a01b03165afa908115610a4c575f91613dc0575b50613ac48484613479565b11613d915780613d82575b613ad98233614565565b335f52600c602052600760405f2001613af3848254613479565b9055613afe33614783565b90613b0833614879565b9485811015613d7a57905b81613d39575b613b819083613d09575b613b2d8387613479565b84811015613cb75780613b4e613b46613b70938861337d565b60245461337d565b6024556007546001600160a01b031690613b68908761337d565b9033906143c6565b613b7c866120e4614903565b61337d565b8380821115613cac57613b939161337d565b6028555b335f818152600c6020908152604091829020426005820181905560265560078101546008820154600683015460029093015485519a8b52938a0198909852928801949094526060870191909152608086019490945260a085019190915260c084019190915260e0830191909152907f67f96d2854a335a4cadb49f84fd3ca6f990744ddb3feceeb4b349d2d53d32ad39061010090a2335f52600c602052600260405f200154158015613ca0575b156136bf5750604051630efbb5cb60e41b8152602081600481335afa908115610a4c575f91613c71575090565b90506020813d602011613c98575b81613c8c602093836131fe565b810103126103bc575190565b3d9150613c7f565b5060ff60215416613c44565b50505f602855613b97565b848111613cc5575b50613b70565b80613cde613cd687613d039461337d565b602454613479565b6024556007546001600160a01b031690613cf990879061337d565b90309033906142fe565b5f613cbf565b335f52600c602052600660405f2001613d23858254613479565b9055613d3184602554613479565b602555613b23565b94613d7282613b8192335f52600c602052600660405f2001613d5c83825461337d565b9055613d6a8260255461337d565b60255561337d565b959050613b19565b508490613b13565b613d8c8133614479565b613acf565b60405162461bcd60e51b815260206004820152600760248201526662616c616e636560c81b6044820152606490fd5b90506020813d602011613dea575b81613ddb602093836131fe565b810103126103bc57515f613ab9565b3d9150613dce565b5f5b6014811015613e6157600d810180546001600160a01b038481169291168214613e21575050600101613df4565b80546001600160a01b03191690559150613e3b9050613f5d565b7f8e1ec3c16d6a67ea8effe2ac7adef9c2de0bc0dc47c49cdf18f6a8b0048085be5f80a2565b60405162461bcd60e51b815260206004820152600c60248201526b6e6f7420696e20717565756560a01b6044820152606490fd5b15613e9c57565b606460405162461bcd60e51b81526020600482015260046024820152636c6f737360e01b6044820152fd5b15613ece57565b60405162461bcd60e51b815260206004820152600660248201526573686172657360d01b6044820152606490fd5b6006548015613f2b57613f266136bf92610af1613f1e60245460255490613479565b611f8f614903565b6134ba565b5090565b613f41613f1e60245460255490613479565b8015613f5757613f266136bf92600654906136c2565b50505f90565b5f90815b6014831015613ff257600d830180546001600160a01b03169081613f98575050600181018091116104be57600190925b0191613f61565b82949192613fab575b5060019150613f91565b613fb5858361337d565b9260148410156139f957600d9390930180546001600160a01b039094166001600160a01b031994851617905580549092169091556001905f613fa1565b509050565b6001600160a01b03909116919082151580614093575b156140655760205f516020614a2d5f395f51905f529160018060a01b031692835f526004825260405f2061404282825461337d565b9055845f526004825260405f2061405a828254613479565b9055604051908152a3565b60405162461bcd60e51b815260206004820152600660248201526562616420746f60d01b6044820152606490fd5b503083141561400d565b6001600160a01b03165f818152600c6020526040902060050154906140dc6140c5834261337d565b92825f52600c602052600160405f2001549061337d565b908215158061415e575b80614114575b1561410d576136bf92613f26915f52600c602052600760405f2001546136c2565b5050505f90565b506040516308bcf8b560e21b8152602081600481855afa908115610a4c575f9161413f575b506140ec565b614158915060203d602011611b9957611b8b81836131fe565b5f614139565b508115156140e6565b600a60206040516141796040826131fe565b82815201691b985c1e4815985d5b1d60b21b8152206141966132fb565b602081519101206040519060208201925f516020614a8d5f395f51905f528452604083015260608201524660808201523060a082015260a081526141db60c0826131fe565b51902090565b6001600160a01b03165f818152600c6020526040902060020154602354614208919061337d565b602355805f52600c6020525f60026040822001557f4201c688d84c01154d321afa0c72f1bffe9eef53005c9de9d035074e71e9b32a5f80a2565b6006549291614285908480156142c75761425f90614277926136c2565b614271613f1e60245460255490613479565b906134ba565b80945b6120e4821515613ec7565b6006556001600160a01b03165f81815260046020526040902080546142ab908590613479565b90555f5f516020614a2d5f395f51905f526020604051868152a3565b50809461427a565b3d156142f9573d906142e08261329a565b916142ee60405193846131fe565b82523d5f602084013e565b606090565b6040516323b872dd60e01b602082019081526001600160a01b0393841660248301529390921660448301526064808301949094529281525f928392909183906143486084826131fe565b51925af16143546142cf565b81614397575b501561436257565b60405162461bcd60e51b815260206004820152600d60248201526c5452414e534645525f46524f4d60981b6044820152606490fd5b80518015925082156143ac575b50505f61435a565b6143bf92506020809183010191016139cf565b5f806143a4565b5f929183809360405190602082019363a9059cbb60e01b855260018060a01b031660248301526044820152604481526144006064826131fe565b51925af161440c6142cf565b8161444a575b501561441a57565b60405162461bcd60e51b81526020600482015260086024820152672a2920a729a322a960c11b6044820152606490fd5b805180159250821561445f575b50505f614412565b61447292506020809183010191016139cf565b5f80614457565b906144e99160018060a01b0316805f52600c6020526144d182600660405f2001546144a682821015613e95565b602354806144ee575b50835f52600c602052600860405f20016144ca838254613479565b905561337d565b905f52600c602052600660405f20015560255461337d565b602555565b614524905f90602554908161452d575b5050855f52600c602052600260405f200161451a82825461337d565b905560235461337d565b6023555f6144af565b61453c9250613f2690866136c2565b855f52600c602052600260405f2001548082105f1461455e57505b5f806144fe565b9050614557565b6001600160a01b0381165f818152600c6020526040902060010154919391421461477b57805f52600c6020526145a2600560405f2001544261337d565b90811561474957831561474057805f52600c602052600660405f200154604051634731a87160e11b8152602081600481865afa8015610a4c5784915f91614709575b50614603612710926145fe61460c936301e185589661337d565b6136c2565b602b54906136c2565b0404905f52600c60205261271061462760405f2054866136c2565b0491612710614638602c54876136c2565b0492614648846120e48386613479565b958087116146ff575b5090614690918680987f5c971a56b919bc03cfcc69b3500de2c9400b81ff5977e541c5075e04348756f59798614695575b505060405194859485613509565b0390a1565b61469f8230614242565b836146df575b505050305f52600460205260405f2054806146c2575b8890614682565b602a546146d991906001600160a01b031630613ff7565b5f6146bb565b6146f792613f266146f092866136c2565b9030613ff7565b875f806146a5565b9550614690614651565b9150506020813d602011614738575b81614725602093836131fe565b810103126103bc575183906146036145e4565b3d9150614718565b50509150505f90565b60405162461bcd60e51b815260206004820152600a60248201526973616d6520626c6f636b60b01b6044820152606490fd5b509150505f90565b60ff60215416614874576024546025549061479e8282613479565b926127106147d2816147b2876023546136c2565b049260018060a01b031695865f52600c602052600260405f2001546136c2565b5f958652600c60205260409095206006810154600382015460049092015491969195909290910482811180159061486a575b61485f5761481b926148159161337d565b9261337d565b808210156148575750905b8082101561484f5750915b82101561483e5750505f90565b8082101561484a575090565b905090565b905091614831565b905090614826565b505050505050505f90565b5081841115614804565b505f90565b602354156148e65760018060a01b0316805f52600c6020526127106148ae600260405f200154610af160245460255490613479565b04905f52600c602052600660405f2001549060ff602154165f146148d0575090565b8082116148dd5750505f90565b6136bf9161337d565b6001600160a01b03165f908152600c602052604090206006015490565b61491b6149126026544261337d565b602954906136c2565b670de0b6b3a7640000811015614874576136bf90670de0b6b3a764000061494560285480936136c2565b049061337d56fe06c03dc1e1399953729e53ec7181b6e753942e20fafe5b55917f5c34559ae69cdf3c41a916aecbf42361a147f8348c242662c3ce20ecef30e826b80642477a3d0810a1c261ca2c0cd86a0152c51c43ba9dc329639d2349f98140891b2ea798eb7a7883b0074f96e2c7fab65eb25abf624c488761a5db889e3bb84855dcc6daaf837b9ad138a0a1839a9637afce5306a5c13e23eb63365686843a5319a243609c8d55d160c0009eb3d739442df0a3ca089ed64378bfac017e7ddad463f9815b87ff54978127edd34aec0f9061fb3b155fbe0ededdfa881ee3e0d541d3a1eef438ddf252ad1be2c89b69c2b068fc378daa952ba7f163c4a11628f55a4df523b3ef6e71edae12b1b97f4d1f60370fef10105fa2faae0126114a169c64845d6126c98c5be1e5ebec7d5bd14f71427d1e84f3dd0314c0f7b2291e5b200ac8c7c3b9258b73c3c69bb8fe3d512ecc4cf759cc79239f7b179b0ffacaa9a75d522b39400fa26469706673582212206c68e01548959ef79642e883c423b52754c040c3930be979b3b31e5eaa95000464736f6c634300081e0033","linkReferences":{}},"methodIdentifiers":{"API_VERSION()":"77e3b267","DEGRADATION_COEFFICIENT()":"d250f088","DOMAIN_SEPARATOR()":"3644e515","DOMAIN_TYPE_HASH()":"c0993eea","MAXIMUM_STRATEGIES()":"772d2312","MAX_BPS()":"fd967f47","PERMIT_TYPE_HASH()":"4d4bb197","SECS_PER_YEAR()":"28998af0","_shareValuePublic_(uint256)":"06a52a07","_sharesForAmountPublic_(uint256)":"076d8942","acceptGovernance()":"238efcbc","activation()":"3629c8de","addStrategy(address,uint256,uint256,uint256,uint256)":"14b4e26e","addStrategyToQueue(address)":"f76e4caa","allowance(address,address)":"dd62ed3e","apiVersion()":"25829410","approve(address,uint256)":"095ea7b3","availableDepositLimit()":"153c27c4","balanceOf(address)":"70a08231","creditAvailable(address)":"d7648013","debtOutstanding(address)":"bdcf36bb","debtRatio()":"cea55f57","decimals()":"313ce567","decreaseAllowance(address,uint256)":"a457c2d7","deposit(uint256,address)":"6e553f65","depositLimit()":"ecf70858","emergencyShutdown()":"3403c2fc","expectedReturn(address)":"33586b67","governance()":"5aa6e675","guardian()":"452a9320","increaseAllowance(address,uint256)":"39509351","initialize(address,address,address,string,string,address,address)":"538baeab","lastReport()":"c3535b52","lockedProfit()":"44b81396","lockedProfitDegradation()":"42232716","management()":"88a8d602","managementFee()":"a6f7f5d6","maxAvailableShares()":"75de2902","migrateStrategy(address,address)":"6cb56d19","name()":"06fdde03","nonces(address)":"7ecebe00","pendingGovernance()":"f39c38a0","performanceFee()":"87788782","permit(address,address,uint256,uint256,bytes)":"9fd5a6cf","pricePerShare()":"99530b06","removeStrategyFromQueue(address)":"b22439f5","report(uint256,uint256,uint256)":"a1d9bafc","revokeStrategy(address)":"bb994d48","rewards()":"9ec5a894","setDepositLimit(uint256)":"bdc8144b","setEmergencyShutdown(bool)":"14c64402","setGovernance(address)":"ab033ea9","setGuardian(address)":"8a0dac4a","setLockedProfitDegradation(uint256)":"7a550365","setManagement(address)":"d4a22bde","setManagementFee(uint256)":"fe56e232","setName(string)":"c47f0027","setPerformanceFee(uint256)":"70897b23","setRewards(address)":"ec38a862","setSymbol(string)":"b84c8246","setWithdrawalQueue(address[20])":"94148415","strategies(address)":"39ebf823","sweep(address,uint256)":"6ea056a9","symbol()":"95d89b41","token()":"fc0c546a","totalAssets()":"01e1d114","totalDebt()":"fc7b9c18","totalIdle()":"9aa7df94","totalSupply()":"18160ddd","transfer(address,uint256)":"a9059cbb","transferFrom(address,address,uint256)":"23b872dd","updateStrategyDebtRatio(address,uint256)":"7c6a4f24","updateStrategyMaxDebtPerHarvest(address,uint256)":"4757a156","updateStrategyMinDebtPerHarvest(address,uint256)":"e722befe","updateStrategyPerformanceFee(address,uint256)":"d0194ed6","withdraw(uint256,address,uint256)":"e63697c8","withdrawalQueue(uint256)":"c822adda"},"id":9}