{"abi":[{"type":"function","name":"API_VERSION","inputs":[],"outputs":[{"name":"","type":"string","internalType":"string"}],"stateMutability":"view"},{"type":"function","name":"DEGRADATION_COEFFICIENT","inputs":[],"outputs":[{"name":"","type":"uint256","internalType":"uint256"}],"stateMutability":"view"},{"type":"function","name":"DOMAIN_SEPARATOR","inputs":[],"outputs":[{"name":"","type":"bytes32","internalType":"bytes32"}],"stateMutability":"view"},{"type":"function","name":"DOMAIN_TYPE_HASH","inputs":[],"outputs":[{"name":"","type":"bytes32","internalType":"bytes32"}],"stateMutability":"view"},{"type":"function","name":"MAXIMUM_STRATEGIES","inputs":[],"outputs":[{"name":"","type":"uint256","internalType":"uint256"}],"stateMutability":"view"},{"type":"function","name":"MAX_BPS","inputs":[],"outputs":[{"name":"","type":"uint256","internalType":"uint256"}],"stateMutability":"view"},{"type":"function","name":"PERMIT_TYPE_HASH","inputs":[],"outputs":[{"name":"","type":"bytes32","internalType":"bytes32"}],"stateMutability":"view"},{"type":"function","name":"SECS_PER_YEAR","inputs":[],"outputs":[{"name":"","type":"uint256","internalType":"uint256"}],"stateMutability":"view"},{"type":"function","name":"_shareValuePublic_","inputs":[{"name":"shares","type":"uint256","internalType":"uint256"}],"outputs":[{"name":"","type":"uint256","internalType":"uint256"}],"stateMutability":"view"},{"type":"function","name":"_sharesForAmountPublic_","inputs":[{"name":"amount","type":"uint256","internalType":"uint256"}],"outputs":[{"name":"","type":"uint256","internalType":"uint256"}],"stateMutability":"view"},{"type":"function","name":"acceptGovernance","inputs":[],"outputs":[],"stateMutability":"nonpayable"},{"type":"function","name":"activation","inputs":[],"outputs":[{"name":"","type":"uint256","internalType":"uint256"}],"stateMutability":"view"},{"type":"function","name":"addStrategy","inputs":[{"name":"strategy","type":"address","internalType":"address"},{"name":"_debtRatio","type":"uint256","internalType":"uint256"},{"name":"minDebtPerHarvest","type":"uint256","internalType":"uint256"},{"name":"maxDebtPerHarvest","type":"uint256","internalType":"uint256"},{"name":"_performanceFee","type":"uint256","internalType":"uint256"}],"outputs":[],"stateMutability":"nonpayable"},{"type":"function","name":"addStrategyToQueue","inputs":[{"name":"strategy","type":"address","internalType":"address"}],"outputs":[],"stateMutability":"nonpayable"},{"type":"function","name":"allowance","inputs":[{"name":"","type":"address","internalType":"address"},{"name":"","type":"address","internalType":"address"}],"outputs":[{"name":"","type":"uint256","internalType":"uint256"}],"stateMutability":"view"},{"type":"function","name":"apiVersion","inputs":[],"outputs":[{"name":"","type":"string","internalType":"string"}],"stateMutability":"pure"},{"type":"function","name":"approve","inputs":[{"name":"spender","type":"address","internalType":"address"},{"name":"amount","type":"uint256","internalType":"uint256"}],"outputs":[{"name":"","type":"bool","internalType":"bool"}],"stateMutability":"nonpayable"},{"type":"function","name":"availableDepositLimit","inputs":[],"outputs":[{"name":"","type":"uint256","internalType":"uint256"}],"stateMutability":"view"},{"type":"function","name":"balanceOf","inputs":[{"name":"","type":"address","internalType":"address"}],"outputs":[{"name":"","type":"uint256","internalType":"uint256"}],"stateMutability":"view"},{"type":"function","name":"creditAvailable","inputs":[{"name":"strategy","type":"address","internalType":"address"}],"outputs":[{"name":"","type":"uint256","internalType":"uint256"}],"stateMutability":"view"},{"type":"function","name":"debtOutstanding","inputs":[{"name":"strategy","type":"address","internalType":"address"}],"outputs":[{"name":"","type":"uint256","internalType":"uint256"}],"stateMutability":"view"},{"type":"function","name":"debtRatio","inputs":[],"outputs":[{"name":"","type":"uint256","internalType":"uint256"}],"stateMutability":"view"},{"type":"function","name":"decimals","inputs":[],"outputs":[{"name":"","type":"uint256","internalType":"uint256"}],"stateMutability":"view"},{"type":"function","name":"decreaseAllowance","inputs":[{"name":"spender","type":"address","internalType":"address"},{"name":"amount","type":"uint256","internalType":"uint256"}],"outputs":[{"name":"","type":"bool","internalType":"bool"}],"stateMutability":"nonpayable"},{"type":"function","name":"deposit","inputs":[{"name":"_amount","type":"uint256","internalType":"uint256"},{"name":"recipient","type":"address","internalType":"address"}],"outputs":[{"name":"","type":"uint256","internalType":"uint256"}],"stateMutability":"nonpayable"},{"type":"function","name":"depositLimit","inputs":[],"outputs":[{"name":"","type":"uint256","internalType":"uint256"}],"stateMutability":"view"},{"type":"function","name":"emergencyShutdown","inputs":[],"outputs":[{"name":"","type":"bool","internalType":"bool"}],"stateMutability":"view"},{"type":"function","name":"expectedReturn","inputs":[{"name":"strategy","type":"address","internalType":"address"}],"outputs":[{"name":"","type":"uint256","internalType":"uint256"}],"stateMutability":"view"},{"type":"function","name":"governance","inputs":[],"outputs":[{"name":"","type":"address","internalType":"address"}],"stateMutability":"view"},{"type":"function","name":"guardian","inputs":[],"outputs":[{"name":"","type":"address","internalType":"address"}],"stateMutability":"view"},{"type":"function","name":"increaseAllowance","inputs":[{"name":"spender","type":"address","internalType":"address"},{"name":"amount","type":"uint256","internalType":"uint256"}],"outputs":[{"name":"","type":"bool","internalType":"bool"}],"stateMutability":"nonpayable"},{"type":"function","name":"initialize","inputs":[{"name":"_token","type":"address","internalType":"address"},{"name":"_governance","type":"address","internalType":"address"},{"name":"_rewards","type":"address","internalType":"address"},{"name":"nameOverride","type":"string","internalType":"string"},{"name":"symbolOverride","type":"string","internalType":"string"},{"name":"_guardian","type":"address","internalType":"address"},{"name":"_management","type":"address","internalType":"address"}],"outputs":[],"stateMutability":"nonpayable"},{"type":"function","name":"lastReport","inputs":[],"outputs":[{"name":"","type":"uint256","internalType":"uint256"}],"stateMutability":"view"},{"type":"function","name":"lockedProfit","inputs":[],"outputs":[{"name":"","type":"uint256","internalType":"uint256"}],"stateMutability":"view"},{"type":"function","name":"lockedProfitDegradation","inputs":[],"outputs":[{"name":"","type":"uint256","internalType":"uint256"}],"stateMutability":"view"},{"type":"function","name":"management","inputs":[],"outputs":[{"name":"","type":"address","internalType":"address"}],"stateMutability":"view"},{"type":"function","name":"managementFee","inputs":[],"outputs":[{"name":"","type":"uint256","internalType":"uint256"}],"stateMutability":"view"},{"type":"function","name":"maxAvailableShares","inputs":[],"outputs":[{"name":"","type":"uint256","internalType":"uint256"}],"stateMutability":"view"},{"type":"function","name":"migrateStrategy","inputs":[{"name":"oldVersion","type":"address","internalType":"address"},{"name":"newVersion","type":"address","internalType":"address"}],"outputs":[],"stateMutability":"nonpayable"},{"type":"function","name":"name","inputs":[],"outputs":[{"name":"","type":"string","internalType":"string"}],"stateMutability":"view"},{"type":"function","name":"nonces","inputs":[{"name":"","type":"address","internalType":"address"}],"outputs":[{"name":"","type":"uint256","internalType":"uint256"}],"stateMutability":"view"},{"type":"function","name":"pendingGovernance","inputs":[],"outputs":[{"name":"","type":"address","internalType":"address"}],"stateMutability":"view"},{"type":"function","name":"performanceFee","inputs":[],"outputs":[{"name":"","type":"uint256","internalType":"uint256"}],"stateMutability":"view"},{"type":"function","name":"permit","inputs":[{"name":"owner","type":"address","internalType":"address"},{"name":"spender","type":"address","internalType":"address"},{"name":"value","type":"uint256","internalType":"uint256"},{"name":"deadline","type":"uint256","internalType":"uint256"},{"name":"signature","type":"bytes","internalType":"bytes"}],"outputs":[{"name":"","type":"bool","internalType":"bool"}],"stateMutability":"nonpayable"},{"type":"function","name":"pricePerShare","inputs":[],"outputs":[{"name":"","type":"uint256","internalType":"uint256"}],"stateMutability":"view"},{"type":"function","name":"removeStrategyFromQueue","inputs":[{"name":"strategy","type":"address","internalType":"address"}],"outputs":[],"stateMutability":"nonpayable"},{"type":"function","name":"report","inputs":[{"name":"gain","type":"uint256","internalType":"uint256"},{"name":"loss","type":"uint256","internalType":"uint256"},{"name":"_debtPayment","type":"uint256","internalType":"uint256"}],"outputs":[{"name":"","type":"uint256","internalType":"uint256"}],"stateMutability":"nonpayable"},{"type":"function","name":"revokeStrategy","inputs":[{"name":"strategy","type":"address","internalType":"address"}],"outputs":[],"stateMutability":"nonpayable"},{"type":"function","name":"rewards","inputs":[],"outputs":[{"name":"","type":"address","internalType":"address"}],"stateMutability":"view"},{"type":"function","name":"setDepositLimit","inputs":[{"name":"limit","type":"uint256","internalType":"uint256"}],"outputs":[],"stateMutability":"nonpayable"},{"type":"function","name":"setEmergencyShutdown","inputs":[{"name":"active","type":"bool","internalType":"bool"}],"outputs":[],"stateMutability":"nonpayable"},{"type":"function","name":"setGovernance","inputs":[{"name":"_gov","type":"address","internalType":"address"}],"outputs":[],"stateMutability":"nonpayable"},{"type":"function","name":"setGuardian","inputs":[{"name":"_guardian","type":"address","internalType":"address"}],"outputs":[],"stateMutability":"nonpayable"},{"type":"function","name":"setLockedProfitDegradation","inputs":[{"name":"degradation","type":"uint256","internalType":"uint256"}],"outputs":[],"stateMutability":"nonpayable"},{"type":"function","name":"setManagement","inputs":[{"name":"_mgmt","type":"address","internalType":"address"}],"outputs":[],"stateMutability":"nonpayable"},{"type":"function","name":"setManagementFee","inputs":[{"name":"fee","type":"uint256","internalType":"uint256"}],"outputs":[],"stateMutability":"nonpayable"},{"type":"function","name":"setName","inputs":[{"name":"_name","type":"string","internalType":"string"}],"outputs":[],"stateMutability":"nonpayable"},{"type":"function","name":"setPerformanceFee","inputs":[{"name":"fee","type":"uint256","internalType":"uint256"}],"outputs":[],"stateMutability":"nonpayable"},{"type":"function","name":"setRewards","inputs":[{"name":"_rewards","type":"address","internalType":"address"}],"outputs":[],"stateMutability":"nonpayable"},{"type":"function","name":"setSymbol","inputs":[{"name":"_symbol","type":"string","internalType":"string"}],"outputs":[],"stateMutability":"nonpayable"},{"type":"function","name":"setWithdrawalQueue","inputs":[{"name":"queue","type":"address[20]","internalType":"address[20]"}],"outputs":[],"stateMutability":"nonpayable"},{"type":"function","name":"strategies","inputs":[{"name":"","type":"address","internalType":"address"}],"outputs":[{"name":"performanceFee","type":"uint256","internalType":"uint256"},{"name":"activation","type":"uint256","internalType":"uint256"},{"name":"debtRatio","type":"uint256","internalType":"uint256"},{"name":"minDebtPerHarvest","type":"uint256","internalType":"uint256"},{"name":"maxDebtPerHarvest","type":"uint256","internalType":"uint256"},{"name":"lastReport","type":"uint256","internalType":"uint256"},{"name":"totalDebt","type":"uint256","internalType":"uint256"},{"name":"totalGain","type":"uint256","internalType":"uint256"},{"name":"totalLoss","type":"uint256","internalType":"uint256"}],"stateMutability":"view"},{"type":"function","name":"sweep","inputs":[{"name":"_token","type":"address","internalType":"address"},{"name":"amount","type":"uint256","internalType":"uint256"}],"outputs":[],"stateMutability":"nonpayable"},{"type":"function","name":"symbol","inputs":[],"outputs":[{"name":"","type":"string","internalType":"string"}],"stateMutability":"view"},{"type":"function","name":"token","inputs":[],"outputs":[{"name":"","type":"address","internalType":"contract IERC20"}],"stateMutability":"view"},{"type":"function","name":"totalAssets","inputs":[],"outputs":[{"name":"","type":"uint256","internalType":"uint256"}],"stateMutability":"view"},{"type":"function","name":"totalDebt","inputs":[],"outputs":[{"name":"","type":"uint256","internalType":"uint256"}],"stateMutability":"view"},{"type":"function","name":"totalIdle","inputs":[],"outputs":[{"name":"","type":"uint256","internalType":"uint256"}],"stateMutability":"view"},{"type":"function","name":"totalSupply","inputs":[],"outputs":[{"name":"","type":"uint256","internalType":"uint256"}],"stateMutability":"view"},{"type":"function","name":"transfer","inputs":[{"name":"to","type":"address","internalType":"address"},{"name":"amount","type":"uint256","internalType":"uint256"}],"outputs":[{"name":"","type":"bool","internalType":"bool"}],"stateMutability":"nonpayable"},{"type":"function","name":"transferFrom","inputs":[{"name":"from","type":"address","internalType":"address"},{"name":"to","type":"address","internalType":"address"},{"name":"amount","type":"uint256","internalType":"uint256"}],"outputs":[{"name":"","type":"bool","internalType":"bool"}],"stateMutability":"nonpayable"},{"type":"function","name":"updateStrategyDebtRatio","inputs":[{"name":"strategy","type":"address","internalType":"address"},{"name":"_debtRatio","type":"uint256","internalType":"uint256"}],"outputs":[],"stateMutability":"nonpayable"},{"type":"function","name":"updateStrategyMaxDebtPerHarvest","inputs":[{"name":"strategy","type":"address","internalType":"address"},{"name":"m","type":"uint256","internalType":"uint256"}],"outputs":[],"stateMutability":"nonpayable"},{"type":"function","name":"updateStrategyMinDebtPerHarvest","inputs":[{"name":"strategy","type":"address","internalType":"address"},{"name":"m","type":"uint256","internalType":"uint256"}],"outputs":[],"stateMutability":"nonpayable"},{"type":"function","name":"updateStrategyPerformanceFee","inputs":[{"name":"strategy","type":"address","internalType":"address"},{"name":"pf","type":"uint256","internalType":"uint256"}],"outputs":[],"stateMutability":"nonpayable"},{"type":"function","name":"withdraw","inputs":[{"name":"maxShares","type":"uint256","internalType":"uint256"},{"name":"recipient","type":"address","internalType":"address"},{"name":"maxLoss","type":"uint256","internalType":"uint256"}],"outputs":[{"name":"","type":"uint256","internalType":"uint256"}],"stateMutability":"nonpayable"},{"type":"function","name":"withdrawalQueue","inputs":[{"name":"","type":"uint256","internalType":"uint256"}],"outputs":[{"name":"","type":"address","internalType":"address"}],"stateMutability":"view"},{"type":"event","name":"Approval","inputs":[{"name":"owner","type":"address","indexed":true,"internalType":"address"},{"name":"spender","type":"address","indexed":true,"internalType":"address"},{"name":"value","type":"uint256","indexed":false,"internalType":"uint256"}],"anonymous":false},{"type":"event","name":"Deposit","inputs":[{"name":"recipient","type":"address","indexed":true,"internalType":"address"},{"name":"shares","type":"uint256","indexed":false,"internalType":"uint256"},{"name":"amount","type":"uint256","indexed":false,"internalType":"uint256"}],"anonymous":false},{"type":"event","name":"EmergencyShutdown","inputs":[{"name":"active","type":"bool","indexed":false,"internalType":"bool"}],"anonymous":false},{"type":"event","name":"FeeReport","inputs":[{"name":"management_fee","type":"uint256","indexed":false,"internalType":"uint256"},{"name":"performance_fee","type":"uint256","indexed":false,"internalType":"uint256"},{"name":"strategist_fee","type":"uint256","indexed":false,"internalType":"uint256"},{"name":"duration","type":"uint256","indexed":false,"internalType":"uint256"}],"anonymous":false},{"type":"event","name":"LockedProfitDegradationUpdated","inputs":[{"name":"value","type":"uint256","indexed":false,"internalType":"uint256"}],"anonymous":false},{"type":"event","name":"NewPendingGovernance","inputs":[{"name":"pendingGovernance","type":"address","indexed":true,"internalType":"address"}],"anonymous":false},{"type":"event","name":"StrategyAdded","inputs":[{"name":"strategy","type":"address","indexed":true,"internalType":"address"},{"name":"debtRatio","type":"uint256","indexed":false,"internalType":"uint256"},{"name":"minDebtPerHarvest","type":"uint256","indexed":false,"internalType":"uint256"},{"name":"maxDebtPerHarvest","type":"uint256","indexed":false,"internalType":"uint256"},{"name":"performanceFee","type":"uint256","indexed":false,"internalType":"uint256"}],"anonymous":false},{"type":"event","name":"StrategyAddedToQueue","inputs":[{"name":"strategy","type":"address","indexed":true,"internalType":"address"}],"anonymous":false},{"type":"event","name":"StrategyMigrated","inputs":[{"name":"oldVersion","type":"address","indexed":true,"internalType":"address"},{"name":"newVersion","type":"address","indexed":true,"internalType":"address"}],"anonymous":false},{"type":"event","name":"StrategyRemovedFromQueue","inputs":[{"name":"strategy","type":"address","indexed":true,"internalType":"address"}],"anonymous":false},{"type":"event","name":"StrategyReported","inputs":[{"name":"strategy","type":"address","indexed":true,"internalType":"address"},{"name":"gain","type":"uint256","indexed":false,"internalType":"uint256"},{"name":"loss","type":"uint256","indexed":false,"internalType":"uint256"},{"name":"debtPaid","type":"uint256","indexed":false,"internalType":"uint256"},{"name":"totalGain","type":"uint256","indexed":false,"internalType":"uint256"},{"name":"totalLoss","type":"uint256","indexed":false,"internalType":"uint256"},{"name":"totalDebt","type":"uint256","indexed":false,"internalType":"uint256"},{"name":"debtAdded","type":"uint256","indexed":false,"internalType":"uint256"},{"name":"debtRatio","type":"uint256","indexed":false,"internalType":"uint256"}],"anonymous":false},{"type":"event","name":"StrategyRevoked","inputs":[{"name":"strategy","type":"address","indexed":true,"internalType":"address"}],"anonymous":false},{"type":"event","name":"StrategyUpdateDebtRatio","inputs":[{"name":"strategy","type":"address","indexed":true,"internalType":"address"},{"name":"debtRatio","type":"uint256","indexed":false,"internalType":"uint256"}],"anonymous":false},{"type":"event","name":"StrategyUpdateMaxDebtPerHarvest","inputs":[{"name":"strategy","type":"address","indexed":true,"internalType":"address"},{"name":"maxDebtPerHarvest","type":"uint256","indexed":false,"internalType":"uint256"}],"anonymous":false},{"type":"event","name":"StrategyUpdateMinDebtPerHarvest","inputs":[{"name":"strategy","type":"address","indexed":true,"internalType":"address"},{"name":"minDebtPerHarvest","type":"uint256","indexed":false,"internalType":"uint256"}],"anonymous":false},{"type":"event","name":"StrategyUpdatePerformanceFee","inputs":[{"name":"strategy","type":"address","indexed":true,"internalType":"address"},{"name":"performanceFee","type":"uint256","indexed":false,"internalType":"uint256"}],"anonymous":false},{"type":"event","name":"Sweep","inputs":[{"name":"token","type":"address","indexed":true,"internalType":"address"},{"name":"amount","type":"uint256","indexed":false,"internalType":"uint256"}],"anonymous":false},{"type":"event","name":"Transfer","inputs":[{"name":"sender","type":"address","indexed":true,"internalType":"address"},{"name":"receiver","type":"address","indexed":true,"internalType":"address"},{"name":"value","type":"uint256","indexed":false,"internalType":"uint256"}],"anonymous":false},{"type":"event","name":"UpdateDepositLimit","inputs":[{"name":"depositLimit","type":"uint256","indexed":false,"internalType":"uint256"}],"anonymous":false},{"type":"event","name":"UpdateGovernance","inputs":[{"name":"governance","type":"address","indexed":false,"internalType":"address"}],"anonymous":false},{"type":"event","name":"UpdateGuardian","inputs":[{"name":"guardian","type":"address","indexed":false,"internalType":"address"}],"anonymous":false},{"type":"event","name":"UpdateManagement","inputs":[{"name":"management","type":"address","indexed":false,"internalType":"address"}],"anonymous":false},{"type":"event","name":"UpdateManagementFee","inputs":[{"name":"managementFee","type":"uint256","indexed":false,"internalType":"uint256"}],"anonymous":false},{"type":"event","name":"UpdatePerformanceFee","inputs":[{"name":"performanceFee","type":"uint256","indexed":false,"internalType":"uint256"}],"anonymous":false},{"type":"event","name":"UpdateRewards","inputs":[{"name":"rewards","type":"address","indexed":false,"internalType":"address"}],"anonymous":false},{"type":"event","name":"UpdateWithdrawalQueue","inputs":[{"name":"queue","type":"address[20]","indexed":false,"internalType":"address[20]"}],"anonymous":false},{"type":"event","name":"Withdraw","inputs":[{"name":"recipient","type":"address","indexed":true,"internalType":"address"},{"name":"shares","type":"uint256","indexed":false,"internalType":"uint256"},{"name":"amount","type":"uint256","indexed":false,"internalType":"uint256"}],"anonymous":false},{"type":"event","name":"WithdrawFromStrategy","inputs":[{"name":"strategy","type":"address","indexed":true,"internalType":"address"},{"name":"totalDebt","type":"uint256","indexed":false,"internalType":"uint256"},{"name":"loss","type":"uint256","indexed":false,"internalType":"uint256"}],"anonymous":false}],"bytecode":{"object":"0x6080806040523461001a5760015f556149ea908161001f8239f35b5f80fdfe60806040526004361015610011575f80fd5b5f3560e01c806301e1d1141461303057806306a52a071461301257806306fdde0314612f8f578063076d894214612f71578063095ea7b314612f0f57806314b4e26e14612c4657806314c6440214612b9c578063153c27c414612b5657806318160ddd14612b39578063238efcbc14612aba57806323b872dd14612a015780632582941014611b9657806328998af0146129e3578063313ce567146129c657806333586b671461298b5780633403c2fc146129695780633629c8de1461294c5780633644e5151461293257806339509351146128eb57806339ebf8231461285b578063422327161461283e57806344b8139614612821578063452a9320146127f95780634757a156146127125780634d4bb197146126eb578063538baeab146120eb5780635aa6e675146120c35780636cb56d19146120845780636e553f6514611e3c5780636ea056a914611cd557806370897b2314611c8157806370a0823114611c4957806375de290214611bcc578063772d231214611bb157806377e3b26714611b965780637a55036514611b025780637c6a4f24146119a15780637ecebe0014611969578063877887821461194c57806388a8d602146119245780638a0dac4a146118b0578063941484151461161957806395d89b411461153e57806399530b06146115155780639aa7df94146114f85780639ec5a894146114d05780639fd5a6cf14611275578063a1d9bafc14611251578063a457c2d7146111d2578063a6f7f5d6146111b5578063a9059cbb14611184578063ab033ea914611119578063b22439f5146110c9578063b84c824614610fcb578063bb994d4814610f23578063bdc8144b14610eca578063bdcf36bb14610e8f578063c0993eea14610e68578063c3535b5214610e4b578063c47f002714610d3d578063c822adda14610d07578063cea55f5714610cea578063d0194ed614610c54578063d250f08814610c32578063d4a22bde14610bd4578063d764801314610b91578063dd62ed3e14610b44578063e63697c8146106e8578063e722befe14610601578063ec38a86214610559578063ecf708581461053c578063f39c38a014610514578063f76e4caa14610421578063fc0c546a146103f9578063fc7b9c18146103dc578063fd967f47146103c05763fe56e23214610368575f80fd5b346103bc5760203660031901126103bc575f805160206148b583398151915260206004356103a160018060a01b036008541633146133e6565b6103af612710821115613418565b80602b55604051908152a1005b5f80fd5b346103bc575f3660031901126103bc5760206040516127108152f35b346103bc575f3660031901126103bc576020602554604051908152f35b346103bc575f3660031901126103bc576007546040516001600160a01b039091168152602090f35b346103bc5760203660031901126103bc5761043a61314b565b6008546001600160a01b039190821633148015610507575b61045b9061344a565b81811691825f52600c602052610479600160405f20015415156134d5565b5f905f905b601482106104cb575b8461049d8561049860148710613a2a565b613572565b6104a5613b2e565b7fa8727d412c6fa1e2497d6d6f275e2d9fe4d9318d5b793632e60ad9d38ee8f1fa5f80a2005b9091848284600d01541680156104ff57916104ee6104f3926104f994141561350b565b61347c565b9261347c565b9061047e565b505091610487565b5060095482163314610452565b346103bc575f3660031901126103bc57600b546040516001600160a01b039091168152602090f35b346103bc575f3660031901126103bc576020602254604051908152f35b346103bc5760203660031901126103bc5761057261314b565b6008546001600160a01b03919061058c90831633146133e6565b16801515806105f7575b156105c857602a80546001600160a01b031916821790556040519081525f8051602061487583398151915290602090a1005b60405162461bcd60e51b81526020600482015260076024820152667265776172647360c81b6044820152606490fd5b5030811415610596565b346103bc5760403660031901126103bc5761061a61314b565b600854602435916001600160a01b03918216331480156106db575b61063e9061344a565b1690815f52600c60205261065a600160405f20015415156134d5565b815f52600c60205280600460405f200154106106ad5760207f0b728ad785976532c4aaadde09b1cba5f262a7090e83c62d2377bc405678b29c91835f52600c825280600360405f200155604051908152a2005b60405162461bcd60e51b81526020600482015260066024820152650cee840dac2f60d31b6044820152606490fd5b5060095482163314610635565b346103bc5760603660031901126103bc57600435610704613161565b9061071360025f5414156136f8565b60025f556001600160a01b03821615610b3c575b6107376127106044351115613947565b5f198103610b375750335f52600460205260405f20545b6107698180151580610b1f575b61076490613885565b61364f565b906024545f90808411610827575b50507ff279e6a1f5e320cca91135676d9cb6e44ca8a08c0b88342bcdb1144f6511b56860406020946107ab84600654613594565b600655335f5260048652815f206107c3858254613594565b90555f82518581525f80516020614935833981519152883392a36107e985602454613594565b60245560075461080590869083906001600160a01b0316613979565b81519384528584018590526001600160a01b031692a260015f55604051908152f35b5f5b601481106108b5575b5080602455808411610898575b5061271061085861085083866135a1565b604435613330565b0410610865578380610777565b60405162461bcd60e51b815260206004820152600b60248201526a657863657373206c6f737360a81b6044820152606490fd5b925090506108ae6108a982846135a1565b6136d0565b908461083f565b600d8101546001600160a01b03168015610b195782861115610b19576108db8387613594565b815f52600c602052600660405f2001548082105f14610b1257505b8015610b07576007546040516370a0823160e01b815230600482015290602090829060249082906001600160a01b03165afa908115610a96575f91610ad5575b5060405191632e1a7d4d60e01b835260048301526020826024815f875af1918215610a96575f92610aa1575b506007546040516370a0823160e01b815230600482015290602090829060249082906001600160a01b03165afa908115610a96575f91610a62575b506109b2916109ab91613594565b80956135a1565b9381610a1f575b604083925f8051602061485583398151915292610a1a96955f52600c6020526006835f20016109e9828254613594565b90556109f86025918254613594565b9055835f52600c6020526006825f2001549082519182526020820152a261347c565b610829565b9496604082610a4b81610a45610a1a9897965f8051602061485583398151915296613594565b9b6135a1565b97610a56828661476e565b925092939450506109b9565b90506020813d602011610a8e575b81610a7d602093836130db565b810103126103bc57516109b261099d565b3d9150610a70565b6040513d5f823e3d90fd5b9091506020813d602011610acd575b81610abd602093836130db565b810103126103bc57519089610962565b3d9150610ab0565b90506020813d602011610aff575b81610af0602093836130db565b810103126103bc575189610936565b3d9150610ae3565b5050610a1a9061347c565b90506108f6565b50610832565b50335f9081526004602052604090205481111561075b565b61074e565b339150610727565b346103bc5760403660031901126103bc57610b5d61314b565b610b65613161565b9060018060a01b038091165f52600560205260405f2091165f52602052602060405f2054604051908152f35b346103bc5760203660031901126103bc57610baa61314b565b6001600160a01b03811615610bcd575b610bc5602091613ff6565b604051908152f35b5033610bba565b346103bc5760203660031901126103bc575f805160206149158339815191526020610bfd61314b565b6008546001600160a01b039190610c1790831633146133e6565b168060018060a01b03196009541617600955604051908152a1005b346103bc575f3660031901126103bc576020604051670de0b6b3a76400008152f35b346103bc5760403660031901126103bc57610c6d61314b565b7fe57488a65fa53066d4c25bac90db47dda4e5de3025ac12bf76ff07211cf7f39e60206024359260018060a01b0390610cab826008541633146133e6565b610cb9611388861115613ae1565b1692835f52600c8252610cd4600160405f20015415156134d5565b835f52600c82528060405f2055604051908152a2005b346103bc575f3660031901126103bc576020602354604051908152f35b346103bc5760203660031901126103bc5760043560148110156103bc57600d01546040516001600160a01b039091168152602090f35b346103bc576020806003193601126103bc576001600160401b036004358181116103bc57610d6f9036906004016131f9565b9091610d8660018060a01b036008541633146133e6565b8111610e3757600191610da282610d9d8554613051565b613226565b5f93601f8311600114610dda5750928192935f92610dcf575b50505f19600383901b1c191690821b179055005b013590508380610dbb565b90601f19831694845f52825f20925f905b878210610e2057505083859610610e07575b505050811b019055005b01355f19600384901b60f8161c19169055838080610dfd565b808784968294958701358155019501920190610deb565b634e487b7160e01b5f52604160045260245ffd5b346103bc575f3660031901126103bc576020602654604051908152f35b346103bc575f3660031901126103bc5760206040515f805160206149958339815191528152f35b346103bc5760203660031901126103bc57610ea861314b565b6001600160a01b03811615610ec3575b610bc5602091613f6c565b5033610eb8565b346103bc5760203660031901126103bc577fae565aab888bca5e19e25a13db7b0c9144305bf55cb0f3f4d724f730e5acdd626020600435610f1660018060a01b036008541633146133e6565b80602255604051908152a1005b346103bc5760203660031901126103bc57610f3c61314b565b6001600160a01b0381811690610f6490338314908115610fbc575b8115610fae575b5061344a565b5f52600c602052600260405f20015415610f8357610f8190613e60565b005b606460405162461bcd60e51b81526020600482015260046024820152637a65726f60e01b6044820152fd5b9050600a5416331484610f5e565b80915060085416331490610f57565b346103bc576020806003193601126103bc576001600160401b036004358181116103bc57610ffd9036906004016131f9565b9161101360018060a01b036008541633146133e6565b8211610e375761102d82611028600254613051565b61327c565b5f92601f831160011461106857509181925f9261105d575b50505f19600383901b1c191660019190911b17600255005b013590508280611045565b90601f1983169360025f52825f20925f905b8682106110b15750508360019510611098575b505050811b01600255005b01355f19600384901b60f8161c1916905582808061108d565b8060018496829495870135815501950192019061107a565b346103bc5760203660031901126103bc57610f816110e561314b565b60085461110690336001600160a01b039182161490811561110b575061344a565b613ec1565b905060095416331484610f5e565b346103bc5760203660031901126103bc5761113261314b565b6008546001600160a01b03919061114c90831633146133e6565b168060018060a01b0319600b541617600b557f90ad4c550d25bd23af61db38d1ff8671b89edaaa0bca0fc36bac5084ecc120bd5f80a2005b346103bc5760403660031901126103bc576111aa6111a061314b565b60243590336135ae565b602060405160018152f35b346103bc575f3660031901126103bc576020602b54604051908152f35b346103bc5760403660031901126103bc576111eb61314b565b335f526020906005825260405f209060018060a01b031690815f52825260405f206112196024358254613594565b9055335f526005825260405f20815f52825260405f20546040519081525f80516020614975833981519152833392a360405160018152f35b346103bc5760603660031901126103bc576020610bc56044356024356004356141be565b346103bc5760a03660031901126103bc5761128e61314b565b611296613161565b6001600160401b03916064359190604435906084358581116103bc576112c09036906004016131f9565b6001600160a01b039283169490919085156114a357428710611474576112e4613361565b865f52602098602d8a5260405f20549860405190878c8301955f8051602061495583398151915287528b6040850152169a8b606084015289608084015260a083015260c082015260c0815260e081019181831090831117610e375761012260419483604052825190209161010081019461190160f01b8652610102820152015260428152611371816130a5565b51902092036114465760808792835f936040519283526040810135851a82840152803560408401520135606082015282805260015afa15610a965782905f51160361141b57815f526005845260405f20835f5284528060405f2055815f52602d845260405f2080549160018301809311611407575f8051602061497583398151915292869255604051908152a360405160018152f35b634e487b7160e01b5f52601160045260245ffd5b60405162461bcd60e51b815260048101859052600360248201526273696760e81b6044820152606490fd5b60405162461bcd60e51b815260048101889052600660248201526539b4b3b632b760d11b6044820152606490fd5b60405162461bcd60e51b8152602060048201526007602482015266195e1c1a5c995960ca1b6044820152606490fd5b60405162461bcd60e51b815260206004820152600560248201526437bbb732b960d91b6044820152606490fd5b346103bc575f3660031901126103bc57602a546040516001600160a01b039091168152602090f35b346103bc575f3660031901126103bc576020602454604051908152f35b346103bc575f3660031901126103bc57600354604d811161140757610bc5602091600a0a61364f565b346103bc575f3660031901126103bc576040515f9060025461155f81613051565b8083526001918083169081156115f15750600114611598575b61159483611588818703826130db565b6040519182918261311f565b0390f35b60025f90815260209450917f405787fa12a823e0f2b7631cc41b3ba8828b3321ca811111fa75cd3aa3bb5ace5b8284106115de5750505081019091019061158881611578565b80548585018701529285019281016115c5565b611594955061158893506020915091849260ff191682840152151560051b8201019350611578565b346103bc57610280806003193601126103bc5736610284116103bc576008546001600160a01b0391908216331480156118a3575b6116569061344a565b60405191600d90815f855b6014821061188b575050508383016001600160401b03811185821017610e37576040525f5b60148082101561188157826116a261169d8461348a565b6134c1565b16156117e357826116b383886134b0565b5116156117b557826116c761169d8461348a565b165f52600c60205260016116e28160405f20015415156134d5565b5f915f5b81811061172c575b505050906116fe6117279261353d565b61170a61169d8261348a565b84820180546001600160a01b03191691851691909117905561347c565b611686565b8561173961169d8361348a565b16156117a35761174b61169d8661348a565b8680611757848d6134b0565b5116911614611799575b80856117949211156104ee576104ee61177c61169d8861348a565b888061178a61169d8661348a565b169116141561350b565b6116e6565b9192508291611761565b509091506116fe9050611727886116ee565b60405162461bcd60e51b81526020600482015260066024820152651b9bc818591960d21b6044820152606490fd5b5081946117f19293506134b0565b5116611850575b6040515f6004825b6014831061182e577f695ac3ac73f08f2002284ffe563cefe798ee2878a5e04219522e2e99eb89d1688585a1005b8135908682168092036103bc5760019181526020809101920192019190611800565b60405162461bcd60e51b81526020600482015260096024820152681b9bc8195e1d195b9960ba1b6044820152606490fd5b50509250506117f8565b60016020819286865416815201930191019091611661565b506009548216331461164d565b346103bc5760203660031901126103bc575f805160206148d583398151915260206118d961314b565b600a54906001600160a01b039033828416148015611917575b6118fb9061344a565b166001600160a01b0319919091168117600a55604051908152a1005b50600854821633146118f2565b346103bc575f3660031901126103bc576009546040516001600160a01b039091168152602090f35b346103bc575f3660031901126103bc576020602c54604051908152f35b346103bc5760203660031901126103bc576001600160a01b0361198a61314b565b165f52602d602052602060405f2054604051908152f35b346103bc5760403660031901126103bc576119ba61314b565b600854602435916001600160a01b0391821633148015611af5575b6119de9061344a565b1690815f52602090600c82526119fc600160405f20015415156134d5565b604051635641ec0360e01b81528281600481875afa908115610a96575f91611ac8575b50611a9a57907fbda9398315c83ccef012bcaa318a2ff7b680f36429d36597bd4bc25ac11ead5991835f52600c8252611a61600260405f200154602354613594565b602355835f52600c825280600260405f200155611a91612710611a86836023546135a1565b806023551115613aad565b604051908152a2005b60405162461bcd60e51b8152600481018390526006602482015265195b595e1a5d60d21b6044820152606490fd5b611ae89150833d8511611aee575b611ae081836130db565b810190613797565b84611a1f565b503d611ad6565b50600954821633146119d5565b346103bc5760203660031901126103bc57600435611b2b60018060a01b036008541633146133e6565b670de0b6b3a76400008111611b6b576020817f056863905a721211fc4dda1d688efc8f120b4b689d2e41da8249cf6eff20069192602955604051908152a1005b60405162461bcd60e51b815260206004820152600360248201526264656760e81b6044820152606490fd5b346103bc575f3660031901126103bc576115946115886131d8565b346103bc575f3660031901126103bc57602060405160148152f35b346103bc575f3660031901126103bc57611be76024546136d0565b5f905b60148210611bfe575b602090604051908152f35b600d8201546001600160a01b03168015611c4357611c3d91611c37915f52600c602052611c31600660405f2001546136d0565b906135a1565b9161347c565b90611bea565b50611bf3565b346103bc5760203660031901126103bc576001600160a01b03611c6a61314b565b165f526004602052602060405f2054604051908152f35b346103bc5760203660031901126103bc575f805160206148958339815191526020600435611cba60018060a01b036008541633146133e6565b611cc8611388821115613418565b80602c55604051908152a1005b346103bc5760403660031901126103bc57611cee61314b565b600854602435906001600160a01b0390811690611d0c3383146133e6565b5f198314611dd5575b60075484821691168114611d58575b92610f81937fab2246061d7b0dd3631d037e3f6da75782ae489eeb9f6af878a4b25df9b07c776020604051868152a2613979565b6040516370a0823160e01b815230600482015293909250602084602481865afa938415610a96575f94611da0575b50611d97610f819460245490613594565b92909350611d24565b93506020843d8211611dcd575b81611dba602093836130db565b810103126103bc57925192611d97611d86565b3d9150611dad565b6040516370a0823160e01b81523060048201529092506020816024818787165afa908115610a96575f91611e0b575b5091611d15565b90506020813d8211611e34575b81611e25602093836130db565b810103126103bc575184611e04565b3d9150611e18565b346103bc5760403660031901126103bc57600435611e58613161565b611e6660025f5414156136f8565b60025f55906001600160a01b03908183161561207c575b611e8c60ff6021541615613731565b8183169030821461204b57805f198103611fe95750506022546024549060255491611eb783826135a1565b821115611fe057611ed192611ecb916135a1565b90613594565b602460208460075416604051928380926370a0823160e01b82523360048301525afa908115610a96575f91611faf575b5080821015611fa857505b8015611f7a57604081611f5481611f467f90890809c654f11d6e72a28fa60149770a0d11ec6c92319d6ceb2bb0a4ea1a15956020996138ba565b9660075416309033906137af565b611f60816024546135a1565b60245581519085825286820152a260015f55604051908152f35b60405162461bcd60e51b8152602060048201526006602482015265185b5bdd5b9d60d21b6044820152606490fd5b9050611f0c565b90506020813d8211611fd8575b81611fc9602093836130db565b810103126103bc575185611f01565b3d9150611fbc565b5050505f611ed1565b6022549081611ffa575b5050611f0c565b6120129061200d602454602554906135a1565b6135a1565b1161201e578480611ff3565b60405162461bcd60e51b81526020600482015260056024820152641b1a5b5a5d60da1b6044820152606490fd5b60405162461bcd60e51b81526020600482015260096024820152681c9958da5c1a595b9d60ba1b6044820152606490fd5b339250611e7d565b346103bc5760403660031901126103bc57610f816120a061314b565b6120a8613161565b906120be60018060a01b036008541633146133e6565b613bc5565b346103bc575f3660031901126103bc576008546040516001600160a01b039091168152602090f35b346103bc5760e03660031901126103bc5761210461314b565b61210c613161565b6001600160a01b03604435818116908190036103bc576001600160401b03936064358581116103bc57612143903690600401613192565b926084358681116103bc5761215c903690600401613192565b9460a435968288168098036103bc5760c435938385168095036103bc576027546126b85783169660018060a01b03199688886007541617600755805180155f1461261d5750506040516395d89b4160e01b81525f816004818c5afa908115610a96575f91612603575b506040519061220360278383516121e4816020968780860191016130fe565b810166081b95985d5b1d60ca1b858201520360078101855201836130db565b815190848211610e3757819060019361222083610d9d8754613051565b81601f84116001146125a157505f92612596575b50505f19600383901b1c191690821b1790555b805190816124f45750506040516395d89b4160e01b81525f816004818b5afa908115610a96575f916124d2575b50604051906122ae60228360209361372b60f11b8583015261229e815180928786860191016130fe565b81010360028101855201836130db565b8151928311610e375782916122c883611028600254613051565b81601f841160011461246b57505f92612460575b50508160011b915f199060031b1c1916176002555b604051809663313ce56760e01b82528160046020998a935afa8015610a96575f90612428575b60ff9150166101008110156123fd578680955f80516020614915833981519152828b975f805160206148f5833981519152825f805160206148b58339815191529e995f805160206148d58339815191529d995f805160206148758339815191529960035516808a6008541617600855604051908152a180876009541617600955604051908152a18084602a541617602a55604051908152a1600a541617600a55604051908152a15f80516020614895833981519152816103e880602c55604051908152a160c8602b5560405160c88152a14260268190556027556529d635a8e000602955005b60405162461bcd60e51b815260048101889052600360248201526264656360e81b6044820152606490fd5b508681813d8311612459575b61243e81836130db565b810103126103bc575160ff811681036103bc5760ff90612317565b503d612434565b0151905089806122dc565b60025f9081528181209450601f198616915b8282106124ba5750509084600195949392106124a2575b505050811b016002556122f1565b01515f1960f88460031b161c19169055898080612494565b8060018697829497870151815501960194019061247d565b6124ee91503d805f833e6124e681836130db565b8101906132cf565b89612274565b90918211610e3757819061250d82611028600254613051565b60209081601f841160011461254857505f9261253d575b50508160011b915f199060031b1c1916176002556122f1565b015190508980612524565b60025f9081528181209450601f198616915b82821061257e5750509084600195949392106124a257505050811b016002556122f1565b8060018697829497870151815501960194019061255a565b015190508c80612234565b9190859450601f198416855f52835f20935f905b8282106125ea57505084116125d2575b505050811b019055612247565b01515f1960f88460031b161c191690558c80806125c5565b84840151865588979095019493840193908101906125b5565b61261791503d805f833e6124e681836130db565b8a6121c5565b838111610e37578060019261263682610d9d8654613051565b60209081601f841160011461266f57505f92612664575b50505f19600383901b1c191690821b179055612247565b015190508c8061264d565b9190859450601f198416855f52835f20935f905b82821061269f57505084116125d257505050811b019055612247565b8484015186558897909501949384019390810190612683565b60405162461bcd60e51b815260206004820152600b60248201526a1a5b9a5d1a585b1a5e995960aa1b6044820152606490fd5b346103bc575f3660031901126103bc5760206040515f805160206149558339815191528152f35b346103bc5760403660031901126103bc5761272b61314b565b600854602435916001600160a01b03918216331480156127ec575b61274f9061344a565b1690815f52600c60205261276b600160405f20015415156134d5565b815f52600c60205280600360405f200154116127be5760207f1796a8e0760e2de5b72e7bf64fccb7666c48ceab94cb6cae7cb7eff4b6f641ab91835f52600c825280600460405f200155604051908152a2005b60405162461bcd60e51b8152602060048201526006602482015265363a1036b4b760d11b6044820152606490fd5b5060095482163314612746565b346103bc575f3660031901126103bc57600a546040516001600160a01b039091168152602090f35b346103bc575f3660031901126103bc576020602854604051908152f35b346103bc575f3660031901126103bc576020602954604051908152f35b346103bc5760203660031901126103bc576001600160a01b0361287c61314b565b165f52600c60205261012060405f208054906001810154906002810154600382015460048301546005840154916006850154936008600787015496015496604051988952602089015260408801526060870152608086015260a085015260c084015260e0830152610100820152f35b346103bc5760403660031901126103bc5761290461314b565b335f526020906005825260405f209060018060a01b031690815f52825260405f2061121960243582546135a1565b346103bc575f3660031901126103bc576020610bc5613361565b346103bc575f3660031901126103bc576020602754604051908152f35b346103bc575f3660031901126103bc57602060ff602154166040519015158152f35b346103bc5760203660031901126103bc576129a461314b565b6001600160a01b038116156129bf575b610bc56020916140e9565b50336129b4565b346103bc575f3660031901126103bc576020600354604051908152f35b346103bc575f3660031901126103bc5760206040516301e185588152f35b346103bc5760603660031901126103bc57612a1a61314b565b612a5d612a25613161565b6044359060018060a01b03841693845f526020946005865260405f20335f52865260405f2054845f198203612a66575b5050506135ae565b60405160018152f35b612a6f91613594565b815f526005875260405f20335f52875260405f2055805f526005865260405f20335f52865260405f2054906040519182525f80516020614975833981519152873393a3858084612a55565b346103bc575f3660031901126103bc57600b546001600160a01b03163303612b06573360018060a01b031960085416176008555f805160206148f58339815191526020604051338152a1005b60405162461bcd60e51b815260206004820152600b60248201526a6e6f742070656e64696e6760a81b6044820152606490fd5b346103bc575f3660031901126103bc576020600654604051908152f35b346103bc575f3660031901126103bc576022546024549060255490612b7b82846135a1565b811115612b9157611ecb610bc5926020946135a1565b50505060205f610bc5565b346103bc5760203660031901126103bc57600435801515908181036103bc577fba40372a3a724dca3c57156128ef1e896724b65b37a17f190b1ad5de68f3a4f39160209115612c2c57600a54612c0690336001600160a01b0391821614908115612c1e575061344a565b60ff196021541660ff821617602155604051908152a1005b905060085416331485610f5e565b612c4160018060a01b036008541633146133e6565b612c06565b346103bc5760a03660031901126103bc57612c5f61314b565b6008546084359190602435906001600160a01b03906064359060443590612c8990841633146133e6565b602095612c998488541615613a2a565b612ca860ff6021541615613731565b83861693612cb7851515613a5c565b845f52600c8852612ccf600160405f2001541561353d565b60405163fbfa77cf60e01b81528881600481895afa908115610a96575f91612ef2575b508130911603612ec557604051631f1fcd5160e01b8152908882600481895afa918215610a96575f92612e96575b508060075416911603612e6b57612d46612710612d3f876023546135a1565b1115613aad565b828211612e3e57917f5a6abd2af9fe6c0554fa08649e2d86e4393ff19dc304d072d38d295c9291d4dc91612e2384612e3699612d8b611388612e2e9a99981115613ae1565b60088760405192612d9b84613089565b848452808401428152604085018c81526060860189815260808701908b825260a088019242845260c08901945f8652600c60e08b01975f89526101008c01995f8b525f525260405f2099518a555160018a0155516002890155516003880155516004870155516005860155516006850155516007840155519101556040519384938885613b12565b0390a26023546135a1565b602355613572565b610f81613b2e565b60405162461bcd60e51b815260048101889052600560248201526472616e676560d81b6044820152606490fd5b60405162461bcd60e51b815260048082018990526024820152631dd85b9d60e21b6044820152606490fd5b612eb7919250893d8b11612ebe575b612eaf81836130db565b810190613a8e565b9089612d20565b503d612ea5565b60405162461bcd60e51b81526004810189905260056024820152641d985d5b1d60da1b6044820152606490fd5b612f099150893d8b11612ebe57612eaf81836130db565b89612cf2565b346103bc5760403660031901126103bc57612f2861314b565b602435335f52600560205260405f209160018060a01b031691825f526020528060405f20556040519081525f8051602061497583398151915260203392a3602060405160018152f35b346103bc5760203660031901126103bc576020610bc56004356136d0565b346103bc575f3660031901126103bc576040515f9060018054612fb181613051565b808452908281169081156115f15750600114612fd75761159483611588818703826130db565b9250805f52602092835f20915f925b828410612fff5750505081019091019061158881611578565b8054858501870152928501928101612fe6565b346103bc5760203660031901126103bc576020610bc560043561364f565b346103bc575f3660031901126103bc576020610bc5602454602554906135a1565b90600182811c9216801561307f575b602083101461306b57565b634e487b7160e01b5f52602260045260245ffd5b91607f1691613060565b61012081019081106001600160401b03821117610e3757604052565b608081019081106001600160401b03821117610e3757604052565b604081019081106001600160401b03821117610e3757604052565b601f909101601f19168101906001600160401b03821190821017610e3757604052565b5f5b83811061310f5750505f910152565b8181015183820152602001613100565b6040916020825261313f81518092816020860152602086860191016130fe565b601f01601f1916010190565b600435906001600160a01b03821682036103bc57565b602435906001600160a01b03821682036103bc57565b6001600160401b038111610e3757601f01601f191660200190565b81601f820112156103bc578035906131a982613177565b926131b760405194856130db565b828452602083830101116103bc57815f926020809301838601378301015290565b604051906131e5826130c0565b600582526418171a171b60d91b6020830152565b9181601f840112156103bc578235916001600160401b0383116103bc57602083818601950101116103bc57565b90601f8211613233575050565b6001915f9083825260208220906020601f850160051c83019410613272575b601f0160051c01915b8281106132685750505050565b818155830161325b565b9092508290613252565b601f8111613288575050565b5f906002825260208220906020601f850160051c830194106132c5575b601f0160051c01915b8281106132ba57505050565b8181556001016132ae565b90925082906132a5565b6020818303126103bc578051906001600160401b0382116103bc570181601f820112156103bc57805161330181613177565b9261330f60405194856130db565b818452602082840101116103bc5761332d91602080850191016130fe565b90565b8181029291811591840414171561140757565b811561334d570490565b634e487b7160e01b5f52601260045260245ffd5b600a6020604051613371816130c0565b82815201691b985c1e4815985d5b1d60b21b81522061338e6131d8565b602081519101206040519060208201925f805160206149958339815191528452604083015260608201524660808201523060a082015260a0815260c0810181811060018060401b03821117610e375760405251902090565b156133ed57565b60405162461bcd60e51b815260206004820152600360248201526233b7bb60e91b6044820152606490fd5b1561341f57565b60405162461bcd60e51b815260206004820152600360248201526266656560e81b6044820152606490fd5b1561345157565b606460405162461bcd60e51b81526020600482015260046024820152630c2eae8d60e31b6044820152fd5b5f1981146114075760010190565b601481101561349c5760051b60040190565b634e487b7160e01b5f52603260045260245ffd5b90601481101561349c5760051b0190565b356001600160a01b03811681036103bc5790565b156134dc57565b60405162461bcd60e51b81526020600482015260076024820152663ab735b737bbb760c91b6044820152606490fd5b1561351257565b60405162461bcd60e51b815260206004820152600360248201526206475760ec1b6044820152606490fd5b1561354457565b60405162461bcd60e51b815260206004820152600660248201526565786973747360d01b6044820152606490fd5b602080546001600160a01b0319166001600160a01b0392909216919091179055565b9190820391821161140757565b9190820180921161140757565b6001600160a01b0391821692919083151580613645575b15613617575f80516020614935833981519152916020911692835f526004825260405f206135f4828254613594565b9055845f526004825260405f2061360c8282546135a1565b9055604051908152a3565b60405162461bcd60e51b815260206004820152600660248201526562616420746f60d01b6044820152606490fd5b50308414156135c5565b60065480156136845761367f61332d92613679613671602454602554906135a1565b611ecb613688565b90613330565b613343565b5090565b6136a061369760265442613594565b60295490613330565b670de0b6b3a764000090818110156136ca5761332d916136c36028548093613330565b0490613594565b50505f90565b6136e2613671602454602554906135a1565b80156136ca5761367f61332d9260065490613330565b156136ff57565b60405162461bcd60e51b815260206004820152600a6024820152695245454e5452414e435960b01b6044820152606490fd5b1561373857565b60405162461bcd60e51b815260206004820152600860248201526739b43aba3237bbb760c11b6044820152606490fd5b3d15613792573d9061377982613177565b9161378760405193846130db565b82523d5f602084013e565b606090565b908160209103126103bc575180151581036103bc5790565b6040516323b872dd60e01b602082019081526001600160a01b03938416602483015292909316604484015260648084019490945292825260a0820192906001600160401b03841183851017610e37575f809493819460405251925af1613813613768565b81613856575b501561382157565b60405162461bcd60e51b815260206004820152600d60248201526c5452414e534645525f46524f4d60981b6044820152606490fd5b805180159250821561386b575b50505f613819565b61387e9250602080918301019101613797565b5f80613863565b1561388c57565b60405162461bcd60e51b815260206004820152600660248201526573686172657360d01b6044820152606490fd5b60065492916138fd9084801561393f576138d7906138ef92613330565b6138e9613671602454602554906135a1565b90613343565b80945b61200d821515613885565b6006556001600160a01b03165f81815260046020526040902080546139239085906135a1565b90555f5f805160206149358339815191526020604051868152a3565b5080946138f2565b1561394e57565b606460405162461bcd60e51b81526020600482015260046024820152636c6f737360e01b6044820152fd5b5f929183809360405190602082019363a9059cbb60e01b855260018060a01b031660248301526044820152604481526139b1816130a5565b51925af16139bd613768565b816139fb575b50156139cb57565b60405162461bcd60e51b81526020600482015260086024820152672a2920a729a322a960c11b6044820152606490fd5b8051801592508215613a10575b50505f6139c3565b613a239250602080918301019101613797565b5f80613a08565b15613a3157565b606460405162461bcd60e51b8152602060048201526004602482015263199d5b1b60e21b6044820152fd5b15613a6357565b606460405162461bcd60e51b815260206004820152600460248201526330b2323960e11b6044820152fd5b908160209103126103bc57516001600160a01b03811681036103bc5790565b15613ab457565b60405162461bcd60e51b8152602060048201526005602482015264726174696f60d81b6044820152606490fd5b15613ae857565b60405162461bcd60e51b8152602060048201526002602482015261383360f11b6044820152606490fd5b9094939260609260808301968352602083015260408201520152565b5f90815b601480841015613bbf57600d8481018054919290916001600160a01b03169081613b7557505050506001810180911161140757613b6f909261347c565b91613b32565b84969394613b8b575b505050613b6f915061347c565b613b958785613594565b9081101561349c57613b6f940160018060a01b0319918282541617905581541690555f8080613b7e565b50509050565b6001600160a01b039182165f613bdc821515613a5c565b83831692838252602090600c82526040916001838520015415613e3757848452600c815260018385200154613e0e57858452600c815282842091835192613c2284613089565b8054845260018101548385015260028101548585019081526003820154916060860192835260048101546080870190815260058201549660a0810197885260068301549260c08201938452600781015460e083015260080154956101009687830152613c8d90613e60565b835160235490613c9c916135a1565b6023558b8a52600c87528989812060060155519651925193519051915193885197613cc689613089565b8852868801848152898901918252606089019283526080890193845260a0890194855260c0890195865260e08901968b88528901978b89528c8c52600c9052898b2098518955516001890155516002880155516003870155516004860155516005850155516006840155516007830155519060080155833b15613e0a57805163ce5494bb60e01b81526004810184905290828260248183895af18015613e0057613dd6575b505081837f100b69bb6b504e1252e36b375233158edee64d071b399e2f81473a695fd1b0218380a35b60148110613da25750505050565b80600d0180548486821614613dc1575050613dbc9061347c565b613d94565b6001600160a01b031916909217909155505050565b6001600160401b038211613dec57525f80613d6b565b634e487b7160e01b83526041600452602483fd5b81513d85823e3d90fd5b5080fd5b60649083519062461bcd60e51b8252600482015260036024820152626e657760e81b6044820152fd5b60649083519062461bcd60e51b8252600482015260036024820152621bdb1960ea1b6044820152fd5b6001600160a01b03165f818152600c60205260408120600201546023547f4201c688d84c01154d321afa0c72f1bffe9eef53005c9de9d035074e71e9b32a9291613ea991613594565b602355828152600c60205280600260408220015580a2565b5f90815b60148110613f015760405162461bcd60e51b815260206004820152600c60248201526b6e6f7420696e20717565756560a01b6044820152606490fd5b600d810180546001600160a01b0384811692919081168314613f2e57505050613f299061347c565b613ec5565b6001600160a01b0319169055927f8e1ec3c16d6a67ea8effe2ac7adef9c2de0bc0dc47c49cdf18f6a8b0048085be92509050613f68613b2e565b80a2565b60235415613fd95760018060a01b0316805f52600c602052612710613fa1600260405f200154613679602454602554906135a1565b04905f52600c602052600660405f2001549060ff602154165f14613fc3575090565b808211613fd05750505f90565b61332d91613594565b6001600160a01b03165f908152600c602052604090206006015490565b60ff602154166140e457602454906025549061401282846135a1565b92612710918261402486602354613330565b049060018060a01b0316926140495f96858852600c6020526002604089200154613330565b04928552600c602052604085209360068501549060046003870154960154948281118015906140da575b6140d05761408a9261408491613594565b92613594565b808210156140c85750905b808210156140c05750915b8210156140ac57505090565b909150808210156140bb575090565b905090565b9050916140a0565b905090614095565b5050505050505090565b5081841115614073565b505f90565b6001600160a01b03165f818152600c602090815260408220600501549192919061412c6141168342613594565b92848652600c8352600160408720015490613594565b92821515806141b5575b80614163575b1561415c57604085600c61367f959460079461332d995252200154613330565b5050505090565b506040516308bcf8b560e21b81528281600481855afa9081156141aa57869161418d575b5061413c565b6141a49150833d8511611aee57611ae081836130db565b5f614187565b6040513d88823e3d90fd5b50831515614136565b90915f90338252600c6020938185526040956141e16001888720015415156134d5565b6007805488516370a0823160e01b81523360048201526001600160a01b039291602491908a9082908490829088165afa90811561454b57899161451a575b5061422a88876135a1565b116144ef57836144e0575b61423f8533614555565b338952868a52828b8a20016142558782546135a1565b905561426033613ff6565b9361426a33613f6c565b98898110156144d857925b8a8d8d8661448d575b908b6142e696959493928a61445e575b5050505061429c858a6135a1565b9087821015614412576142d5926142cd916142c16142ba858c613594565b8254613594565b90558754169188613594565b903390613979565b6142e18761200d613688565b613594565b8480821115614407576142f891613594565b6028555b338852858952898820914260058401554260265582015460088301549160026006850154940154958c519788528b8801528b8701526060860152608085015260a084015260c083015260e08201527f67f96d2854a335a4cadb49f84fd3ca6f990744ddb3feceeb4b349d2d53d32ad36101003392a23383528352600284832001541580156143fb575b156143f457508251630efbb5cb60e41b8152918083600481335afa9384156143e9575081936143b5575b50505090565b9091809350813d83116143e2575b6143cd81836130db565b810103126143df5750515f80806143af565b80fd5b503d6143c3565b51913d9150823e3d90fd5b9250505090565b5060ff60215416614385565b5050876028556142fc565b87808311614424575b505050506142d5565b6144559361444b926144406144398487613594565b82546135a1565b905588541692613594565b90309033906137af565b5f80808761441b565b600693339052528d20016144738882546135a1565b9055614481876025546135a1565b6025558b8e8b8f61428e565b9b908b6144ca888f94836142e69a99989796338852526006858720016144b4838254613594565b90556144c282602554613594565b602555613594565b9d919293949596505061427e565b508892614275565b6144ea843361476e565b614235565b60649189918b519262461bcd60e51b845260048401528201526662616c616e636560c81b6044820152fd5b90508981813d8311614544575b61453181836130db565b8101031261454057515f61421f565b8880fd5b503d614527565b8b513d8b823e3d90fd5b9060018060a01b0392838316935f94808652602091600c835260408088206001810154421461473257600561458c91015442613594565b91821561473d57861561473257838952600c8552818920600601548251634731a87160e11b81529890868a600481895afa9081156147285785969798999a8c926146f0575b506145fc956145e86301e18558936145ed93613594565b613330565b612710958691602b5490613330565b0404958a52600c875283614613848c20548b613330565b0493614621602c548b613330565b04966146318861200d878a6135a1565b99808b116146e6575b5092899a8193926146809796958c7f5c971a56b919bc03cfcc69b3500de2c9400b81ff5977e541c5075e04348756f59c9d614685575b5050505050505194859485613b12565b0390a1565b60049261469282306138ba565b896146c6575b505050308352522054806146b1575b808084928d614670565b6146bf91602a5416306135ae565b5f806146a7565b6146de9261367f6146d7928c613330565b90306135ae565b8d5f80614698565b995061468061463a565b955090508785813d8111614721575b61470981836130db565b8101031261471d57935185946145fc6145d1565b8a80fd5b503d6146ff565b84513d8d823e3d90fd5b509395505050505050565b815162461bcd60e51b815260048101869052600a60248201526973616d6520626c6f636b60b01b6044820152606490fd5b906147db9160018060a01b0316600660405f838152600c6020526147c88584848420015461479e82821015613947565b602354806147e0575b50868452600c6020526008858520016147c18382546135a1565b9055613594565b938152600c602052200155602554613594565b602555565b614815908590602554908161481e575b5050888652600c60205260028787200161480b828254613594565b9055602354613594565b6023555f6147a7565b61482d925061367f9086613330565b888652600c602052868620600201548082101561484d57505b5f806147f0565b905061484656fe06c03dc1e1399953729e53ec7181b6e753942e20fafe5b55917f5c34559ae69cdf3c41a916aecbf42361a147f8348c242662c3ce20ecef30e826b80642477a3d0810a1c261ca2c0cd86a0152c51c43ba9dc329639d2349f98140891b2ea798eb7a7883b0074f96e2c7fab65eb25abf624c488761a5db889e3bb84855dcc6daaf837b9ad138a0a1839a9637afce5306a5c13e23eb63365686843a5319a243609c8d55d160c0009eb3d739442df0a3ca089ed64378bfac017e7ddad463f9815b87ff54978127edd34aec0f9061fb3b155fbe0ededdfa881ee3e0d541d3a1eef438ddf252ad1be2c89b69c2b068fc378daa952ba7f163c4a11628f55a4df523b3ef6e71edae12b1b97f4d1f60370fef10105fa2faae0126114a169c64845d6126c98c5be1e5ebec7d5bd14f71427d1e84f3dd0314c0f7b2291e5b200ac8c7c3b9258b73c3c69bb8fe3d512ecc4cf759cc79239f7b179b0ffacaa9a75d522b39400fa2646970667358221220985893f96822ed81c3d637600804b8f7e07903181ae4ecd941abb3c1abb707d164736f6c63430008140033","linkReferences":{}},"methodIdentifiers":{"API_VERSION()":"77e3b267","DEGRADATION_COEFFICIENT()":"d250f088","DOMAIN_SEPARATOR()":"3644e515","DOMAIN_TYPE_HASH()":"c0993eea","MAXIMUM_STRATEGIES()":"772d2312","MAX_BPS()":"fd967f47","PERMIT_TYPE_HASH()":"4d4bb197","SECS_PER_YEAR()":"28998af0","_shareValuePublic_(uint256)":"06a52a07","_sharesForAmountPublic_(uint256)":"076d8942","acceptGovernance()":"238efcbc","activation()":"3629c8de","addStrategy(address,uint256,uint256,uint256,uint256)":"14b4e26e","addStrategyToQueue(address)":"f76e4caa","allowance(address,address)":"dd62ed3e","apiVersion()":"25829410","approve(address,uint256)":"095ea7b3","availableDepositLimit()":"153c27c4","balanceOf(address)":"70a08231","creditAvailable(address)":"d7648013","debtOutstanding(address)":"bdcf36bb","debtRatio()":"cea55f57","decimals()":"313ce567","decreaseAllowance(address,uint256)":"a457c2d7","deposit(uint256,address)":"6e553f65","depositLimit()":"ecf70858","emergencyShutdown()":"3403c2fc","expectedReturn(address)":"33586b67","governance()":"5aa6e675","guardian()":"452a9320","increaseAllowance(address,uint256)":"39509351","initialize(address,address,address,string,string,address,address)":"538baeab","lastReport()":"c3535b52","lockedProfit()":"44b81396","lockedProfitDegradation()":"42232716","management()":"88a8d602","managementFee()":"a6f7f5d6","maxAvailableShares()":"75de2902","migrateStrategy(address,address)":"6cb56d19","name()":"06fdde03","nonces(address)":"7ecebe00","pendingGovernance()":"f39c38a0","performanceFee()":"87788782","permit(address,address,uint256,uint256,bytes)":"9fd5a6cf","pricePerShare()":"99530b06","removeStrategyFromQueue(address)":"b22439f5","report(uint256,uint256,uint256)":"a1d9bafc","revokeStrategy(address)":"bb994d48","rewards()":"9ec5a894","setDepositLimit(uint256)":"bdc8144b","setEmergencyShutdown(bool)":"14c64402","setGovernance(address)":"ab033ea9","setGuardian(address)":"8a0dac4a","setLockedProfitDegradation(uint256)":"7a550365","setManagement(address)":"d4a22bde","setManagementFee(uint256)":"fe56e232","setName(string)":"c47f0027","setPerformanceFee(uint256)":"70897b23","setRewards(address)":"ec38a862","setSymbol(string)":"b84c8246","setWithdrawalQueue(address[20])":"94148415","strategies(address)":"39ebf823","sweep(address,uint256)":"6ea056a9","symbol()":"95d89b41","token()":"fc0c546a","totalAssets()":"01e1d114","totalDebt()":"fc7b9c18","totalIdle()":"9aa7df94","totalSupply()":"18160ddd","transfer(address,uint256)":"a9059cbb","transferFrom(address,address,uint256)":"23b872dd","updateStrategyDebtRatio(address,uint256)":"7c6a4f24","updateStrategyMaxDebtPerHarvest(address,uint256)":"4757a156","updateStrategyMinDebtPerHarvest(address,uint256)":"e722befe","updateStrategyPerformanceFee(address,uint256)":"d0194ed6","withdraw(uint256,address,uint256)":"e63697c8","withdrawalQueue(uint256)":"c822adda"},"id":9}