{"abi":[{"type":"constructor","inputs":[{"name":"_want","type":"address","internalType":"address"},{"name":"_controller","type":"address","internalType":"address"},{"name":"_name","type":"string","internalType":"string"},{"name":"_riskScore","type":"uint8","internalType":"uint8"}],"stateMutability":"nonpayable"},{"type":"function","name":"balanceOf","inputs":[],"outputs":[{"name":"","type":"uint256","internalType":"uint256"}],"stateMutability":"view"},{"type":"function","name":"controller","inputs":[],"outputs":[{"name":"","type":"address","internalType":"address"}],"stateMutability":"view"},{"type":"function","name":"deposit","inputs":[{"name":"_amount","type":"uint256","internalType":"uint256"}],"outputs":[{"name":"","type":"uint256","internalType":"uint256"}],"stateMutability":"nonpayable"},{"type":"function","name":"emergencyWithdraw","inputs":[],"outputs":[{"name":"","type":"uint256","internalType":"uint256"}],"stateMutability":"nonpayable"},{"type":"function","name":"getAPY","inputs":[],"outputs":[{"name":"","type":"uint256","internalType":"uint256"}],"stateMutability":"view"},{"type":"function","name":"getRiskScore","inputs":[],"outputs":[{"name":"","type":"uint8","internalType":"uint8"}],"stateMutability":"view"},{"type":"function","name":"getTVL","inputs":[],"outputs":[{"name":"","type":"uint256","internalType":"uint256"}],"stateMutability":"view"},{"type":"function","name":"getTotalDeposits","inputs":[],"outputs":[{"name":"","type":"uint256","internalType":"uint256"}],"stateMutability":"view"},{"type":"function","name":"harvest","inputs":[],"outputs":[{"name":"","type":"uint256","internalType":"uint256"}],"stateMutability":"nonpayable"},{"type":"function","name":"harvestCalled","inputs":[],"outputs":[{"name":"","type":"bool","internalType":"bool"}],"stateMutability":"view"},{"type":"function","name":"isPaused","inputs":[],"outputs":[{"name":"","type":"bool","internalType":"bool"}],"stateMutability":"view"},{"type":"function","name":"name","inputs":[],"outputs":[{"name":"","type":"string","internalType":"string"}],"stateMutability":"view"},{"type":"function","name":"pause","inputs":[],"outputs":[],"stateMutability":"nonpayable"},{"type":"function","name":"setAPY","inputs":[{"name":"apy","type":"uint256","internalType":"uint256"}],"outputs":[],"stateMutability":"nonpayable"},{"type":"function","name":"setBalance","inputs":[{"name":"balance","type":"uint256","internalType":"uint256"}],"outputs":[],"stateMutability":"nonpayable"},{"type":"function","name":"unpause","inputs":[],"outputs":[],"stateMutability":"nonpayable"},{"type":"function","name":"want","inputs":[],"outputs":[{"name":"","type":"address","internalType":"address"}],"stateMutability":"view"},{"type":"function","name":"withdraw","inputs":[{"name":"_amount","type":"uint256","internalType":"uint256"}],"outputs":[{"name":"","type":"uint256","internalType":"uint256"}],"stateMutability":"nonpayable"},{"type":"function","name":"withdrawAll","inputs":[],"outputs":[{"name":"","type":"uint256","internalType":"uint256"}],"stateMutability":"nonpayable"},{"type":"event","name":"Deposit","inputs":[{"name":"caller","type":"address","indexed":true,"internalType":"address"},{"name":"amount","type":"uint256","indexed":false,"internalType":"uint256"},{"name":"shares","type":"uint256","indexed":false,"internalType":"uint256"}],"anonymous":false},{"type":"event","name":"EmergencyWithdraw","inputs":[{"name":"amount","type":"uint256","indexed":false,"internalType":"uint256"}],"anonymous":false},{"type":"event","name":"Harvest","inputs":[{"name":"harvested","type":"uint256","indexed":false,"internalType":"uint256"}],"anonymous":false},{"type":"event","name":"StrategyPaused","inputs":[],"anonymous":false},{"type":"event","name":"StrategyUnpaused","inputs":[],"anonymous":false},{"type":"event","name":"Withdraw","inputs":[{"name":"caller","type":"address","indexed":true,"internalType":"address"},{"name":"shares","type":"uint256","indexed":false,"internalType":"uint256"},{"name":"amount","type":"uint256","indexed":false,"internalType":"uint256"}],"anonymous":false}],"bytecode":{"object":"0x60a06040526101f460045534801562000016575f80fd5b5060405162000e6338038062000e63833981016040819052620000399162000233565b838383836001600160a01b038416620000a85760405162461bcd60e51b815260206004820152602660248201527f4261736553747261746567793a2077616e7420616464726573732063616e6e6f60448201526507420626520360d41b60648201526084015b60405180910390fd5b6001600160a01b038316620001155760405162461bcd60e51b815260206004820152602c60248201527f4261736553747261746567793a20636f6e74726f6c6c6572206164647265737360448201526b02063616e6e6f7420626520360a41b60648201526084016200009f565b5f8160ff161180156200012c5750600a8160ff1611155b620001945760405162461bcd60e51b815260206004820152603160248201527f4261736553747261746567793a207269736b2073636f7265206d7573742062656044820152700206265747765656e203120616e6420313607c1b60648201526084016200009f565b6001600160a01b0380851660805260018054918516620100000262010000600160b01b03199092169190911790555f620001cf8382620003c4565b506001805461ffff191660ff909216919091179055506200048c95505050505050565b80516001600160a01b038116811462000209575f80fd5b919050565b634e487b7160e01b5f52604160045260245ffd5b805160ff8116811462000209575f80fd5b5f805f806080858703121562000247575f80fd5b6200025285620001f2565b9350602062000263818701620001f2565b60408701519094506001600160401b038082111562000280575f80fd5b818801915088601f83011262000294575f80fd5b815181811115620002a957620002a96200020e565b604051601f8201601f19908116603f01168101908382118183101715620002d457620002d46200020e565b816040528281528b86848701011115620002ec575f80fd5b5f93505b828410156200030f5784840186015181850187015292850192620002f0565b5f8684830101528097505050505050506200032d6060860162000222565b905092959194509250565b600181811c908216806200034d57607f821691505b6020821081036200036c57634e487b7160e01b5f52602260045260245ffd5b50919050565b601f821115620003bf575f81815260208120601f850160051c810160208610156200039a5750805b601f850160051c820191505b81811015620003bb57828155600101620003a6565b5050505b505050565b81516001600160401b03811115620003e057620003e06200020e565b620003f881620003f1845462000338565b8462000372565b602080601f8311600181146200042e575f8415620004165750858301515b5f19600386901b1c1916600185901b178555620003bb565b5f85815260208120601f198616915b828110156200045e578886015182559484019460019091019084016200043d565b50858210156200047c57878501515f19600388901b60f8161c191681555b5050505050600190811b01905550565b6080516109be620004a55f395f61016801526109be5ff3fe608060405234801561000f575f80fd5b506004361061011c575f3560e01c8063722713f7116100a9578063b6b55f251161006e578063b6b55f2514610217578063d2cbf7ad1461022a578063db2e21bc14610232578063f77c47911461023a578063fb1669ca14610253575f80fd5b8063722713f7146101ef5780638456cb59146101f7578063853828b6146101ff57806397b3fcaa146101ef578063b187bd2614610207575f80fd5b806324f45e67116100ef57806324f45e67146101a25780632b35f739146101b75780632e1a7d4d146101cc5780633f4ba83a146101df5780634641257d146101e7575f80fd5b80630171366c1461012057806306fdde031461013c578063168a4822146101515780631f1fcd5114610163575b5f80fd5b60055460ff165b60405190151581526020015b60405180910390f35b610144610266565b6040516101339190610834565b6002545b604051908152602001610133565b61018a7f000000000000000000000000000000000000000000000000000000000000000081565b6040516001600160a01b039091168152602001610133565b6101b56101b036600461087f565b600455565b005b60015460405160ff9091168152602001610133565b6101556101da36600461087f565b6102f5565b6101b56103dd565b610155610442565b600354610155565b6101b5610509565b610155610572565b600154610100900460ff16610127565b61015561022536600461087f565b6105b0565b600454610155565b6101556106d4565b60015461018a906201000090046001600160a01b031681565b6101b561026136600461087f565b600355565b60605f805461027490610896565b80601f01602080910402602001604051908101604052809291908181526020018280546102a090610896565b80156102eb5780601f106102c2576101008083540402835291602001916102eb565b820191905f5260205f20905b8154815290600101906020018083116102ce57829003601f168201915b5050505050905090565b6001545f906201000090046001600160a01b031633146103305760405162461bcd60e51b8152600401610327906108ce565b60405180910390fd5b5f82116103a55760405162461bcd60e51b815260206004820152603a60248201527f53696d706c655465737453747261746567793a20776974686472617720616d6f60448201527f756e74206d7573742062652067726561746572207468616e20300000000000006064820152608401610327565b60035482908111156103b657506003545b8060035f8282546103c7919061092c565b909155506103d790508180610746565b92915050565b6001546201000090046001600160a01b0316331461040d5760405162461bcd60e51b8152600401610327906108ce565b6001805461ff00191690556040517f1ff6abc1b134021c8527845dcdb865dc289bfdd957830d74683159bb968f4cd1905f90a1565b6001545f906201000090046001600160a01b031633146104745760405162461bcd60e51b8152600401610327906108ce565b600154610100900460ff16156104cc5760405162461bcd60e51b815260206004820181905260248201527f4261736553747261746567793a207374726174656779206973207061757365646044820152606401610327565b6005805460ff191660011790556004546003545f91612710916104ef919061093f565b6104f99190610956565b9050610504816107b0565b905090565b6001546201000090046001600160a01b031633146105395760405162461bcd60e51b8152600401610327906108ce565b6001805461ff0019166101001790556040517fe628b9497ee1f4e6fedddc2cb01459087e67c6fc93ea6946abcbdea7eb7684bf905f90a1565b6001545f906201000090046001600160a01b031633146105a45760405162461bcd60e51b8152600401610327906108ce565b50600380545f90915590565b6001545f906201000090046001600160a01b031633146105e25760405162461bcd60e51b8152600401610327906108ce565b600154610100900460ff161561063a5760405162461bcd60e51b815260206004820181905260248201527f4261736553747261746567793a207374726174656779206973207061757365646044820152606401610327565b5f82116106af5760405162461bcd60e51b815260206004820152603960248201527f53696d706c655465737453747261746567793a206465706f73697420616d6f7560448201527f6e74206d7573742062652067726561746572207468616e2030000000000000006064820152608401610327565b8160035f8282546106c09190610975565b909155506106d0905082806107e6565b5090565b6001545f906201000090046001600160a01b031633146107065760405162461bcd60e51b8152600401610327906108ce565b600380545f9091556040518181527f99d7f8b71cfb9126984f7a5eed3a40e64a8959e9b0e442221546fb04ec6a489c9060200160405180910390a1905090565b600254811115610759575f600255610770565b8060025f82825461076a919061092c565b90915550505b604080518381526020810183905233917ff279e6a1f5e320cca91135676d9cb6e44ca8a08c0b88342bcdb1144f6511b56891015b60405180910390a25050565b6040518181527f80f97f878e16410266694f134ddf012f2be424f54f8b5cafa107eccc51d00d589060200160405180910390a150565b8160025f8282546107f79190610975565b9091555050604080518381526020810183905233917f90890809c654f11d6e72a28fa60149770a0d11ec6c92319d6ceb2bb0a4ea1a1591016107a4565b5f6020808352835180828501525f5b8181101561085f57858101830151858201604001528201610843565b505f604082860101526040601f19601f8301168501019250505092915050565b5f6020828403121561088f575f80fd5b5035919050565b600181811c908216806108aa57607f821691505b6020821081036108c857634e487b7160e01b5f52602260045260245ffd5b50919050565b6020808252602a908201527f4261736553747261746567793a2063616c6c6572206973206e6f74207468652060408201526931b7b73a3937b63632b960b11b606082015260800190565b634e487b7160e01b5f52601160045260245ffd5b818103818111156103d7576103d7610918565b80820281158282048414176103d7576103d7610918565b5f8261097057634e487b7160e01b5f52601260045260245ffd5b500490565b808201808211156103d7576103d761091856fea2646970667358221220a11ecd17de757bbcf881ba4fc57b314f40031eab5b2541f2ec5553555e52dba064736f6c63430008140033","linkReferences":{}},"methodIdentifiers":{"balanceOf()":"722713f7","controller()":"f77c4791","deposit(uint256)":"b6b55f25","emergencyWithdraw()":"db2e21bc","getAPY()":"d2cbf7ad","getRiskScore()":"2b35f739","getTVL()":"97b3fcaa","getTotalDeposits()":"168a4822","harvest()":"4641257d","harvestCalled()":"0171366c","isPaused()":"b187bd26","name()":"06fdde03","pause()":"8456cb59","setAPY(uint256)":"24f45e67","setBalance(uint256)":"fb1669ca","unpause()":"3f4ba83a","want()":"1f1fcd51","withdraw(uint256)":"2e1a7d4d","withdrawAll()":"853828b6"},"id":27}