{"abi":[{"type":"constructor","inputs":[],"stateMutability":"nonpayable"},{"type":"function","name":"addMarket","inputs":[{"name":"cToken","type":"address","internalType":"address"}],"outputs":[],"stateMutability":"nonpayable"},{"type":"function","name":"claimComp","inputs":[{"name":"account","type":"address","internalType":"address"},{"name":"cTokens","type":"address[]","internalType":"address[]"}],"outputs":[],"stateMutability":"nonpayable"},{"type":"function","name":"compAccrued","inputs":[{"name":"","type":"address","internalType":"address"},{"name":"","type":"address","internalType":"address"}],"outputs":[{"name":"","type":"uint256","internalType":"uint256"}],"stateMutability":"view"},{"type":"function","name":"compToken","inputs":[],"outputs":[{"name":"","type":"address","internalType":"address"}],"stateMutability":"view"},{"type":"function","name":"enterMarkets","inputs":[{"name":"cTokens","type":"address[]","internalType":"address[]"}],"outputs":[{"name":"","type":"uint256[]","internalType":"uint256[]"}],"stateMutability":"nonpayable"},{"type":"function","name":"exitMarket","inputs":[{"name":"cToken","type":"address","internalType":"address"}],"outputs":[{"name":"","type":"uint256","internalType":"uint256"}],"stateMutability":"nonpayable"},{"type":"function","name":"getCompAccrued","inputs":[{"name":"account","type":"address","internalType":"address"},{"name":"cToken","type":"address","internalType":"address"}],"outputs":[{"name":"","type":"uint256","internalType":"uint256"}],"stateMutability":"view"},{"type":"function","name":"isMarketListed","inputs":[{"name":"cToken","type":"address","internalType":"address"}],"outputs":[{"name":"","type":"bool","internalType":"bool"}],"stateMutability":"view"},{"type":"function","name":"markets","inputs":[{"name":"","type":"address","internalType":"address"}],"outputs":[{"name":"","type":"bool","internalType":"bool"}],"stateMutability":"view"},{"type":"function","name":"setCompAccrued","inputs":[{"name":"account","type":"address","internalType":"address"},{"name":"cToken","type":"address","internalType":"address"},{"name":"amount","type":"uint256","internalType":"uint256"}],"outputs":[],"stateMutability":"nonpayable"}],"bytecode":{"object":"0x608060405234801561000f575f80fd5b505f80546001600160a01b0319166101231790556105f4806100305f395ff3fe608060405234801561000f575f80fd5b506004361061009b575f3560e01c80638e8f294b116100635780638e8f294b1461018f57806393e30633146101b1578063967d3a41146101e5578063c29982381461021d578063ede4edd01461023d575f80fd5b80631c3db2e01461009f578063223ccdb9146100b45780633d98a1e5146100ed5780636605dfa71461012d5780638a5928c014610157575b5f80fd5b6100b26100ad366004610417565b610250565b005b6100b26100c2366004610466565b6001600160a01b039283165f9081526002602090815260408083209490951682529290925291902055565b6101186100fb36600461049f565b6001600160a01b03165f9081526001602052604090205460ff1690565b60405190151581526020015b60405180910390f35b5f5461013f906001600160a01b031681565b6040516001600160a01b039091168152602001610124565b6101816101653660046104bf565b600260209081525f928352604080842090915290825290205481565b604051908152602001610124565b61011861019d36600461049f565b60016020525f908152604090205460ff1681565b6100b26101bf36600461049f565b6001600160a01b03165f908152600160208190526040909120805460ff19169091179055565b6101816101f33660046104bf565b6001600160a01b039182165f90815260026020908152604080832093909416825291909152205490565b61023061022b3660046104f0565b6102ca565b604051610124919061052f565b61018161024b36600461049f565b505f90565b5f5b818110156102c4576001600160a01b0384165f9081526002602052604081208185858581811061028457610284610572565b9050602002016020810190610299919061049f565b6001600160a01b0316815260208101919091526040015f2055806102bc81610586565b915050610252565b50505050565b60605f8267ffffffffffffffff8111156102e6576102e66105aa565b60405190808252806020026020018201604052801561030f578160200160208202803683370190505b5090505f5b838110156103ac576001805f87878581811061033257610332610572565b9050602002016020810190610347919061049f565b6001600160a01b03166001600160a01b031681526020019081526020015f205f6101000a81548160ff0219169083151502179055505f82828151811061038f5761038f610572565b6020908102919091010152806103a481610586565b915050610314565b509392505050565b80356001600160a01b03811681146103ca575f80fd5b919050565b5f8083601f8401126103df575f80fd5b50813567ffffffffffffffff8111156103f6575f80fd5b6020830191508360208260051b8501011115610410575f80fd5b9250929050565b5f805f60408486031215610429575f80fd5b610432846103b4565b9250602084013567ffffffffffffffff81111561044d575f80fd5b610459868287016103cf565b9497909650939450505050565b5f805f60608486031215610478575f80fd5b610481846103b4565b925061048f602085016103b4565b9150604084013590509250925092565b5f602082840312156104af575f80fd5b6104b8826103b4565b9392505050565b5f80604083850312156104d0575f80fd5b6104d9836103b4565b91506104e7602084016103b4565b90509250929050565b5f8060208385031215610501575f80fd5b823567ffffffffffffffff811115610517575f80fd5b610523858286016103cf565b90969095509350505050565b602080825282518282018190525f9190848201906040850190845b818110156105665783518352928401929184019160010161054a565b50909695505050505050565b634e487b7160e01b5f52603260045260245ffd5b5f600182016105a357634e487b7160e01b5f52601160045260245ffd5b5060010190565b634e487b7160e01b5f52604160045260245ffdfea26469706673582212204bcc09058b3372e7672c5377f5f81fadb981d5fb608c7bac21b2ed28d5fe57a664736f6c63430008140033","linkReferences":{}},"methodIdentifiers":{"addMarket(address)":"93e30633","claimComp(address,address[])":"1c3db2e0","compAccrued(address,address)":"8a5928c0","compToken()":"6605dfa7","enterMarkets(address[])":"c2998238","exitMarket(address)":"ede4edd0","getCompAccrued(address,address)":"967d3a41","isMarketListed(address)":"3d98a1e5","markets(address)":"8e8f294b","setCompAccrued(address,address,uint256)":"223ccdb9"},"id":27}