{"abi":[{"type":"constructor","inputs":[{"name":"_vault","type":"address","internalType":"address"},{"name":"_token","type":"address","internalType":"address"},{"name":"_aiModule","type":"address","internalType":"address"}],"stateMutability":"nonpayable"},{"type":"function","name":"TOTAL_ALLOCATION","inputs":[],"outputs":[{"name":"","type":"uint256","internalType":"uint256"}],"stateMutability":"view"},{"type":"function","name":"addStrategy","inputs":[{"name":"_strategy","type":"address","internalType":"address"},{"name":"_allocation","type":"uint256","internalType":"uint256"}],"outputs":[],"stateMutability":"nonpayable"},{"type":"function","name":"aiModule","inputs":[],"outputs":[{"name":"","type":"address","internalType":"address"}],"stateMutability":"view"},{"type":"function","name":"allocations","inputs":[{"name":"","type":"address","internalType":"address"}],"outputs":[{"name":"","type":"uint256","internalType":"uint256"}],"stateMutability":"view"},{"type":"function","name":"depositToStrategies","inputs":[{"name":"_amount","type":"uint256","internalType":"uint256"}],"outputs":[],"stateMutability":"nonpayable"},{"type":"function","name":"emergencyWithdraw","inputs":[],"outputs":[],"stateMutability":"nonpayable"},{"type":"function","name":"getStrategies","inputs":[],"outputs":[{"name":"","type":"address[]","internalType":"address[]"}],"stateMutability":"view"},{"type":"function","name":"getStrategyBalance","inputs":[],"outputs":[{"name":"","type":"uint256","internalType":"uint256"}],"stateMutability":"view"},{"type":"function","name":"harvest","inputs":[{"name":"_strategy","type":"address","internalType":"address"}],"outputs":[],"stateMutability":"nonpayable"},{"type":"function","name":"harvestAll","inputs":[],"outputs":[{"name":"","type":"uint256","internalType":"uint256"}],"stateMutability":"nonpayable"},{"type":"function","name":"isStrategy","inputs":[{"name":"","type":"address","internalType":"address"}],"outputs":[{"name":"","type":"bool","internalType":"bool"}],"stateMutability":"view"},{"type":"function","name":"owner","inputs":[],"outputs":[{"name":"","type":"address","internalType":"address"}],"stateMutability":"view"},{"type":"function","name":"removeStrategy","inputs":[{"name":"_strategy","type":"address","internalType":"address"}],"outputs":[],"stateMutability":"nonpayable"},{"type":"function","name":"setAIModule","inputs":[{"name":"_newAIModule","type":"address","internalType":"address"}],"outputs":[],"stateMutability":"nonpayable"},{"type":"function","name":"strategies","inputs":[{"name":"","type":"uint256","internalType":"uint256"}],"outputs":[{"name":"","type":"address","internalType":"contract IStrategy"}],"stateMutability":"view"},{"type":"function","name":"token","inputs":[],"outputs":[{"name":"","type":"address","internalType":"address"}],"stateMutability":"view"},{"type":"function","name":"updateAllocations","inputs":[{"name":"_strategies","type":"address[]","internalType":"address[]"},{"name":"_bps","type":"uint256[]","internalType":"uint256[]"}],"outputs":[],"stateMutability":"nonpayable"},{"type":"function","name":"vault","inputs":[],"outputs":[{"name":"","type":"address","internalType":"address"}],"stateMutability":"view"},{"type":"function","name":"withdrawFromStrategies","inputs":[{"name":"_amount","type":"uint256","internalType":"uint256"}],"outputs":[{"name":"","type":"uint256","internalType":"uint256"}],"stateMutability":"nonpayable"},{"type":"event","name":"AIModuleUpdated","inputs":[{"name":"newAIModule","type":"address","indexed":false,"internalType":"address"}],"anonymous":false},{"type":"event","name":"AllocationUpdated","inputs":[{"name":"strategy","type":"address","indexed":false,"internalType":"address"},{"name":"allocation","type":"uint256","indexed":false,"internalType":"uint256"}],"anonymous":false},{"type":"event","name":"Deposit","inputs":[{"name":"amount","type":"uint256","indexed":false,"internalType":"uint256"}],"anonymous":false},{"type":"event","name":"Harvest","inputs":[{"name":"strategy","type":"address","indexed":false,"internalType":"address"},{"name":"harvested","type":"uint256","indexed":false,"internalType":"uint256"}],"anonymous":false},{"type":"event","name":"StrategyAdded","inputs":[{"name":"strategy","type":"address","indexed":false,"internalType":"address"}],"anonymous":false},{"type":"event","name":"StrategyRemoved","inputs":[{"name":"strategy","type":"address","indexed":false,"internalType":"address"}],"anonymous":false},{"type":"event","name":"Withdraw","inputs":[{"name":"amount","type":"uint256","indexed":false,"internalType":"uint256"}],"anonymous":false}],"bytecode":{"object":"0x608060405234801562000010575f80fd5b506040516200273a3803806200273a8339810160408190526200003391620001d8565b6001600160a01b0383166200009d5760405162461bcd60e51b815260206004820152602560248201527f436f6e74726f6c6c65723a207661756c7420616464726573732063616e6e6f74604482015264020626520360dc1b60648201526084015b60405180910390fd5b6001600160a01b038216620001035760405162461bcd60e51b815260206004820152602560248201527f436f6e74726f6c6c65723a20746f6b656e20616464726573732063616e6e6f74604482015264020626520360dc1b606482015260840162000094565b6001600160a01b0381166200016d5760405162461bcd60e51b815260206004820152602960248201527f436f6e74726f6c6c65723a204149206d6f64756c65206164647265737320636160448201526806e6e6f7420626520360bc1b606482015260840162000094565b5f80546001600160a01b039485166001600160a01b031991821617909155600180549385169382169390931790925560038054919093169082161790915560028054909116331790556200021f565b80516001600160a01b0381168114620001d3575f80fd5b919050565b5f805f60608486031215620001eb575f80fd5b620001f684620001bc565b92506200020660208501620001bc565b91506200021660408501620001bc565b90509250925092565b61250d806200022d5f395ff3fe608060405234801561000f575f80fd5b506004361061011c575f3560e01c80638da5cb5b116100a9578063c9411e221161006e578063c9411e2214610264578063d574ea3d14610277578063db2e21bc1461028a578063fbfa77cf14610292578063fc0c546a146102a4575f80fd5b80638da5cb5b146102015780638ed955b91461022c57806391be83ed14610234578063b49a60bb14610247578063b90f3f3b1461025c575f80fd5b80632e8ebaae116100ef5780632e8ebaae146101775780633b3879db146101a95780634614b896146101bc57806352a9039c146101cf5780635fed0679146101ee575f80fd5b80630dac7bea146101205780630e5c011e1461013c578063175188e81461015157806324add57d14610164575b5f80fd5b61012961271081565b6040519081526020015b60405180910390f35b61014f61014a3660046120f9565b6102b7565b005b61014f61015f3660046120f9565b610398565b61014f610172366004612163565b610638565b6101996101853660046120f9565b60056020525f908152604090205460ff1681565b6040519015158152602001610133565b61014f6101b73660046120f9565b610941565b61014f6101ca3660046121ca565b610a27565b6101296101dd3660046120f9565b60066020525f908152604090205481565b6101296101fc3660046121ca565b610d70565b600254610214906001600160a01b031681565b6040516001600160a01b039091168152602001610133565b610129611053565b600354610214906001600160a01b031681565b61024f61114b565b60405161013391906121e1565b61012961120d565b61014f61027236600461222d565b6112bb565b6102146102853660046121ca565b61153a565b61014f611562565b5f54610214906001600160a01b031681565b600154610214906001600160a01b031681565b6001600160a01b0381165f9081526005602052604090205460ff166102f75760405162461bcd60e51b81526004016102ee90612257565b60405180910390fd5b5f816001600160a01b0316634641257d6040518163ffffffff1660e01b81526004016020604051808303815f875af1158015610335573d5f803e3d5ffd5b505050506040513d601f19601f82011682018060405250810190610359919061228e565b90507fc9695243a805adb74c91f28311176c65b417e842d5699893cef56d18bfa48cba828260405161038c9291906122a5565b60405180910390a15050565b6002546001600160a01b031633146103c25760405162461bcd60e51b81526004016102ee906122be565b6001600160a01b0381165f9081526005602052604090205460ff166103f95760405162461bcd60e51b81526004016102ee90612257565b5f816001600160a01b031663722713f76040518163ffffffff1660e01b8152600401602060405180830381865afa158015610436573d5f803e3d5ffd5b505050506040513d601f19601f8201168201806040525081019061045a919061228e565b905080156104cc57604051632e1a7d4d60e01b8152600481018290526001600160a01b03831690632e1a7d4d906024016020604051808303815f875af11580156104a6573d5f803e3d5ffd5b505050506040513d601f19601f820116820180604052508101906104ca919061228e565b505b5f5b6004548110156105cc57826001600160a01b0316600482815481106104f5576104f5612301565b5f918252602090912001546001600160a01b0316036105ba576004805461051e90600190612329565b8154811061052e5761052e612301565b5f91825260209091200154600480546001600160a01b03909216918390811061055957610559612301565b905f5260205f20015f6101000a8154816001600160a01b0302191690836001600160a01b03160217905550600480548061059557610595612342565b5f8281526020902081015f1990810180546001600160a01b03191690550190556105cc565b806105c481612356565b9150506104ce565b506001600160a01b0382165f908152600560209081526040808320805460ff1916905560069091528120556105ff6116dc565b6040516001600160a01b03831681527f09a1db4b80c32706328728508c941a6b954f31eb5affd32f236c1fd405f8fea49060200161038c565b6003546001600160a01b031633146106a25760405162461bcd60e51b815260206004820152602760248201527f436f6e74726f6c6c65723a2063616c6c6572206973206e6f7420746865204149604482015266206d6f64756c6560c81b60648201526084016102ee565b8281146106fc5760405162461bcd60e51b815260206004820152602260248201527f436f6e74726f6c6c65723a20617272617973206c656e677468206d69736d61746044820152610c6d60f31b60648201526084016102ee565b5f5b600454811015610755575f60065f6004848154811061071f5761071f612301565b5f9182526020808320909101546001600160a01b031683528201929092526040019020558061074d81612356565b9150506106fe565b505f805b848110156108ce5760055f87878481811061077657610776612301565b905060200201602081019061078b91906120f9565b6001600160a01b0316815260208101919091526040015f205460ff166107c35760405162461bcd60e51b81526004016102ee90612257565b8383828181106107d5576107d5612301565b9050602002013560065f8888858181106107f1576107f1612301565b905060200201602081019061080691906120f9565b6001600160a01b0316815260208101919091526040015f205583838281811061083157610831612301565b9050602002013582610843919061236e565b91507f183f2ce0b749ed46549cb16586af0c501abab8d242cc4b2076aec30d2dd9c4bc86868381811061087857610878612301565b905060200201602081019061088d91906120f9565b85858481811061089f5761089f612301565b905060200201356040516108b49291906122a5565b60405180910390a1806108c681612356565b915050610759565b5061271081146109325760405162461bcd60e51b815260206004820152602960248201527f436f6e74726f6c6c65723a20746f74616c20616c6c6f636174696f6e206d757360448201526874206265203130302560b81b60648201526084016102ee565b61093a6116dc565b5050505050565b6002546001600160a01b0316331461096b5760405162461bcd60e51b81526004016102ee906122be565b6001600160a01b0381166109d35760405162461bcd60e51b815260206004820152602960248201527f436f6e74726f6c6c65723a204149206d6f64756c65206164647265737320636160448201526806e6e6f7420626520360bc1b60648201526084016102ee565b600380546001600160a01b0319166001600160a01b0383169081179091556040519081527f2179ba5a8398ad7a6da40883756c71cf276805c4e16fdebca4c3a639565d2eaa9060200160405180910390a150565b5f546001600160a01b03163314610a505760405162461bcd60e51b81526004016102ee90612381565b5f8111610ab95760405162461bcd60e51b815260206004820152603160248201527f436f6e74726f6c6c65723a206465706f73697420616d6f756e74206d75737420604482015270062652067726561746572207468616e203607c1b60648201526084016102ee565b6001545f80546040516001600160a01b039182166024820152306044820152606481018590529192169060840160408051601f198184030181529181526020820180516001600160e01b03166323b872dd60e01b17905251610b1b91906123c4565b5f604051808303815f865af19150503d805f8114610b54576040519150601f19603f3d011682016040523d82523d5f602084013e610b59565b606091505b5050905080610b7a5760405162461bcd60e51b81526004016102ee906123f0565b5f5b600454811015610d3f575f60048281548110610b9a57610b9a612301565b5f9182526020808320909101546001600160a01b031680835260069091526040909120549091508015610d2a575f612710610bd58388612431565b610bdf9190612448565b90508015610d28576001546040516001600160a01b0390911690610c0990859084906024016122a5565b60408051601f198184030181529181526020820180516001600160e01b031663095ea7b360e01b17905251610c3e91906123c4565b5f604051808303815f865af19150503d805f8114610c77576040519150601f19603f3d011682016040523d82523d5f602084013e610c7c565b606091505b50508095505084610c9f5760405162461bcd60e51b81526004016102ee90612467565b60048481548110610cb257610cb2612301565b5f9182526020909120015460405163b6b55f2560e01b8152600481018390526001600160a01b039091169063b6b55f25906024016020604051808303815f875af1158015610d02573d5f803e3d5ffd5b505050506040513d601f19601f82011682018060405250810190610d26919061228e565b505b505b50508080610d3790612356565b915050610b7c565b506040518281527f4d6ce1e535dbade1c23defba91e23b8f791ce5edc0cc320257a2b364e4e384269060200161038c565b5f80546001600160a01b03163314610d9a5760405162461bcd60e51b81526004016102ee90612381565b5f8211610e045760405162461bcd60e51b815260206004820152603260248201527f436f6e74726f6c6c65723a20776974686472617720616d6f756e74206d75737460448201527102062652067726561746572207468616e20360741b60648201526084016102ee565b5f805b600454811015610f5b575f60048281548110610e2557610e25612301565b5f9182526020808320909101546040805163722713f760e01b815290516001600160a01b039092169450849263722713f7926004808401938290030181865afa158015610e74573d5f803e3d5ffd5b505050506040513d601f19601f82011682018060405250810190610e98919061228e565b90508015610f46575f610ea961120d565b90505f81610eb7848a612431565b610ec19190612448565b90508015610f4357604051632e1a7d4d60e01b8152600481018290525f906001600160a01b03861690632e1a7d4d906024016020604051808303815f875af1158015610f0f573d5f803e3d5ffd5b505050506040513d601f19601f82011682018060405250810190610f33919061228e565b9050610f3f818861236e565b9650505b50505b50508080610f5390612356565b915050610e07565b506001545f805460405191926001600160a01b0390811692610f85929091169085906024016122a5565b60408051601f198184030181529181526020820180516001600160e01b031663a9059cbb60e01b17905251610fba91906123c4565b5f604051808303815f865af19150503d805f8114610ff3576040519150601f19603f3d011682016040523d82523d5f602084013e610ff8565b606091505b50509050806110195760405162461bcd60e51b81526004016102ee906123f0565b6040518281527f5b6b431d4476a211bb7d41c20d1aab9ae2321deee0d20be3d9fc9b1093fa6e3d9060200160405180910390a15092915050565b5f80805b600454811015611145575f6004828154811061107557611075612301565b5f91825260208083209091015460408051634641257d60e01b815290516001600160a01b0390921694508492634641257d92600480840193829003018187875af11580156110c5573d5f803e3d5ffd5b505050506040513d601f19601f820116820180604052508101906110e9919061228e565b90506110f5818561236e565b93507fc9695243a805adb74c91f28311176c65b417e842d5699893cef56d18bfa48cba82826040516111289291906122a5565b60405180910390a15050808061113d90612356565b915050611057565b50919050565b6004546060905f9067ffffffffffffffff81111561116b5761116b6124a8565b604051908082528060200260200182016040528015611194578160200160208202803683370190505b5090505f5b60045481101561114557600481815481106111b6576111b6612301565b905f5260205f20015f9054906101000a90046001600160a01b03168282815181106111e3576111e3612301565b6001600160a01b03909216602092830291909101909101528061120581612356565b915050611199565b5f80805b600454811015611145576004818154811061122e5761122e612301565b5f91825260209182902001546040805163722713f760e01b815290516001600160a01b039092169263722713f7926004808401938290030181865afa158015611279573d5f803e3d5ffd5b505050506040513d601f19601f8201168201806040525081019061129d919061228e565b6112a7908361236e565b9150806112b381612356565b915050611211565b6002546001600160a01b031633146112e55760405162461bcd60e51b81526004016102ee906122be565b6001600160a01b03821661134c5760405162461bcd60e51b815260206004820152602860248201527f436f6e74726f6c6c65723a20737472617465677920616464726573732063616e60448201526706e6f7420626520360c41b60648201526084016102ee565b6001600160a01b0382165f9081526005602052604090205460ff16156113bf5760405162461bcd60e51b815260206004820152602260248201527f436f6e74726f6c6c65723a20737472617465677920616c726561647920616464604482015261195960f21b60648201526084016102ee565b60015460408051631f1fcd5160e01b815290516001600160a01b0392831692851691631f1fcd519160048083019260209291908290030181865afa158015611409573d5f803e3d5ffd5b505050506040513d601f19601f8201168201806040525081019061142d91906124bc565b6001600160a01b03161461148f5760405162461bcd60e51b815260206004820152602360248201527f436f6e74726f6c6c65723a20737472617465677920746f6b656e206d69736d616044820152620e8c6d60eb1b60648201526084016102ee565b6004805460018082019092557f8a35acfbc15ff81a39ae7d344fd709f28e8600b4aa8c65c6b64bfe7fe36bd19b0180546001600160a01b0319166001600160a01b0385169081179091555f908152600560205260409020805460ff191690911790558015611501576115018282611e37565b6040516001600160a01b03831681527f3f008fd510eae7a9e7bee13513d7b83bef8003d488b5a3d0b0da4de71d6846f19060200161038c565b60048181548110611549575f80fd5b5f918252602090912001546001600160a01b0316905081565b6002546001600160a01b0316331461158c5760405162461bcd60e51b81526004016102ee906122be565b5f5b60045481101561169f575f600482815481106115ac576115ac612301565b5f9182526020808320909101546040805163722713f760e01b815290516001600160a01b039092169450849263722713f7926004808401938290030181865afa1580156115fb573d5f803e3d5ffd5b505050506040513d601f19601f8201168201806040525081019061161f919061228e565b9050801561168a57816001600160a01b031663db2e21bc6040518163ffffffff1660e01b81526004016020604051808303815f875af1158015611664573d5f803e3d5ffd5b505050506040513d601f19601f82011682018060405250810190611688919061228e565b505b5050808061169790612356565b91505061158e565b507f5b6b431d4476a211bb7d41c20d1aab9ae2321deee0d20be3d9fc9b1093fa6e3d6116c9611fd5565b60405190815260200160405180910390a1565b5f6116e561120d565b90508015806116f45750600454155b156116fc5750565b5f5b600454811015611adb575f6004828154811061171c5761171c612301565b5f9182526020808320909101546040805163722713f760e01b815290516001600160a01b039092169450849392849263722713f79260048082019392918290030181865afa158015611770573d5f803e3d5ffd5b505050506040513d601f19601f82011682018060405250810190611794919061228e565b6001600160a01b0383165f9081526006602052604081205491925090612710906117be9088612431565b6117c89190612448565b6001600160a01b0384165f908152600660205260408120549192500361194f57811561194657604051632e1a7d4d60e01b8152600481018390525f906001600160a01b03861690632e1a7d4d906024016020604051808303815f875af1158015611834573d5f803e3d5ffd5b505050506040513d601f19601f82011682018060405250810190611858919061228e565b6001546040519192505f916001600160a01b039091169061187f90309085906024016122a5565b60408051601f198184030181529181526020820180516001600160e01b03166340c10f1960e01b179052516118b491906123c4565b5f604051808303815f865af19150503d805f81146118ed576040519150601f19603f3d011682016040523d82523d5f602084013e6118f2565b606091505b50509050806119435760405162461bcd60e51b815260206004820152601d60248201527f436f6e74726f6c6c65723a20746f6b656e206d696e74206661696c656400000060448201526064016102ee565b50505b50505050611ac9565b80821115611ac4575f6119628284612329565b90508015611ac257604051632e1a7d4d60e01b8152600481018290525f906001600160a01b03871690632e1a7d4d906024016020604051808303815f875af11580156119b0573d5f803e3d5ffd5b505050506040513d601f19601f820116820180604052508101906119d4919061228e565b6001546040519192505f916001600160a01b03909116906119fb90309085906024016122a5565b60408051601f198184030181529181526020820180516001600160e01b03166340c10f1960e01b17905251611a3091906123c4565b5f604051808303815f865af19150503d805f8114611a69576040519150601f19603f3d011682016040523d82523d5f602084013e611a6e565b606091505b5050905080611abf5760405162461bcd60e51b815260206004820152601d60248201527f436f6e74726f6c6c65723a20746f6b656e206d696e74206661696c656400000060448201526064016102ee565b50505b505b505050505b80611ad381612356565b9150506116fe565b505f611ae5611fd5565b90508015611e33575f5b600454811015611e31575f60048281548110611b0d57611b0d612301565b5f9182526020808320909101546001600160a01b031680835260069091526040822054909250829103611b41575050611e1f565b5f826001600160a01b031663722713f76040518163ffffffff1660e01b8152600401602060405180830381865afa158015611b7e573d5f803e3d5ffd5b505050506040513d601f19601f82011682018060405250810190611ba2919061228e565b6001600160a01b0383165f908152600660205260408120549192509061271090611bcc9089612431565b611bd69190612448565b905080821015611e1a575f611beb8383612329565b90505f81118015611bfc5750868111155b15611e18576001546040515f916001600160a01b031690611c2390879085906024016122a5565b60408051601f198184030181529181526020820180516001600160e01b031663095ea7b360e01b17905251611c5891906123c4565b5f604051808303815f865af19150503d805f8114611c91576040519150601f19603f3d011682016040523d82523d5f602084013e611c96565b606091505b5050905080611cb75760405162461bcd60e51b81526004016102ee90612467565b60405163b6b55f2560e01b8152600481018390526001600160a01b0387169063b6b55f25906024016020604051808303815f875af1158015611cfb573d5f803e3d5ffd5b505050506040513d601f19601f82011682018060405250810190611d1f919061228e565b50611d2a8289612329565b6001546040519199505f916001600160a01b0390911690611d5190309086906024016122a5565b60408051601f198184030181529181526020820180516001600160e01b0316632770a7eb60e21b17905251611d8691906123c4565b5f604051808303815f865af19150503d805f8114611dbf576040519150601f19603f3d011682016040523d82523d5f602084013e611dc4565b606091505b5050905080611e155760405162461bcd60e51b815260206004820152601d60248201527f436f6e74726f6c6c65723a20746f6b656e206275726e206661696c656400000060448201526064016102ee565b50505b505b505050505b80611e2981612356565b915050611aef565b505b5050565b612710811115611e955760405162461bcd60e51b815260206004820152602360248201527f436f6e74726f6c6c65723a20616c6c6f636174696f6e2065786365656473203160448201526230302560e81b60648201526084016102ee565b5f805b600454811015611f0e575f60048281548110611eb657611eb6612301565b5f918252602090912001546001600160a01b03908116915085168114611efb576001600160a01b0381165f90815260066020526040902054611ef8908461236e565b92505b5080611f0681612356565b915050611e98565b50612710611f1c838361236e565b1115611f7c5760405162461bcd60e51b815260206004820152602960248201527f436f6e74726f6c6c65723a20746f74616c20616c6c6f636174696f6e2065786360448201526865656473203130302560b81b60648201526084016102ee565b6001600160a01b0383165f9081526006602052604090819020839055517f183f2ce0b749ed46549cb16586af0c501abab8d242cc4b2076aec30d2dd9c4bc90611fc890859085906122a5565b60405180910390a1505050565b6001546040513060248201525f91829182916001600160a01b03169060440160408051601f198184030181529181526020820180516001600160e01b03166370a0823160e01b1790525161202991906123c4565b5f60405180830381855afa9150503d805f8114612061576040519150601f19603f3d011682016040523d82523d5f602084013e612066565b606091505b5091509150816120c75760405162461bcd60e51b815260206004820152602660248201527f436f6e74726f6c6c65723a20746f6b656e2062616c616e636520636865636b2060448201526519985a5b195960d21b60648201526084016102ee565b808060200190518101906120db919061228e565b9250505090565b6001600160a01b03811681146120f6575f80fd5b50565b5f60208284031215612109575f80fd5b8135612114816120e2565b9392505050565b5f8083601f84011261212b575f80fd5b50813567ffffffffffffffff811115612142575f80fd5b6020830191508360208260051b850101111561215c575f80fd5b9250929050565b5f805f8060408587031215612176575f80fd5b843567ffffffffffffffff8082111561218d575f80fd5b6121998883890161211b565b909650945060208701359150808211156121b1575f80fd5b506121be8782880161211b565b95989497509550505050565b5f602082840312156121da575f80fd5b5035919050565b602080825282518282018190525f9190848201906040850190845b818110156122215783516001600160a01b0316835292840192918401916001016121fc565b50909695505050505050565b5f806040838503121561223e575f80fd5b8235612249816120e2565b946020939093013593505050565b6020808252601e908201527f436f6e74726f6c6c65723a207374726174656779206e6f7420666f756e640000604082015260600190565b5f6020828403121561229e575f80fd5b5051919050565b6001600160a01b03929092168252602082015260400190565b60208082526023908201527f436f6e74726f6c6c65723a2063616c6c6572206973206e6f7420746865206f776040820152623732b960e91b606082015260800190565b634e487b7160e01b5f52603260045260245ffd5b634e487b7160e01b5f52601160045260245ffd5b8181038181111561233c5761233c612315565b92915050565b634e487b7160e01b5f52603160045260245ffd5b5f6001820161236757612367612315565b5060010190565b8082018082111561233c5761233c612315565b60208082526023908201527f436f6e74726f6c6c65723a2063616c6c6572206973206e6f74207468652076616040820152621d5b1d60ea1b606082015260800190565b5f82515f5b818110156123e357602081860181015185830152016123c9565b505f920191825250919050565b60208082526021908201527f436f6e74726f6c6c65723a20746f6b656e207472616e73666572206661696c656040820152601960fa1b606082015260800190565b808202811582820484141761233c5761233c612315565b5f8261246257634e487b7160e01b5f52601260045260245ffd5b500490565b60208082526021908201527f436f6e74726f6c6c65723a20746f6b656e20617070726f76616c206661696c656040820152601960fa1b606082015260800190565b634e487b7160e01b5f52604160045260245ffd5b5f602082840312156124cc575f80fd5b8151612114816120e256fea2646970667358221220badf796d883cb3efd6740582f1ad6224688299b7f1b219db828d8ada3bec823d64736f6c63430008140033","linkReferences":{}},"methodIdentifiers":{"TOTAL_ALLOCATION()":"0dac7bea","addStrategy(address,uint256)":"c9411e22","aiModule()":"91be83ed","allocations(address)":"52a9039c","depositToStrategies(uint256)":"4614b896","emergencyWithdraw()":"db2e21bc","getStrategies()":"b49a60bb","getStrategyBalance()":"b90f3f3b","harvest(address)":"0e5c011e","harvestAll()":"8ed955b9","isStrategy(address)":"2e8ebaae","owner()":"8da5cb5b","removeStrategy(address)":"175188e8","setAIModule(address)":"3b3879db","strategies(uint256)":"d574ea3d","token()":"fc0c546a","updateAllocations(address[],uint256[])":"24add57d","vault()":"fbfa77cf","withdrawFromStrategies(uint256)":"5fed0679"},"id":21}