{"abi":[{"type":"constructor","inputs":[{"name":"_controller","type":"address","internalType":"address"}],"stateMutability":"nonpayable"},{"type":"function","name":"MIN_UPDATE_INTERVAL","inputs":[],"outputs":[{"name":"","type":"uint256","internalType":"uint256"}],"stateMutability":"view"},{"type":"function","name":"addOracle","inputs":[{"name":"_oracle","type":"address","internalType":"address"}],"outputs":[],"stateMutability":"nonpayable"},{"type":"function","name":"aiDecisions","inputs":[{"name":"","type":"bytes32","internalType":"bytes32"}],"outputs":[{"name":"decisionId","type":"bytes32","internalType":"bytes32"},{"name":"timestamp","type":"uint256","internalType":"uint256"},{"name":"reasoning","type":"string","internalType":"string"},{"name":"signature","type":"bytes","internalType":"bytes"}],"stateMutability":"view"},{"type":"function","name":"controller","inputs":[],"outputs":[{"name":"","type":"address","internalType":"address"}],"stateMutability":"view"},{"type":"function","name":"getDecision","inputs":[{"name":"decisionId","type":"bytes32","internalType":"bytes32"}],"outputs":[{"name":"id","type":"bytes32","internalType":"bytes32"},{"name":"timestamp","type":"uint256","internalType":"uint256"},{"name":"reasoning","type":"string","internalType":"string"},{"name":"strategies","type":"address[]","internalType":"address[]"},{"name":"allocations","type":"uint256[]","internalType":"uint256[]"},{"name":"signature","type":"bytes","internalType":"bytes"}],"stateMutability":"view"},{"type":"function","name":"isOracle","inputs":[{"name":"","type":"address","internalType":"address"}],"outputs":[{"name":"","type":"bool","internalType":"bool"}],"stateMutability":"view"},{"type":"function","name":"lastUpdateTimestamp","inputs":[],"outputs":[{"name":"","type":"uint256","internalType":"uint256"}],"stateMutability":"view"},{"type":"function","name":"mcpOracle","inputs":[],"outputs":[{"name":"","type":"address","internalType":"contract IMCPOracle"}],"stateMutability":"view"},{"type":"function","name":"owner","inputs":[],"outputs":[{"name":"","type":"address","internalType":"address"}],"stateMutability":"view"},{"type":"function","name":"removeOracle","inputs":[{"name":"_oracle","type":"address","internalType":"address"}],"outputs":[],"stateMutability":"nonpayable"},{"type":"function","name":"setController","inputs":[{"name":"_newController","type":"address","internalType":"address"}],"outputs":[],"stateMutability":"nonpayable"},{"type":"function","name":"setControllerForTesting","inputs":[{"name":"_newController","type":"address","internalType":"address"}],"outputs":[],"stateMutability":"nonpayable"},{"type":"function","name":"setMCPOracle","inputs":[{"name":"_oracle","type":"address","internalType":"address"}],"outputs":[],"stateMutability":"nonpayable"},{"type":"function","name":"transferOwnership","inputs":[{"name":"_newOwner","type":"address","internalType":"address"}],"outputs":[],"stateMutability":"nonpayable"},{"type":"function","name":"updateAllocations","inputs":[{"name":"_strategies","type":"address[]","internalType":"address[]"},{"name":"_allocations","type":"uint256[]","internalType":"uint256[]"}],"outputs":[],"stateMutability":"nonpayable"},{"type":"function","name":"updateAllocationsWithMCP","inputs":[{"name":"decisionId","type":"bytes32","internalType":"bytes32"},{"name":"_strategies","type":"address[]","internalType":"address[]"},{"name":"_allocations","type":"uint256[]","internalType":"uint256[]"},{"name":"reasoning","type":"string","internalType":"string"},{"name":"signature","type":"bytes","internalType":"bytes"}],"outputs":[],"stateMutability":"nonpayable"},{"type":"event","name":"AllocationUpdated","inputs":[{"name":"strategies","type":"address[]","indexed":false,"internalType":"address[]"},{"name":"allocations","type":"uint256[]","indexed":false,"internalType":"uint256[]"}],"anonymous":false},{"type":"event","name":"ControllerUpdated","inputs":[{"name":"newController","type":"address","indexed":false,"internalType":"address"}],"anonymous":false},{"type":"event","name":"MCPDecisionRecorded","inputs":[{"name":"decisionId","type":"bytes32","indexed":false,"internalType":"bytes32"},{"name":"reasoning","type":"string","indexed":false,"internalType":"string"}],"anonymous":false},{"type":"event","name":"MCPOracleUpdated","inputs":[{"name":"newOracle","type":"address","indexed":false,"internalType":"address"}],"anonymous":false},{"type":"event","name":"OracleAdded","inputs":[{"name":"oracle","type":"address","indexed":false,"internalType":"address"}],"anonymous":false},{"type":"event","name":"OracleRemoved","inputs":[{"name":"oracle","type":"address","indexed":false,"internalType":"address"}],"anonymous":false}],"bytecode":{"object":"0x608060405234801561000f575f80fd5b50604051611b43380380611b4383398101604081905261002e916100d2565b6001600160a01b0381166100a15760405162461bcd60e51b815260206004820152603060248201527f41494465636973696f6e4d6f64756c653a20636f6e74726f6c6c65722061646460448201526f0726573732063616e6e6f7420626520360841b606482015260840160405180910390fd5b5f80546001600160a01b039092166001600160a01b03199283161790556001805490911633179055426003556100ff565b5f602082840312156100e2575f80fd5b81516001600160a01b03811681146100f8575f80fd5b9392505050565b611a378061010c5f395ff3fe608060405234801561000f575f80fd5b50600436106100fb575f3560e01c8063bd3be27c11610093578063df5dd1a511610063578063df5dd1a51461023d578063f2fde38b14610250578063f77c479114610263578063fdc85fc414610275575f80fd5b8063bd3be27c146101e9578063cabdadef146101f2578063cce21a5414610205578063d8c5789214610218575f80fd5b80638da5cb5b116100ce5780638da5cb5b1461015657806392eefe9b14610181578063a97e5c9314610194578063ade04ec2146101c6575f80fd5b806314bcec9f146100ff57806324add57d1461011b5780633c6e5437146101305780635094d26014610143575b5f80fd5b61010860035481565b6040519081526020015b60405180910390f35b61012e6101293660046111a3565b610288565b005b61012e61013e366004611225565b610476565b61012e610151366004611283565b610539565b600154610169906001600160a01b031681565b6040516001600160a01b039091168152602001610112565b61012e61018f366004611225565b6109e7565b6101b66101a2366004611225565b60026020525f908152604090205460ff1681565b6040519015158152602001610112565b6101d96101d4366004611349565b610a11565b60405161011294939291906113ad565b610108610e1081565b61012e610200366004611225565b610b45565b600454610169906001600160a01b031681565b61022b610226366004611349565b610be3565b60405161011296959493929190611421565b61012e61024b366004611225565b610dec565b61012e61025e366004611225565b610f05565b5f54610169906001600160a01b031681565b61012e610283366004611225565b610fbf565b335f9081526002602052604090205460ff166102bf5760405162461bcd60e51b81526004016102b6906114b2565b60405180910390fd5b610e106003546102cf919061150f565b4210156102ee5760405162461bcd60e51b81526004016102b690611528565b82811461030d5760405162461bcd60e51b81526004016102b69061156d565b5f805b828110156103505783838281811061032a5761032a6115b5565b905060200201358261033c919061150f565b915080610348816115c9565b915050610310565b5080612710146103725760405162461bcd60e51b81526004016102b6906115e1565b5f80546040516001600160a01b0390911690610398908890889088908890602401611630565b60408051601f198184030181529181526020820180516001600160e01b03166324add57d60e01b179052516103cd91906116aa565b5f604051808303815f865af19150503d805f8114610406576040519150601f19603f3d011682016040523d82523d5f602084013e61040b565b606091505b505090508061042c5760405162461bcd60e51b81526004016102b6906116c5565b426003556040517fc7e2a23cc60b3c78c21226de5706e670ab88f0bbde5aded4fb683491151f59b290610466908890889088908890611630565b60405180910390a1505050505050565b6001600160a01b0381166104e55760405162461bcd60e51b815260206004820152603060248201527f41494465636973696f6e4d6f64756c653a20636f6e74726f6c6c65722061646460448201526f0726573732063616e6e6f7420626520360841b60648201526084016102b6565b5f80546001600160a01b0319166001600160a01b0383169081179091556040519081527f1304018cfe79741dcf02ba6b61d39cc4757d59395d03224d9925c7aa83002146906020015b60405180910390a150565b335f9081526002602052604090205460ff166105675760405162461bcd60e51b81526004016102b6906114b2565b610e10600354610577919061150f565b4210156105965760405162461bcd60e51b81526004016102b690611528565b8685146105b55760405162461bcd60e51b81526004016102b69061156d565b5f805b868110156105f8578787828181106105d2576105d26115b5565b90506020020135826105e4919061150f565b9150806105f0816115c9565b9150506105b8565b50806127101461061a5760405162461bcd60e51b81526004016102b6906115e1565b6004546001600160a01b03161561072a575f8a8a8a8a8a8a8a604051602001610649979695949392919061170f565b60408051601f1981840301815290829052600480546318fac89160e11b84529193506001600160a01b03909116916331f591229161068d91859189918991016117a6565b602060405180830381865afa1580156106a8573d5f803e3d5ffd5b505050506040513d601f19601f820116820180604052508101906106cc91906117d5565b6107285760405162461bcd60e51b815260206004820152602760248201527f41494465636973696f6e4d6f64756c653a20696e76616c6964204d4350207369604482015266676e617475726560c81b60648201526084016102b6565b505b6040518060c001604052808b815260200142815260200186868080601f0160208091040260200160405190810160405280939291908181526020018383808284375f920191909152505050908252506040805160208c810282810182019093528c82529283019290918d918d9182918501908490808284375f920191909152505050908252506040805160208a810282810182019093528a82529283019290918b918b9182918501908490808284375f92019190915250505090825250604080516020601f8701819004810282018101909252858152918101919086908690819084018382808284375f9201829052509390945250508c81526005602090815260409182902084518155908401516001820155908301519091506002820190610853908261188e565b506060820151805161086f9160038401916020909101906110ab565b506080820151805161088b91600484019160209091019061110e565b5060a082015160058201906108a0908261188e565b50505f80546040519192506001600160a01b0316906108c9908c908c908c908c90602401611630565b60408051601f198184030181529181526020820180516001600160e01b03166324add57d60e01b179052516108fe91906116aa565b5f604051808303815f865af19150503d805f8114610937576040519150601f19603f3d011682016040523d82523d5f602084013e61093c565b606091505b505090508061095d5760405162461bcd60e51b81526004016102b6906116c5565b426003556040517fc7e2a23cc60b3c78c21226de5706e670ab88f0bbde5aded4fb683491151f59b290610997908c908c908c908c90611630565b60405180910390a17fbe998ab83ed0334271db7c9efdbd9f3e16ec76ad2cf4282509615e93f66a10808b87876040516109d29392919061194a565b60405180910390a15050505050505050505050565b6001546001600160a01b031633146104765760405162461bcd60e51b81526004016102b69061196c565b60056020525f908152604090208054600182015460028301805492939192610a3890611808565b80601f0160208091040260200160405190810160405280929190818152602001828054610a6490611808565b8015610aaf5780601f10610a8657610100808354040283529160200191610aaf565b820191905f5260205f20905b815481529060010190602001808311610a9257829003601f168201915b505050505090806005018054610ac490611808565b80601f0160208091040260200160405190810160405280929190818152602001828054610af090611808565b8015610b3b5780601f10610b1257610100808354040283529160200191610b3b565b820191905f5260205f20905b815481529060010190602001808311610b1e57829003601f168201915b5050505050905084565b6001546001600160a01b03163314610b6f5760405162461bcd60e51b81526004016102b69061196c565b6001600160a01b038116610b955760405162461bcd60e51b81526004016102b6906119b5565b600480546001600160a01b0319166001600160a01b0383169081179091556040519081527f0bc4c955d989049a150dd44cf7254de34298d311234ebb6d3c7b91dd84d619dd9060200161052e565b5f806060806060805f60055f8981526020019081526020015f209050805f0154816001015482600201836003018460040185600501838054610c2490611808565b80601f0160208091040260200160405190810160405280929190818152602001828054610c5090611808565b8015610c9b5780601f10610c7257610100808354040283529160200191610c9b565b820191905f5260205f20905b815481529060010190602001808311610c7e57829003601f168201915b5050505050935082805480602002602001604051908101604052809291908181526020018280548015610cf557602002820191905f5260205f20905b81546001600160a01b03168152600190910190602001808311610cd7575b5050505050925081805480602002602001604051908101604052809291908181526020018280548015610d4557602002820191905f5260205f20905b815481526020019060010190808311610d31575b50505050509150808054610d5890611808565b80601f0160208091040260200160405190810160405280929190818152602001828054610d8490611808565b8015610dcf5780601f10610da657610100808354040283529160200191610dcf565b820191905f5260205f20905b815481529060010190602001808311610db257829003601f168201915b505050505090509650965096509650965096505091939550919395565b6001546001600160a01b03163314610e165760405162461bcd60e51b81526004016102b69061196c565b6001600160a01b038116610e3c5760405162461bcd60e51b81526004016102b6906119b5565b6001600160a01b0381165f9081526002602052604090205460ff1615610eb35760405162461bcd60e51b815260206004820152602660248201527f41494465636973696f6e4d6f64756c653a206f7261636c6520616c726561647960448201526508185919195960d21b60648201526084016102b6565b6001600160a01b0381165f81815260026020908152604091829020805460ff1916600117905590519182527e47706786c922d17b39285dc59d696bafea72c0b003d3841ae1202076f4c2e4910161052e565b6001546001600160a01b03163314610f2f5760405162461bcd60e51b81526004016102b69061196c565b6001600160a01b038116610f9d5760405162461bcd60e51b815260206004820152602f60248201527f41494465636973696f6e4d6f64756c653a206e6577206f776e6572206164647260448201526e06573732063616e6e6f74206265203608c1b60648201526084016102b6565b600180546001600160a01b0319166001600160a01b0392909216919091179055565b6001546001600160a01b03163314610fe95760405162461bcd60e51b81526004016102b69061196c565b6001600160a01b0381165f9081526002602052604090205460ff1661105b5760405162461bcd60e51b815260206004820152602260248201527f41494465636973696f6e4d6f64756c653a206f7261636c65206e6f7420666f756044820152611b9960f21b60648201526084016102b6565b6001600160a01b0381165f81815260026020908152604091829020805460ff1916905590519182527f9c8e7d83025bef8a04c664b2f753f64b8814bdb7e27291d7e50935f18cc3c712910161052e565b828054828255905f5260205f209081019282156110fe579160200282015b828111156110fe57825182546001600160a01b0319166001600160a01b039091161782556020909201916001909101906110c9565b5061110a929150611147565b5090565b828054828255905f5260205f209081019282156110fe579160200282015b828111156110fe57825182559160200191906001019061112c565b5b8082111561110a575f8155600101611148565b5f8083601f84011261116b575f80fd5b50813567ffffffffffffffff811115611182575f80fd5b6020830191508360208260051b850101111561119c575f80fd5b9250929050565b5f805f80604085870312156111b6575f80fd5b843567ffffffffffffffff808211156111cd575f80fd5b6111d98883890161115b565b909650945060208701359150808211156111f1575f80fd5b506111fe8782880161115b565b95989497509550505050565b80356001600160a01b0381168114611220575f80fd5b919050565b5f60208284031215611235575f80fd5b61123e8261120a565b9392505050565b5f8083601f840112611255575f80fd5b50813567ffffffffffffffff81111561126c575f80fd5b60208301915083602082850101111561119c575f80fd5b5f805f805f805f805f60a08a8c03121561129b575f80fd5b8935985060208a013567ffffffffffffffff808211156112b9575f80fd5b6112c58d838e0161115b565b909a50985060408c01359150808211156112dd575f80fd5b6112e98d838e0161115b565b909850965060608c0135915080821115611301575f80fd5b61130d8d838e01611245565b909650945060808c0135915080821115611325575f80fd5b506113328c828d01611245565b915080935050809150509295985092959850929598565b5f60208284031215611359575f80fd5b5035919050565b5f5b8381101561137a578181015183820152602001611362565b50505f910152565b5f8151808452611399816020860160208601611360565b601f01601f19169290920160200192915050565b848152836020820152608060408201525f6113cb6080830185611382565b82810360608401526113dd8185611382565b979650505050505050565b5f8151808452602080850194508084015f5b83811015611416578151875295820195908201906001016113fa565b509495945050505050565b8681525f6020878184015260c0604084015261144060c0840188611382565b83810360608501528651808252828801918301905f5b8181101561147b5783516001600160a01b031683529284019291840191600101611456565b5050848103608086015261148f81886113e8565b9250505082810360a08401526114a58185611382565b9998505050505050505050565b60208082526029908201527f41494465636973696f6e4d6f64756c653a2063616c6c6572206973206e6f7420604082015268616e206f7261636c6560b81b606082015260800190565b634e487b7160e01b5f52601160045260245ffd5b80820180821115611522576115226114fb565b92915050565b60208082526025908201527f41494465636973696f6e4d6f64756c653a2075706461746520746f6f206672656040820152641c5d595b9d60da1b606082015260800190565b60208082526028908201527f41494465636973696f6e4d6f64756c653a20617272617973206c656e677468206040820152670dad2e6dac2e8c6d60c31b606082015260800190565b634e487b7160e01b5f52603260045260245ffd5b5f600182016115da576115da6114fb565b5060010190565b6020808252602f908201527f41494465636973696f6e4d6f64756c653a20746f74616c20616c6c6f6361746960408201526e6f6e206d757374206265203130302560881b606082015260800190565b604080825281018490525f8560608301825b87811015611670576001600160a01b0361165b8461120a565b16825260209283019290910190600101611642565b5083810360208501528481526001600160fb1b0385111561168f575f80fd5b8460051b915081866020830137016020019695505050505050565b5f82516116bb818460208701611360565b9190910192915050565b6020808252602a908201527f41494465636973696f6e4d6f64756c653a20636f6e74726f6c6c657220757064604082015269185d194819985a5b195960b21b606082015260800190565b8781525f6020808301895f5b8a811015611747576001600160a01b036117348361120a565b168352918301919083019060010161171b565b50506001600160fb1b0387111561175c575f80fd5b8660051b91508188823701838582375f93019283525090979650505050505050565b81835281816020850137505f828201602090810191909152601f909101601f19169091010190565b604081525f6117b86040830186611382565b82810360208401526117cb81858761177e565b9695505050505050565b5f602082840312156117e5575f80fd5b8151801515811461123e575f80fd5b634e487b7160e01b5f52604160045260245ffd5b600181811c9082168061181c57607f821691505b60208210810361183a57634e487b7160e01b5f52602260045260245ffd5b50919050565b601f821115611889575f81815260208120601f850160051c810160208610156118665750805b601f850160051c820191505b8181101561188557828155600101611872565b5050505b505050565b815167ffffffffffffffff8111156118a8576118a86117f4565b6118bc816118b68454611808565b84611840565b602080601f8311600181146118ef575f84156118d85750858301515b5f19600386901b1c1916600185901b178555611885565b5f85815260208120601f198616915b8281101561191d578886015182559484019460019091019084016118fe565b508582101561193a57878501515f19600388901b60f8161c191681555b5050505050600190811b01905550565b838152604060208201525f61196360408301848661177e565b95945050505050565b60208082526029908201527f41494465636973696f6e4d6f64756c653a2063616c6c6572206973206e6f74206040820152683a34329037bbb732b960b91b606082015260800190565b6020808252602c908201527f41494465636973696f6e4d6f64756c653a206f7261636c65206164647265737360408201526b02063616e6e6f7420626520360a41b60608201526080019056fea2646970667358221220da8dedccdd826f513453bcbad8412d8c0adc441e813189dde31f9acd0a483fff64736f6c63430008140033","linkReferences":{}},"methodIdentifiers":{"MIN_UPDATE_INTERVAL()":"bd3be27c","addOracle(address)":"df5dd1a5","aiDecisions(bytes32)":"ade04ec2","controller()":"f77c4791","getDecision(bytes32)":"d8c57892","isOracle(address)":"a97e5c93","lastUpdateTimestamp()":"14bcec9f","mcpOracle()":"cce21a54","owner()":"8da5cb5b","removeOracle(address)":"fdc85fc4","setController(address)":"92eefe9b","setControllerForTesting(address)":"3c6e5437","setMCPOracle(address)":"cabdadef","transferOwnership(address)":"f2fde38b","updateAllocations(address[],uint256[])":"24add57d","updateAllocationsWithMCP(bytes32,address[],uint256[],string,bytes)":"5094d260"},"id":20}