{"abi":[{"type":"constructor","inputs":[{"name":"_token","type":"address","internalType":"address"},{"name":"_owner","type":"address","internalType":"address"},{"name":"_name","type":"string","internalType":"string"},{"name":"_riskScore","type":"uint8","internalType":"uint8"}],"stateMutability":"nonpayable"},{"type":"function","name":"balanceOf","inputs":[],"outputs":[{"name":"","type":"uint256","internalType":"uint256"}],"stateMutability":"view"},{"type":"function","name":"controller","inputs":[],"outputs":[{"name":"","type":"address","internalType":"address"}],"stateMutability":"view"},{"type":"function","name":"deposit","inputs":[{"name":"_amount","type":"uint256","internalType":"uint256"}],"outputs":[{"name":"","type":"uint256","internalType":"uint256"}],"stateMutability":"nonpayable"},{"type":"function","name":"emergencyWithdraw","inputs":[],"outputs":[{"name":"","type":"uint256","internalType":"uint256"}],"stateMutability":"nonpayable"},{"type":"function","name":"emergencyWithdrawCalled","inputs":[],"outputs":[{"name":"","type":"bool","internalType":"bool"}],"stateMutability":"view"},{"type":"function","name":"getAPY","inputs":[],"outputs":[{"name":"","type":"uint256","internalType":"uint256"}],"stateMutability":"view"},{"type":"function","name":"getRiskScore","inputs":[],"outputs":[{"name":"","type":"uint8","internalType":"uint8"}],"stateMutability":"view"},{"type":"function","name":"getTVL","inputs":[],"outputs":[{"name":"","type":"uint256","internalType":"uint256"}],"stateMutability":"view"},{"type":"function","name":"getTotalDeposits","inputs":[],"outputs":[{"name":"","type":"uint256","internalType":"uint256"}],"stateMutability":"view"},{"type":"function","name":"harvest","inputs":[],"outputs":[{"name":"","type":"uint256","internalType":"uint256"}],"stateMutability":"nonpayable"},{"type":"function","name":"harvestCalled","inputs":[],"outputs":[{"name":"","type":"bool","internalType":"bool"}],"stateMutability":"view"},{"type":"function","name":"isPaused","inputs":[],"outputs":[{"name":"","type":"bool","internalType":"bool"}],"stateMutability":"view"},{"type":"function","name":"mockAPY","inputs":[],"outputs":[{"name":"","type":"uint256","internalType":"uint256"}],"stateMutability":"view"},{"type":"function","name":"mockBalance","inputs":[],"outputs":[{"name":"","type":"uint256","internalType":"uint256"}],"stateMutability":"view"},{"type":"function","name":"mockDepositSuccess","inputs":[],"outputs":[{"name":"","type":"bool","internalType":"bool"}],"stateMutability":"view"},{"type":"function","name":"mockHarvestAmount","inputs":[],"outputs":[{"name":"","type":"uint256","internalType":"uint256"}],"stateMutability":"view"},{"type":"function","name":"mockHarvestSuccess","inputs":[],"outputs":[{"name":"","type":"bool","internalType":"bool"}],"stateMutability":"view"},{"type":"function","name":"mockWithdrawSuccess","inputs":[],"outputs":[{"name":"","type":"bool","internalType":"bool"}],"stateMutability":"view"},{"type":"function","name":"name","inputs":[],"outputs":[{"name":"","type":"string","internalType":"string"}],"stateMutability":"view"},{"type":"function","name":"pause","inputs":[],"outputs":[],"stateMutability":"nonpayable"},{"type":"function","name":"resetHarvestCalled","inputs":[],"outputs":[],"stateMutability":"nonpayable"},{"type":"function","name":"setMockAPY","inputs":[{"name":"_apy","type":"uint256","internalType":"uint256"}],"outputs":[],"stateMutability":"nonpayable"},{"type":"function","name":"setMockBalance","inputs":[{"name":"_balance","type":"uint256","internalType":"uint256"}],"outputs":[],"stateMutability":"nonpayable"},{"type":"function","name":"setMockDepositSuccess","inputs":[{"name":"_success","type":"bool","internalType":"bool"}],"outputs":[],"stateMutability":"nonpayable"},{"type":"function","name":"setMockHarvestAmount","inputs":[{"name":"_amount","type":"uint256","internalType":"uint256"}],"outputs":[],"stateMutability":"nonpayable"},{"type":"function","name":"setMockHarvestSuccess","inputs":[{"name":"_success","type":"bool","internalType":"bool"}],"outputs":[],"stateMutability":"nonpayable"},{"type":"function","name":"setMockWithdrawSuccess","inputs":[{"name":"_success","type":"bool","internalType":"bool"}],"outputs":[],"stateMutability":"nonpayable"},{"type":"function","name":"setShouldFailDeposit","inputs":[{"name":"_shouldFail","type":"bool","internalType":"bool"}],"outputs":[],"stateMutability":"nonpayable"},{"type":"function","name":"setShouldFailEmergencyWithdraw","inputs":[{"name":"_shouldFail","type":"bool","internalType":"bool"}],"outputs":[],"stateMutability":"nonpayable"},{"type":"function","name":"setShouldFailHarvest","inputs":[{"name":"_shouldFail","type":"bool","internalType":"bool"}],"outputs":[],"stateMutability":"nonpayable"},{"type":"function","name":"setShouldFailWithdraw","inputs":[{"name":"_shouldFail","type":"bool","internalType":"bool"}],"outputs":[],"stateMutability":"nonpayable"},{"type":"function","name":"shouldFailDeposit","inputs":[],"outputs":[{"name":"","type":"bool","internalType":"bool"}],"stateMutability":"view"},{"type":"function","name":"shouldFailEmergencyWithdraw","inputs":[],"outputs":[{"name":"","type":"bool","internalType":"bool"}],"stateMutability":"view"},{"type":"function","name":"shouldFailHarvest","inputs":[],"outputs":[{"name":"","type":"bool","internalType":"bool"}],"stateMutability":"view"},{"type":"function","name":"shouldFailWithdraw","inputs":[],"outputs":[{"name":"","type":"bool","internalType":"bool"}],"stateMutability":"view"},{"type":"function","name":"unpause","inputs":[],"outputs":[],"stateMutability":"nonpayable"},{"type":"function","name":"want","inputs":[],"outputs":[{"name":"","type":"address","internalType":"address"}],"stateMutability":"view"},{"type":"function","name":"withdraw","inputs":[{"name":"_amount","type":"uint256","internalType":"uint256"}],"outputs":[{"name":"","type":"uint256","internalType":"uint256"}],"stateMutability":"nonpayable"},{"type":"function","name":"withdrawAll","inputs":[],"outputs":[{"name":"","type":"uint256","internalType":"uint256"}],"stateMutability":"nonpayable"},{"type":"event","name":"Deposit","inputs":[{"name":"caller","type":"address","indexed":true,"internalType":"address"},{"name":"amount","type":"uint256","indexed":false,"internalType":"uint256"},{"name":"shares","type":"uint256","indexed":false,"internalType":"uint256"}],"anonymous":false},{"type":"event","name":"EmergencyWithdraw","inputs":[{"name":"amount","type":"uint256","indexed":false,"internalType":"uint256"}],"anonymous":false},{"type":"event","name":"Harvest","inputs":[{"name":"harvested","type":"uint256","indexed":false,"internalType":"uint256"}],"anonymous":false},{"type":"event","name":"StrategyPaused","inputs":[],"anonymous":false},{"type":"event","name":"StrategyUnpaused","inputs":[],"anonymous":false},{"type":"event","name":"Withdraw","inputs":[{"name":"caller","type":"address","indexed":true,"internalType":"address"},{"name":"shares","type":"uint256","indexed":false,"internalType":"uint256"},{"name":"amount","type":"uint256","indexed":false,"internalType":"uint256"}],"anonymous":false}],"bytecode":{"object":"0x60a06040526004805462ffffff1916620101011790556101f46005556007805465ffffffff00001916905534801562000036575f80fd5b506040516200119538038062001195833981016040819052620000599162000253565b838383836001600160a01b038416620000c85760405162461bcd60e51b815260206004820152602660248201527f4261736553747261746567793a2077616e7420616464726573732063616e6e6f60448201526507420626520360d41b60648201526084015b60405180910390fd5b6001600160a01b038316620001355760405162461bcd60e51b815260206004820152602c60248201527f4261736553747261746567793a20636f6e74726f6c6c6572206164647265737360448201526b02063616e6e6f7420626520360a41b6064820152608401620000bf565b5f8160ff161180156200014c5750600a8160ff1611155b620001b45760405162461bcd60e51b815260206004820152603160248201527f4261736553747261746567793a207269736b2073636f7265206d7573742062656044820152700206265747765656e203120616e6420313607c1b6064820152608401620000bf565b6001600160a01b0380851660805260018054918516620100000262010000600160b01b03199092169190911790555f620001ef8382620003e4565b506001805461ffff191660ff90921691909117905550620004ac95505050505050565b80516001600160a01b038116811462000229575f80fd5b919050565b634e487b7160e01b5f52604160045260245ffd5b805160ff8116811462000229575f80fd5b5f805f806080858703121562000267575f80fd5b620002728562000212565b935060206200028381870162000212565b60408701519094506001600160401b0380821115620002a0575f80fd5b818801915088601f830112620002b4575f80fd5b815181811115620002c957620002c96200022e565b604051601f8201601f19908116603f01168101908382118183101715620002f457620002f46200022e565b816040528281528b868487010111156200030c575f80fd5b5f93505b828410156200032f578484018601518185018701529285019262000310565b5f8684830101528097505050505050506200034d6060860162000242565b905092959194509250565b600181811c908216806200036d57607f821691505b6020821081036200038c57634e487b7160e01b5f52602260045260245ffd5b50919050565b601f821115620003df575f81815260208120601f850160051c81016020861015620003ba5750805b601f850160051c820191505b81811015620003db57828155600101620003c6565b5050505b505050565b81516001600160401b038111156200040057620004006200022e565b620004188162000411845462000358565b8462000392565b602080601f8311600181146200044e575f8415620004365750858301515b5f19600386901b1c1916600185901b178555620003db565b5f85815260208120601f198616915b828110156200047e578886015182559484019460019091019084016200045d565b50858210156200049c57878501515f19600388901b60f8161c191681555b5050505050600190811b01905550565b608051610cd0620004c55f395f6102ae0152610cd05ff3fe608060405234801561000f575f80fd5b5060043610610234575f3560e01c80638479ab9a11610135578063b187bd26116100b4578063db2e21bc11610079578063db2e21bc14610509578063e54e817114610511578063f10a151114610532578063f77c47911461053b578063fd70789b14610554575f80fd5b8063b187bd2614610488578063b6b55f2514610498578063cad71234146104ab578063d2cbf7ad146104d9578063d6f71a05146104e1575f80fd5b806397b3fcaa116100fa57806397b3fcaa146103c25780639925ba6a14610446578063999ce3de1461044f5780639b764d6c146104625780639de6102f14610476575f80fd5b80638479ab9a146103e4578063853828b6146103fa578063864c61a4146104025780638ea8d0f71461040b578063948daa3a14610437575f80fd5b80632e899b62116101c1578063504f8d5811610186578063504f8d581461037f5780635617f4d2146103af578063722713f7146103c257806372a1c516146103ca5780638456cb59146103dc575f80fd5b80632e899b621461031d57806339ab4333146103475780633f4ba83a1461035a5780634641257d146103625780634acaa1fa1461036a575f80fd5b8063168a482211610207578063168a4822146102975780631f1fcd51146102a95780632b35f739146102e85780632d690db2146102fd5780632e1a7d4d1461030a575f80fd5b80630171366c1461023857806305d44c161461025a57806306fdde031461026f5780630a75b28d14610284575b5f80fd5b6007546102459060ff1681565b60405190151581526020015b60405180910390f35b61026d610268366004610b19565b600655565b005b61027761057e565b6040516102519190610b30565b61026d610292366004610b19565b600355565b6002545b604051908152602001610251565b6102d07f000000000000000000000000000000000000000000000000000000000000000081565b6040516001600160a01b039091168152602001610251565b60015460405160ff9091168152602001610251565b6004546102459060ff1681565b61029b610318366004610b19565b61060d565b61026d61032b366004610b7b565b60048054911515620100000262ff000019909216919091179055565b6007546102459062010000900460ff1681565b61026d6106cc565b61029b610731565b60075461024590640100000000900460ff1681565b61026d61038d366004610b7b565b60078054911515650100000000000265ff000000000019909216919091179055565b6004546102459062010000900460ff1681565b60035461029b565b60045461024590610100900460ff1681565b61026d61082a565b6007546102459065010000000000900460ff1681565b61029b610893565b61029b60055481565b61026d610419366004610b7b565b6007805491151563010000000263ff00000019909216919091179055565b61026d6007805460ff19169055565b61029b60065481565b61026d61045d366004610b19565b600555565b600754610245906301000000900460ff1681565b60075461024590610100900460ff1681565b600154610100900460ff16610245565b61029b6104a6366004610b19565b610922565b61026d6104b9366004610b7b565b600780549115156401000000000264ff0000000019909216919091179055565b60055461029b565b61026d6104ef366004610b7b565b600480549115156101000261ff0019909216919091179055565b61029b610a3b565b61026d61051f366004610b7b565b6004805460ff1916911515919091179055565b61029b60035481565b6001546102d0906201000090046001600160a01b031681565b61026d610562366004610b7b565b60078054911515620100000262ff000019909216919091179055565b60605f805461058c90610ba1565b80601f01602080910402602001604051908101604052809291908181526020018280546105b890610ba1565b80156106035780601f106105da57610100808354040283529160200191610603565b820191905f5260205f20905b8154815290600101906020018083116105e657829003601f168201915b5050505050905090565b6001545f906201000090046001600160a01b031633146106485760405162461bcd60e51b815260040161063f90610bd9565b60405180910390fd5b6007546301000000900460ff16156106725760405162461bcd60e51b815260040161063f90610c23565b600454610100900460ff166106995760405162461bcd60e51b815260040161063f90610c23565b6003548211156106b0575050600380545f90915590565b8160035f8282546106c19190610c6e565b909155509192915050565b6001546201000090046001600160a01b031633146106fc5760405162461bcd60e51b815260040161063f90610bd9565b6001805461ff00191690556040517f1ff6abc1b134021c8527845dcdb865dc289bfdd957830d74683159bb968f4cd1905f90a1565b6001545f906201000090046001600160a01b031633146107635760405162461bcd60e51b815260040161063f90610bd9565b600754640100000000900460ff16156107be5760405162461bcd60e51b815260206004820152601c60248201527f4d6f636b53747261746567793a2068617276657374206661696c656400000000604482015260640161063f565b60045462010000900460ff166108165760405162461bcd60e51b815260206004820152601c60248201527f4d6f636b53747261746567793a2068617276657374206661696c656400000000604482015260640161063f565b506007805460ff1916600117905560065490565b6001546201000090046001600160a01b0316331461085a5760405162461bcd60e51b815260040161063f90610bd9565b6001805461ff0019166101001790556040517fe628b9497ee1f4e6fedddc2cb01459087e67c6fc93ea6946abcbdea7eb7684bf905f90a1565b6001545f906201000090046001600160a01b031633146108c55760405162461bcd60e51b815260040161063f90610bd9565b6007546301000000900460ff16156108ef5760405162461bcd60e51b815260040161063f90610c23565b600454610100900460ff166109165760405162461bcd60e51b815260040161063f90610c23565b50600380545f90915590565b6001545f90610100900460ff161561097c5760405162461bcd60e51b815260206004820181905260248201527f4261736553747261746567793a20737472617465677920697320706175736564604482015260640161063f565b6001546201000090046001600160a01b031633146109ac5760405162461bcd60e51b815260040161063f90610bd9565b60075462010000900460ff1615610a055760405162461bcd60e51b815260206004820152601c60248201527f4d6f636b53747261746567793a206465706f736974206661696c656400000000604482015260640161063f565b60045460ff16610a1657505f919050565b8160035f828254610a279190610c87565b90915550610a3790508280610ac4565b5090565b6007545f9065010000000000900460ff1615610aa95760405162461bcd60e51b815260206004820152602760248201527f4d6f636b53747261746567793a20656d657267656e63792077697468647261776044820152660819985a5b195960ca1b606482015260840161063f565b506007805461ff001916610100179055600380545f90915590565b8160025f828254610ad59190610c87565b9091555050604080518381526020810183905233917f90890809c654f11d6e72a28fa60149770a0d11ec6c92319d6ceb2bb0a4ea1a15910160405180910390a25050565b5f60208284031215610b29575f80fd5b5035919050565b5f6020808352835180828501525f5b81811015610b5b57858101830151858201604001528201610b3f565b505f604082860101526040601f19601f8301168501019250505092915050565b5f60208284031215610b8b575f80fd5b81358015158114610b9a575f80fd5b9392505050565b600181811c90821680610bb557607f821691505b602082108103610bd357634e487b7160e01b5f52602260045260245ffd5b50919050565b6020808252602a908201527f4261736553747261746567793a2063616c6c6572206973206e6f74207468652060408201526931b7b73a3937b63632b960b11b606082015260800190565b6020808252601d908201527f4d6f636b53747261746567793a207769746864726177206661696c6564000000604082015260600190565b634e487b7160e01b5f52601160045260245ffd5b81810381811115610c8157610c81610c5a565b92915050565b80820180821115610c8157610c81610c5a56fea264697066735822122034dbb159fa0341a90fbcb4d4dcda0848435dc23a71ea3c67f2442f6f5564df3964736f6c63430008140033","linkReferences":{}},"methodIdentifiers":{"balanceOf()":"722713f7","controller()":"f77c4791","deposit(uint256)":"b6b55f25","emergencyWithdraw()":"db2e21bc","emergencyWithdrawCalled()":"9de6102f","getAPY()":"d2cbf7ad","getRiskScore()":"2b35f739","getTVL()":"97b3fcaa","getTotalDeposits()":"168a4822","harvest()":"4641257d","harvestCalled()":"0171366c","isPaused()":"b187bd26","mockAPY()":"864c61a4","mockBalance()":"f10a1511","mockDepositSuccess()":"2d690db2","mockHarvestAmount()":"9925ba6a","mockHarvestSuccess()":"5617f4d2","mockWithdrawSuccess()":"72a1c516","name()":"06fdde03","pause()":"8456cb59","resetHarvestCalled()":"948daa3a","setMockAPY(uint256)":"999ce3de","setMockBalance(uint256)":"0a75b28d","setMockDepositSuccess(bool)":"e54e8171","setMockHarvestAmount(uint256)":"05d44c16","setMockHarvestSuccess(bool)":"2e899b62","setMockWithdrawSuccess(bool)":"d6f71a05","setShouldFailDeposit(bool)":"fd70789b","setShouldFailEmergencyWithdraw(bool)":"504f8d58","setShouldFailHarvest(bool)":"cad71234","setShouldFailWithdraw(bool)":"8ea8d0f7","shouldFailDeposit()":"39ab4333","shouldFailEmergencyWithdraw()":"8479ab9a","shouldFailHarvest()":"4acaa1fa","shouldFailWithdraw()":"9b764d6c","unpause()":"3f4ba83a","want()":"1f1fcd51","withdraw(uint256)":"2e1a7d4d","withdrawAll()":"853828b6"},"id":26}