{"abi":[{"type":"function","name":"getLastAllocationUpdate","inputs":[],"outputs":[{"name":"","type":"address[]","internalType":"address[]"},{"name":"","type":"uint256[]","internalType":"uint256[]"}],"stateMutability":"view"},{"type":"function","name":"lastAllocations","inputs":[{"name":"","type":"uint256","internalType":"uint256"}],"outputs":[{"name":"","type":"uint256","internalType":"uint256"}],"stateMutability":"view"},{"type":"function","name":"lastStrategies","inputs":[{"name":"","type":"uint256","internalType":"uint256"}],"outputs":[{"name":"","type":"address","internalType":"address"}],"stateMutability":"view"},{"type":"function","name":"updateAllocations","inputs":[{"name":"_strategies","type":"address[]","internalType":"address[]"},{"name":"_allocations","type":"uint256[]","internalType":"uint256[]"}],"outputs":[],"stateMutability":"nonpayable"}],"bytecode":{"object":"0x608060405234801561000f575f80fd5b506104a58061001d5f395ff3fe608060405234801561000f575f80fd5b506004361061004a575f3560e01c806324add57d1461004e5780634a4a0a7a14610063578063afdd3fc314610093578063d8c7fdf0146100b4575b5f80fd5b61006161005c36600461030a565b6100ca565b005b610076610071366004610371565b61018e565b6040516001600160a01b0390911681526020015b60405180910390f35b6100a66100a1366004610371565b6101b5565b60405190815260200161008a565b6100bc6101d4565b60405161008a929190610388565b6100d45f8061028c565b6100df60015f61028c565b5f5b83811015610187575f8585838181106100fc576100fc61040a565b9050602002016020810190610111919061041e565b8154600180820184555f93845260209093200180546001600160a01b0319166001600160a01b03929092169190911790558383838181106101545761015461040a565b83546001810185555f9485526020948590209190940292909201359190920155508061017f8161044b565b9150506100e1565b5050505050565b5f818154811061019c575f80fd5b5f918252602090912001546001600160a01b0316905081565b600181815481106101c4575f80fd5b5f91825260209091200154905081565b6060805f60018180548060200260200160405190810160405280929190818152602001828054801561022d57602002820191905f5260205f20905b81546001600160a01b0316815260019091019060200180831161020f575b505050505091508080548060200260200160405190810160405280929190818152602001828054801561027d57602002820191905f5260205f20905b815481526020019060010190808311610269575b50505050509050915091509091565b5080545f8255905f5260205f20908101906102a791906102aa565b50565b5b808211156102be575f81556001016102ab565b5090565b5f8083601f8401126102d2575f80fd5b50813567ffffffffffffffff8111156102e9575f80fd5b6020830191508360208260051b8501011115610303575f80fd5b9250929050565b5f805f806040858703121561031d575f80fd5b843567ffffffffffffffff80821115610334575f80fd5b610340888389016102c2565b90965094506020870135915080821115610358575f80fd5b50610365878288016102c2565b95989497509550505050565b5f60208284031215610381575f80fd5b5035919050565b604080825283519082018190525f906020906060840190828701845b828110156103c95781516001600160a01b0316845292840192908401906001016103a4565b505050838103828501528451808252858301918301905f5b818110156103fd578351835292840192918401916001016103e1565b5090979650505050505050565b634e487b7160e01b5f52603260045260245ffd5b5f6020828403121561042e575f80fd5b81356001600160a01b0381168114610444575f80fd5b9392505050565b5f6001820161046857634e487b7160e01b5f52601160045260245ffd5b506001019056fea26469706673582212200e364a72812e85f1528a5dc342615d5ffc5a11acaf80415a978da1a4698d2e1f64736f6c63430008140033","linkReferences":{}},"methodIdentifiers":{"getLastAllocationUpdate()":"d8c7fdf0","lastAllocations(uint256)":"afdd3fc3","lastStrategies(uint256)":"4a4a0a7a","updateAllocations(address[],uint256[])":"24add57d"},"id":25}