{"abi":[{"type":"constructor","inputs":[],"stateMutability":"nonpayable"},{"type":"function","name":"owner","inputs":[],"outputs":[{"name":"","type":"address","internalType":"address"}],"stateMutability":"view"},{"type":"function","name":"query","inputs":[{"name":"query","type":"bytes","internalType":"bytes"}],"outputs":[{"name":"","type":"bytes","internalType":"bytes"}],"stateMutability":"view"},{"type":"function","name":"setSignatureValidity","inputs":[{"name":"_valid","type":"bool","internalType":"bool"}],"outputs":[],"stateMutability":"nonpayable"},{"type":"function","name":"shouldReturnValidSignature","inputs":[],"outputs":[{"name":"","type":"bool","internalType":"bool"}],"stateMutability":"view"},{"type":"function","name":"verifySignature","inputs":[{"name":"message","type":"bytes","internalType":"bytes"},{"name":"signature","type":"bytes","internalType":"bytes"}],"outputs":[{"name":"","type":"bool","internalType":"bool"}],"stateMutability":"view"}],"bytecode":{"object":"0x60806040525f805460ff60a01b1916600160a01b179055348015610021575f80fd5b505f80546001600160a01b03191633179055610691806100405f395ff3fe608060405234801561000f575f80fd5b5060043610610055575f3560e01c806331f59122146100595780635ea634ea1461008d5780638da5cb5b146100a2578063b5235476146100cc578063ed815d83146100df575b5f80fd5b610078610067366004610424565b50505f54600160a01b900460ff1690565b60405190151581526020015b60405180910390f35b6100a061009b366004610484565b6100ff565b005b5f546100b4906001600160a01b031681565b6040516001600160a01b039091168152602001610084565b5f5461007890600160a01b900460ff1681565b6100f26100ed3660046104aa565b610188565b6040516100849190610506565b5f546001600160a01b0316331461016b5760405162461bcd60e51b815260206004820152602660248201527f4d6f636b4d43504f7261636c653a2063616c6c6572206973206e6f74207468656044820152651037bbb732b960d11b606482015260840160405180910390fd5b5f8054911515600160a01b0260ff60a01b19909216919091179055565b60605f8280602001905181019061019f9190610538565b6040517f6765745f6f7074696d616c5f616c6c6f636174696f6e73000000000000000000602082015290915060370160405160208183030381529060405280519060200120816040516020016101f591906105aa565b6040516020818303038152906040528051906020012003610351576040805160028082526060820183525f9260208301908036833750506040805160028082526060820183529394505f9390925090602083019080368337019050509050731111111111111111111111111111111111111111825f8151811061027a5761027a6105c5565b60200260200101906001600160a01b031690816001600160a01b031681525050732222222222222222222222222222222222222222826001815181106102c2576102c26105c5565b60200260200101906001600160a01b031690816001600160a01b031681525050611b58815f815181106102f7576102f76105c5565b602002602001018181525050610bb881600181518110610319576103196105c5565b60200260200101818152505081816040516020016103389291906105d9565b6040516020818303038152906040529350505050919050565b505060408051602081019091525f8152919050565b634e487b7160e01b5f52604160045260245ffd5b604051601f8201601f1916810167ffffffffffffffff811182821017156103a3576103a3610366565b604052919050565b5f67ffffffffffffffff8211156103c4576103c4610366565b50601f01601f191660200190565b5f82601f8301126103e1575f80fd5b81356103f46103ef826103ab565b61037a565b818152846020838601011115610408575f80fd5b816020850160208301375f918101602001919091529392505050565b5f8060408385031215610435575f80fd5b823567ffffffffffffffff8082111561044c575f80fd5b610458868387016103d2565b9350602085013591508082111561046d575f80fd5b5061047a858286016103d2565b9150509250929050565b5f60208284031215610494575f80fd5b813580151581146104a3575f80fd5b9392505050565b5f602082840312156104ba575f80fd5b813567ffffffffffffffff8111156104d0575f80fd5b6104dc848285016103d2565b949350505050565b5f5b838110156104fe5781810151838201526020016104e6565b50505f910152565b602081525f82518060208401526105248160408501602087016104e4565b601f01601f19169190910160400192915050565b5f60208284031215610548575f80fd5b815167ffffffffffffffff81111561055e575f80fd5b8201601f8101841361056e575f80fd5b805161057c6103ef826103ab565b818152856020838501011115610590575f80fd5b6105a18260208301602086016104e4565b95945050505050565b5f82516105bb8184602087016104e4565b9190910192915050565b634e487b7160e01b5f52603260045260245ffd5b604080825283519082018190525f906020906060840190828701845b8281101561061a5781516001600160a01b0316845292840192908401906001016105f5565b505050838103828501528451808252858301918301905f5b8181101561064e57835183529284019291840191600101610632565b509097965050505050505056fea264697066735822122045662c80a40ad3a55e8c3a023e1b94b607c1e702f9bd21b3d9dd603447f8754264736f6c63430008140033","linkReferences":{}},"methodIdentifiers":{"owner()":"8da5cb5b","query(bytes)":"ed815d83","setSignatureValidity(bool)":"5ea634ea","shouldReturnValidSignature()":"b5235476","verifySignature(bytes,bytes)":"31f59122"},"id":20}