{"abi":[{"type":"constructor","inputs":[{"name":"_token","type":"address","internalType":"address"},{"name":"_feeRecipient","type":"address","internalType":"address"}],"stateMutability":"nonpayable"},{"type":"function","name":"addAaveStrategy","inputs":[{"name":"_lendingPool","type":"address","internalType":"address"},{"name":"_aToken","type":"address","internalType":"address"},{"name":"_allocation","type":"uint256","internalType":"uint256"}],"outputs":[],"stateMutability":"nonpayable"},{"type":"function","name":"aiModule","inputs":[],"outputs":[{"name":"","type":"address","internalType":"contract AIDecisionModule"}],"stateMutability":"view"},{"type":"function","name":"controller","inputs":[],"outputs":[{"name":"","type":"address","internalType":"contract Controller"}],"stateMutability":"view"},{"type":"function","name":"deployProtocol","inputs":[],"outputs":[],"stateMutability":"nonpayable"},{"type":"function","name":"feeRecipient","inputs":[],"outputs":[{"name":"","type":"address","internalType":"address"}],"stateMutability":"view"},{"type":"function","name":"owner","inputs":[],"outputs":[{"name":"","type":"address","internalType":"address"}],"stateMutability":"view"},{"type":"function","name":"token","inputs":[],"outputs":[{"name":"","type":"address","internalType":"address"}],"stateMutability":"view"},{"type":"function","name":"transferOwnership","inputs":[{"name":"_newOwner","type":"address","internalType":"address"}],"outputs":[],"stateMutability":"nonpayable"},{"type":"function","name":"vault","inputs":[],"outputs":[{"name":"","type":"address","internalType":"contract Vault"}],"stateMutability":"view"},{"type":"event","name":"ProtocolDeployed","inputs":[{"name":"vault","type":"address","indexed":false,"internalType":"address"},{"name":"controller","type":"address","indexed":false,"internalType":"address"},{"name":"aiModule","type":"address","indexed":false,"internalType":"address"}],"anonymous":false},{"type":"event","name":"StrategyAdded","inputs":[{"name":"strategy","type":"address","indexed":false,"internalType":"address"}],"anonymous":false}],"bytecode":{"object":"0x608060405234801561000f575f80fd5b5060405161768238038061768283398101604081905261002e91610158565b6001600160a01b0382166100945760405162461bcd60e51b815260206004820152602260248201527f4e6170466941493a20746f6b656e20616464726573732063616e6e6f74206265604482015261020360f41b60648201526084015b60405180910390fd5b6001600160a01b0381166100fc5760405162461bcd60e51b815260206004820152602960248201527f4e6170466941493a20666565526563697069656e74206164647265737320636160448201526806e6e6f7420626520360bc1b606482015260840161008b565b600380546001600160a01b039384166001600160a01b0319918216179091556005805492909316918116919091179091556004805490911633179055610189565b80516001600160a01b0381168114610153575f80fd5b919050565b5f8060408385031215610169575f80fd5b6101728361013d565b91506101806020840161013d565b90509250929050565b6174ec806101965f395ff3fe608060405234801562000010575f80fd5b50600436106200009c575f3560e01c806391be83ed116200006b57806391be83ed1462000107578063f2fde38b146200011b578063f77c47911462000132578063fbfa77cf1462000146578063fc0c546a1462000159575f80fd5b80634690484014620000a0578063641e37f814620000d05780636872e47814620000e95780638da5cb5b14620000f3575b5f80fd5b600554620000b4906001600160a01b031681565b6040516001600160a01b03909116815260200160405180910390f35b620000e7620000e13660046200082c565b6200016d565b005b620000e7620003dd565b600454620000b4906001600160a01b031681565b600254620000b4906001600160a01b031681565b620000e76200012c3660046200086a565b62000722565b600154620000b4906001600160a01b031681565b5f54620000b4906001600160a01b031681565b600354620000b4906001600160a01b031681565b6004546001600160a01b03163314620001a35760405162461bcd60e51b81526004016200019a906200088d565b60405180910390fd5b6001546001600160a01b0316620001fd5760405162461bcd60e51b815260206004820152601e60248201527f4e6170466941493a2070726f746f636f6c206e6f74206465706c6f796564000060448201526064016200019a565b6001600160a01b038316620002665760405162461bcd60e51b815260206004820152602860248201527f4e6170466941493a206c656e64696e67506f6f6c20616464726573732063616e60448201526706e6f7420626520360c41b60648201526084016200019a565b6001600160a01b038216620002ca5760405162461bcd60e51b815260206004820152602360248201527f4e6170466941493a2061546f6b656e20616464726573732063616e6e6f74206260448201526206520360ec1b60648201526084016200019a565b6003546001546040515f926001600160a01b0390811692169086908690620002f290620007d8565b6001600160a01b039485168152928416602084015290831660408301529091166060820152608001604051809103905ff08015801562000334573d5f803e3d5ffd5b506001546040516364a08f1160e11b81526001600160a01b0380841660048301526024820186905292935091169063c9411e22906044015f604051808303815f87803b15801562000383575f80fd5b505af115801562000396573d5f803e3d5ffd5b50506040516001600160a01b03841681527f3f008fd510eae7a9e7bee13513d7b83bef8003d488b5a3d0b0da4de71d6846f19250602001905060405180910390a150505050565b6004546001600160a01b031633146200040a5760405162461bcd60e51b81526004016200019a906200088d565b5f546001600160a01b0316156200046f5760405162461bcd60e51b815260206004820152602260248201527f4e6170466941493a2070726f746f636f6c20616c7265616479206465706c6f79604482015261195960f21b60648201526084016200019a565b60035460055460405130926001600160a01b039081169284929116906200049690620007e6565b6001600160a01b03938416815291831660208301529091166040820152606001604051809103905ff080158015620004d0573d5f803e3d5ffd5b505f80546001600160a01b0319166001600160a01b039290921691909117905560405181906200050090620007f4565b6001600160a01b039091168152602001604051809103905ff0801580156200052a573d5f803e3d5ffd5b50600280546001600160a01b0319166001600160a01b039283161790555f546003546040519183169216908390620005629062000802565b6001600160a01b03938416815291831660208301529091166040820152606001604051809103905ff0801580156200059c573d5f803e3d5ffd5b50600180546001600160a01b0319166001600160a01b039283169081179091555f546040516392eefe9b60e01b81526004810192909252909116906392eefe9b906024015f604051808303815f87803b158015620005f8575f80fd5b505af11580156200060b573d5f803e3d5ffd5b50506002546001546040516392eefe9b60e01b81526001600160a01b039182166004820152911692506392eefe9b91506024015f604051808303815f87803b15801562000656575f80fd5b505af115801562000669573d5f803e3d5ffd5b5050600154600254604051633b3879db60e01b81526001600160a01b03918216600482015291169250633b3879db91506024015f604051808303815f87803b158015620006b4575f80fd5b505af1158015620006c7573d5f803e3d5ffd5b50505f54600154600254604080516001600160a01b039485168152928416602084015292168183015290517fcccc4f8a3a087b06fc390663263fe07ebd765688740bdc56b78bdfe38e38f8dd9350908190036060019150a150565b6004546001600160a01b031633146200074f5760405162461bcd60e51b81526004016200019a906200088d565b6001600160a01b038116620007b65760405162461bcd60e51b815260206004820152602660248201527f4e6170466941493a206e6577206f776e657220616464726573732063616e6e6f60448201526507420626520360d41b60648201526084016200019a565b600480546001600160a01b0319166001600160a01b0392909216919091179055565b61154580620008c383390190565b6114328062001e0883390190565b611b43806200323a83390190565b61273a8062004d7d83390190565b80356001600160a01b038116811462000827575f80fd5b919050565b5f805f606084860312156200083f575f80fd5b6200084a8462000810565b92506200085a6020850162000810565b9150604084013590509250925092565b5f602082840312156200087b575f80fd5b620008868262000810565b9392505050565b6020808252818101527f4e6170466941493a2063616c6c6572206973206e6f7420746865206f776e657260408201526060019056fe60a060405234801562000010575f80fd5b506040516200154538038062001545833981016040819052620000339162000330565b60408051808201909152600d81526c4161766520537472617465677960981b60208201528490849060026001600160a01b038416620000c85760405162461bcd60e51b815260206004820152602660248201527f4261736553747261746567793a2077616e7420616464726573732063616e6e6f60448201526507420626520360d41b60648201526084015b60405180910390fd5b6001600160a01b038316620001355760405162461bcd60e51b815260206004820152602c60248201527f4261736553747261746567793a20636f6e74726f6c6c6572206164647265737360448201526b02063616e6e6f7420626520360a41b6064820152608401620000bf565b5f8160ff161180156200014c5750600a8160ff1611155b620001b45760405162461bcd60e51b815260206004820152603160248201527f4261736553747261746567793a207269736b2073636f7265206d7573742062656044820152700206265747765656e203120616e6420313607c1b6064820152608401620000bf565b6001600160a01b0380851660805260018054918516620100000262010000600160b01b03199092169190911790555f620001ef83826200042a565b506001805461ffff191660ff9092169190911790555050506001600160a01b038216620002765760405162461bcd60e51b815260206004820152602e60248201527f4161766553747261746567793a206c656e64696e6720706f6f6c20616464726560448201526d073732063616e6e6f7420626520360941b6064820152608401620000bf565b6001600160a01b038116620002df5760405162461bcd60e51b815260206004820152602860248201527f4161766553747261746567793a2061546f6b656e20616464726573732063616e60448201526706e6f7420626520360c41b6064820152608401620000bf565b600380546001600160a01b039384166001600160a01b0319918216179091556004805492909316911617905550620004f29050565b80516001600160a01b03811681146200032b575f80fd5b919050565b5f805f806080858703121562000344575f80fd5b6200034f8562000314565b93506200035f6020860162000314565b92506200036f6040860162000314565b91506200037f6060860162000314565b905092959194509250565b634e487b7160e01b5f52604160045260245ffd5b600181811c90821680620003b357607f821691505b602082108103620003d257634e487b7160e01b5f52602260045260245ffd5b50919050565b601f82111562000425575f81815260208120601f850160051c81016020861015620004005750805b601f850160051c820191505b8181101562000421578281556001016200040c565b5050505b505050565b81516001600160401b038111156200044657620004466200038a565b6200045e816200045784546200039e565b84620003d8565b602080601f83116001811462000494575f84156200047c5750858301515b5f19600386901b1c1916600185901b17855562000421565b5f85815260208120601f198616915b82811015620004c457888601518255948401946001909101908401620004a3565b5085821015620004e257878501515f19600388901b60f8161c191681555b5050505050600190811b01905550565b6080516110176200052e5f395f818161014a01528181610452015281816105ec0152818161091a015281816109f10152610bc501526110175ff3fe608060405234801561000f575f80fd5b5060043610610111575f3560e01c8063853828b61161009e578063b187bd261161006e578063b187bd2614610204578063b6b55f251461021f578063d2cbf7ad14610232578063db2e21bc1461023a578063f77c479114610242575f80fd5b8063853828b6146101ce57806397b3fcaa146101d6578063a0c1f15e146101de578063a59a9973146101f1575f80fd5b80632e1a7d4d116100e45780632e1a7d4d146101995780633f4ba83a146101ac5780634641257d146101b6578063722713f7146101be5780638456cb59146101c6575f80fd5b806306fdde0314610115578063168a4822146101335780631f1fcd51146101455780632b35f73914610184575b5f80fd5b61011d61025b565b60405161012a9190610e32565b60405180910390f35b6002545b60405190815260200161012a565b61016c7f000000000000000000000000000000000000000000000000000000000000000081565b6040516001600160a01b03909116815260200161012a565b60015460405160ff909116815260200161012a565b6101376101a7366004610e4b565b6102ea565b6101b461051c565b005b610137610581565b6101376105d3565b6101b4610700565b610137610769565b6101376107f5565b60045461016c906001600160a01b031681565b60035461016c906001600160a01b031681565b600154610100900460ff16604051901515815260200161012a565b61013761022d366004610e4b565b610803565b61012c610137565b610137610b39565b60015461016c906201000090046001600160a01b031681565b60605f805461026990610e62565b80601f016020809104026020016040519081016040528092919081815260200182805461029590610e62565b80156102e05780601f106102b7576101008083540402835291602001916102e0565b820191905f5260205f20905b8154815290600101906020018083116102c357829003601f168201915b5050505050905090565b6001545f906201000090046001600160a01b031633146103255760405162461bcd60e51b815260040161031c90610e9a565b60405180910390fd5b5f82116103915760405162461bcd60e51b815260206004820152603460248201527f4161766553747261746567793a20776974686472617720616d6f756e74206d75604482015273073742062652067726561746572207468616e20360641b606482015260840161031c565b5f61039a6105d3565b9050828110156103f75760405162461bcd60e51b815260206004820152602260248201527f4161766553747261746567793a20696e73756666696369656e742062616c616e604482015261636560f01b606482015260840161031c565b6104366040518060400160405280601d81526020017f57697468647261776e20257320746f6b656e732066726f6d204161766500000081525084610c83565b604051336024820152604481018490525f906001600160a01b037f0000000000000000000000000000000000000000000000000000000000000000169060640160408051601f198184030181529181526020820180516001600160e01b031663a9059cbb60e01b179052516104ab9190610ee4565b5f604051808303815f865af19150503d805f81146104e4576040519150601f19603f3d011682016040523d82523d5f602084013e6104e9565b606091505b505090508061050a5760405162461bcd60e51b815260040161031c90610eff565b6105148485610ccc565b509192915050565b6001546201000090046001600160a01b0316331461054c5760405162461bcd60e51b815260040161031c90610e9a565b6001805461ff00191690556040517f1ff6abc1b134021c8527845dcdb865dc289bfdd957830d74683159bb968f4cd1905f90a1565b5f805f90506105c56040518060400160405280601e81526020017f48617276657374656420257320726577617264732066726f6d2041617665000081525082610c83565b6105ce81610d36565b919050565b6040513060248201525f90819081906001600160a01b037f0000000000000000000000000000000000000000000000000000000000000000169060440160408051601f198184030181529181526020820180516001600160e01b03166370a0823160e01b179052516106459190610ee4565b5f60405180830381855afa9150503d805f811461067d576040519150601f19603f3d011682016040523d82523d5f602084013e610682565b606091505b5091509150816106e55760405162461bcd60e51b815260206004820152602860248201527f4161766553747261746567793a20746f6b656e2062616c616e636520636865636044820152671ac819985a5b195960c21b606482015260840161031c565b808060200190518101906106f99190610f42565b9250505090565b6001546201000090046001600160a01b031633146107305760405162461bcd60e51b815260040161031c90610e9a565b6001805461ff0019166101001790556040517fe628b9497ee1f4e6fedddc2cb01459087e67c6fc93ea6946abcbdea7eb7684bf905f90a1565b6001545f906201000090046001600160a01b0316331461079b5760405162461bcd60e51b815260040161031c90610e9a565b60405162461bcd60e51b815260206004820152602960248201527f4261736553747261746567793a207769746864726177416c6c206e6f7420696d6044820152681c1b195b595b9d195960ba1b606482015260840161031c565b5f6107fe6105d3565b905090565b6001545f90610100900460ff161561085d5760405162461bcd60e51b815260206004820181905260248201527f4261736553747261746567793a20737472617465677920697320706175736564604482015260640161031c565b6001546201000090046001600160a01b0316331461088d5760405162461bcd60e51b815260040161031c90610e9a565b5f82116108f85760405162461bcd60e51b815260206004820152603360248201527f4161766553747261746567793a206465706f73697420616d6f756e74206d75736044820152720742062652067726561746572207468616e203606c1b606482015260840161031c565b604051336024820152306044820152606481018390525f906001600160a01b037f0000000000000000000000000000000000000000000000000000000000000000169060840160408051601f198184030181529181526020820180516001600160e01b03166323b872dd60e01b179052516109739190610ee4565b5f604051808303815f865af19150503d805f81146109ac576040519150601f19603f3d011682016040523d82523d5f602084013e6109b1565b606091505b50509050806109d25760405162461bcd60e51b815260040161031c90610eff565b6003546040516001600160a01b039182166024820152604481018590527f00000000000000000000000000000000000000000000000000000000000000009091169060640160408051601f198184030181529181526020820180516001600160e01b031663095ea7b360e01b17905251610a4c9190610ee4565b5f604051808303815f865af19150503d805f8114610a85576040519150601f19603f3d011682016040523d82523d5f602084013e610a8a565b606091505b50508091505080610ae95760405162461bcd60e51b815260206004820152602360248201527f4161766553747261746567793a20746f6b656e20617070726f76616c206661696044820152621b195960ea1b606482015260840161031c565b610b286040518060400160405280601b81526020017f4465706f736974656420257320746f6b656e7320746f2041617665000000000081525084610c83565b610b328384610d6c565b5090919050565b6001545f906201000090046001600160a01b03163314610b6b5760405162461bcd60e51b815260040161031c90610e9a565b5f610b746105d3565b905080156105ce57610b9e604051806060016040528060278152602001610fbb6027913982610c83565b6001546040516001600160a01b036201000090920482166024820152604481018390525f917f0000000000000000000000000000000000000000000000000000000000000000169060640160408051601f198184030181529181526020820180516001600160e01b031663a9059cbb60e01b17905251610c1e9190610ee4565b5f604051808303815f865af19150503d805f8114610c57576040519150601f19603f3d011682016040523d82523d5f602084013e610c5c565b606091505b5050905080610c7d5760405162461bcd60e51b815260040161031c90610eff565b50905090565b610cc88282604051602401610c99929190610f59565b60408051601f198184030181529190526020810180516001600160e01b0316632d839cb360e21b179052610dba565b5050565b600254811115610cdf575f600255610cf6565b8060025f828254610cf09190610f8e565b90915550505b604080518381526020810183905233917ff279e6a1f5e320cca91135676d9cb6e44ca8a08c0b88342bcdb1144f6511b56891015b60405180910390a25050565b6040518181527f80f97f878e16410266694f134ddf012f2be424f54f8b5cafa107eccc51d00d589060200160405180910390a150565b8160025f828254610d7d9190610fa7565b9091555050604080518381526020810183905233917f90890809c654f11d6e72a28fa60149770a0d11ec6c92319d6ceb2bb0a4ea1a159101610d2a565b610dc381610dc6565b50565b5f6a636f6e736f6c652e6c6f6790505f80835160208501845afa505050565b5f5b83811015610dff578181015183820152602001610de7565b50505f910152565b5f8151808452610e1e816020860160208601610de5565b601f01601f19169290920160200192915050565b602081525f610e446020830184610e07565b9392505050565b5f60208284031215610e5b575f80fd5b5035919050565b600181811c90821680610e7657607f821691505b602082108103610e9457634e487b7160e01b5f52602260045260245ffd5b50919050565b6020808252602a908201527f4261736553747261746567793a2063616c6c6572206973206e6f74207468652060408201526931b7b73a3937b63632b960b11b606082015260800190565b5f8251610ef5818460208701610de5565b9190910192915050565b60208082526023908201527f4161766553747261746567793a20746f6b656e207472616e73666572206661696040820152621b195960ea1b606082015260800190565b5f60208284031215610f52575f80fd5b5051919050565b604081525f610f6b6040830185610e07565b90508260208301529392505050565b634e487b7160e01b5f52601160045260245ffd5b81810381811115610fa157610fa1610f7a565b92915050565b80820180821115610fa157610fa1610f7a56fe456d657267656e63792077697468647261776e20257320746f6b656e732066726f6d2041617665a26469706673582212206afa4fa41fcb13f88629fc7827219ab1158888edf551d76803ab27e39d57af9764736f6c6343000814003360a06040526103e8600355600a6004553480156200001b575f80fd5b5060405162001432380380620014328339810160408190526200003e91620001ba565b6001600160a01b0383166200009a5760405162461bcd60e51b815260206004820181905260248201527f5661756c743a20746f6b656e20616464726573732063616e6e6f74206265203060448201526064015b60405180910390fd5b6001600160a01b038216620001005760405162461bcd60e51b815260206004820152602560248201527f5661756c743a20636f6e74726f6c6c657220616464726573732063616e6e6f74604482015264020626520360dc1b606482015260840162000091565b6001600160a01b038116620001685760405162461bcd60e51b815260206004820152602760248201527f5661756c743a20666565526563697069656e7420616464726573732063616e6e60448201526606f7420626520360cc1b606482015260840162000091565b6001600160a01b039283166080525f80549284166001600160a01b03199384161790556005805491909316911617905562000201565b80516001600160a01b0381168114620001b5575f80fd5b919050565b5f805f60608486031215620001cd575f80fd5b620001d8846200019e565b9250620001e8602085016200019e565b9150620001f8604085016200019e565b90509250925092565b6080516111f56200023d5f395f81816102120152818161048c0152818161059b015281816109f601528181610b680152610e6d01526111f55ff3fe608060405234801561000f575f80fd5b50600436106100f0575f3560e01c80638778878211610093578063b6b55f2511610063578063b6b55f25146101d5578063e74b981b146101e8578063f77c4791146101fb578063fc0c546a1461020d575f80fd5b8063877887821461019d5780638bc7e8c4146101a657806392eefe9b146101af578063ac1e5025146101c2575f80fd5b80633d68175c116100ce5780633d68175c14610138578063469048401461014057806370897b231461016b57806370a082311461017e575f80fd5b806318160ddd146100f45780632e1a7d4d146101105780633c6e543714610123575b5f80fd5b6100fd60015481565b6040519081526020015b60405180910390f35b6100fd61011e36600461107f565b610234565b610136610131366004611096565b6106cb565b005b6100fd610783565b600554610153906001600160a01b031681565b6040516001600160a01b039091168152602001610107565b61013661017936600461107f565b6107c6565b6100fd61018c366004611096565b60026020525f908152604090205481565b6100fd60035481565b6100fd60045481565b6101366101bd366004611096565b610887565b6101366101d036600461107f565b6108b0565b6100fd6101e336600461107f565b61096f565b6101366101f6366004611096565b610d76565b5f54610153906001600160a01b031681565b6101537f000000000000000000000000000000000000000000000000000000000000000081565b5f80821161029f5760405162461bcd60e51b815260206004820152602d60248201527f5661756c743a20776974686472617720736861726573206d757374206265206760448201526c0726561746572207468616e203609c1b60648201526084015b60405180910390fd5b335f908152600260205260409020548211156102fd5760405162461bcd60e51b815260206004820152601a60248201527f5661756c743a20696e73756666696369656e74207368617265730000000000006044820152606401610296565b5f610306610e54565b60015490915061031682856110d7565b61032091906110f4565b91505f6127106004548461033491906110d7565b61033e91906110f4565b90505f61034b8285611113565b90508460015f82825461035e9190611113565b9091555050335f9081526002602052604081208054879290610381908490611113565b90915550505f8054604051602481018790526001600160a01b039091169060440160408051601f198184030181529181526020820180516001600160e01b0316635fed067960e01b179052516103d79190611126565b5f604051808303815f865af19150503d805f8114610410576040519150601f19603f3d011682016040523d82523d5f602084013e610415565b606091505b50509050806104725760405162461bcd60e51b815260206004820152602360248201527f5661756c743a20636f6e74726f6c6c6572207769746864726177616c206661696044820152621b195960ea1b6064820152608401610296565b604051336024820152604481018390526001600160a01b037f0000000000000000000000000000000000000000000000000000000000000000169060640160408051601f198184030181529181526020820180516001600160e01b031663a9059cbb60e01b179052516104e59190611126565b5f604051808303815f865af19150503d805f811461051e576040519150601f19603f3d011682016040523d82523d5f602084013e610523565b606091505b505080915050806105765760405162461bcd60e51b815260206004820152601c60248201527f5661756c743a20746f6b656e207472616e73666572206661696c6564000000006044820152606401610296565b8215610687576005546040516001600160a01b039182166024820152604481018590527f00000000000000000000000000000000000000000000000000000000000000009091169060640160408051601f198184030181529181526020820180516001600160e01b031663a9059cbb60e01b179052516105f69190611126565b5f604051808303815f865af19150503d805f811461062f576040519150601f19603f3d011682016040523d82523d5f602084013e610634565b606091505b505080915050806106875760405162461bcd60e51b815260206004820152601a60248201527f5661756c743a20666565207472616e73666572206661696c65640000000000006044820152606401610296565b604080518781526020810184905233917ff279e6a1f5e320cca91135676d9cb6e44ca8a08c0b88342bcdb1144f6511b568910160405180910390a250949350505050565b6001600160a01b03811661072f5760405162461bcd60e51b815260206004820152602560248201527f5661756c743a20636f6e74726f6c6c65722063616e6e6f742062652030206164604482015264647265737360d81b6064820152608401610296565b5f80546001600160a01b0319166001600160a01b0383169081179091556040519081527f1304018cfe79741dcf02ba6b61d39cc4757d59395d03224d9925c7aa83002146906020015b60405180910390a150565b5f6001545f0361079a5750670de0b6b3a764000090565b6001546107a5610e54565b6107b790670de0b6b3a76400006110d7565b6107c191906110f4565b905090565b5f546001600160a01b031633146107ef5760405162461bcd60e51b815260040161029690611152565b610bb88111156108525760405162461bcd60e51b815260206004820152602860248201527f5661756c743a20706572666f726d616e6365206665652063616e6e6f74206578604482015267636565642033302560c01b6064820152608401610296565b60038190556040518181527f9b49d0cd76012d9c67241c2f68f836efbaf50ea29901a250040671402d5263f590602001610778565b5f546001600160a01b031633146106cb5760405162461bcd60e51b815260040161029690611152565b5f546001600160a01b031633146108d95760405162461bcd60e51b815260040161029690611152565b6101f481111561093a5760405162461bcd60e51b815260206004820152602660248201527f5661756c743a207769746864726177616c206665652063616e6e6f742065786360448201526565656420352560d01b6064820152608401610296565b60048190556040518181527fe94edcc114da5287ecb30ee8aacf12e6c16b11b8583d7f9e477ab1616e33d53d90602001610778565b5f8082116109d45760405162461bcd60e51b815260206004820152602c60248201527f5661756c743a206465706f73697420616d6f756e74206d75737420626520677260448201526b06561746572207468616e20360a41b6064820152608401610296565b604051336024820152306044820152606481018390525f906001600160a01b037f0000000000000000000000000000000000000000000000000000000000000000169060840160408051601f198184030181529181526020820180516001600160e01b03166323b872dd60e01b17905251610a4f9190611126565b5f604051808303815f865af19150503d805f8114610a88576040519150601f19603f3d011682016040523d82523d5f602084013e610a8d565b606091505b5050905080610ade5760405162461bcd60e51b815260206004820152601c60248201527f5661756c743a20746f6b656e207472616e73666572206661696c6564000000006044820152606401610296565b6001545f03610aef57829150610b11565b610af7610e54565b600154610b0490856110d7565b610b0e91906110f4565b91505b8160015f828254610b229190611195565b9091555050335f9081526002602052604081208054849290610b45908490611195565b90915550505f546040516001600160a01b039182166024820152604481018590527f00000000000000000000000000000000000000000000000000000000000000009091169060640160408051601f198184030181529181526020820180516001600160e01b031663095ea7b360e01b17905251610bc39190611126565b5f604051808303815f865af19150503d805f8114610bfc576040519150601f19603f3d011682016040523d82523d5f602084013e610c01565b606091505b50508091505080610c545760405162461bcd60e51b815260206004820152601c60248201527f5661756c743a20746f6b656e20617070726f76616c206661696c6564000000006044820152606401610296565b5f54604051602481018590526001600160a01b039091169060440160408051601f198184030181529181526020820180516001600160e01b031663230a5c4b60e11b17905251610ca49190611126565b5f604051808303815f865af19150503d805f8114610cdd576040519150601f19603f3d011682016040523d82523d5f602084013e610ce2565b606091505b50508091505080610d355760405162461bcd60e51b815260206004820181905260248201527f5661756c743a20636f6e74726f6c6c6572206465706f736974206661696c65646044820152606401610296565b604080518481526020810184905233917f90890809c654f11d6e72a28fa60149770a0d11ec6c92319d6ceb2bb0a4ea1a15910160405180910390a250919050565b5f546001600160a01b03163314610d9f5760405162461bcd60e51b815260040161029690611152565b6001600160a01b038116610e065760405162461bcd60e51b815260206004820152602860248201527f5661756c743a2066656520726563697069656e742063616e6e6f742062652030604482015267206164647265737360c01b6064820152608401610296565b600580546001600160a01b0319166001600160a01b0383169081179091556040519081527f7a7b5a0a132f9e0581eb8527f66eae9ee89c2a3e79d4ac7e41a1f1f4d48a7fc290602001610778565b6040513060248201525f90819081906001600160a01b037f0000000000000000000000000000000000000000000000000000000000000000169060440160408051601f198184030181529181526020820180516001600160e01b03166370a0823160e01b17905251610ec69190611126565b5f60405180830381855afa9150503d805f8114610efe576040519150601f19603f3d011682016040523d82523d5f602084013e610f03565b606091505b509150915081610f5f5760405162461bcd60e51b815260206004820152602160248201527f5661756c743a20746f6b656e2062616c616e636520636865636b206661696c656044820152601960fa1b6064820152608401610296565b5f81806020019051810190610f7491906111a8565b5f5460408051600481526024810182526020810180516001600160e01b031663b90f3f3b60e01b17905290519293506001600160a01b0390911691610fb99190611126565b5f60405180830381855afa9150503d805f8114610ff1576040519150601f19603f3d011682016040523d82523d5f602084013e610ff6565b606091505b509093509150826110555760405162461bcd60e51b8152602060048201526024808201527f5661756c743a2073747261746567792062616c616e636520636865636b2066616044820152631a5b195960e21b6064820152608401610296565b5f8280602001905181019061106a91906111a8565b90506110768183611195565b94505050505090565b5f6020828403121561108f575f80fd5b5035919050565b5f602082840312156110a6575f80fd5b81356001600160a01b03811681146110bc575f80fd5b9392505050565b634e487b7160e01b5f52601160045260245ffd5b80820281158282048414176110ee576110ee6110c3565b92915050565b5f8261110e57634e487b7160e01b5f52601260045260245ffd5b500490565b818103818111156110ee576110ee6110c3565b5f82515f5b81811015611145576020818601810151858301520161112b565b505f920191825250919050565b60208082526023908201527f5661756c743a2063616c6c6572206973206e6f742074686520636f6e74726f6c6040820152623632b960e91b606082015260800190565b808201808211156110ee576110ee6110c3565b5f602082840312156111b8575f80fd5b505191905056fea26469706673582212208f25de933981acf4490ff882020b6f57f24d31dc4c0ff4e946f79da96d1ab32264736f6c63430008140033608060405234801561000f575f80fd5b50604051611b43380380611b4383398101604081905261002e916100d2565b6001600160a01b0381166100a15760405162461bcd60e51b815260206004820152603060248201527f41494465636973696f6e4d6f64756c653a20636f6e74726f6c6c65722061646460448201526f0726573732063616e6e6f7420626520360841b606482015260840160405180910390fd5b5f80546001600160a01b039092166001600160a01b03199283161790556001805490911633179055426003556100ff565b5f602082840312156100e2575f80fd5b81516001600160a01b03811681146100f8575f80fd5b9392505050565b611a378061010c5f395ff3fe608060405234801561000f575f80fd5b50600436106100fb575f3560e01c8063bd3be27c11610093578063df5dd1a511610063578063df5dd1a51461023d578063f2fde38b14610250578063f77c479114610263578063fdc85fc414610275575f80fd5b8063bd3be27c146101e9578063cabdadef146101f2578063cce21a5414610205578063d8c5789214610218575f80fd5b80638da5cb5b116100ce5780638da5cb5b1461015657806392eefe9b14610181578063a97e5c9314610194578063ade04ec2146101c6575f80fd5b806314bcec9f146100ff57806324add57d1461011b5780633c6e5437146101305780635094d26014610143575b5f80fd5b61010860035481565b6040519081526020015b60405180910390f35b61012e6101293660046111a3565b610288565b005b61012e61013e366004611225565b610476565b61012e610151366004611283565b610539565b600154610169906001600160a01b031681565b6040516001600160a01b039091168152602001610112565b61012e61018f366004611225565b6109e7565b6101b66101a2366004611225565b60026020525f908152604090205460ff1681565b6040519015158152602001610112565b6101d96101d4366004611349565b610a11565b60405161011294939291906113ad565b610108610e1081565b61012e610200366004611225565b610b45565b600454610169906001600160a01b031681565b61022b610226366004611349565b610be3565b60405161011296959493929190611421565b61012e61024b366004611225565b610dec565b61012e61025e366004611225565b610f05565b5f54610169906001600160a01b031681565b61012e610283366004611225565b610fbf565b335f9081526002602052604090205460ff166102bf5760405162461bcd60e51b81526004016102b6906114b2565b60405180910390fd5b610e106003546102cf919061150f565b4210156102ee5760405162461bcd60e51b81526004016102b690611528565b82811461030d5760405162461bcd60e51b81526004016102b69061156d565b5f805b828110156103505783838281811061032a5761032a6115b5565b905060200201358261033c919061150f565b915080610348816115c9565b915050610310565b5080612710146103725760405162461bcd60e51b81526004016102b6906115e1565b5f80546040516001600160a01b0390911690610398908890889088908890602401611630565b60408051601f198184030181529181526020820180516001600160e01b03166324add57d60e01b179052516103cd91906116aa565b5f604051808303815f865af19150503d805f8114610406576040519150601f19603f3d011682016040523d82523d5f602084013e61040b565b606091505b505090508061042c5760405162461bcd60e51b81526004016102b6906116c5565b426003556040517fc7e2a23cc60b3c78c21226de5706e670ab88f0bbde5aded4fb683491151f59b290610466908890889088908890611630565b60405180910390a1505050505050565b6001600160a01b0381166104e55760405162461bcd60e51b815260206004820152603060248201527f41494465636973696f6e4d6f64756c653a20636f6e74726f6c6c65722061646460448201526f0726573732063616e6e6f7420626520360841b60648201526084016102b6565b5f80546001600160a01b0319166001600160a01b0383169081179091556040519081527f1304018cfe79741dcf02ba6b61d39cc4757d59395d03224d9925c7aa83002146906020015b60405180910390a150565b335f9081526002602052604090205460ff166105675760405162461bcd60e51b81526004016102b6906114b2565b610e10600354610577919061150f565b4210156105965760405162461bcd60e51b81526004016102b690611528565b8685146105b55760405162461bcd60e51b81526004016102b69061156d565b5f805b868110156105f8578787828181106105d2576105d26115b5565b90506020020135826105e4919061150f565b9150806105f0816115c9565b9150506105b8565b50806127101461061a5760405162461bcd60e51b81526004016102b6906115e1565b6004546001600160a01b03161561072a575f8a8a8a8a8a8a8a604051602001610649979695949392919061170f565b60408051601f1981840301815290829052600480546318fac89160e11b84529193506001600160a01b03909116916331f591229161068d91859189918991016117a6565b602060405180830381865afa1580156106a8573d5f803e3d5ffd5b505050506040513d601f19601f820116820180604052508101906106cc91906117d5565b6107285760405162461bcd60e51b815260206004820152602760248201527f41494465636973696f6e4d6f64756c653a20696e76616c6964204d4350207369604482015266676e617475726560c81b60648201526084016102b6565b505b6040518060c001604052808b815260200142815260200186868080601f0160208091040260200160405190810160405280939291908181526020018383808284375f920191909152505050908252506040805160208c810282810182019093528c82529283019290918d918d9182918501908490808284375f920191909152505050908252506040805160208a810282810182019093528a82529283019290918b918b9182918501908490808284375f92019190915250505090825250604080516020601f8701819004810282018101909252858152918101919086908690819084018382808284375f9201829052509390945250508c81526005602090815260409182902084518155908401516001820155908301519091506002820190610853908261188e565b506060820151805161086f9160038401916020909101906110ab565b506080820151805161088b91600484019160209091019061110e565b5060a082015160058201906108a0908261188e565b50505f80546040519192506001600160a01b0316906108c9908c908c908c908c90602401611630565b60408051601f198184030181529181526020820180516001600160e01b03166324add57d60e01b179052516108fe91906116aa565b5f604051808303815f865af19150503d805f8114610937576040519150601f19603f3d011682016040523d82523d5f602084013e61093c565b606091505b505090508061095d5760405162461bcd60e51b81526004016102b6906116c5565b426003556040517fc7e2a23cc60b3c78c21226de5706e670ab88f0bbde5aded4fb683491151f59b290610997908c908c908c908c90611630565b60405180910390a17fbe998ab83ed0334271db7c9efdbd9f3e16ec76ad2cf4282509615e93f66a10808b87876040516109d29392919061194a565b60405180910390a15050505050505050505050565b6001546001600160a01b031633146104765760405162461bcd60e51b81526004016102b69061196c565b60056020525f908152604090208054600182015460028301805492939192610a3890611808565b80601f0160208091040260200160405190810160405280929190818152602001828054610a6490611808565b8015610aaf5780601f10610a8657610100808354040283529160200191610aaf565b820191905f5260205f20905b815481529060010190602001808311610a9257829003601f168201915b505050505090806005018054610ac490611808565b80601f0160208091040260200160405190810160405280929190818152602001828054610af090611808565b8015610b3b5780601f10610b1257610100808354040283529160200191610b3b565b820191905f5260205f20905b815481529060010190602001808311610b1e57829003601f168201915b5050505050905084565b6001546001600160a01b03163314610b6f5760405162461bcd60e51b81526004016102b69061196c565b6001600160a01b038116610b955760405162461bcd60e51b81526004016102b6906119b5565b600480546001600160a01b0319166001600160a01b0383169081179091556040519081527f0bc4c955d989049a150dd44cf7254de34298d311234ebb6d3c7b91dd84d619dd9060200161052e565b5f806060806060805f60055f8981526020019081526020015f209050805f0154816001015482600201836003018460040185600501838054610c2490611808565b80601f0160208091040260200160405190810160405280929190818152602001828054610c5090611808565b8015610c9b5780601f10610c7257610100808354040283529160200191610c9b565b820191905f5260205f20905b815481529060010190602001808311610c7e57829003601f168201915b5050505050935082805480602002602001604051908101604052809291908181526020018280548015610cf557602002820191905f5260205f20905b81546001600160a01b03168152600190910190602001808311610cd7575b5050505050925081805480602002602001604051908101604052809291908181526020018280548015610d4557602002820191905f5260205f20905b815481526020019060010190808311610d31575b50505050509150808054610d5890611808565b80601f0160208091040260200160405190810160405280929190818152602001828054610d8490611808565b8015610dcf5780601f10610da657610100808354040283529160200191610dcf565b820191905f5260205f20905b815481529060010190602001808311610db257829003601f168201915b505050505090509650965096509650965096505091939550919395565b6001546001600160a01b03163314610e165760405162461bcd60e51b81526004016102b69061196c565b6001600160a01b038116610e3c5760405162461bcd60e51b81526004016102b6906119b5565b6001600160a01b0381165f9081526002602052604090205460ff1615610eb35760405162461bcd60e51b815260206004820152602660248201527f41494465636973696f6e4d6f64756c653a206f7261636c6520616c726561647960448201526508185919195960d21b60648201526084016102b6565b6001600160a01b0381165f81815260026020908152604091829020805460ff1916600117905590519182527e47706786c922d17b39285dc59d696bafea72c0b003d3841ae1202076f4c2e4910161052e565b6001546001600160a01b03163314610f2f5760405162461bcd60e51b81526004016102b69061196c565b6001600160a01b038116610f9d5760405162461bcd60e51b815260206004820152602f60248201527f41494465636973696f6e4d6f64756c653a206e6577206f776e6572206164647260448201526e06573732063616e6e6f74206265203608c1b60648201526084016102b6565b600180546001600160a01b0319166001600160a01b0392909216919091179055565b6001546001600160a01b03163314610fe95760405162461bcd60e51b81526004016102b69061196c565b6001600160a01b0381165f9081526002602052604090205460ff1661105b5760405162461bcd60e51b815260206004820152602260248201527f41494465636973696f6e4d6f64756c653a206f7261636c65206e6f7420666f756044820152611b9960f21b60648201526084016102b6565b6001600160a01b0381165f81815260026020908152604091829020805460ff1916905590519182527f9c8e7d83025bef8a04c664b2f753f64b8814bdb7e27291d7e50935f18cc3c712910161052e565b828054828255905f5260205f209081019282156110fe579160200282015b828111156110fe57825182546001600160a01b0319166001600160a01b039091161782556020909201916001909101906110c9565b5061110a929150611147565b5090565b828054828255905f5260205f209081019282156110fe579160200282015b828111156110fe57825182559160200191906001019061112c565b5b8082111561110a575f8155600101611148565b5f8083601f84011261116b575f80fd5b50813567ffffffffffffffff811115611182575f80fd5b6020830191508360208260051b850101111561119c575f80fd5b9250929050565b5f805f80604085870312156111b6575f80fd5b843567ffffffffffffffff808211156111cd575f80fd5b6111d98883890161115b565b909650945060208701359150808211156111f1575f80fd5b506111fe8782880161115b565b95989497509550505050565b80356001600160a01b0381168114611220575f80fd5b919050565b5f60208284031215611235575f80fd5b61123e8261120a565b9392505050565b5f8083601f840112611255575f80fd5b50813567ffffffffffffffff81111561126c575f80fd5b60208301915083602082850101111561119c575f80fd5b5f805f805f805f805f60a08a8c03121561129b575f80fd5b8935985060208a013567ffffffffffffffff808211156112b9575f80fd5b6112c58d838e0161115b565b909a50985060408c01359150808211156112dd575f80fd5b6112e98d838e0161115b565b909850965060608c0135915080821115611301575f80fd5b61130d8d838e01611245565b909650945060808c0135915080821115611325575f80fd5b506113328c828d01611245565b915080935050809150509295985092959850929598565b5f60208284031215611359575f80fd5b5035919050565b5f5b8381101561137a578181015183820152602001611362565b50505f910152565b5f8151808452611399816020860160208601611360565b601f01601f19169290920160200192915050565b848152836020820152608060408201525f6113cb6080830185611382565b82810360608401526113dd8185611382565b979650505050505050565b5f8151808452602080850194508084015f5b83811015611416578151875295820195908201906001016113fa565b509495945050505050565b8681525f6020878184015260c0604084015261144060c0840188611382565b83810360608501528651808252828801918301905f5b8181101561147b5783516001600160a01b031683529284019291840191600101611456565b5050848103608086015261148f81886113e8565b9250505082810360a08401526114a58185611382565b9998505050505050505050565b60208082526029908201527f41494465636973696f6e4d6f64756c653a2063616c6c6572206973206e6f7420604082015268616e206f7261636c6560b81b606082015260800190565b634e487b7160e01b5f52601160045260245ffd5b80820180821115611522576115226114fb565b92915050565b60208082526025908201527f41494465636973696f6e4d6f64756c653a2075706461746520746f6f206672656040820152641c5d595b9d60da1b606082015260800190565b60208082526028908201527f41494465636973696f6e4d6f64756c653a20617272617973206c656e677468206040820152670dad2e6dac2e8c6d60c31b606082015260800190565b634e487b7160e01b5f52603260045260245ffd5b5f600182016115da576115da6114fb565b5060010190565b6020808252602f908201527f41494465636973696f6e4d6f64756c653a20746f74616c20616c6c6f6361746960408201526e6f6e206d757374206265203130302560881b606082015260800190565b604080825281018490525f8560608301825b87811015611670576001600160a01b0361165b8461120a565b16825260209283019290910190600101611642565b5083810360208501528481526001600160fb1b0385111561168f575f80fd5b8460051b915081866020830137016020019695505050505050565b5f82516116bb818460208701611360565b9190910192915050565b6020808252602a908201527f41494465636973696f6e4d6f64756c653a20636f6e74726f6c6c657220757064604082015269185d194819985a5b195960b21b606082015260800190565b8781525f6020808301895f5b8a811015611747576001600160a01b036117348361120a565b168352918301919083019060010161171b565b50506001600160fb1b0387111561175c575f80fd5b8660051b91508188823701838582375f93019283525090979650505050505050565b81835281816020850137505f828201602090810191909152601f909101601f19169091010190565b604081525f6117b86040830186611382565b82810360208401526117cb81858761177e565b9695505050505050565b5f602082840312156117e5575f80fd5b8151801515811461123e575f80fd5b634e487b7160e01b5f52604160045260245ffd5b600181811c9082168061181c57607f821691505b60208210810361183a57634e487b7160e01b5f52602260045260245ffd5b50919050565b601f821115611889575f81815260208120601f850160051c810160208610156118665750805b601f850160051c820191505b8181101561188557828155600101611872565b5050505b505050565b815167ffffffffffffffff8111156118a8576118a86117f4565b6118bc816118b68454611808565b84611840565b602080601f8311600181146118ef575f84156118d85750858301515b5f19600386901b1c1916600185901b178555611885565b5f85815260208120601f198616915b8281101561191d578886015182559484019460019091019084016118fe565b508582101561193a57878501515f19600388901b60f8161c191681555b5050505050600190811b01905550565b838152604060208201525f61196360408301848661177e565b95945050505050565b60208082526029908201527f41494465636973696f6e4d6f64756c653a2063616c6c6572206973206e6f74206040820152683a34329037bbb732b960b91b606082015260800190565b6020808252602c908201527f41494465636973696f6e4d6f64756c653a206f7261636c65206164647265737360408201526b02063616e6e6f7420626520360a41b60608201526080019056fea2646970667358221220da8dedccdd826f513453bcbad8412d8c0adc441e813189dde31f9acd0a483fff64736f6c63430008140033608060405234801562000010575f80fd5b506040516200273a3803806200273a8339810160408190526200003391620001d8565b6001600160a01b0383166200009d5760405162461bcd60e51b815260206004820152602560248201527f436f6e74726f6c6c65723a207661756c7420616464726573732063616e6e6f74604482015264020626520360dc1b60648201526084015b60405180910390fd5b6001600160a01b038216620001035760405162461bcd60e51b815260206004820152602560248201527f436f6e74726f6c6c65723a20746f6b656e20616464726573732063616e6e6f74604482015264020626520360dc1b606482015260840162000094565b6001600160a01b0381166200016d5760405162461bcd60e51b815260206004820152602960248201527f436f6e74726f6c6c65723a204149206d6f64756c65206164647265737320636160448201526806e6e6f7420626520360bc1b606482015260840162000094565b5f80546001600160a01b039485166001600160a01b031991821617909155600180549385169382169390931790925560038054919093169082161790915560028054909116331790556200021f565b80516001600160a01b0381168114620001d3575f80fd5b919050565b5f805f60608486031215620001eb575f80fd5b620001f684620001bc565b92506200020660208501620001bc565b91506200021660408501620001bc565b90509250925092565b61250d806200022d5f395ff3fe608060405234801561000f575f80fd5b506004361061011c575f3560e01c80638da5cb5b116100a9578063c9411e221161006e578063c9411e2214610264578063d574ea3d14610277578063db2e21bc1461028a578063fbfa77cf14610292578063fc0c546a146102a4575f80fd5b80638da5cb5b146102015780638ed955b91461022c57806391be83ed14610234578063b49a60bb14610247578063b90f3f3b1461025c575f80fd5b80632e8ebaae116100ef5780632e8ebaae146101775780633b3879db146101a95780634614b896146101bc57806352a9039c146101cf5780635fed0679146101ee575f80fd5b80630dac7bea146101205780630e5c011e1461013c578063175188e81461015157806324add57d14610164575b5f80fd5b61012961271081565b6040519081526020015b60405180910390f35b61014f61014a3660046120f9565b6102b7565b005b61014f61015f3660046120f9565b610398565b61014f610172366004612163565b610638565b6101996101853660046120f9565b60056020525f908152604090205460ff1681565b6040519015158152602001610133565b61014f6101b73660046120f9565b610941565b61014f6101ca3660046121ca565b610a27565b6101296101dd3660046120f9565b60066020525f908152604090205481565b6101296101fc3660046121ca565b610d70565b600254610214906001600160a01b031681565b6040516001600160a01b039091168152602001610133565b610129611053565b600354610214906001600160a01b031681565b61024f61114b565b60405161013391906121e1565b61012961120d565b61014f61027236600461222d565b6112bb565b6102146102853660046121ca565b61153a565b61014f611562565b5f54610214906001600160a01b031681565b600154610214906001600160a01b031681565b6001600160a01b0381165f9081526005602052604090205460ff166102f75760405162461bcd60e51b81526004016102ee90612257565b60405180910390fd5b5f816001600160a01b0316634641257d6040518163ffffffff1660e01b81526004016020604051808303815f875af1158015610335573d5f803e3d5ffd5b505050506040513d601f19601f82011682018060405250810190610359919061228e565b90507fc9695243a805adb74c91f28311176c65b417e842d5699893cef56d18bfa48cba828260405161038c9291906122a5565b60405180910390a15050565b6002546001600160a01b031633146103c25760405162461bcd60e51b81526004016102ee906122be565b6001600160a01b0381165f9081526005602052604090205460ff166103f95760405162461bcd60e51b81526004016102ee90612257565b5f816001600160a01b031663722713f76040518163ffffffff1660e01b8152600401602060405180830381865afa158015610436573d5f803e3d5ffd5b505050506040513d601f19601f8201168201806040525081019061045a919061228e565b905080156104cc57604051632e1a7d4d60e01b8152600481018290526001600160a01b03831690632e1a7d4d906024016020604051808303815f875af11580156104a6573d5f803e3d5ffd5b505050506040513d601f19601f820116820180604052508101906104ca919061228e565b505b5f5b6004548110156105cc57826001600160a01b0316600482815481106104f5576104f5612301565b5f918252602090912001546001600160a01b0316036105ba576004805461051e90600190612329565b8154811061052e5761052e612301565b5f91825260209091200154600480546001600160a01b03909216918390811061055957610559612301565b905f5260205f20015f6101000a8154816001600160a01b0302191690836001600160a01b03160217905550600480548061059557610595612342565b5f8281526020902081015f1990810180546001600160a01b03191690550190556105cc565b806105c481612356565b9150506104ce565b506001600160a01b0382165f908152600560209081526040808320805460ff1916905560069091528120556105ff6116dc565b6040516001600160a01b03831681527f09a1db4b80c32706328728508c941a6b954f31eb5affd32f236c1fd405f8fea49060200161038c565b6003546001600160a01b031633146106a25760405162461bcd60e51b815260206004820152602760248201527f436f6e74726f6c6c65723a2063616c6c6572206973206e6f7420746865204149604482015266206d6f64756c6560c81b60648201526084016102ee565b8281146106fc5760405162461bcd60e51b815260206004820152602260248201527f436f6e74726f6c6c65723a20617272617973206c656e677468206d69736d61746044820152610c6d60f31b60648201526084016102ee565b5f5b600454811015610755575f60065f6004848154811061071f5761071f612301565b5f9182526020808320909101546001600160a01b031683528201929092526040019020558061074d81612356565b9150506106fe565b505f805b848110156108ce5760055f87878481811061077657610776612301565b905060200201602081019061078b91906120f9565b6001600160a01b0316815260208101919091526040015f205460ff166107c35760405162461bcd60e51b81526004016102ee90612257565b8383828181106107d5576107d5612301565b9050602002013560065f8888858181106107f1576107f1612301565b905060200201602081019061080691906120f9565b6001600160a01b0316815260208101919091526040015f205583838281811061083157610831612301565b9050602002013582610843919061236e565b91507f183f2ce0b749ed46549cb16586af0c501abab8d242cc4b2076aec30d2dd9c4bc86868381811061087857610878612301565b905060200201602081019061088d91906120f9565b85858481811061089f5761089f612301565b905060200201356040516108b49291906122a5565b60405180910390a1806108c681612356565b915050610759565b5061271081146109325760405162461bcd60e51b815260206004820152602960248201527f436f6e74726f6c6c65723a20746f74616c20616c6c6f636174696f6e206d757360448201526874206265203130302560b81b60648201526084016102ee565b61093a6116dc565b5050505050565b6002546001600160a01b0316331461096b5760405162461bcd60e51b81526004016102ee906122be565b6001600160a01b0381166109d35760405162461bcd60e51b815260206004820152602960248201527f436f6e74726f6c6c65723a204149206d6f64756c65206164647265737320636160448201526806e6e6f7420626520360bc1b60648201526084016102ee565b600380546001600160a01b0319166001600160a01b0383169081179091556040519081527f2179ba5a8398ad7a6da40883756c71cf276805c4e16fdebca4c3a639565d2eaa9060200160405180910390a150565b5f546001600160a01b03163314610a505760405162461bcd60e51b81526004016102ee90612381565b5f8111610ab95760405162461bcd60e51b815260206004820152603160248201527f436f6e74726f6c6c65723a206465706f73697420616d6f756e74206d75737420604482015270062652067726561746572207468616e203607c1b60648201526084016102ee565b6001545f80546040516001600160a01b039182166024820152306044820152606481018590529192169060840160408051601f198184030181529181526020820180516001600160e01b03166323b872dd60e01b17905251610b1b91906123c4565b5f604051808303815f865af19150503d805f8114610b54576040519150601f19603f3d011682016040523d82523d5f602084013e610b59565b606091505b5050905080610b7a5760405162461bcd60e51b81526004016102ee906123f0565b5f5b600454811015610d3f575f60048281548110610b9a57610b9a612301565b5f9182526020808320909101546001600160a01b031680835260069091526040909120549091508015610d2a575f612710610bd58388612431565b610bdf9190612448565b90508015610d28576001546040516001600160a01b0390911690610c0990859084906024016122a5565b60408051601f198184030181529181526020820180516001600160e01b031663095ea7b360e01b17905251610c3e91906123c4565b5f604051808303815f865af19150503d805f8114610c77576040519150601f19603f3d011682016040523d82523d5f602084013e610c7c565b606091505b50508095505084610c9f5760405162461bcd60e51b81526004016102ee90612467565b60048481548110610cb257610cb2612301565b5f9182526020909120015460405163b6b55f2560e01b8152600481018390526001600160a01b039091169063b6b55f25906024016020604051808303815f875af1158015610d02573d5f803e3d5ffd5b505050506040513d601f19601f82011682018060405250810190610d26919061228e565b505b505b50508080610d3790612356565b915050610b7c565b506040518281527f4d6ce1e535dbade1c23defba91e23b8f791ce5edc0cc320257a2b364e4e384269060200161038c565b5f80546001600160a01b03163314610d9a5760405162461bcd60e51b81526004016102ee90612381565b5f8211610e045760405162461bcd60e51b815260206004820152603260248201527f436f6e74726f6c6c65723a20776974686472617720616d6f756e74206d75737460448201527102062652067726561746572207468616e20360741b60648201526084016102ee565b5f805b600454811015610f5b575f60048281548110610e2557610e25612301565b5f9182526020808320909101546040805163722713f760e01b815290516001600160a01b039092169450849263722713f7926004808401938290030181865afa158015610e74573d5f803e3d5ffd5b505050506040513d601f19601f82011682018060405250810190610e98919061228e565b90508015610f46575f610ea961120d565b90505f81610eb7848a612431565b610ec19190612448565b90508015610f4357604051632e1a7d4d60e01b8152600481018290525f906001600160a01b03861690632e1a7d4d906024016020604051808303815f875af1158015610f0f573d5f803e3d5ffd5b505050506040513d601f19601f82011682018060405250810190610f33919061228e565b9050610f3f818861236e565b9650505b50505b50508080610f5390612356565b915050610e07565b506001545f805460405191926001600160a01b0390811692610f85929091169085906024016122a5565b60408051601f198184030181529181526020820180516001600160e01b031663a9059cbb60e01b17905251610fba91906123c4565b5f604051808303815f865af19150503d805f8114610ff3576040519150601f19603f3d011682016040523d82523d5f602084013e610ff8565b606091505b50509050806110195760405162461bcd60e51b81526004016102ee906123f0565b6040518281527f5b6b431d4476a211bb7d41c20d1aab9ae2321deee0d20be3d9fc9b1093fa6e3d9060200160405180910390a15092915050565b5f80805b600454811015611145575f6004828154811061107557611075612301565b5f91825260208083209091015460408051634641257d60e01b815290516001600160a01b0390921694508492634641257d92600480840193829003018187875af11580156110c5573d5f803e3d5ffd5b505050506040513d601f19601f820116820180604052508101906110e9919061228e565b90506110f5818561236e565b93507fc9695243a805adb74c91f28311176c65b417e842d5699893cef56d18bfa48cba82826040516111289291906122a5565b60405180910390a15050808061113d90612356565b915050611057565b50919050565b6004546060905f9067ffffffffffffffff81111561116b5761116b6124a8565b604051908082528060200260200182016040528015611194578160200160208202803683370190505b5090505f5b60045481101561114557600481815481106111b6576111b6612301565b905f5260205f20015f9054906101000a90046001600160a01b03168282815181106111e3576111e3612301565b6001600160a01b03909216602092830291909101909101528061120581612356565b915050611199565b5f80805b600454811015611145576004818154811061122e5761122e612301565b5f91825260209182902001546040805163722713f760e01b815290516001600160a01b039092169263722713f7926004808401938290030181865afa158015611279573d5f803e3d5ffd5b505050506040513d601f19601f8201168201806040525081019061129d919061228e565b6112a7908361236e565b9150806112b381612356565b915050611211565b6002546001600160a01b031633146112e55760405162461bcd60e51b81526004016102ee906122be565b6001600160a01b03821661134c5760405162461bcd60e51b815260206004820152602860248201527f436f6e74726f6c6c65723a20737472617465677920616464726573732063616e60448201526706e6f7420626520360c41b60648201526084016102ee565b6001600160a01b0382165f9081526005602052604090205460ff16156113bf5760405162461bcd60e51b815260206004820152602260248201527f436f6e74726f6c6c65723a20737472617465677920616c726561647920616464604482015261195960f21b60648201526084016102ee565b60015460408051631f1fcd5160e01b815290516001600160a01b0392831692851691631f1fcd519160048083019260209291908290030181865afa158015611409573d5f803e3d5ffd5b505050506040513d601f19601f8201168201806040525081019061142d91906124bc565b6001600160a01b03161461148f5760405162461bcd60e51b815260206004820152602360248201527f436f6e74726f6c6c65723a20737472617465677920746f6b656e206d69736d616044820152620e8c6d60eb1b60648201526084016102ee565b6004805460018082019092557f8a35acfbc15ff81a39ae7d344fd709f28e8600b4aa8c65c6b64bfe7fe36bd19b0180546001600160a01b0319166001600160a01b0385169081179091555f908152600560205260409020805460ff191690911790558015611501576115018282611e37565b6040516001600160a01b03831681527f3f008fd510eae7a9e7bee13513d7b83bef8003d488b5a3d0b0da4de71d6846f19060200161038c565b60048181548110611549575f80fd5b5f918252602090912001546001600160a01b0316905081565b6002546001600160a01b0316331461158c5760405162461bcd60e51b81526004016102ee906122be565b5f5b60045481101561169f575f600482815481106115ac576115ac612301565b5f9182526020808320909101546040805163722713f760e01b815290516001600160a01b039092169450849263722713f7926004808401938290030181865afa1580156115fb573d5f803e3d5ffd5b505050506040513d601f19601f8201168201806040525081019061161f919061228e565b9050801561168a57816001600160a01b031663db2e21bc6040518163ffffffff1660e01b81526004016020604051808303815f875af1158015611664573d5f803e3d5ffd5b505050506040513d601f19601f82011682018060405250810190611688919061228e565b505b5050808061169790612356565b91505061158e565b507f5b6b431d4476a211bb7d41c20d1aab9ae2321deee0d20be3d9fc9b1093fa6e3d6116c9611fd5565b60405190815260200160405180910390a1565b5f6116e561120d565b90508015806116f45750600454155b156116fc5750565b5f5b600454811015611adb575f6004828154811061171c5761171c612301565b5f9182526020808320909101546040805163722713f760e01b815290516001600160a01b039092169450849392849263722713f79260048082019392918290030181865afa158015611770573d5f803e3d5ffd5b505050506040513d601f19601f82011682018060405250810190611794919061228e565b6001600160a01b0383165f9081526006602052604081205491925090612710906117be9088612431565b6117c89190612448565b6001600160a01b0384165f908152600660205260408120549192500361194f57811561194657604051632e1a7d4d60e01b8152600481018390525f906001600160a01b03861690632e1a7d4d906024016020604051808303815f875af1158015611834573d5f803e3d5ffd5b505050506040513d601f19601f82011682018060405250810190611858919061228e565b6001546040519192505f916001600160a01b039091169061187f90309085906024016122a5565b60408051601f198184030181529181526020820180516001600160e01b03166340c10f1960e01b179052516118b491906123c4565b5f604051808303815f865af19150503d805f81146118ed576040519150601f19603f3d011682016040523d82523d5f602084013e6118f2565b606091505b50509050806119435760405162461bcd60e51b815260206004820152601d60248201527f436f6e74726f6c6c65723a20746f6b656e206d696e74206661696c656400000060448201526064016102ee565b50505b50505050611ac9565b80821115611ac4575f6119628284612329565b90508015611ac257604051632e1a7d4d60e01b8152600481018290525f906001600160a01b03871690632e1a7d4d906024016020604051808303815f875af11580156119b0573d5f803e3d5ffd5b505050506040513d601f19601f820116820180604052508101906119d4919061228e565b6001546040519192505f916001600160a01b03909116906119fb90309085906024016122a5565b60408051601f198184030181529181526020820180516001600160e01b03166340c10f1960e01b17905251611a3091906123c4565b5f604051808303815f865af19150503d805f8114611a69576040519150601f19603f3d011682016040523d82523d5f602084013e611a6e565b606091505b5050905080611abf5760405162461bcd60e51b815260206004820152601d60248201527f436f6e74726f6c6c65723a20746f6b656e206d696e74206661696c656400000060448201526064016102ee565b50505b505b505050505b80611ad381612356565b9150506116fe565b505f611ae5611fd5565b90508015611e33575f5b600454811015611e31575f60048281548110611b0d57611b0d612301565b5f9182526020808320909101546001600160a01b031680835260069091526040822054909250829103611b41575050611e1f565b5f826001600160a01b031663722713f76040518163ffffffff1660e01b8152600401602060405180830381865afa158015611b7e573d5f803e3d5ffd5b505050506040513d601f19601f82011682018060405250810190611ba2919061228e565b6001600160a01b0383165f908152600660205260408120549192509061271090611bcc9089612431565b611bd69190612448565b905080821015611e1a575f611beb8383612329565b90505f81118015611bfc5750868111155b15611e18576001546040515f916001600160a01b031690611c2390879085906024016122a5565b60408051601f198184030181529181526020820180516001600160e01b031663095ea7b360e01b17905251611c5891906123c4565b5f604051808303815f865af19150503d805f8114611c91576040519150601f19603f3d011682016040523d82523d5f602084013e611c96565b606091505b5050905080611cb75760405162461bcd60e51b81526004016102ee90612467565b60405163b6b55f2560e01b8152600481018390526001600160a01b0387169063b6b55f25906024016020604051808303815f875af1158015611cfb573d5f803e3d5ffd5b505050506040513d601f19601f82011682018060405250810190611d1f919061228e565b50611d2a8289612329565b6001546040519199505f916001600160a01b0390911690611d5190309086906024016122a5565b60408051601f198184030181529181526020820180516001600160e01b0316632770a7eb60e21b17905251611d8691906123c4565b5f604051808303815f865af19150503d805f8114611dbf576040519150601f19603f3d011682016040523d82523d5f602084013e611dc4565b606091505b5050905080611e155760405162461bcd60e51b815260206004820152601d60248201527f436f6e74726f6c6c65723a20746f6b656e206275726e206661696c656400000060448201526064016102ee565b50505b505b505050505b80611e2981612356565b915050611aef565b505b5050565b612710811115611e955760405162461bcd60e51b815260206004820152602360248201527f436f6e74726f6c6c65723a20616c6c6f636174696f6e2065786365656473203160448201526230302560e81b60648201526084016102ee565b5f805b600454811015611f0e575f60048281548110611eb657611eb6612301565b5f918252602090912001546001600160a01b03908116915085168114611efb576001600160a01b0381165f90815260066020526040902054611ef8908461236e565b92505b5080611f0681612356565b915050611e98565b50612710611f1c838361236e565b1115611f7c5760405162461bcd60e51b815260206004820152602960248201527f436f6e74726f6c6c65723a20746f74616c20616c6c6f636174696f6e2065786360448201526865656473203130302560b81b60648201526084016102ee565b6001600160a01b0383165f9081526006602052604090819020839055517f183f2ce0b749ed46549cb16586af0c501abab8d242cc4b2076aec30d2dd9c4bc90611fc890859085906122a5565b60405180910390a1505050565b6001546040513060248201525f91829182916001600160a01b03169060440160408051601f198184030181529181526020820180516001600160e01b03166370a0823160e01b1790525161202991906123c4565b5f60405180830381855afa9150503d805f8114612061576040519150601f19603f3d011682016040523d82523d5f602084013e612066565b606091505b5091509150816120c75760405162461bcd60e51b815260206004820152602660248201527f436f6e74726f6c6c65723a20746f6b656e2062616c616e636520636865636b2060448201526519985a5b195960d21b60648201526084016102ee565b808060200190518101906120db919061228e565b9250505090565b6001600160a01b03811681146120f6575f80fd5b50565b5f60208284031215612109575f80fd5b8135612114816120e2565b9392505050565b5f8083601f84011261212b575f80fd5b50813567ffffffffffffffff811115612142575f80fd5b6020830191508360208260051b850101111561215c575f80fd5b9250929050565b5f805f8060408587031215612176575f80fd5b843567ffffffffffffffff8082111561218d575f80fd5b6121998883890161211b565b909650945060208701359150808211156121b1575f80fd5b506121be8782880161211b565b95989497509550505050565b5f602082840312156121da575f80fd5b5035919050565b602080825282518282018190525f9190848201906040850190845b818110156122215783516001600160a01b0316835292840192918401916001016121fc565b50909695505050505050565b5f806040838503121561223e575f80fd5b8235612249816120e2565b946020939093013593505050565b6020808252601e908201527f436f6e74726f6c6c65723a207374726174656779206e6f7420666f756e640000604082015260600190565b5f6020828403121561229e575f80fd5b5051919050565b6001600160a01b03929092168252602082015260400190565b60208082526023908201527f436f6e74726f6c6c65723a2063616c6c6572206973206e6f7420746865206f776040820152623732b960e91b606082015260800190565b634e487b7160e01b5f52603260045260245ffd5b634e487b7160e01b5f52601160045260245ffd5b8181038181111561233c5761233c612315565b92915050565b634e487b7160e01b5f52603160045260245ffd5b5f6001820161236757612367612315565b5060010190565b8082018082111561233c5761233c612315565b60208082526023908201527f436f6e74726f6c6c65723a2063616c6c6572206973206e6f74207468652076616040820152621d5b1d60ea1b606082015260800190565b5f82515f5b818110156123e357602081860181015185830152016123c9565b505f920191825250919050565b60208082526021908201527f436f6e74726f6c6c65723a20746f6b656e207472616e73666572206661696c656040820152601960fa1b606082015260800190565b808202811582820484141761233c5761233c612315565b5f8261246257634e487b7160e01b5f52601260045260245ffd5b500490565b60208082526021908201527f436f6e74726f6c6c65723a20746f6b656e20617070726f76616c206661696c656040820152601960fa1b606082015260800190565b634e487b7160e01b5f52604160045260245ffd5b5f602082840312156124cc575f80fd5b8151612114816120e256fea2646970667358221220badf796d883cb3efd6740582f1ad6224688299b7f1b219db828d8ada3bec823d64736f6c63430008140033a264697066735822122057be628b7696a76b06e85b684f363158d3ef86df54cc505b9609c5439afb0a6b64736f6c63430008140033","linkReferences":{}},"methodIdentifiers":{"addAaveStrategy(address,address,uint256)":"641e37f8","aiModule()":"91be83ed","controller()":"f77c4791","deployProtocol()":"6872e478","feeRecipient()":"46904840","owner()":"8da5cb5b","token()":"fc0c546a","transferOwnership(address)":"f2fde38b","vault()":"fbfa77cf"},"id":19}