{"abi":[{"type":"constructor","inputs":[],"stateMutability":"nonpayable"},{"type":"function","name":"addStrategy","inputs":[{"name":"_strategy","type":"address","internalType":"address"}],"outputs":[],"stateMutability":"nonpayable"},{"type":"function","name":"calculateOptimalAllocation","inputs":[{"name":"_strategies","type":"address[]","internalType":"address[]"},{"name":"_riskPreference","type":"uint8","internalType":"uint8"}],"outputs":[{"name":"","type":"uint256[]","internalType":"uint256[]"}],"stateMutability":"view"},{"type":"function","name":"controller","inputs":[],"outputs":[{"name":"","type":"address","internalType":"address"}],"stateMutability":"view"},{"type":"function","name":"getStrategies","inputs":[],"outputs":[{"name":"","type":"address[]","internalType":"address[]"}],"stateMutability":"view"},{"type":"function","name":"isStrategy","inputs":[{"name":"","type":"address","internalType":"address"}],"outputs":[{"name":"","type":"bool","internalType":"bool"}],"stateMutability":"view"},{"type":"function","name":"optimizeAllocations","inputs":[],"outputs":[],"stateMutability":"nonpayable"},{"type":"function","name":"owner","inputs":[],"outputs":[{"name":"","type":"address","internalType":"address"}],"stateMutability":"view"},{"type":"function","name":"removeStrategy","inputs":[{"name":"_strategy","type":"address","internalType":"address"}],"outputs":[],"stateMutability":"nonpayable"},{"type":"function","name":"riskPreference","inputs":[],"outputs":[{"name":"","type":"uint8","internalType":"uint8"}],"stateMutability":"view"},{"type":"function","name":"setController","inputs":[{"name":"_controller","type":"address","internalType":"address"}],"outputs":[],"stateMutability":"nonpayable"},{"type":"function","name":"setRiskPreference","inputs":[{"name":"_riskPreference","type":"uint8","internalType":"uint8"}],"outputs":[],"stateMutability":"nonpayable"},{"type":"function","name":"strategies","inputs":[{"name":"","type":"uint256","internalType":"uint256"}],"outputs":[{"name":"","type":"address","internalType":"address"}],"stateMutability":"view"},{"type":"function","name":"transferOwnership","inputs":[{"name":"_newOwner","type":"address","internalType":"address"}],"outputs":[],"stateMutability":"nonpayable"},{"type":"function","name":"updateControllerAllocations","inputs":[{"name":"_strategies","type":"address[]","internalType":"address[]"},{"name":"_allocations","type":"uint256[]","internalType":"uint256[]"}],"outputs":[],"stateMutability":"nonpayable"},{"type":"event","name":"AllocationCalculated","inputs":[{"name":"strategies","type":"address[]","indexed":false,"internalType":"address[]"},{"name":"allocations","type":"uint256[]","indexed":false,"internalType":"uint256[]"}],"anonymous":false},{"type":"event","name":"ControllerUpdated","inputs":[{"name":"newController","type":"address","indexed":false,"internalType":"address"}],"anonymous":false},{"type":"event","name":"RiskPreferenceUpdated","inputs":[{"name":"newRiskPreference","type":"uint8","indexed":false,"internalType":"uint8"}],"anonymous":false},{"type":"event","name":"StrategyAdded","inputs":[{"name":"strategy","type":"address","indexed":false,"internalType":"address"}],"anonymous":false},{"type":"event","name":"StrategyRemoved","inputs":[{"name":"strategy","type":"address","indexed":false,"internalType":"address"}],"anonymous":false}],"bytecode":{"object":"0x608060405234801561000f575f80fd5b505f80546001600160a01b031916331790556004805460ff1916600517905561185c8061003b5f395ff3fe608060405234801561000f575f80fd5b50600436106100e5575f3560e01c8063a8857f8811610088578063d574ea3d11610063578063d574ea3d146101e7578063ee216f2d146101fa578063f2fde38b1461021a578063f77c47911461022d575f80fd5b8063a8857f88146101a0578063b227059b146101bf578063b49a60bb146101d2575f80fd5b8063605b589e116100c3578063605b589e1461014857806388aa60e8146101505780638da5cb5b1461016357806392eefe9b1461018d575f80fd5b8063175188e8146100e9578063223e5479146100fe5780632e8ebaae14610111575b5f80fd5b6100fc6100f736600461124b565b610240565b005b6100fc61010c36600461124b565b61043c565b61013361011f36600461124b565b60036020525f908152604090205460ff1681565b60405190151581526020015b60405180910390f35b6100fc6105da565b6100fc61015e36600461127c565b6107ea565b5f54610175906001600160a01b031681565b6040516001600160a01b03909116815260200161013f565b6100fc61019b36600461124b565b610889565b6004546101ad9060ff1681565b60405160ff909116815260200161013f565b6100fc6101cd36600461136e565b61096d565b6101da610b12565b60405161013f9190611465565b6101756101f5366004611477565b610b72565b61020d61020836600461148e565b610b9a565b60405161013f919061150b565b6100fc61022836600461124b565b61117a565b600154610175906001600160a01b031681565b5f546001600160a01b031633146102725760405162461bcd60e51b81526004016102699061151d565b60405180910390fd5b6001600160a01b0381165f9081526003602052604090205460ff166102e45760405162461bcd60e51b815260206004820152602260248201527f5969656c644f7074696d697a65723a207374726174656779206e6f7420666f756044820152611b9960f21b6064820152608401610269565b5f5b6002548110156103e457816001600160a01b03166002828154811061030d5761030d611564565b5f918252602090912001546001600160a01b0316036103d257600280546103369060019061158c565b8154811061034657610346611564565b5f91825260209091200154600280546001600160a01b03909216918390811061037157610371611564565b905f5260205f20015f6101000a8154816001600160a01b0302191690836001600160a01b0316021790555060028054806103ad576103ad61159f565b5f8281526020902081015f1990810180546001600160a01b03191690550190556103e4565b806103dc816115b3565b9150506102e6565b506001600160a01b0381165f81815260036020908152604091829020805460ff1916905590519182527f09a1db4b80c32706328728508c941a6b954f31eb5affd32f236c1fd405f8fea491015b60405180910390a150565b5f546001600160a01b031633146104655760405162461bcd60e51b81526004016102699061151d565b6001600160a01b0381166104d05760405162461bcd60e51b815260206004820152602c60248201527f5969656c644f7074696d697a65723a207374726174656779206164647265737360448201526b02063616e6e6f7420626520360a41b6064820152608401610269565b6001600160a01b0381165f9081526003602052604090205460ff16156105475760405162461bcd60e51b815260206004820152602660248201527f5969656c644f7074696d697a65723a20737472617465677920616c726561647960448201526508185919195960d21b6064820152608401610269565b6002805460018082019092557f405787fa12a823e0f2b7631cc41b3ba8828b3321ca811111fa75cd3aa3bb5ace0180546001600160a01b0319166001600160a01b0384169081179091555f81815260036020908152604091829020805460ff1916909417909355519081527f3f008fd510eae7a9e7bee13513d7b83bef8003d488b5a3d0b0da4de71d6846f19101610431565b5f546001600160a01b031633146106035760405162461bcd60e51b81526004016102699061151d565b60025461065e5760405162461bcd60e51b815260206004820152602360248201527f5969656c644f7074696d697a65723a206e6f207374726174656769657320616460448201526219195960ea1b6064820152608401610269565b6001546001600160a01b03166106865760405162461bcd60e51b8152600401610269906115cb565b5f6106f060028054806020026020016040519081016040528092919081815260200182805480156106de57602002820191905f5260205f20905b81546001600160a01b031681526001909101906020018083116106c0575b505060045460ff169250610b9a915050565b6001546040519192505f916001600160a01b039091169061071890600290859060240161160d565b60408051601f198184030181529181526020820180516001600160e01b03166324add57d60e01b1790525161074d9190611671565b5f604051808303815f865af19150503d805f8114610786576040519150601f19603f3d011682016040523d82523d5f602084013e61078b565b606091505b50509050806107ac5760405162461bcd60e51b81526004016102699061169d565b7f6a4197469724006a862a6872cbf269ebe2cf0d8a3ec5a62c3a4dbf33e47f8aa36002836040516107de92919061160d565b60405180910390a15050565b5f546001600160a01b031633146108135760405162461bcd60e51b81526004016102699061151d565b60018160ff161015801561082b5750600a8160ff1611155b6108475760405162461bcd60e51b8152600401610269906116e5565b6004805460ff191660ff83169081179091556040519081527f321f291bbffedf32f505bece9e759e706989f747f0d26e4a195857bf6c9d11e290602001610431565b5f546001600160a01b031633146108b25760405162461bcd60e51b81526004016102699061151d565b6001600160a01b03811661091f5760405162461bcd60e51b815260206004820152602e60248201527f5969656c644f7074696d697a65723a20636f6e74726f6c6c657220616464726560448201526d073732063616e6e6f7420626520360941b6064820152608401610269565b600180546001600160a01b0319166001600160a01b0383169081179091556040519081527f1304018cfe79741dcf02ba6b61d39cc4757d59395d03224d9925c7aa8300214690602001610431565b5f546001600160a01b031633146109965760405162461bcd60e51b81526004016102699061151d565b6001546001600160a01b03166109be5760405162461bcd60e51b8152600401610269906115cb565b8051825114610a1e5760405162461bcd60e51b815260206004820152602660248201527f5969656c644f7074696d697a65723a20617272617973206c656e677468206d696044820152650e6dac2e8c6d60d31b6064820152608401610269565b6001546040515f916001600160a01b031690610a409085908590602401611742565b60408051601f198184030181529181526020820180516001600160e01b03166324add57d60e01b17905251610a759190611671565b5f604051808303815f865af19150503d805f8114610aae576040519150601f19603f3d011682016040523d82523d5f602084013e610ab3565b606091505b5050905080610ad45760405162461bcd60e51b81526004016102699061169d565b7f6a4197469724006a862a6872cbf269ebe2cf0d8a3ec5a62c3a4dbf33e47f8aa38383604051610b05929190611742565b60405180910390a1505050565b60606002805480602002602001604051908101604052809291908181526020018280548015610b6857602002820191905f5260205f20905b81546001600160a01b03168152600190910190602001808311610b4a575b5050505050905090565b60028181548110610b81575f80fd5b5f918252602090912001546001600160a01b0316905081565b60605f835111610bfb5760405162461bcd60e51b815260206004820152602660248201527f5969656c644f7074696d697a65723a206e6f20737472617465676965732070726044820152651bdd9a59195960d21b6064820152608401610269565b60018260ff1610158015610c135750600a8260ff1611155b610c2f5760405162461bcd60e51b8152600401610269906116e5565b5f835167ffffffffffffffff811115610c4a57610c4a611297565b604051908082528060200260200182016040528015610c73578160200160208202803683370190505b5090505f845167ffffffffffffffff811115610c9157610c91611297565b604051908082528060200260200182016040528015610cba578160200160208202803683370190505b5090505f855167ffffffffffffffff811115610cd857610cd8611297565b604051908082528060200260200182016040528015610d01578160200160208202803683370190505b5090505f5b8651811015610e41575f878281518110610d2257610d22611564565b60200260200101519050806001600160a01b031663d2cbf7ad6040518163ffffffff1660e01b8152600401602060405180830381865afa158015610d68573d5f803e3d5ffd5b505050506040513d601f19601f82011682018060405250810190610d8c919061176f565b848381518110610d9e57610d9e611564565b602002602001018181525050806001600160a01b0316632b35f7396040518163ffffffff1660e01b8152600401602060405180830381865afa158015610de6573d5f803e3d5ffd5b505050506040513d601f19601f82011682018060405250810190610e0a9190611786565b838381518110610e1c57610e1c611564565b60ff909216602092830291909101909101525080610e39816115b3565b915050610d06565b505f865167ffffffffffffffff811115610e5d57610e5d611297565b604051908082528060200260200182016040528015610e86578160200160208202803683370190505b5090505f805b8851811015610f91575f848281518110610ea857610ea8611564565b602002602001015189600b610ebd91906117a1565b610ec791906117ba565b60ff16905080868381518110610edf57610edf611564565b60200260200101511115610f355780868381518110610f0057610f00611564565b6020026020010151610f12919061158c565b848381518110610f2457610f24611564565b602002602001018181525050610f56565b6001848381518110610f4957610f49611564565b6020026020010181815250505b838281518110610f6857610f68611564565b602002602001015183610f7b91906117dd565b9250508080610f89906115b3565b915050610e8c565b505f805b89518110156110275782848281518110610fb157610fb1611564565b6020026020010151612710610fc691906117f0565b610fd09190611807565b878281518110610fe257610fe2611564565b60200260200101818152505086818151811061100057611000611564565b60200260200101518261101391906117dd565b91508061101f816115b3565b915050610f95565b506127108110156110cc575f60015b8a5181101561108f5787828151811061105157611051611564565b602002602001015188828151811061106b5761106b611564565b6020026020010151111561107d578091505b80611087816115b3565b915050611036565b5061109c8261271061158c565b8782815181106110ae576110ae611564565b602002602001018181516110c291906117dd565b90525061116b9050565b61271081111561116b575f60015b8a51811015611133578782815181106110f5576110f5611564565b602002602001015188828151811061110f5761110f611564565b60200260200101511115611121578091505b8061112b816115b3565b9150506110da565b506111406127108361158c565b87828151811061115257611152611564565b60200260200101818151611166919061158c565b905250505b50939450505050505b92915050565b5f546001600160a01b031633146111a35760405162461bcd60e51b81526004016102699061151d565b6001600160a01b03811661120f5760405162461bcd60e51b815260206004820152602d60248201527f5969656c644f7074696d697a65723a206e6577206f776e65722061646472657360448201526c0732063616e6e6f74206265203609c1b6064820152608401610269565b5f80546001600160a01b0319166001600160a01b0392909216919091179055565b80356001600160a01b0381168114611246575f80fd5b919050565b5f6020828403121561125b575f80fd5b61126482611230565b9392505050565b60ff81168114611279575f80fd5b50565b5f6020828403121561128c575f80fd5b81356112648161126b565b634e487b7160e01b5f52604160045260245ffd5b604051601f8201601f1916810167ffffffffffffffff811182821017156112d4576112d4611297565b604052919050565b5f67ffffffffffffffff8211156112f5576112f5611297565b5060051b60200190565b5f82601f83011261130e575f80fd5b8135602061132361131e836112dc565b6112ab565b82815260059290921b84018101918181019086841115611341575f80fd5b8286015b848110156113635761135681611230565b8352918301918301611345565b509695505050505050565b5f806040838503121561137f575f80fd5b823567ffffffffffffffff80821115611396575f80fd5b6113a2868387016112ff565b93506020915081850135818111156113b8575f80fd5b85019050601f810186136113ca575f80fd5b80356113d861131e826112dc565b81815260059190911b820183019083810190888311156113f6575f80fd5b928401925b82841015611414578335825292840192908401906113fb565b80955050505050509250929050565b5f8151808452602080850194508084015f5b8381101561145a5781516001600160a01b031687529582019590820190600101611435565b509495945050505050565b602081525f6112646020830184611423565b5f60208284031215611487575f80fd5b5035919050565b5f806040838503121561149f575f80fd5b823567ffffffffffffffff8111156114b5575f80fd5b6114c1858286016112ff565b92505060208301356114d28161126b565b809150509250929050565b5f8151808452602080850194508084015f5b8381101561145a578151875295820195908201906001016114ef565b602081525f61126460208301846114dd565b60208082526027908201527f5969656c644f7074696d697a65723a2063616c6c6572206973206e6f74207468604082015266329037bbb732b960c91b606082015260800190565b634e487b7160e01b5f52603260045260245ffd5b634e487b7160e01b5f52601160045260245ffd5b8181038181111561117457611174611578565b634e487b7160e01b5f52603160045260245ffd5b5f600182016115c4576115c4611578565b5060010190565b60208082526022908201527f5969656c644f7074696d697a65723a20636f6e74726f6c6c6572206e6f742073604082015261195d60f21b606082015260800190565b5f6040820160408352808554808352606085019150865f5260209250825f205f5b828110156116535781546001600160a01b03168452928401926001918201910161162e565b5050508381038285015261166781866114dd565b9695505050505050565b5f82515f5b818110156116905760208186018101518583015201611676565b505f920191825250919050565b60208082526028908201527f5969656c644f7074696d697a65723a20636f6e74726f6c6c6572207570646174604082015267194819985a5b195960c21b606082015260800190565b60208082526038908201527f5969656c644f7074696d697a65723a207269736b20707265666572656e63652060408201527f6d757374206265206265747765656e203120616e642031300000000000000000606082015260800190565b604081525f6117546040830185611423565b828103602084015261176681856114dd565b95945050505050565b5f6020828403121561177f575f80fd5b5051919050565b5f60208284031215611796575f80fd5b81516112648161126b565b60ff828116828216039081111561117457611174611578565b60ff81811683821602908116908181146117d6576117d6611578565b5092915050565b8082018082111561117457611174611578565b808202811582820484141761117457611174611578565b5f8261182157634e487b7160e01b5f52601260045260245ffd5b50049056fea264697066735822122000f90c644591cc5987b3d030371cdb76768d24a8e9767f68e4ba359838df73c664736f6c63430008140033","linkReferences":{}},"methodIdentifiers":{"addStrategy(address)":"223e5479","calculateOptimalAllocation(address[],uint8)":"ee216f2d","controller()":"f77c4791","getStrategies()":"b49a60bb","isStrategy(address)":"2e8ebaae","optimizeAllocations()":"605b589e","owner()":"8da5cb5b","removeStrategy(address)":"175188e8","riskPreference()":"a8857f88","setController(address)":"92eefe9b","setRiskPreference(uint8)":"88aa60e8","strategies(uint256)":"d574ea3d","transferOwnership(address)":"f2fde38b","updateControllerAllocations(address[],uint256[])":"b227059b"},"id":23}